:100000000AC019C018C017C05DC115C014C013C004
:1000100012C011C010C011271FBFCFE5D0E0DEBF56
:10002000CDBF20E0A0E4B0E001C01D93AE34B20724
:10003000E1F79ED059C1E4CFCF93DF9300D0CDB785
:10004000DEB7CE5FDF4F98838A93C150D040CF5F39
:10005000DF4F49915881C250D040642F752F6150B5
:10006000710BCE5FDF4F78836A93C150D040452B30
:1000700071F70F910F91DF91CF9108954FE041B942
:1000800011988130910711F4129801C0129A8CEFE7
:1000900098E0D2DF119A80EA90E0CEDF129880EAF1
:1000A00090E0CADF4BE041B908954BB7477F4BBFA3
:1000B00048ED4CBF41E241BF089548ED4CBF17BF2A
:1000C0004CBF43E046BF08954BB541604BBD19BDE1
:1000D00018BD4EB54E7F4EBD4EB54D7F4EBD4DB594
:1000E000477F4DBD4DB54F7E4DBD4DB54B7F4DBD91
:1000F0004DB542604DBD4DB54E7F4DBD089581302B
:10010000910749F542A153A14130510751F442B141
:1001100051E0452742B940A151A14F5F5F4F51A91E
:1001200040A942A153A14230510711F413A912A9C9
:1001300040A151A1463051073CF442A153A14F5F69
:100140005F4F53A942A9089544E150E053A942A941
:1001500051A940A9089513A912A911A910A9109A8B
:1001600008954BE041B943E042B9119A139A0895BA
:1001700042E044BF9ADFA1DFA7DFF3DF7894C0E05D
:10018000D0E049E241BF4CA15DA14130510709F0E7
:1001900097C01DA91CA9029911C044A155A1452BC6
:1001A000F9F41BA91AA948A159A1483562E05607DC
:1001B000B8F44F5F5F4F59A948A912C0029B10C005
:1001C00044A155A1452B61F419A918A94AA15BA125
:1001D000483562E0560720F44F5F5F4F5BA94AA99C
:1001E0004AA15BA14430510778F448A159A1443099
:1001F000510750F417A916A915A914A980E090E099
:100200007EDF139AC0E0D0E04AA15BA145305107E0
:1002100030F448A159A14530510708F451C046A116
:1002200057A1452B41F441E050E057A946A9139846
:1002300080E090E023DF71E044A155A1452B09F057
:1002400070E061E046A157A14130510709F060E03C
:100250006723B9F071E04AA15BA14B30510708F464
:1002600070E061E048A159A14B30510708F460E00B
:10027000672B39F041E050E055A944A981E090E0B6
:10028000FDDE44A155A141305107D1F481E090E059
:1002900036DFC83542E0D4074CF442B158E0452778
:1002A00042B9CF5FDF4FC530D10754F0029908C083
:1002B00015A914A919A918A91BA91AA9C0E0D0E069
:1002C000F4DE5FCF1F930F930FB70F9310E04F93A0
:1002D0005F9341E050E05DA94CA95F914F910F9170
:0C02E0000FBF0F911F911895F894FFCFED
:00000001FF
