:020000040800F2
:10000000806100202D2200086B6E0008E5210008A9
:10001000E5210008E5210008E521000800000000B6
:10002000000000000000000000000000251C000887
:10003000E521000800000000D11B0008154300085E
:10004000FD1C0008FD1C0008FD1C0008FD1C00082C
:10005000FD1C0008FD1C0008FD1C0008FD1C00081C
:10006000FD1C0008FD1C0008FD1C0008FD1C00080C
:10007000FD1C0008FD1C0008FD1C0008FD1C0008FC
:10008000FD1C0008FD1C0008FD1C0008FD1C0008EC
:10009000FD1C0008FD1C0008FD1C0008FD1C0008DC
:1000A000FD1C0008FD1C0008FD1C0008FD1C0008CC
:1000B000FD1C0008FD1C0008FD1C0008FD1C0008BC
:1000C000FD1C0008FD1C0008FD1C0008FD1C0008AC
:1000D000FD1C0008FD1C0008FD1C0008FD1C00089C
:1000E000FD1C0008FD1C0008FD1C0008FD1C00088C
:1000F000FD1C0008FD1C0008FD1C0008FD1C00087C
:10010000FD1C0008FD1C0008FD1C0008FD1C00086B
:10011000FD1C0008FD1C0008FD1C0008FD1C00085B
:10012000FD1C0008FD1C0008FD1C0008FD1C00084B
:10013000FD1C0008FD1C0008FD1C0008FD1C00083B
:10014000FD1C0008FD1C0008FD1C0008FD1C00082B
:10015000FD1C0008FD1C0008FD1C0008FD1C00081B
:10016000FD1C0008FD1C0008FD1C0008FD1C00080B
:10017000FD1C0008FD1C0008FD1C0008FD1C0008FB
:10018000FD1C0008FD1C0008FD1C0008FD1C0008EB
:10019000FD1C0008FD1C0008FD1C0008FD1C0008DB
:1001A000FD1C0008FD1C0008FD1C00087BB972B98D
:1001B0000029BEBF00204FF0004106E008BF002824
:1001C0001CBF6FF000414FF0FF3000F0BFB9ADF140
:1001D000080C6DE904CE002909DB002B1ADB00F0C6
:1001E0004DF8DDF804E0DDE9022304B07047404239
:1001F00061EB4101002B1BDB00F040F8DDF804E06F
:10020000DDE9022304B0404261EB4101524263EB5D
:1002100043037047524263EB430300F02FF8DDF8CD
:1002200004E0DDE9022304B0404261EB4101704784
:10023000524263EB430300F021F8DDF804E0DDE90E
:10024000022304B0524263EB4303704753B94AB9E7
:10025000002908BF00281CBF4FF0FF314FF0FF30CE
:1002600000F074B9ADF1080C6DE904CE00F006F8A9
:10027000DDF804E0DDE9022304B070472DE9F04722
:10028000089E0D4604468846002B4DD18A4294466E
:1002900068D9B2FA82F252B101FA02F3C2F1200136
:1002A00020FA01F10CFA02FC41EA030894404FEAFB
:1002B0001C45210CB8FBF5FE1FFA8CF705FB1E83CD
:1002C00041EA03430EFB07F199420BD91CEB0303F0
:1002D0000EF1FF3080F01E81994240F21B81AEF199
:1002E000020E63445B1AA4B2B3FBF5F005FB1033B6
:1002F00044EA034400FB07F7A7420AD91CEB0404B5
:1003000000F1FF3380F00881A74240F20581644488
:100310000238E41B40EA0E4000211EB1D440002305
:10032000C6E90043BDE8F0878B4208D9002E00F0F3
:10033000EE800021C6E900050846BDE8F087B3FA63
:1003400083F100294AD1AB4202D3824200F2F98004
:10035000841A65EB030301209846002EE2D0C6E91B
:100360000048DFE702B9FFDEB2FA82F2002A40F06D
:100370009180A1EB0C054FEA1C471FFA8CFE01216E
:10038000B5FBF7F307FB1350250C45EA00450EFBC0
:1003900003F0A84208D91CEB050503F1FF3802D28F
:1003A000A84200F2CB8043462D1AA4B2B5FBF7F069
:1003B00007FB105544EA05440EFB00FEA64508D98C
:1003C0001CEB040400F1FF3502D2A64500F2BB800D
:1003D0002846A4EB0E0440EA03409EE7C1F1200743
:1003E0008B4022FA07FC4CEA030C20FA07F405FACA
:1003F00001F31C43FD404FEA1C4900FA01F3B5FB31
:10040000F9F8200C1FFA8CFE09FB185540EA054547
:1004100008FB0EF0A84202FA01F20BD91CEB05050D
:1004200008F1FF3A80F08880A84240F28580A8F168
:10043000020865442D1AA4B2B5FBF9F009FB10556A
:1004400044EA054500FB0EFEAE4508D91CEB050548
:1004500000F1FF346CD2AE456AD90238654440EAF7
:100460000840A0FB0294A5EB0E05A542C846A6468F
:1004700056D353D05EB1B3EB080265EB0E0505FA17
:1004800007F722FA01F3CD401F43C6E900750021AA
:10049000BDE8F087C2F1200320FA03F10CFA02FC58
:1004A00025FA03F395400D434FEA1C471FFA8CFED3
:1004B000B3FBF7F107FB11302B0C43EA004301FBC0
:1004C0000EF0984204FA02F408D91CEB030301F180
:1004D000FF382FD298422DD9023963441B1AADB28E
:1004E000B3FBF7F007FB103345EA034500FB0EF3BF
:1004F000AB4208D91CEB050500F1FF3816D2AB4220
:1005000014D902386544ED1A40EA014138E7314612
:10051000304607E78646E5E61846FAE64B45A9D297
:10052000B9EB020864EB0C0E0138A3E74046EAE79A
:10053000204694E74146D1E7D0467BE7023B65443D
:1005400032E7084609E76444023842E7704700BFD3
:1005500000B585B04921114806F091FB00F03CF848
:1005600001A800F045FC0E4B1B68834204D04521D6
:100570000C4806F084FBFEE7039A49210A4806F07E
:100580007EFB4921094806F07AFB01A805F025FE0B
:100590004521074806F073FBFEE700BF44A60008AC
:1005A000D819002060A6000884A60008B4A6000898
:1005B000DCA6000808B520B94FF000630B600020EE
:1005C00008BD024600234521024806F058FB6FF0A3
:1005D0001500F5E700A7000808B54FF4C051024820
:1005E00004F08AFC08BD00BFD801002070B5A4B09B
:1005F00020292AD806460D46002400E00134144B79
:100600001B68A3421CDD09A809F00DF9002109A807
:1006100004F0A0FD0F4B03EBC4025268126853F8BC
:10062000341009A809F005F901A909A809F044F94D
:100630002A46314601A806F086FC0028DED101E0FA
:100640004FF0FF34204624B070BD4FF0FF34F9E77F
:1006500028A700082CA700082DE9F041D6B01546C0
:100660001F465A4CD4F800805F9C04945E9C03940F
:1006700006AC02945D9C01945C9C009405F0DBFD4B
:100680000446002840F08580609B23B1202206A903
:10069000184606F06AFC002300934FF6FF733A46B3
:1006A00029464EA805F006FE0446002871D14546AD
:1006B0004FF0FF361CE04FF0FF3619E04FF0FF36E9
:1006C00016E0BDF85231202B77D10EAA5599384645
:1006D00006F0E4FA0446002861D120220EA906A8FB
:1006E00005F05CFF05463A4B1B68834259D1012453
:1006F00054AB0DF5A97255A94EA805F040FE00288F
:1007000045DB37DCBDF850111029DAD0012920D0A3
:100710002029EDD1002ECEDB2E4B1B68B342CDDD60
:10072000BDF85231B3F5807F4DD10EAA55993846A8
:1007300006F0B4FA002839D1F6B20096BDF852316D
:100740000EAA202106A800F0B9F880464FF0FF3627
:10075000CEE7BDF85231202B32D80EAA5599384633
:1007600006F09CFAF8B99DF852110EA8FFF73EFF6B
:100770000646BDE7002C0CBF0124002419D0144B01
:100780001B68434517D0114BD3F8008001E0A84601
:10079000044604B94446204656B0BDE8F081A84658
:1007A000F7E78046F5E7A8460446F2E7A846044680
:1007B000EFE7A846EDE79846EBE74FF0FF34EAE7AE
:1007C0004FF0FF34E7E74FF0FF34E4E7000000208C
:1007D000D819002028A7000830B5ADF51D7D0D46BD
:1007E00019464368B3F5807F51D1202A52D141AADE
:1007F00004F06EFC044600284FD19DF80332BC2B58
:100800004ED10DF2E31109A805F067FE234608E07A
:1008100041AAD25C09A810F803C082EA0C02C254B3
:100820000133DE2BF4DD9DF8243003F07F038DF8D7
:100830002430BD2C05DC09AB1B5D002B33D101340A
:10084000F7E79DF8E230012B32D181A808F0EBFFE9
:10085000002181A804F07EFC0822174981A808F035
:10086000E8FF2022294681A808F0E3FF20220DF1AD
:10087000E30181A808F0DDFF01A981A809F01CF8B7
:1008800020220DF2E31101A805F088FE0DE04FF0E3
:10089000FF300AE04FF0FF3007E04FF0FF3004E098
:1008A0004FF0FF3001E04FF0FF300DF51D7D30BD02
:1008B0004FF0FF30F9E700BF34A700082DE9F047FB
:1008C000ACB006460F4690461D469DF8D0A0144B8E
:1008D000D3F8009001A808F062FF124C54F83A30A7
:1008E000009304EBCA04626812681A44694601A8BE
:1008F00005F0A1FD10B9029BAB4209D001A808F098
:100900005AFF01A808F057FF48462CB0BDE8F08711
:1009100043463A46314601A8FFF75EFF8146F0E7BD
:10092000000000202CA7000808B51022034906F09B
:100930000AFB08B1022008BD0120FCE71CBD00082D
:1009400002680B4B9A420ED1C2680389D843824297
:1009500003D802EB030C012000E0002010B18B68EB
:10096000634502D97047002070470020FAE700BFB6
:100970003DB8F39600B587B013460020049003906D
:1009800002904FF480720192044A00920A46014696
:10099000FFF762FE07B05DF804FB00BF4836002099
:1009A0002DE9F04182B005460C46174623480668FB
:1009B000002005F030FC01A9C0B201F02FF818B1F9
:1009C000304602B0BDE8F0812C2000FB04582146DF
:1009D000284605F0C0FE20B1D8F8103013F0100FF3
:1009E0000AD024B90126019806F057F9E8E70199E1
:1009F000284605F0B9FFF5E73B46019A41462846EF
:100A0000FFF7B8FF0646019D29464046FFF798FFCD
:100A100018B10B4B1B68B342E5D03CB964B9094A25
:100A20004521094806F02BF90126DCE7AA680021D8
:100A3000284606F069F9F1E7044AF1E700000020D2
:100A4000D819002048A7000850A700083CA70008B4
:100A500070B505460E46002004F09EFC04460228B0
:100A600005D0042803D0032801D0204670BD3246AB
:100A700001212846FFF794FF044B1B688342F4D002
:100A8000012801D00524F0E70446EEE7D81900203C
:100A900030B583B005460C46002300930193084609
:100AA00005F0F6FE30B32A68194B9A4216D0EA6A6E
:100AB000174B9A4218D0019B009A934200D9009399
:100AC000009BA360009A2146284600F02BFC114BA6
:100AD0001A68002A16DC002003B030BD6A460021E7
:100AE000284605F0E1FDE2E701AA0121284605F0CC
:100AF000DBFDE0E704F10801002005F07DFDA368BF
:100B00000093DFE75721044806F0B9F8E3E700BF98
:100B10003DB8F3964837002078A7000838B504465A
:100B20000D46FFF7B5FFEB7984F86430033BDBB289
:100B3000012B0BD9EB79022B11D0042B0FD0032BF7
:100B40000DD094F86430FF2B12D038BD002005F092
:100B5000BBFF0028EED0FF2384F86430EAE70020D2
:100B600005F09FFF0028ECD0FF2384F86430E8E70D
:100B70004521024806F083F8FEE700BFA8A7000859
:100B800070B504460D4605F035FE58B106464FF4E3
:100B9000807257212D4806F072F8012384F86430E2
:100BA0009E420CD000221146204605F040FE38B986
:100BB000204600F099FA60B9012384F8643070BDD2
:100BC00000225721224806F05AF8012384F86430A5
:100BD000F5E7284605F052FE2946204605F01EFF9F
:100BE00098B9284605F054FEC0B1EB79012B22D00C
:100BF0002A4601212046FFF7D3FE164B1B68984278
:100C000020D0052384F86430D9E700225721124808
:100C100006F035F8012384F86430D0E729462046F1
:100C2000FFF77CFF2A460021204605F000FE012345
:100C300084F86430C3E729462046FFF709FF84F8AB
:100C40006400BCE7EB7984F86430B8E7B4A7000827
:100C5000F8A70008D819002024A800082DE9F84FAB
:100C6000884691461F46DDF828A00B9E00250FE020
:100C700023460F4AE919404606F010F8A0B923466A
:100C80000B4A05EB0A01484606F023F870B92544E3
:100C9000B54206D2741BB4F5806FE9D94FF4806475
:100CA000E6E70020BDE8F88F0120FBE70120F9E727
:100CB000481A0020F0B585B004460F463E4B1E682A
:100CC0003E4B43623E4B03653E4BC36500250CE043
:100CD0002946002005F09FFA2C2305FB03F320335F
:100CE000E118C0B200F09AFE0135012DF0D904F1EF
:100CF0005801032000F092FE054669462046FFF7A2
:100D00003FFF94F864308DF80730042B2DD8022B68
:100D100037D2012B3BD194F86430FF2B3BD0012B11
:100D200006D06A460021204605F081FD0546A0B99F
:100D3000002211462046FFF733FE0646224B1B6871
:100D400098420AD1204605F08DFC054628B90021BD
:100D5000204605F085FC054610B3204605F091FCC1
:100D600005B93546284605B0F0BD052B0FD100204A
:100D700005F0AAFE05460028CDD0FF2384F8643094
:100D8000C9E76946204605F094FD0546C3E7FF2301
:100D900084F86430BFE745210C4805F070FFFEE79A
:100DA00010220021684606F00FF93946204605F06A
:100DB00059FD054B1E68D0E700000020481E0020AA
:100DC000482E002048260020D8190020A8A7000897
:100DD00008B520B16C22002106F0F6F808BD6C229F
:100DE0000021024806F0F0F8F8E700BFDC19002007
:100DF00010B504460020FFF7EBFF21460148FFF73E
:100E000059FF10BDDC1900202DE9F04188B00F46D4
:100E100016461D46536A53F830201B68A2EB0308A0
:100E2000B06E05F0C3FBB36A03F1FF3C726A02EBDC
:100E3000CC035C68844234D308EB070152F83C30A1
:100E400012689B1A99422FD93C1A2B68012B2DD07E
:100E50000023AB7107A9012000F0E0FD06A90220E4
:100E600000F0DCFD05A9032000F0D8FD2B79012B53
:100E700022D02B79022B54D02B79032B77D00798D3
:100E800005F00BFF069805F008FF059805F005FF33
:100E900008B0BDE8F0810CF1FF3C02EBCC035B68CD
:100EA0001C44A042F7D8C7E73C46CEE7A74201D092
:100EB0000123CEE70023CCE705988268002105F0E6
:100EC0004FFD2B68012B15D001940023009343465E
:100ED000059A06993046FFF7C1FE2946304605F0CF
:100EE00009FD02232B710028C3D04E4A1368013339
:100EF0001360BEE72A460599304605F06DFDAB79D3
:100F0000002BE1D10799304605F02EFD2A460799BE
:100F1000304605F061FD05988268002105F020FD4E
:100F2000D2E73A464146069805F01AFD0194CDF8FD
:100F300000804346069A07993046FFF78FFE2B68DC
:100F4000012B0CD02946304605F0D4FC03232B712D
:100F5000002891D0334A1368013313608CE7AB79D2
:100F6000002BEFD10699304605F0FEFCEAE73A4641
:100F70004146079805F0F4FC0194CDF80080002369
:100F8000079A05993046FFF769FEAB79CBB9AC7982
:100F90000023AB712946304605F0ACFC2B680133C9
:100FA0002B6001232B7118B11E4A136801331360A3
:100FB000002C3FF464AF3A460021059805F0D0FCC0
:100FC0005DE7059805F009FB0346B26E52000192F9
:100FD00044440094079A05993046FFF73FFE18B144
:100FE000104A13680133136003A9059808F09CFDAB
:100FF0009DF80F30012B0BD09DF80D1001290BD15E
:10100000A968079805F01CFB079804F0A5F9BEE74E
:10101000079808F078FDEFE70022079808F0E9FD4F
:10102000EEE700BF483700202DE9F04F83B00546BA
:101030008A46914605F0D1FA80462946002005F0FF
:10104000BAFA071E44DB0024A346264607E026B171
:10105000BBF1000F02D033461FE001260134A74246
:101060001ADDDAF8681001230DF1070201FB048193
:10107000284605F013FE00282CDB01220DF10701A4
:10108000284608F0D3FC0028E1D0002EE6D0BBF1C2
:10109000000FE3D1A346E1E70023A3B9DEB1BBF122
:1010A000000F00D05C460E4B83FB0423A3EBE473DC
:1010B0005A1CC9F8002003EB4303E41A013489F8F1
:1010C0000440002607E04521064805F0D8FDE5E785
:1010D000072600E00126304603B0BDE8F08F00BFD0
:1010E0005655555550A800082DE9F843846AD0F8A4
:1010F0005480B4F5807F0DD8B8F5807F0AD8836D11
:101100009F684FF0000EF44671467646754672466B
:10111000734619E05721344805F0B1FD0020BDE8C1
:10112000F883D0F8249009EBC109D9F804904B4416
:10113000D0F8509009EBCC09D9F804904A44013119
:101140000CF1010C9A4230D08C4201D8E0453DD9D7
:101150009A42E6D09A4213D9D0F8249009EBC109FB
:10116000D9F804904B44BEF1020F03D001314FF087
:10117000010EE7E757211D4805F081FD0020CEE76D
:10118000D0F8509009EBCC09D9F804904A44BEF14C
:10119000010F04D00CF1010C4FF0020ED2E75721E1
:1011A000124805F06CFD0020B9E71D4416449F422B
:1011B00006D3974204D34FF0000E72467346C3E73E
:1011C00057210B4805F05BFD0020A8E78C4203D1B6
:1011D000E04501D1AE4205D05721064805F04FFD4C
:1011E00000209CE701209AE774A80008A4A8000842
:1011F000DCA8000814A9000810B588B004A90120D3
:1012000008F0E2FC06A9032008F0DEFC9DF810308F
:10121000012B29D0032B25D0354B9DF811209DF8AB
:1012200012109DF81300029001910092314A492159
:10123000314805F024FD9DF81830012B18D0032B00
:1012400014D02B4B9DF819209DF81A109DF81B0007
:10125000029001910092294A4921274805F00FFD8B
:10126000002413E0264BD8E7264BD6E7244BE9E7CA
:10127000244BE7E7244A00E0244A4921244805F0AA
:10128000FEFC204632E0234AF7E70134032C28D83D
:101290009DF81010204B13F8240008F0B8FB00282C
:1012A000F3D01D4B03EB84039DF81810587808F019
:1012B000AEFB0028E9D0184B03EB84039B78042B8A
:1012C00003D09DF812209342DFD1134B03EB84042B
:1012D000E478002CD0D0012CD5D0022CCAD00F4AF3
:1012E000CBE749210E4805F0CAFC002008B010BD2C
:1012F00044A900088CA900089CA90008E0A90008DE
:1013000050A9000848A900087CA9000858A90008AD
:10131000E8A9000860A9000844AA000868A9000814
:1013200000AA000870B582B005460E461446492151
:101330001D4805F0A4FC4FF0000C63466046614672
:1013400001E0013101309C4201D89C4504D96A6A10
:1013500002EBC10252681344644501D89C4504D293
:101360002A6D02EBC002526894449C42E9D864455D
:10137000E7D89C45E5D1002402E001990139013408
:1013800000290EDB01AA284605F0BEFB3368013BAD
:101390009C42F2D333462A4601460198FFF734FDBA
:1013A000EBE702B070BD00BF18AA000808B5024BF9
:1013B0001B68984708BD00BF04000020014B18605F
:1013C000704700BF0400002000B583B002460B4602
:1013D00000210091024800F073F803B05DF804FBAF
:1013E000AD13000870B516461C46022A8CBF0022B9
:1013F0000122851A61F1000100294ADB4FF4C8720D
:1014000000232846FEF7D2FE8C46294A02FB005EE6
:10141000022E4BD96FF00201314401EBC10101EB07
:1014200001118A1C2349A1FB023204EB92044FEA0A
:101430009E0240F26D1303FB0E221F4BA3FB0E3ED8
:10144000A2EB5E1E0EEB04024FEACC0141EA5071A2
:10145000C3001B184CEB0101090141EA13711B0188
:101460001B184CEB0101090141EA13711B01181A09
:1014700061EB0C018C0144EA90648301181A64EB5F
:101480000101821841F100010C48101861F10001BE
:1014900070BD6FF4C77028184FF4C8724FF0000386
:1014A00061F10001FEF782FE8C46AEE70921B3E749
:1014B00070FEFFFFCDCCCCCC1F85EB519405F5FF22
:1014C0002DE9F04F8FB005468A46079302F1FF3BA6
:1014D000002475E220460FB0BDE8F08F0BF1020B3F
:1014E0000020014603904FF0FF33019302939BF8D5
:1014F00000301A467A2B00F21282DFE813F07B00EC
:10150000100210021002100210021002100210024B
:10151000100210021002100210021002100210023B
:10152000100210021002100210021002100210022B
:1015300010021002100210021002100210027302B8
:1015400010021002730210027D001002100210023D
:101550001002AF00730210027002820010028900B4
:1015600093009300930093009300930093009300E3
:10157000930010021002100210021002100210025A
:1015800010021002100210021002100210021002CB
:1015900010021002100210021002100210021002BB
:1015A00010021002100210021002100210028E012E
:1015B000100210021002100210021002100210029B
:1015C000100210020202DB00100210021002C4001E
:1015D000DB0010021002C4001002100210028E0183
:1015E00010021002F0011002DB00100210028E0146
:1015F0001002C40020466EE751462520A84701345A
:10160000DEE1039B03F0FE0303930023019313E049
:10161000029B002B06DA019B002B03DA039B002BB5
:1016200000F0E281019B002B09DB03EB830302EB5B
:101630004302A2F1300301930BF1010B57E7029B28
:10164000002B08DB029B03EB830302EB4302A2F1B6
:1016500030030293F0E700230293F3E7019B002B92
:1016600005DB079B1A1D07921B680193E4E7079BA4
:101670001A1D07921B680293002BDDDA5B4202936E
:1016800002230393D8E7682B0BD06C2B0ED059B1F3
:1016900051462520A84751469BF80000A847023430
:1016A0008EE16829F1D148231946C5E76C29EED1AE
:1016B0004C23F9E77A290ED06C296BD04C297AD0CB
:1016C000752B00F09080079B1A1D07921B681F4620
:1016D0004FEAE37808E0752B55D0079B1A1D079257
:1016E0001B681F464FEAE3789BF80030752B02D049
:1016F000B8F1000F7EDB202800F085802B2800F059
:101700008780A54E4FF00009CDF814B006940A2248
:10171000002338464146FEF799FDCDF8109009F1B7
:10172000FF3930320DF1350303F80920BB4644463A
:101730000A22002338464146FEF788FD07468846C0
:10174000BBF10A0F74F10003E1D2DDF814B0069C7E
:10175000049BC3F10108143308AAD3180493019B16
:10176000002BC0F2EF80029BA3EB0807019AA2EBCB
:101770000809B9F1000F00DD9F1A039B13F0020F57
:1017800040F0F380EAE0079B1A1D07921F684FF0B4
:101790000008A9E7752B07D0079B1A1D07921B6845
:1017A0001F464FEAE3789FE7079B1A1D07921F68C1
:1017B0004FF0000898E7752B0AD0079B073323F0FA
:1017C000070303F1080207921F685B6898468BE7DE
:1017D000079B073323F0070303F1080207921F68F2
:1017E000D3F8048080E7079B1A1D07921F684FF00B
:1017F000000879E77E42374668EB4808029B013BC8
:101800000293664E7EE7029B013B0293644E79E7AA
:10181000029B013B0293634E74E7702B0ED1079B32
:101820001A1D07921B681A46002123BB4FF00508BA
:10183000002301935C4B0493574E90E76C290AD028
:101840004C290ED0079B1A1D07921A6800212328E5
:1018500011D0514E18E0079B1A1D07921A680021FB
:10186000F5E7079B073323F0070303F1080207920C
:101870001A685968EBE79BF8003013F0200F0BD083
:101880004A4E029B023B02939BF8007007F06007F0
:10189000393F4FF0000E14E0454EF2E70EF1FF30F5
:1018A00030330DF1350C0CF80030130943EA0173A5
:1018B0004FEA111C102A71F1000208D386461A461D
:1018C000614602F00F03092BE8D93B44E6E7CEF16D
:1018D00001080EF1140308AAD31804933FE7079BED
:1018E0001A1D07921B680493184605F023FB8046D7
:1018F000019B002B1CDB83421EDB00230193264E41
:101900002DE7079B1A1D07921B688DF820304FF0BA
:1019100001080023019308AB04931F4E1FE75146B3
:101920002520A84751469BF80000A847023447E00D
:1019300000230193184E12E7DDF804800023019381
:10194000154E0CE7039B13F0010F3FF40CAF029B05
:10195000019308E751462020A8470134013FF9D5FB
:1019600003E001365146A847013430780028F8D109
:1019700003E051463020A8470134B9F10109F8D5F8
:10198000049E04E0514616F8010BA8470134B8F153
:101990000108F7D512E000BF5CB000087CAB00087E
:1019A00080AB000884AB000890AB00088CAB00084B
:1019B00088AB000851462020A8470134013FF9D5E3
:1019C0000BF101069BF8010025283FF487AD0028A4
:1019D0003FF480AD5146A8470134B346F0E70223F7
:1019E000039329E6184627E60123039324E600BF64
:1019F0004FF01002EFF3118382F31288BFF36F8F61
:101A000083F31188BFF36F8F024B034A1A600020E3
:101A1000704700BF6000002000093D00134B1B68A9
:101A2000F3B170B50D46002300E00133104A12688F
:101A3000934208DA1A010D490C6804EB0316A25C04
:101A40009042F2D100E000266EB1F06828B108F0B3
:101A5000E2F810B12E60002070BD6FF01200FBE7BD
:101A60006FF00C0070476FF00100F5E708000020F0
:101A7000ECAB000800B58BB003AB0093024B05F054
:101A8000A5F90BB05DF804FB916D00080149102227
:101A90000A60704710ED00E072B6404080F3118894
:101AA000BFF36F8FBFF34F8F30BF62B6BFF36F8F3F
:101AB000704700BF10B582B0044683680093436846
:101AC000026845210B4805F0DAF863690093236941
:101AD000E2684521084805F0D2F8E2694521074847
:101AE00005F0CDF8A2694521054805F0C8F802B017
:101AF00010BD00BFF0AB000824AC000858AC0008D3
:101B00006CAC000840B2002807DB00F01F0240095F
:101B100001239340014A42F82030704700E100E081
:101B2000013140B2002808DB0901C9B200F1604070
:101B300000F5614080F80013704700F00F000901C4
:101B4000C9B2014B1954704714ED00E030BFFFF7E4
:101B5000FDBF00BF08B50F4B0F4A22F07F029A600D
:101B6000BFF34F8FBFF36F8FD3F8882022F470023A
:101B7000C3F88820EFF3148323F0040383F314885D
:101B8000BFF36F8F03F094FD04F0A8F900F034FB6D
:101B900003F0ECFD00ED00E000000008094A936846
:101BA000586709490968996708494B6843F08053A9
:101BB0004B60002383F31188BFF36F8F9368986F96
:101BC000704700BF2839002054BD000800ED00E038
:101BD00012498A684FF030001044EFF3098C80E816
:101BE000F01F102080F31288BFF36F8F0C4F4FF05F
:101BF00000668A698A603E60506F0023536780F3F5
:101C0000118804B5104600F04FFBBDE8044002F116
:101C1000300090E8F01F8CF30988704728390020C5
:101C200004ED00E01EF0040F0CBFEFF30880EFF3AB
:101C30000980816911F8021C0229FFD001B505F065
:101C400008F901BD10B4A2F120040D4942F8081CA6
:101C500021F0010142F8081C42F8203C019B42F8A7
:101C60001C3C029B42F8183C039B42F8143C4FF08A
:101C7000807342F8043C04650023436710BC70473E
:101C8000A36B0008114B9A68EAB110F1160F10D03F
:101C9000536EA3F1400C844505D8834205D98B428D
:101CA00005D800210AE0002108E0002106E001211A
:101CB00004E0536E8B4294BF0021012109B900203A
:101CC0007047506E70470020704700BF28390020D1
:101CD00008B50D461446084B986000F0E5FA20461A
:101CE00085F30988002163B681F31188BFF36F8FF4
:101CF0000022002304F055FF2839002001B5EFF33E
:101D00000580A0F110004FEAC0000449014409C950
:101D10009847BDE8014002490847000044A2000876
:101D2000251D0008044B99689869884203D003492F
:101D30004FF080520A6070472839002004ED00E01F
:101D400070B505460E46144645212E4804F097FF0F
:101D50002D4B9B6A13F4805F24D12B4B9B6A13F4A9
:101D6000006F24D1284B9B6A13F4007F24D1264BAB
:101D70009B6A13F4806F35D1234B9B6A13F4807FE9
:101D800035D1214B9B6A13F4005F35D11E4A936A0B
:101D900043F47F4393620121284605F06CF82070DC
:101DA000002070BD4521194804F069FFD5E74521A1
:101DB000174804F064FFD5E74521164804F05FFF9B
:101DC000114B9A6B9B6A13F4004FD0D045211248F7
:101DD00004F055FF002ECAD00B4A936A23F4004347
:101DE0009362C4E745210D4804F049FFC4E745214B
:101DF0000B4804F044FFC9E745210A4804F03FFFBF
:101E0000C4E700BFA0AC000800ED00E0BCAC0008D7
:101E1000D4AC0008ECAC00080CAD000828AD0008FC
:101E200048AD000868AD000808B54521234804F016
:101E300026FF234B9B6A13F0007F21D1204B9B6A26
:101E400013F0807F21D11E4B9B6A13F4002F21D108
:101E50001B4B9B6A13F4802F21D1194B9B6A13F4FF
:101E6000003F21D1164B9B6A13F4803F21D1144AC5
:101E7000936A6FEA03436FEA13439362002008BD3D
:101E80004521104804F0FBFED8E745210E4804F038
:101E9000F6FED8E745210D4804F0F1FED8E74521CC
:101EA0000B4804F0ECFED8E745210A4804F0E7FEB1
:101EB000D8E74521084804F0E2FED8E79CAD0008C9
:101EC00000ED00E0BCAD0008D4AD0008F4AD0008A2
:101ED00018AE000844AE000864AE000808B5002340
:101EE0000B704521014804F0CAFE08BD94AE0008FD
:101EF00008B50F2907DC054AA1F110034521044864
:101F000004F0BDFE08BD034AF6E700BFDCAE0008E2
:101F1000F4AE0008C0AE0008F8B505460C461646FB
:101F200045213E4804F0ABFE3D4B9B6A13F0100F79
:101F30003AD13B4B9B6A13F0080F3AD1384B9B6A5E
:101F400013F0020F3AD16FF01507354B9B6A13F06F
:101F5000010F4DD1324B9B6A13F0200F4DD1304B06
:101F60009B6A13F0100F04D12D4B9C6A14F00204ED
:101F700004D02B4B5C6814F4006443D1284B9B6A5B
:101F800013F0200F04D0264A536A23F400535362FF
:101F900023498B6A43F0FF038B620121284604F03A
:101FA0006AFF30702046F8BD45211E4804F067FEE8
:101FB000BFE745211C4804F062FEBFE745211B48EE
:101FC00004F05DFE164B5F6B9B6A13F0800F02D12D
:101FD0006FF01507B9E73A464521154804F04FFE62
:101FE000002CB2D00E4A936A23F080039362ACE7D0
:101FF0004521104804F043FEACE745210E4804F0AB
:102000003EFEACE729463846FFF73CFE0446002872
:10201000B4D080F309880224B0E700BF0CAF0008F9
:1020200000ED00E028AF0008D4AC000860AF000865
:1020300080AF00089CAF000868AD000870B5064688
:102040000D464521344804F01AFE00232B70334B13
:10205000DC6A14F002040AD1304BDB6A002B0CDB83
:102060002E4BDC6A14F080440CD1204670BD452113
:102070002B4804F004FE0024F7E74521294804F02A
:10208000FEFDF2E74521284804F0F9FDB169234B34
:102090005A6942F480725A61BFF34F8FBFF36F8F5A
:1020A00031F8021C5A6922F480725A61BFF34F8FD3
:1020B000BFF36F8F4DF60273994216D00023B3B968
:1020C000164B9B6A13F0FF0F18D1144B9B6A13F445
:1020D0007F4F1AD1114B9C6A240C2404002CC4D0CD
:1020E0003046FFF7A1FE0446BFE70123E7E7326869
:1020F00045210E4804F0C3FD3468B6E72A460121A5
:102100003046FFF709FF0446AFE72A460121304673
:10211000FFF716FE0446A8E7C0AF000800ED00E098
:10212000DCAF000804B0000818B000083CB000089C
:1021300070B58AB0254B5D68C5F30805002383F3AD
:102140001188BFF36F8F02F07F43B3F17F4F1ED131
:1021500002F00C03082B10D012F0080F14D00C461C
:1021600000260DF127022946204604F086FE05468A
:102170009DF8273073B10AB070BD4521144804F0B2
:102180007EFD00263446ECE704460126E9E70026FA
:102190003446E6E72022214601A804F0E6FE4EB1CF
:1021A000089BC3F308025AB96FEA53236FEA43232B
:1021B000089305E0089B23F4FF7323F001030893C1
:1021C00001A9284604F039FED5E700BF00ED00E084
:1021D00060B00008024A536943F01003536170472E
:1021E00000ED00E0EFF30880EFF3098101B57246DE
:1021F000FFF79EFF01BD00BF002207E003F160432F
:1022000003F56143102183F8001301325A2A09DCD7
:1022100053B2002BF2DA02F00F01034B0B441021F2
:102220001976F2E7704700BFFCEC00E0102080F365
:10223000118808484FF40461401880F30988EFF3CF
:1022400014800221084380F31488BFF36F8FFFF7D7
:1022500081FC00004063002008B50A4B9B68834264
:1022600002D003F003FE08BDEFF30583002BF8D086
:10227000054B5A6842F080525A605A6A22F4004272
:102280005A62EEE72839002000ED00E008B5034B64
:10229000034A0121034804F045FE08BD0000052063
:1022A0000000002094B0000808B5436E403B05488C
:1022B000036040234360044B8360012104F036FE39
:1022C00008BD00BF4C37002000000B15084AC2F8BB
:1022D00098000B6823F01F03034343F01003C2F878
:1022E0009C308B6843F00103C2F8A030704700BFF8
:1022F00000ED00E010B50446072803D8FFF7E6FF1D
:10230000204610BD02464521024804F0B8FC6FF09B
:102310001500F6E7A0B000082DE9F84380460F4607
:1023200099461646002509E02146F0B204F0DBFD8F
:10233000064610F1160F19D001360135BD4215DAE7
:1023400005EB450408EB84046268002AF5D0B9F176
:10235000000FE9D0204604F0B5FD0028E4D12A465C
:102360004521044804F08BFC6FF015063046BDE8AB
:10237000F88300BFCCB0000810B5034C01232278CD
:10238000FFF7CAFF207010BD5C39002008B500239C
:10239000094A1278FFF7C0FF10F1160F0AD0034662
:1023A00006E0064AC2F898300021C2F8A0100133B6
:1023B000072BF6DD08BD00BF5C39002000ED00E012
:1023C000044B0522C3F89420BFF34F8FBFF36F8FE8
:1023D000704700BF00ED00E0BFF35F8F024B0022AB
:1023E000C3F89420704700BF00ED00E038B50E4BF5
:1023F0001D68082D15D8FFF7EFFF002409E00A4BF0
:10240000596804EB4402930019442046FFF75EFF2D
:102410000134A542F3D8054B1D70FFF7D1FF002012
:1024200038BD4FF0FF30FBE704B100085C390020F5
:10243000014B1860704700BF0C000020F8B505463E
:102440000E46144610F1040F71F1FF336FDB0430B8
:102450004FF007024FF0000341F10001FDF7A6FE27
:10246000A2614A4FEF1946F1000100296ADB484A90
:1024700000233846FDF79AFE464B03FB00739A088B
:10248000454EA6FB0215A3EBD5154449A1FB02124C
:1024900005EBD2251A094249A1FB0212A5EB121540
:1024A0004049A1FB05216A1A01EB5201090A00EB20
:1024B000400200EBC20201EB02123B48A0FB010C00
:1024C000A808A6FB0060C00940F26D1606FB0100DB
:1024D000C0EB5C10184400EB80060236334BA3FBC4
:1024E000063C4FEADC1C0CEBCC0303EB031302337A
:1024F0002F4FA7FB0373A0EB9303013340F2F9576F
:10250000BE4229D84FF0030EF444BCF1020F98BF2D
:102510000132A2F26C7262610CF1FF322261E3605F
:10252000B0F5997F1BD3A0F59970E061F8BD053037
:102530004FF007024FF0000341F10001FDF736FEB6
:1025400006328DE71B482818114A4FF0000346F168
:102550000001FDF72BFE8FE76FF0080ED4E711F0B6
:10256000030F07D1104BA3FB01235B09642202FB7D
:1025700013133BB9B5F5B67F06D8012318443B3099
:10258000E061D3E70123F9E70023F7E76CFA0A00DB
:10259000B13A02004FC5FDFFD97CC6597F206B3987
:1025A00041D6720061F319671F85EB51D7802BD696
:1025B000CDCCCCCCBCBF0800F8B50D460468416852
:1025C000002928DB1A4A00232046FDF7EFFD0646C6
:1025D0000F46184B03FB064424220021284604F032
:1025E000F3FC2A4630463946FFF728FF124BA3FB7F
:1025F0000423DB0AAB604FF4616202FB13440F4B10
:10260000A3FB04235B096B60C3EB0313A4EB8304FC
:102610002C602846F8BD0A482018054A4FF00003F0
:1026200061F10001FDF7C2FD06460F46D1E700BF8C
:102630008051010080AEFEFFC5B3A29189888888D1
:1026400081AEFEFF70B504460D46166902E0012218
:102650000CE00134AC4217DA1F2CFADC0123A34052
:102660000A4A526933EA0202F1D00022002AF0D06D
:10267000064A536156F83430002BEAD006EBC40208
:10268000516820469847E4E770BD00BF0004014050
:1026900008B501238340044A11680B431360034BC0
:1026A0001856FFF72FFA08BD0004014044B1000896
:1026B0001F2806DC01238340024A106820EA030039
:1026C0001060704700040140032932D8DFE801F0B0
:1026D000020F1B27012303FA00F0164B9A6822EA27
:1026E00000029A60DA6822EA0000D860704701238D
:1026F00003FA00F00F4B9A6802439A60DA6822EA04
:102700000000D8607047012303FA00F0094BDA6833
:102710000243DA609A6822EA000098607047012359
:1027200003FA00F0034B9A6802439A60DA68104398
:10273000D860704700040140074B53F830303BB974
:10274000054B43F8301003EBC00042600020704797
:102750006FF00F00704700BF58370020034B002276
:1027600043F8302003EBC0035A607047583700200D
:102770000E4B1B6813F4806F09D10C4A136843F4A5
:1027800080731360094B1B6813F4806FFAD0074AFB
:10279000936823F0030343F001039360034B9B68AA
:1027A00003F00C03042BF9D1704700BF0010024066
:1027B000074B1B6813F4806F09D1054A136843F473
:1027C00080731360024B1B6813F4806FFAD070475C
:1027D0000010024010B5194B9B6803F00C030C2B42
:1027E00024D0164C236823F080732360E36823F021
:1027F000605323F4003343F06053E360E36843F431
:102800008033E360E36823F4C003E360E36843F4E8
:102810008013E36000F0E0F8236843F080732360E6
:10282000064B1B6813F0007FFAD010BD034A936873
:1028300023F0F0039360FFF79BFFD2E70010024004
:1028400010B500F0DFF801F04BFE1B4B9B68C3F3A3
:1028500003131A4AD35C20FA03F4194B9C4223D980
:10286000FFF7A6FFFFF7B6FF134B9A6822F0F002BE
:102870009A609A6842F003029A600F4B9B6803F0DB
:102880000C030C2BF9D10E4B9C4211D80D4B0E4A68
:102890001A60094B9A6822F4E0629A609A6822F4FE
:1028A00060529A60002010BD074802F02DF9D7E76A
:1028B000054802F029F9E9E7001002404CBB000886
:1028C000FFB3C4046000002000B4C40470B50C461B
:1028D00015463D4B1E680121304604F0F8FB236885
:1028E000072B6BD0013B5F2B6BD8DFE803F0636AEB
:1028F0005D606A3C6A3F49536A6A6A6A6A6A6A6AE0
:102900006A6A6A6A6A6A6A6A6A6A6A6A6A6A6A6A27
:102910006A6A6A6A6A6A6A6A6A6A6A6A6A6A6A6A17
:102920006A6A6A6A6A6A6A6A6A6A6A6A6A6A6A6A07
:102930006A6A6A6A6A306A6A6A306A6A6A336A6AA2
:102940006A6A6A6A6A366A6A6A366A6A6A392E60C6
:10295000002038E02E60002035E02860002032E0C2
:10296000286000202FE02E6000202CE000F030F8DE
:1029700007231422012104F0A3FB2860002022E099
:1029800000F026F802231422012104F099FB2860AC
:10299000002018E000F01CF804231422012104F0A8
:1029A0008FFB286000200EE0002028600BE0002054
:1029B000286008E0054B2B60002004E06FF08500E4
:1029C00001E06FF0850070BD600000200024F4007D
:1029D000004870470024F40008B504F0C7FB074A1C
:1029E000D168074B0B4040F0007040F4A050034307
:1029F000D360D36843F08073D36008BD00100240F9
:102A00008C80FFF982B0064B9A6D42F080529A6535
:102A10009B6D03F080530193019B02B0704700BF90
:102A200000100240044AD2F8903043F40043C2F848
:102A300090300020704700BF00100240044AD2F8D6
:102A4000903023F40043C2F890300020704700BF5C
:102A50000010024001690B4BCA225A6253225A628B
:102A6000DA68D2B262F4C072DA609A6822F48052F4
:102A70009A609A6822F480729A60FF225A6200205B
:102A80000860704700280040024BD868C0F300205F
:102A9000704700BF0028004070B5044646680369CF
:102AA00000221A60394807F0B6F8002859D0374894
:102AB00083681B6806F10C0198470546002857D12A
:102AC000334A136843F480731360324BD3F8902079
:102AD00042F48032C3F89020D3F8902022F4803260
:102AE000C3F89020D3F8942042F00102C3F8942058
:102AF000284BD3F8943013F0020FF9D0254AD2F8BE
:102B0000903023F4407343F40073C2F89030D2F84D
:102B1000903043F40043C2F890301F4801F0D8FDD4
:102B200068BB06F114011C4805F0D0F950BB1A4BE4
:102B3000CA225A6253225A629A6842F020029A606C
:102B4000FF225A6203F55C431A6842F480221A603D
:102B50009A6842F480229A60204604F01DFB2846C1
:102B600070BD45210D4804F08AF86FF01205F6E7B4
:102B700045210B4804F083F86FF00405EFE76FF090
:102B80000405ECE76FF00405E9E700BF64A0000866
:102B900000700040001002400028004064B10008AE
:102BA00088B1000870B58AB005462422002101A82A
:102BB00004F00AFA3F4B19683F4A0A405B68C3F3C6
:102BC0000354C3F3034040EA0414240904EB8404CF
:102BD00000EB4400C0B264300690C3F30320C3F39B
:102BE000003404EB840400EB4400C0B201380590CB
:102BF00003F00F00C3F3011303EB830300EB430364
:102C0000DBB20493C2F30343100D00EB800003EB2F
:102C10004003DBB20393C2F30323C2F3023202EB9D
:102C2000820203EB4202D2B2029201F00F03C1F31F
:102C3000021101EB810103EB4101C9B2019101A82D
:102C400004F00EF81D4C041961F100014A0142EA3A
:102C5000D46263011B1B62EB0102520242EAD352AF
:102C60005B021B1941EB02004FEA801C4CEA936C9B
:102C70009A01D31A6CEB00021C1941EB02066A6838
:102C8000AB68DB6AA3B1284698470546A4FB05015B
:102C90000B4A002305FB0611FDF7D8FA4FF0FF326F
:102CA00082424FF000038B4100D210460AB070BD43
:102CB0005568EBE7002800407F7F3F0080BC92C74B
:102CC00040420F0070B5044605692E68FFF76AFFA1
:102CD000124BDB6813F4807F1AD0104BCA21596263
:102CE00053215962D968C9B261F4C071D960996839
:102CF00021F480519960996821F480719960FF21D5
:102D000059622EB100212960AB6802462046B047C7
:102D1000034B4FF480225A6170BD00BF0028004071
:102D20000004014070B592B0044615460669FFF7ED
:102D300039FF6B683268002A40F09E802A68326052
:102D4000AA68B260EA6812F0010F6AD10344013345
:102D5000D90E5A01D21A61F10001490241EAD25159
:102D60005202D21841F100018D0145EA92659001AD
:102D7000821A65EB0101D61841F100056268A3686B
:102D8000DB6A002B4BD02046984702460023304692
:102D90002946FDF75BFA3B4A0023FDF757FA3A4B09
:102DA0001B1841F100010693079109A906A8FFF736
:102DB00003FC002101910B9B8DF808300A9B8DF8D4
:102DC0000930099B8DF80A30039104910C9B8DF812
:102DD00014302E48CA23436253234362836823F48A
:102DE00080738360FF23436201AA01F0D3FB0028B4
:102DF00045D1264BCA225A6253225A629A6842F43B
:102E000080729A60DA68D2B262F4C072DA609A684C
:102E100042F480529A60FF225A6212B070BD52682A
:102E2000B4E7D90E5A01D21A61F10001490241EA10
:102E3000D2515202D21841F100018D0145EA92654A
:102E40009001821A65EB0101D61841F10005626814
:102E5000A368DB6A73B120469847024600233046D8
:102E60002946FDF7F3F9074A0023FDF7EFF9CDE90D
:102E700006019AE75268F1E76FF00F00CDE76FF0B7
:102E80000400CAE740420F0080436D38002800402C
:102E900038B50C464568054B53F8213028699847EA
:102EA000EB68002043F8340038BD00BF28B30008A9
:102EB0002DE9F04105460C464668026937690C3237
:102EC00001238B40DB43BFF35B8F52E8001F1940A7
:102ED00042E800100028F8D1BFF35B8F0D4B53F888
:102EE000243038469847F36803EBC40853F834603D
:102EF000002243F8342056B1074B53F824303846AB
:102F000098470246D8F80430E1B22846B047BDE8F9
:102F1000F08100BF28B3000848B3000810B444682B
:102F200003690C3301228A40BFF35B8F53E8001F13
:102F3000114343E800100028F8D1BFF35B8FA26A69
:102F400053B2002B09DB02F01F025B09012101FAD9
:102F500002F24033024941F8232010BC704700BF01
:102F600000E100E02DE9F04F85B004460D464168D0
:102F70000391D0F810905768D2F80C8008F0010344
:102F800001930E6904F071F98346204604F071F94B
:102F900002902A4B53F8253030469847284B53F877
:102FA00025A002993046D047264B53F825303046AD
:102FB0009847019BF3B1D9F80830ABEB0309C8F38C
:102FC000400839463046D047204604F052F90146C1
:102FD0005A46781E04F073FA814524D2019BD3B976
:102FE0000026B8F1000F19D1039BDB68002243F8DB
:102FF00035201EE04FEA5B09B9458CBF4FF0010850
:103000004FF0000800D8D9465A463946029804F0D5
:1030100047FA0746D5E76FF03D06E2E72946204626
:10302000FFF77CFF05E0084B53F825303046984702
:103030000026304605B0BDE8F08F00BF48B3000859
:1030400058B30008B8B2000838B3000830B583B0F0
:1030500004460D460C4806F0DEFD88B10A4B9B681D
:10306000DB6853B101AA214607489847002802DBD4
:10307000019B2B60002003B030BD6FF05700FAE7D2
:103080006FF01200F7E700BF64A000082DE9F043DD
:1030900089B005464668D0F81080376906F11809EE
:1030A0002C4883681B6849469847041E3CDB02A9EC
:1030B0004846FFF7CBFF041E3CDB73695A1C029B9A
:1030C000B3FBF2F3C8F81030736A2846984703A898
:1030D00004F092FF7369ADF80C30002304936A6822
:1030E00012680592069303A9384601F0A9FC38BB83
:1030F00001AA0021306A04F075FE002805DB019B5F
:1031000000221979186804F087FE00281FDBBB68CD
:1031100023F4A03323F0070343F48043BB6000246F
:10312000204609B0BDE8F083224645210A4803F055
:10313000A6FDF5E722464521084803F0A0FDEFE78C
:103140004521074803F09BFD6FF00404E8E70024E5
:10315000E6E700BF64A0000814B200083CB2000813
:1031600064B2000810B504460A2806D0E1B2064849
:1031700083685B689847204610BD034883685B6896
:103180000D219847F2E700BF9CA1000810B5044C40
:103190002046FFF74DF92046FEF710F910BD00BF9D
:1031A0006531000808B5054806F035FD18B1FFF790
:1031B000EDFF002008BD6FF01200FBE79CA10008A6
:1031C00008B5436831B107488268126803F10C0101
:1031D000904708BD03488268526803F10C0190478C
:1031E000F7E700BF64A000084A4201F0030302F0C1
:1031F000030258BF534204339A000F2393400A46F8
:10320000002919DB43EAA2035FFA83FC0CF10201F7
:103210000B4A52F821101A0C21EA134392FAA2F237
:1032200062B1B2FA82F200FA02F21A430CF1020C15
:10323000034B43F82C207047CA1CE3E72022F2E737
:103240000000014070B582B004460D460A4A6B4644
:1032500092E8030083E80300084882681268194670
:103260009047064610B1304602B070BD2946204650
:10327000FFF7BAFFF7E700BF3CA6000864A000080C
:10328000424200F0030302F0030258BF53420433EA
:103290009A000F2393400246002810DB43EAA20065
:1032A000C3B20233084A52F82320030C02EA10404A
:1032B00093FAA3F32BB1B3FA83F3D8407047C21C3F
:1032C000ECE72023F9E700BF00000140F8B50C4609
:1032D000114647680269B1F5001F1FD01D46B1F5C0
:1032E000800F34D01D492046FFF726FA064688BBDA
:1032F0002146B868FFF7A6FFB5F1806F23D0B5F17E
:10330000C06F22D0B5F1007F1BD031462046FFF7B9
:10331000DBF92046FFF7BCF93046F8BD2046FFF741
:10332000AFFFBB68984201D00026F5E72046FFF7C3
:10333000BFF92046FFF712FA00212046FFF7C4F933
:10334000F2E70221E2E70121E0E70321DEE76FF087
:103350008506E1E76FF00F06DEE700BF377500086E
:1033600010B5044603695860094806F054FC60B182
:10337000084A536843F40073536001212046FFF765
:103380001FFF002800DB002010BD6FF01200FBE7DC
:1033900064A00008007000400A4B9B68DB686BB1BA
:1033A00010B582B00C4601AA01460648984700288D
:1033B00002DB019B2360002002B010BD6FF05700BC
:1033C000704700BF64A0000808B543684A1E012A80
:1033D0001CD81868026822F00402026001291CD07F
:1033E0001968CA6822F00402CA601968CA6822F023
:1033F0000102CA6019680A6A22F001020A621A68A8
:10340000136A23F010031362002008BD452106480B
:1034100003F035FC6FF01500F7E71968CA6822F071
:103420000202CA60E1E700BFD0B4000810B54268EC
:1034300004694B1E012B38D81368D86810F0020FAE
:103440003AD1DB6813F0040F36D16368002B3AD011
:10345000022323760023636113686FF00200186172
:1034600013686FF00400186113686FF001001861B1
:103470001068036843F00403036001292AD011682F
:10348000CB6843F00403CB601168CB6843F00103C1
:10349000CB6011680B6A43F001030B621268136A78
:1034A00043F01003136200200CE045210C4803F0A8
:1034B000E6FB6FF0150005E045210A4803F0DFFB4D
:1034C0006FF00F0010BD4521074803F0D8FB6FF0E7
:1034D0001500F7E71168CB6843F00203CB60D3E730
:1034E000D0B4000808B5000828B500082DE9F0415F
:1034F00082B00446436805691A68D16811F0020F6A
:103500003AD00126297E002948D1116911F0010F16
:1035100005D06FF0010111616A6901326A611A68B0
:10352000116911F0020F03D1116911F0040F4FD08E
:103530006FF0020111611B686FF004021A613146DD
:10354000204604F0A8F96B69C3B94FF00008EB7E80
:10355000DBB100236B616F68002F39D06B7ECBB17C
:10356000EA68AB7EC3B12B69A9680191CDF80080F0
:1035700031462046B8472BE00226C3E745211648CE
:1035800003F07DFB6FF02108E1E731462046FFF7AD
:103590001BFFE0E70022E4E70023E5E7116911F0F3
:1035A000010F02D06FF0010111611A68116911F069
:1035B000020F03D1116911F0040F09D06FF002015D
:1035C00011611B686FF004021A612B7E013B2B76A0
:1035D00002B0BDE8F08100BF48B50008F0B585B085
:1035E0000D461C46476802F00106684604F041FD9E
:1035F000002302930393012C10D0012D22D04FF40D
:10360000803301933EB3022300936A462146386813
:1036100004F037FD08BB002005B0F0BD012D06D039
:103620004FF4003301935EB100230093EDE74FF4B4
:103630008033019316B102230093E6E70023FBE7F2
:103640000223F2E74FF40033019316B100230093F5
:10365000DBE70223FBE70023D6E74521024803F01E
:103660000EFB6FF00400D7E774B50008F8B50D46FF
:103670001646476801696A1E012A6BD804463A68F3
:10368000D06810F0020F6CD1D06810F0040F68D130
:1036900016F0060F6CD04648824216D0B2F1804F29
:1036A00013D0A0F5943082420FD000F580608242A2
:1036B0000BD000F58060824207D000F59430824242
:1036C00003D000F54060824259D14B60069B8B606D
:1036D000C6F340034B76C6F380038B76C6F3C00374
:1036E000CB763A68936823F4803323F00703936022
:1036F0000123324629462046FFF770FF002836DBBB
:103700001023324629462046FFF768FF00282EDBAB
:10371000012D3BD03A68936823F0700343F06003B7
:1037200093603A68936823F4803323F0070343F0EF
:10373000040393603A68136843F0800313603B68A6
:10374000B3F1804F2AD01B4A934227D04FF6FF7225
:10375000DA6226E04521184803F091FA6FF08500FF
:1037600005E04521154803F08AFA6FF00F00F8BD17
:103770004521134803F083FA6FF01500F7E7452160
:10378000104803F07CFA6FF08500F0E73A68936820
:1037900023F0700343F050039360C2E74FF0FF3211
:1037A000DA623A68136823F0020313600020DEE750
:1037B000002C0140000C0040D0B40008A8B500085F
:1037C000D0B50008F4B500082DE9F04F8BB0BDF876
:1037D000508044684E1E052E19D81F462568B5F145
:1037E000804F06D09B4B9D4203D0B2F5803F00F244
:1037F0002A81012E13D9984B53F8269018F4807B18
:1038000026D003291CD8954B53F826A021E00A4660
:103810004521934803F033FA6FF015000DE0EB6893
:1038200013F0020F03D1EB6813F0040FE3D045212E
:103830008C4803F024FA6FF00F000BB0BDE8F08F56
:103840000A464521884803F01AFA6FF01500F4E79C
:10385000CA46B2B1A368D3B9531E01932B6A3AEAA0
:1038600003032ED002A804F0D0FB60230293BBF127
:10387000000F67D101230393404604F005F806903A
:1038800066E02B6A23EA0A032B620020D5E7102B9F
:1038900007D0202B0BD0402B11D0602B05D000235C
:1038A00006E0013F531E0193D8E7012300E0012306
:1038B000002B00F0CB807F0853080193CEE7012353
:1038C000F6E7404603F0E0FFBAF1010F18D0BAF175
:1038D000040F2BD0BAF1100F2AD0BAF1400F29D023
:1038E000BAF5807F28D0BAF5806F27D0BAF5805F0F
:1038F00026D0BAF5803F01D0082102E0072100E080
:1039000000212B6A594A515C02228A4023EA0203B1
:10391000884003432B62564B53F8263039462068C3
:1039200098472368019ADA62002086E70121E8E7D8
:103930000221E6E70321E4E70421E2E70521E0E7CD
:103940000621DEE701230493404603F09DFF079024
:1039500005972368474A934216D0B3F1804F13D09E
:10396000A2F5943293420FD002F5806293420BD0BD
:1039700002F58062934207D002F59432934203D05D
:1039800002F5406293420FD19A6822F4803222F00D
:1039900007029A602268936823F07003936022689C
:1039A000936823F08003936002AA4946206804F0DC
:1039B00036FB0146F8B92268136843F080031360B0
:1039C0002368B9F1010F20D0B9F1040F1CD0B9F16F
:1039D000100F2ED0B9F1400F2DD0B9F5807F2CD02B
:1039E000B9F5806F2BD0B9F5805F2AD0B9F5803F4B
:1039F00008D0082109E045211F4803F040F96FF085
:103A000004001AE7072100E0012118331B4A505C2B
:103A10001A581B4D6D5C0821A9400A431A502368AF
:103A2000019ADA622268536943F00103536100206E
:103A300003E70221E9E70321E7E70421E5E70521A0
:103A4000E3E70621E1E76FF08500F6E66FF0850019
:103A5000F3E600BF000C00407CB7000894B70008F4
:103A60002CB6000848B6000878B6000814B700085D
:103A700008B80008002C0140A4B6000808B70008E8
:103A800020B700082DE9F04186B00546D0F8108037
:103A900046683D4806F0BFF8002854D006F10C07F0
:103AA000394883681B6839469847041E52DB4146F3
:103AB0003846FFF771FC041E52DB6A46002170692C
:103AC00004F090F9041E06DB009B002219791868A7
:103AD00004F0A2F90446002C48DB01A804F08CFA9B
:103AE0007368ADF80430B368029300230393049322
:103AF00001A9306800F0A4FF00283DD13368234AB3
:103B000093420FD002F5006293420BD002F540625F
:103B1000934207D002F58062934203D002F580629F
:103B2000934203D15A6C42F400425A6432681368DB
:103B300043F001031360B3692846984700242046E8
:103B400006B0BDE8F0814521114803F098F86FF008
:103B50001204F4E7224645210E4803F090F8EEE700
:103B6000224645210C4803F08AF8E8E72246452121
:103B70000A4803F084F8E2E74521094803F07FF89A
:103B80006FF00404DBE700BF64A00008002C0140D4
:103B900064B1000814B200083CB20008D4B60008B2
:103BA00064B20008004870472CB9000870B50D4693
:103BB00016461C460023224603F0E0FF10B154B91C
:103BC000002070BD23462A464521074803F057F8D8
:103BD0006FF01500F5E7224605F10061304603F06D
:103BE000C4F90020EDE700BF2CB8000870B5064608
:103BF00006F0CBF90A220023FCF728FB10F132046F
:103C000041F10005304603F0E7FE002819DB336977
:103C10001B681B6913F4803F11D006F0B6F90A2225
:103C20000023FCF713FB844275EB0103EFDA322229
:103C30004521054803F023F86FF0040000E0002060
:103C400070BD6FF00400FBE75CB80008F8B50369CD
:103C50001D680F4639B9002687B16B6943F00043F0
:103C60006B613046F8BD0446FFF7C0FF06460028EA
:103C7000F2D020690C3001F03BFEF2E76B69002BBB
:103C8000EFDA034BAB6003F18833AB60E9E700BFC9
:103C900023016745F8B504460E461546012303F097
:103CA0006DFF18B15DB900252846F8BD2B46324698
:103CB0004521164802F0E3FF6FF01505F4E720698F
:103CC0000C304FF0FF324FF0FF3301F033FE002194
:103CD0002046FFF7BBFF074680B12A463146204603
:103CE00003F086FE01212046FFF7B0FF054607B12D
:103CF0003D4620690C3001F0FBFDD5E72A463146F0
:103D0000204603F065FF0746E7E700BF74B80008E8
:103D10002DE9F04105460F4616461C460123224672
:103D200003F02CFF20B164B900242046BDE8F081E7
:103D300023463A464521154802F0A1FF6FF01504CD
:103D4000F3E728690C304FF0FF324FF0FF3301F0FA
:103D5000F1FD00212846FFF779FF804668B1012177
:103D60002846FFF773FF0446B8F1000F00D0444621
:103D700028690C3001F0BCFDD7E7234632463946AE
:103D8000284603F040FF8046E9E700BFA4B80008DA
:103D900038B504460569134805F03DFFA0B1114848
:103DA00083681B68291D9847A8B920690C30012237
:103DB000114605F07AFF03F032FE002803DB0021F4
:103DC0002046FFF743FF38BD4521074802F057FF63
:103DD0006FF01200F7E74521044802F050FF6FF042
:103DE0000400F0E764A0000864B10008D4B800083B
:103DF0000E4B1B688BB90E4BD3F8E0051FFA80FC05
:103E00004FF6FF739C450DD00A4B03EA8023DB0A73
:103E1000064803604FF400634360044B0B600123CA
:103E2000136070474FF40073F2E700BFFC380020C6
:103E30000070FF1F00FCFF032DE9F04383B005462F
:103E4000446806697048706005F0E5FE68B3706804
:103E500083681B6861689847074668BB01AA002110
:103E6000A06903F0BFFF002805DB019B0022197940
:103E7000186803F0D1FF0028C0F2C38022681368DD
:103E800023F001031360216851E8003F43F00C0365
:103E900041E800329046002AF6D12269022A16D063
:103EA000012A7ED06AB9424615E04521574802F002
:103EB000E6FE6FF0120770E04521554802F0DFFE84
:103EC0006BE05721534802F0DAFE424603E04FF41C
:103ED00080524FF4806821680B6823F0805323F4EC
:103EE000B05342EA080848EA03030B604B6823F426
:103EF00040534B60237B2BB16B681A68936843F483
:103F000040739360D6F800806E682B6958687168BA
:103F10008368DB68002B49D001AA9847002845DB5D
:103F2000D6F800903C4B994545D0D9F8003023F4A1
:103F30000043C9F800303268019B03EB5803B3FB20
:103F4000F8F39BB2D360237D23B12268936843F0DA
:103F500008039360637D23B12268536843F40043F0
:103F60005360A37D23B12268536843F480335360C8
:103F7000E37D23B12268536843F400335360226821
:103F8000136843F0010313602368DA6912F4001F19
:103F9000FAD0DA6912F4800FFBD0384603B0BDE8DE
:103FA000F0834FF480524FF4C06894E745211B48DA
:103FB00002F065FEC7E7019E42463046002103F04D
:103FC000FCFEA0F54070164B984213D8B8F1000FD4
:103FD000B9D0310E36024FEA5800301842464FF041
:103FE000000341F10001FCF731F9C0F31300C9F8F7
:103FF0000C00A8E743462A6845210A4802F03FFE24
:10400000A1E70746C9E700BF64A0000864B1000843
:1040100044B900086CB9000800800040A4B9000849
:10402000FFFC0F00D8B900082DE9F04782B0044624
:104030000D46466807690B79012B16D0022B17D164
:104040004FF4806C6979012918D0022918D091B1F8
:104050004FF40050AA79022A15D0042A1AD0002B56
:1040600040F0A1804FF0000E16E04FF4C06CE9E77D
:104070004FF0000CE6E74FF48050EBE70020E9E753
:104080004FF44050E6E713B14FF0000E04E04FF05C
:10409000805E01E04FF4805E95F807A0BAF1010F51
:1040A00000F084804FF00008A3F103095FFA89F95A
:1040B000B9F1010F40F2DA8013B1042A00F0D9807F
:1040C0003368DFF8CC914B4573D0DFF8C4914B4592
:1040D00074D0012A40F2D080042A00F0D080BAF1D6
:1040E000000F1BD06B4A934214D0A2F57442934246
:1040F00010D002F5806293420CD002F580629342A8
:1041000008D002F58062934204D002F540529342F7
:1041100040F0B880BAF1010F40F0B7801A6822F081
:1041200001021A6063681A68136803F4C0639C454F
:1041300005D0136823F4C0634CEA0303136063687B
:104140001A68536803F44053984204D0536823F428
:1041500040531843506063681A68136803F01023D3
:104160009E4505D0136823F010234EEA0303136025
:1041700063681A68936803F44073984505D09368A0
:1041800023F4407348EA03039360D5F800803B684A
:10419000984518D13268136843F00103136000207A
:1041A00002B0BDE8F0874FF4805E75E74FF44078C9
:1041B0007AE7002989D16FF08500F1E7022988D1DB
:1041C0006FF08500ECE7D4F8049023695868D9F8BB
:1041D00004108368DB68D3B101AA9847002816DB76
:1041E000D9F800A02A4B9A4516D0DAF8003023F40B
:1041F0000043CAF80030D9F80020019B03EB5803B4
:10420000B3FBF8F39BB2D3602B683B60C2E7452158
:10421000214802F034FDF7E7DDF8049042464846B5
:10422000002103F0CAFDA0F540701C4B984216D83F
:10423000B8F1000FE8D04FEA19614FEA09294FEAB7
:10424000580019EB000042464FF0000341F1000115
:10425000FBF7FCFFC0F31300CAF80C00D4E7434699
:10426000226845210E4802F00AFDCDE76FF0850077
:1042700096E76FF0850093E76FF0850090E76FF0A9
:1042800085008DE76FF085008AE76FF0850087E78E
:104290000080004000380140A4B90008FFFC0F0076
:1042A000D8B900084FF0E02399691A69986912F4A7
:1042B000803F01D1814208D2074B1A68074909683B
:1042C0000A441A604FF0E0231B69044B1B681B1A59
:1042D000014A106818447047103900200C3900203A
:1042E000094B102283F8232041F63F72074B1A60D6
:1042F0000020074B18604FF0E0235A6198611A695B
:1043000042F007021A61704700ED00E00C3900200E
:104310001039002008B5FFF7C5FF0C4B18680C4A90
:1043200011680844106000221A600A4A1368C01A13
:104330000949A1FB0010400A4FF4FA5101FB003378
:10434000136001F0B9FEFDF7EDFC08BD1039002047
:104350000839002004390020D34D621011B1B0F1AA
:10436000FF3F3AD070B5384B1D68B0F1FF3F3FD0EA
:10437000012840DDB0F5036F3FDC441E4FF0100311
:10438000EFF3118683F31288BFF36F8FFFF78AFF75
:104390004FF0E02399692D4B1A68104418602C4B9C
:1043A00000221A602B4B1A68831A29D44FF4FA5C46
:1043B0000CFB043303F5F9531F33274CA4FB0343D1
:1043C0005B0A121A0CFB0323B3F5806F1DD9234A35
:1043D00093421CD91C4B1A601BE04FF0E02213697A
:1043E00023F001031361184B4FF07F421A607047AE
:1043F0004FF40360BEE70024C0E74FF40364BDE759
:10440000114B4FF480621A6003E04FF480630E4A50
:1044100013604FF0E0239C690B4A1268013A5A611D
:1044200000229A61A14209D22D1B0D442844074B5A
:10443000186086F31188BFF36F8F70BD0D1B284481
:10444000024B1860F5E700BF0C3900200839002046
:104450001039002004390020D34D621000DCFF0029
:1044600010B54FF01003EFF3118483F31288BFF3FC
:104470006F8FFFF717FF074B1B681844064B1B682D
:10448000C01A84F31188BFF36F8F044BA3FB003075
:10449000400A10BD0839002004390020D34D6210B5
:1044A000AF2817D8F8B504460D46164603090B4A3F
:1044B00052F823705FB1384605F0ADFB38B1334692
:1044C0002A4604F00F01384603F0B7F9F8BD6FF043
:1044D0001200FBE76FF01500704700BF20BB00081B
:1044E000284A9368D26802F0030213F00C030AD042
:1044F0000C2B06D0042B1FD0082B20D00020024606
:1045000010E0012AF6D11F4A126812F0080F0CD1F0
:104510001C4AD2F89420C2F303221B4951F82220EE
:1045200043B100200C2B0DD07047164A1268C2F31D
:104530000312F2E71046F5E714480022F2E71448A8
:104540000022EFE70F4BDB6803F00303022B16D0CA
:10455000032B00D10E4A0B49C868C0F30210431C5C
:10456000C868C0F3062002FB00F0B0FBF3F0CB6894
:10457000C3F3416301335B00B0FBF3F0D4E7034ABC
:10458000E9E700BF001002405CBB00080024F40013
:1045900000127A0010B50C46C1B9836813F0400FC1
:1045A00001D100231360CA23436253234362D368BB
:1045B0003BBBC36923F08043C36174B1117CC36901
:1045C00023F07C5343EA0163C36125E0836813F061
:1045D000400FE8D100231360E5E792F810C03B4B91
:1045E000A3FB0C13DB081901C9B203EB8303ACEB8B
:1045F00043031943C36923F07C5343EA0163C36156
:104600000AE0C36943F08043C361117CC36923F0AE
:10461000706343EA0163C361D4B1116892F804C0C6
:104620005479937941EA0C4141EA04210B43C16971
:1046300021F07F1121F4FE410B43C3619368C269ED
:1046400002F07F321343C361FF234362002010BD99
:1046500013791E49A1FB034C4FEADC0C4FEA0C1EF8
:104660005FFA8EFE0CEB8C0CA3EB4C0C4EEA0C0E9E
:104670005FFA8EFE5479A1FB04C3DB084FEA031CEA
:104680005FFA8CFC03EB8303A4EB43034CEA030CBB
:104690005FFA8CFC9479A1FB0431C9080B01DBB2F1
:1046A00001EB8101A4EB41010B43DBB2116841EA4C
:1046B0000E4E4EEA0C2C43EA0C03C16921F07F1127
:1046C00021F4FE410B43C361B8E700BFCDCCCCCC95
:1046D00010B50446CA2343625323436203F0CFFB61
:1046E000012818D0002323604FF6FF72626142F266
:1046F00001126260A26802F00702A260074A22610A
:10470000E3612362E362E3636364A3642364E364B9
:104710006FF08003E360FF23636210BDFF007F0042
:1047200030B4036A23F001030362036A44688269B8
:1047300022F4803222F073020D682A4323F0020330
:104740000D692B4323F001034D682B43174DA842FD
:104750000FD005F50065A8420BD005F54065A842CD
:1047600007D005F58065A84203D005F58065A8420D
:1047700013D123F008034D6943EA850323F00403B2
:104780008D6843EA850324F4807C8C694CEA040C30
:104790002CF4007CCC694CEA440444608261CA6811
:1047A00042630362002030BC704700BF002C014010
:1047B00030B4036A23F010030362036A4468826919
:1047C00022F0807222F4E6420D6842EA052223F0CC
:1047D00020030D6943EA051323F010034D6843EAF3
:1047E0000513174DA8420FD005F50065A8420BD060
:1047F00005F54065A84207D005F58065A84203D0BD
:1048000005F58065A84213D123F080034D6943EA82
:10481000851323F040038D6843EA851324F4806CEC
:104820008C694CEA840C2CF4006CCC694CEAC4040E
:1048300044608261CA6882630362002030BC7047B2
:10484000002C014030B4036A23F480730362036ACE
:104850004468C26922F4803222F073020D682A4350
:1048600023F400730D6943EA052323F480734D6834
:1048700043EA0523174DA8420FD005F50065A8426D
:104880000BD005F54065A84207D005F58065A84224
:1048900003D005F58065A84213D123F400634D6968
:1048A00043EA852323F480638D6843EA852324F457
:1048B000805C8C694CEA041C2CF4005CCC694CEAEA
:1048C00044144460C261CA68C2630362002030BC01
:1048D000704700BF002C014030B4036A23F48053BA
:1048E0000362036A4468C26922F0807222F4E642DD
:1048F0000D6842EA052223F400530D6943EA0533AB
:1049000023F480534D6843EA0533104DA8420FD07D
:1049100005F50065A8420BD005F54065A84207D013
:1049200005F58065A84203D005F58065A84204D14D
:1049300024F480448D6944EA85144460C261CA68E5
:1049400002640362002030BC704700BF002C0140AD
:1049500010B4036A23F480330362036A426D22F4C5
:10496000803222F070020C68224323F400330C6979
:1049700043EA044323F480334C6843EA0443114C74
:10498000A0420FD004F50064A0420BD004F54064AF
:10499000A04207D004F58064A04203D004F58064EF
:1049A000A04207D1446824F48034D1F818C044EA06
:1049B0000C2444604265CA68816D826503620020F0
:1049C00010BC7047002C014010B4036A23F480131C
:1049D0000362036A426D22F0807222F4E0420C68A6
:1049E00042EA042223F400130C6943EA045323F43B
:1049F00080134C6843EA0453104CA0420FD004F5D6
:104A00000064A0420BD004F54064A04207D004F536
:104A10008064A04203D004F58064A04207D14468BA
:104A200024F48024D1F818C044EA8C244460426500
:104A3000CA68C2650362002010BC7047002C0140A8
:104A40000368304A904212D0B0F1804F0FD0A2F5E7
:104A5000943290420BD002F58062904207D002F56A
:104A60008062904203D002F59432904203D123F049
:104A700070034A681343234A90421ED0B0F1804F1E
:104A80001BD0A2F59432904217D002F5806290427A
:104A900013D002F5806290420FD002F5943290421A
:104AA0000BD002F54062904207D002F5806290423E
:104AB00003D002F58062904203D123F44073CA68A8
:104AC000134303608B68C3620B8883620D4B98426B
:104AD0000FD003F5006398420BD003F54063984272
:104AE00007D003F58063984203D003F580639842B2
:104AF00001D10B690363436943F001034361002063
:104B0000704700BF002C0140421E294B9A424CD8EE
:104B1000284B1B6803F4C063B3F5007F11D0264B0C
:104B2000984229D8A3F5F403A3F59053984232D8BC
:104B3000224B984232D8224B984232D80021084664
:104B40001CE0204B98420BD81F4B98420BD81F4BB0
:104B500098420BD81E4B98420BD8002108460DE016
:104B6000042100200AE00321002007E002210020A8
:104B700004E00121002001E000210120154A136812
:104B800023F007030B431360136803F007039942F4
:104B90000AD00120704703210020EFE70221002006
:104BA000ECE701210020E9E770470120704700BFD2
:104BB000FFB3C4040070004080BA8C01001BB70032
:104BC000808D5B000090D003006CDC020048E8019F
:104BD0000024F400002002400268124B9A4215D1D2
:104BE000C269A3F11023A3F1EF139A4210D1836895
:104BF000012B0FD8C36813B1026993420CD04369EB
:104C000063B1826993420BD0002070470120704746
:104C10000120704701207047012070470020704735
:104C20000120704755AA00FF70B5114B9D68B5B1C2
:104C30002846FFF7D1FF064698B9EB6813B1012665
:104C4000304670BD2C69002CFAD02046FFF7C4FF17
:104C500048B9E368AB4208D125462469F3E7012649
:104C6000EEE70126ECE70126EAE70126E8E700BFC8
:104C700014390020002800F0928038B50546484BD2
:104C80001B68002B6CD0464A9268002A68D0834289
:104C900004D8434A52681344834203D8414B1B68EB
:104CA00001209847A5F120042046FFF795FF18B191
:104CB0003C4B1B680120984755F8183C012B03D04A
:104CC000384B1B6801209847002345F8183C55F8DD
:104CD000143CCBB19A68002A43D155F81C2C596872
:104CE0000A4420325A6055F8143C55F8102C1A61C9
:104CF00055F8145C2B6903B1DD60202200212046A9
:104D000002F062F923462C4625691DB3AA680ABB46
:104D10006B6862681344203363602B6923616369A5
:104D20000BB323B3A2699A61A3690BB162695A619B
:104D30006B696361AA69A261EBB19C61A36903B16C
:104D40005C61236903B1DC6020220021284602F067
:104D50003BF92B4693B1124B1B6913F0020F15D18F
:104D600038BD0023D0E7A269002ADAD1E0E7A269C2
:104D70000B4BDA60D8E70A4BDC60DFE7084BDB68F7
:104D8000A36103B15C61064BDC60E4E7FFF74CFF15
:104D90000028E5D0034B1B6801209847E0E77047E7
:104DA000143900206800002070B54F4BDC681D6886
:104DB000002D58D09D68002D55D001FB00F600282D
:104DC00000F08880002900F08780B6FBF0F0884270
:104DD00040F0848016F1040F00F2828016F0030F79
:104DE00043D026F00305043500E0A46914B16368DC
:104DF000AB42FAD3002C75D0A3681BB13B4B1B68A8
:104E0000012098476268521B232A30D905F12001FE
:104E10006318203A5A6000229A60DC6022691A61A5
:104E2000334860503349D96102B1D36062695A6135
:104E3000A1699961002A41D093619A6902B15361D5
:104E40000122A2606560236100236361A361264B98
:104E50001B6913F0010F34D104F120053246002103
:104E6000284602F0B1F8284670BD3546BEE701235A
:104E7000A3606369ABB1A2699A61A3690BB162696E
:104E80005A6100236361A361174B1B6913F0010F83
:104E90000BD104F1200532460021284602F094F897
:104EA000E1E7A269104BDA60E7E7FFF7BDFE0028F3
:104EB000EFD00E4B1B6801209847EAE70A4AD360FF
:104EC000BBE7FFF7B1FE0028C6D0084B1B680120E6
:104ED0009847C1E70025C6E70025C4E70025C2E7DB
:104EE0000025C0E72546BEE71439002068000020F1
:104EF00055AA00FF669911EE38B505460C461422F6
:104F00000021134802F060F81249134800F038F805
:104F1000232C1CD915F0030304D01C44043CC3F11A
:104F200004031D4422460021284602F04DF8084B98
:104F30001D605C609D60203C6C609A680749116050
:104F40009A68A1F11021A1F1EF11D161DA6038BDA9
:104F500014390020754C0008A94D000855AA00FF1F
:104F600008B5024B1B68984708BD00BF64000020CD
:104F700008B5024B1B68984708BD00BF6C000020B5
:104F8000024B1860024B196000207047640000203B
:104F90006C00002031B108B50A46034B1B680021A4
:104FA000984708BD704700BF70000020F8B5044660
:104FB0000D46476800F10806304603F08CFC874236
:104FC00051D16368B3F5807F4FD80021304603F09C
:104FD00009FE00282ADD0021304603F054FC28B3E6
:104FE000CDB104F12C060021304603F0FBFD002872
:104FF0001EDD0021304603F046FCC8B104F138063E
:105000000021304603F0EEFD002811DD002130467E
:1050100003F039FC60B1002104F1140003F0E2FD5B
:10502000002824DD35B9ADB92846F8BD124DFBE79F
:10503000114DF9E7002104F1440003F0D3FD0028ED
:1050400006DD002104F1500003F0CCFD0028EADC6D
:10505000094DE9E7002104F15C0003F0C3FD0028DD
:1050600007DD0025E0E7044DDEE7034DDCE7024DF8
:10507000DAE7014DD8E700BF80BFFFFF70B50446F7
:1050800000221146FFF792FFE0B9064604F1080539
:10509000284603F009FC7F2816D914340021204645
:1050A00003F0F1FB60B1204603F0FEFB012807D9B5
:1050B0002946204603F048FD002801DA304670BD3D
:1050C000024EFBE7014EF9E7004EF7E700BEFFFF97
:1050D000F0B587B004460D46164600221146FFF78C
:1050E00065FF98BB03A803F019FB6268294603A873
:1050F00003F0F7FB054630B103A803F015FB15BB21
:10510000284607B0F0BD04F10805294603A803F0BE
:105110001BFD002802DB6FF00305EDE7676804F173
:10512000680300932B4604F1140203A9084604F017
:1051300093F805460028DFD13A46314603A803F02C
:10514000F1FB0546D8E7A5F58545D9E7004DD7E73A
:1051500080BFFFFF0023036043600B46B9B9194AC3
:105160008260194AC260194A0261194A4261194AA9
:105170008261194AC261194A026202F17452A2F5AF
:105180002302A2F692424262836600207047144ACC
:105190008260144AC26002F1794202F5740202F59B
:1051A00001620261104A4261104A826102F1D142F9
:1051B00002F5C01202F51E62C2610D4A02620D4A7A
:1051C0004262E1E767E6096A85AE67BB72F36E3C4F
:1051D0003AF54FA57F520E518C68059BABD9831FC2
:1051E000D89E05C107D57C3639590EF7310BC0FF63
:1051F000A78FF964A44FFABE2DE9F047CAB0002387
:1052000007E09A1C50F8224003F142024DF8224078
:105210000133072BF5D9002253E011F8225001EB9E
:10522000820463781B0443EA0563A57843EA0523F7
:10523000E4782343941C4DF82430499B469C4FEA64
:10524000F42C8CEAB41C8CEA746C6344489D479E31
:1052500085EA060C04EA0C0C85EA0C0C6344374F13
:1052600057F822703B44971C5DF827703B4400932D
:10527000DDF808E14FEA7E3C8CEABE0C8CEABE5CAD
:10528000DDF80C810EEA0807DDF810914EEA080AF5
:1052900009EA0A0A47EA0A07BC44CDF804C0459F58
:1052A0001F44459763444993009349954896479412
:1052B0004697CDF81491CDF81081CDF80CE14293CA
:1052C00001323F2A21D80F2AA7D95DF822404FEAA0
:1052D000F44383EA744383EA9423541F5DF8244023
:1052E0002344A2F10D045DF824504FEAB54484EA4A
:1052F000F51484EAD5042344A2F10E045DF8244099
:105300002344941C4DF8243097E700230AE003F16E
:1053100042025DF82240991C50F82120224440F8B6
:1053200021200133072BF2D94FF494716846FFF71F
:1053300031FE00204AB0BDE8F08700BF8CBB0008FA
:1053400008B51022034901F0FEFD08B1022008BD96
:105350000120FCE71CBD000830B585B0054681681A
:10536000103921F0070401F0EFFC014610226846D5
:1053700001F02AFE10220749684601F0F6FD1023CD
:105380006A462146284601F0A4FC08B905B030BDA4
:105390000120FBE71CBD000830B585B0044602A91A
:1053A000012004F011FC002869D16946022004F0B4
:1053B0000BFC012803D0002863D100241AE0224608
:1053C0004921314801F05BFC03238DF800300122B4
:1053D0008DF801208DF802308DF8033000238DF810
:1053E0000430EAE72B79042B29D09DF80A20934258
:1053F00025D00134022C3BD804EB4403234A02EBB2
:1054000043059DF8081012F8130004F000FB002873
:10541000EFD09DF80010687804F0F9FA0028E8D081
:10542000AB78042B03D09DF80B209342E1D1EB78AD
:10543000042BD7D09DF803209342DAD1D2E76B79C1
:10544000022B07D0032B11D0042B01D0104A02E00D
:10545000104A00E0104A4921104801F010FC687918
:10546000831EDBB2022B08D9FF2006E00C4AF2E7CC
:1054700049210C4801F003FC012005B030BDFF209C
:10548000FBE7FF20F9E700BFA4BC00082CBD000823
:1054900068A900089CBC00088CBC0008F0BC00088F
:1054A00094BC000804BD0008034B00E01833034A15
:1054B0009342FBD3704700BF64A0000844A20008D9
:1054C00070B50646114B53F8204009E0404217E002
:1054D000EB681870EA68537843F00103537008349E
:1054E000731C0A4A52F82330A3420DD96568236819
:1054F00028469847002DF2D00028EBD00028E5DBA5
:10550000FF28E5DDFF20E3E770BD00BF40BD0008D8
:10551000014B9868603070472839002004280CD867
:10552000DFE800F0030D050709000648704706484C
:105530007047064870470648704706487047064857
:10554000704700BFA8BD00087CBD00088CBD0008E6
:1055500098BD000858BD000868BD000830B108B506
:1055600004F086FB20B1037823B108BD02487047E0
:105570000148FAE70048F8E7B8BD000810B504464E
:105580004521034801F07BFB204604F051FB00BF9E
:10559000C0BD0008F0B583B005460E464FF01003BD
:1055A000EFF3118783F31288BFF36F8F00F058FC7D
:1055B00004462846FFF7B2FF0346002200922A461F
:1055C0004521114801F05BFB1EB1F369C3F30803E9
:1055D000ABB92046FFF7C2FF0346224645210B48E0
:1055E00001F04DFB31462846FFF7C8FF87F31188CD
:1055F000BFF36F8F2046FCF72FFE03B0F0BD4521AF
:10560000034801F03CFBE4E7D4BD00082CBE0008D1
:1056100004BE000810B586B00F4C04EBC01400EBBC
:10562000400C0E4B03EBCC000023059301220492A7
:105630000F220392029301930090094B4FF4A07242
:10564000084901EBCC11204600F0E0F8637B23F021
:105650000403637306B010BDD00000202839002079
:10566000939C0008C061002008B50A4B01221A7003
:105670000220FFF725FF00F0A1FD0320FFF720FF28
:1056800000F0F4F8FAF764FF034A137B23F00103F8
:10569000137308BD5D3900205001002008B5014694
:1056A000014A0248FCF714FB69560008500100202B
:1056B00008B50348034A121A002104F0C2FA08BDD3
:1056C000D00000206039002010B50446FFF7A2FF8B
:1056D0000B4901EBC4110B4A04EB440302EBC30377
:1056E000D9601C7504EB4411074B03EB811303F5E0
:1056F000046304EB440402EBC404636010BD00BF08
:10570000D0000020283900204063002070B586B00A
:1057100000F09AFB104D114B9D61114B0593012335
:105720000493002403940294019400940D4B4FF4CD
:1057300020520D49284600F069F806466B7B23F09D
:1057400004036B73284604F0F1FA2046FFF7BCFF10
:10575000304606B070BD00BF50010020283900203F
:105760004CBE0008695600088039002000B5A1B081
:105770001C4B83F308881C4C636943F4007363611A
:10578000F02384F822300025E57725766576A57626
:1057900084F82050636A43F4E0236362FCF71AFD47
:1057A000FCF774F94FF0FF33A362E362FCF71EFECF
:1057B000FCF76CFD01248DF80D408DF80C40199517
:1057C0001A951C95094BC3F808D0FFF76DFE2846C3
:1057D000FFF776FE2046FFF773FEFFF797FFFFF710
:1057E0005DFF00BF806B002000ED00E02839002045
:1057F00008B553EA020102D104F03CFA08BD02499F
:10580000183000F0CDFBF9E7659D0008F0B585B0D4
:1058100004460E4615461F4600F158038365C365CE
:105820000E9B04220D9904F029FA2A46314620469F
:1058300004F00FFA05460C9B02930B9B01930A9B05
:1058400000933B46024631462046FCF7FBF9002315
:105850006365054B9B6823B11B6F2367284605B022
:10586000F0BD2367FAE700BF2839002010B586B0E5
:105870001D4C14E0E36A0593236A0493E3690393E0
:10588000A36902936369019323690093E368A268A3
:1058900061682068FFF7BAFF23685C653034134BFA
:1058A0009C42E7D300F0DEF80F4C00E030340F4BA1
:1058B0009C4214D2636AB3F1FF3FF7D023EAE3734B
:1058C000D817820042EA93729900C91840EB02008F
:1058D0004A1840EB00032068FFF78AFFE6E700F074
:1058E00041FA06B010BD00BFCC000020CC00002063
:1058F00038B504464FF01003EFF3118583F3128897
:10590000BFF36F8F04F0B2FA40B10022826704F057
:105910000DFA2946064800F089F838BDA368E26808
:10592000934203D001221344A360F2E70022FAE776
:105930004C39002010B582B04FF01004EFF3118104
:1059400084F31288BFF36F8F846844B1013C846094
:1059500081F31188BFF36F8F002002B010BD53EAAE
:10596000020406D0009201930246054800F0E6F9D1
:10597000F3E781F31188BFF36F8F6FF00F00ECE74F
:105980004C390020B3F1FF3F08BFB2F1FF3F00D117
:10599000704708B50249183000F002FB08BD00BF8F
:1059A000659D000810B5074B1C6804B910BDFEF7D3
:1059B00057FD0444044B1C610021024B186804F09D
:1059C000B9FAF3E7543900202839002070B50446AD
:1059D0000D4600234FF01002EFF3118682F3128878
:1059E000BFF36F8F0EE0022BB8BF022313600C4B86
:1059F0001D600C4B9868FFF7D5FF86F31188BFF345
:105A00006F8F012353B9074B00221A6104EB840303
:105A10005B00054A1360002CE5DCE8E770BD00BFC1
:105A200050390020283900205439002008B5084694
:105A300021B9EFF3058313B9012100E0002111F032
:105A4000010F07D0064B9A699B689A4202D0FCF777
:105A5000A5F803E080F31188BFF36F8F08BD00BF86
:105A60002839002000234FF01002EFF3118182F358
:105A70001288BFF36F8F09E0064B9A68D37B013B16
:105A8000D37381F31188BFF36F8F0123002BF3D001
:105A9000704700BF2839002038B50446104804F08C
:105AA0003EF9054670B184B90E4B9B685A7B12F0E3
:105AB0001F0F0AD1AA6942B9DA897F2A05D9094A92
:105AC00093610BE0074BDD68EDE7064B9B68AB424B
:105AD00002D02846FFF766FF024B9D6138BD00BF2C
