:020000040000FA
:100000002DEF0CF01200FFFF92EF00F01200FFFF47
:10001000FFFFFFFFFFFFFFFF06EF02F01200FFFFF1
:10002000FFFFFFFFFFFFFFFFFFFF0300AF18000010
:10003000FA010000010000007A18000080010000B1
:100040003500000078180000F801000002000000F0
:10005000806A896A9268826A8B6A94688350080B06
:1000600001E0010E146E8350040B01E0010EE82440
:1000700014240101B36F836A8C6A95688350200B46
:1000800001E0010E156E8350400B01E0010EE824E3
:10009000146E8050100B01E0010E040DF350142477
:1000A0001524040F166EB351165204E0E846FE0BF9
:1000B0001606FCE11200400E806E896EBF0E926E35
:1000C000816A8A6ADF0E936E010E826E8B6E7E0EDF
:1000D000946E836A8C6A9568846A8D6A070E966E40
:1000E000D388D38AD38C530ED56E830ED66ED58E1D
:1000F000D08EE00EF26E9E90840EF16EF06A9D8CB2
:100100009D92A088A2889F8C0CEC09F048EC0AF024
:10011000CD6A9E9001010A0EA76FFAEC06F001016C
:10012000B66B1200DACFE4FFE2CFDAFFE9CFE4FFEB
:10013000EACFE4FFF6CFE4FFF7CFE4FFF3CFE4FF2D
:10014000F4CFE4FFFACFE4FF00EE00F0140EE80471
:1001500003E3EECFE4FFFBD7E6529EA66DD0C69830
:100160009E962D0EC7142D0A52E0010A45E0050A9D
:1001700010E0200A4FE19E960101AD6BC9CFD0F18E
:100180000101D0417F0B060801E1C588310EC96E1F
:1001900041D0C9CFD0F10101D051A50A1FE00F0A0B
:1001A00019E0F90A13E0660A0DE0650A1DE1010194
:1001B000010EA66F0101B50ED16F010ED26F190E9F
:1001C000D36F17D01AEC07F0828113D01AEC07F026
:1001D00082830FD01AEC07F082850BD01AEC07F05F
:1001E00082A507D0828705D00101829782958293EC
:1001F000829121EC07F00ED00101AD2BC6B80AD0D8
:10020000010EA66F9E9621EC07F0C79003D09E9634
:100210000101AD2BC7A002D0C9CFD0F10101D3514C
:100220000101AD5D02E2AD5101E1A66BC796C79831
:10023000C6880101030EF96FF2A42ED0830ED66E8C
:100240000101F85101E0F8070101AE5102E0AE07EB
:1002500022D0090EAE6F8081808B0101CF5101E069
:10026000CF070101F95101E0F907A7C099F1A8C032
:100270009AF10101320ED8809955010E9A5502E388
:10028000000E01D0010E9C9FE8B09C8F9CBF03D054
:10029000050E9B6F9D91F2949EAC9ED09E9C010199
:1002A000808D0001CD51070DF3CFD7F1F4CFD8F1F8
:1002B000800E0101D727000ED823C4502B6E2A6A66
:1002C000C35000012A24286E000E2B20296E30EC2A
:1002D00007F0EE522850EE262950ED2230EC07F0C0
:1002E000EF2A30EC07F0EF50286E030EEB50285C3D
:1002F00057E12CEC07F0080A20E00A0A18E0030A8C
:1003000013E0050A0BE0240A21E100EC07F0050EDA
:10031000D89029322832E804FBE12ED000EC07F017
:10032000D8902932283205D000EC07F025D000EC17
:1003300007F0D890293228321FD000EC07F0030EC6
:10034000D89029322832E804FBE116D02CEC07F0D3
:100350002C6E2D6AEE52EECF2AF0EFCF2BF02AC092
:1003600006F02BC007F00B6E2DC00CF007EC0CF064
:1003700006C028F007C029F030EC07F0040E28C0B2
:10038000EBFF050E29C0EBFF30EC07F0000EEF6E1F
:10039000E66E30EC07F0EE52E552E750EE6EED6A95
:1003A0000001CD2B0B0ECD5D15E2CD51070DF3CF26
:1003B000E9FFF4CFEAFF800EE926000EEA22060EDE
:1003C000E926000EEA22EF50040DF350C26EC280FF
:1003D000C28202D0C290CD6BE55200EE13F0140E33
:1003E000E80403E3E5CFEDFFFBD7E5CFFAFFE5CF68
:1003F000F4FFE5CFF3FFE5CFF7FFE5CFF6FFE5CF5D
:10040000EAFFE5CFE9FFE5CFDAFF1100DACFE4FF3D
:10041000E652E552E5CFDAFF11001ADE0101D96F8D
:100420008350080B03E08350040B02E198EC06F0C4
:1004300042DEF28EF28CFEEC06F00101AD5119089D
:1004400004E2C584C76A0101AD6B010180AB06D02F
:1004500025EC0AF0000902E00101809B010180AD5A
:1004600004D037EC0AF00101809D010101018251A5
:10047000040B06E0010101018251080B01E0FF00BD
:10048000010182A102D001018291010182A305D064
:10049000010182938290809C828E0101F95102E1D8
:1004A00048EC0AF0010180A1F0D00101809186DBC7
:1004B0000101AC5103E00101AC071BD0010180AF89
:1004C00018D0DB0EE66E010EE66EDA0EE66E010E59
:1004D000E66E99EC06F0E552E552E552E55201016F
:1004E000DA5102E0DAC18CF10101DB5102E0DBC13B
:1004F00097F1010101018D51800B01E09CD00101B8
:1005000001019851800B01E096D001018351010156
:10051000276A8425266E85512722265001018625CB
:10052000246E275001018721256E24500101882562
:10053000226E255001018921236E225001018A2556
:10054000206E235001018B21216E01018C5100018D
:1005500020241E6E000E21201F6E01018E5100010D
:100560001E241C6E000E1F201D6E1C5001018F25C5
:100570001A6E1D50010190211B6E1A500101912528
:10058000186E1B5001019221196E1850010193251C
:10059000166E195001019421176E16500101952510
:1005A000146E175001019621156E0101975101013A
:1005B0001424E06F000E1520E16F0101A65109E03F
:1005C0000101F95106E0010101018051010B01E136
:1005D000F4D7F29EE0C1CDF1E1C1CEF183C1B7F114
:1005E00084C1B8F185C1B9F186C1BAF187C1BBF147
:1005F00088C1BCF189C1BDF18AC1BEF18BC1BFF117
:100600008CC1C0F18DC1C1F18EC1C2F18FC1C3F1E6
:1006100090C1C4F191C1C5F192C1C6F193C1C7F1B6
:1006200094C1C8F195C1C9F196C1CAF197C1CBF186
:1006300098C1CCF1F28E0101AA5102E00101AA0792
:1006400001019B5105E001019B0701019D9102D031
:1006500001019D810101AB5102E00101AB070101E4
:10066000AF5103E00101AF0710D00101090EAF6FD8
:10067000010180830101B05103E00101B00705D001
:100680000101090EB06F01018085010180A32AD00C
:10069000010180930101B45102E00101B40701019D
:1006A000A85103E00101A80702D00101808F16DBE9
:1006B000010180AF17D0DB0EE66E010EE66EDA0E9A
:1006C000E66E010EE66E6ADBE552E552E552E55252
:1006D0000101DA5102E0DAC18CF10101DB5102E0E3
:1006E000DBC197F1010180A502D0010180950101D4
:1006F0008C5102E001018D8D0101975102E0010151
:10070000988D0101A751640A01E105D23E0A01E179
:10071000B7D1720A01E180D11A0A01E134D12C0A61
:1007200001E17CD00A0A36E01E0A01E040D262DB19
:10073000010180AF41D201018C51010197250101D6
:10074000D96F0101D951000808E254DB01010A0EFA
:10075000B66F0101280EA76F2FD20101340ED88089
:100760008A55210E8B5515E20101500ED880955502
:10077000460E96550EE2010101019D51010B09E063
:100780000101780EAA6F0101140EA76F0101C80EB6
:10079000B66F12D22FDB01018C51010197250101A7
:1007A000D96F0101D951000808E224DB0101140EC0
:1007B000B66F0101280EA76FFFD1010101019D5104
:1007C000010B11E00101DC0E8A5D1E0E8B5912E255
:1007D0000101BC0E955D340E96590CE20101010138
:1007E0009D51010B07E00101B40EB66F01010A0E25
:1007F000A76FE2D10101AA5101E0DED1809C829075
:10080000828E0101020EAC6F0101640EAB6F01011B
:10081000C90EB66F01011E0EA76FCED101018C511A
:10082000010197250101D96F0101D95100080AE2A0
:10083000E1DA280E0101D9250101B66F0101280E68
:10084000A76FBAD1010101018D51040B03E0815062
:10085000010B08E1010101018D51020B12E08350EF
:10086000800B0FE18250800B03E18250010B08E105
:10087000829E828001011E0EB66F0101020EAC6FD6
:100880000ED08250800B03E08250010B08E0828E74
:1008900082900101230EB66F0101020EAC6F0101BF
:1008A0009DB10BD0A7DA0101320EB66F0101020E25
:1008B000AC6F0101320EA76F7FD10101DC0E8A5DA2
:1008C0001E0E8B5920E20101100E8F5D270E9059EC
:1008D00005E2A40E146E380E156E04D0BC0E146E14
:1008E000340E156E01011450955D155096590BE2AA
:1008F00081DA0101370EB66F0101020EAC6F010102
:10090000320EA76F59D18050800B03E08250040B48
:1009100006E08050800B33E18250040B30E001018F
:1009200001019851010B2BE08050400B28E101019F
:1009300001019D51010B23E00101AB511FE15ADA86
:100940000101320E976F0101020EAC6F0101280EFA
:10095000A76F8250040B01E0010E156E010E155CAD
:1009600002E3000E01D0010E146E8050800B01E0F6
:10097000010E14243C0F0101B66F1ED103D00101FA
:10098000640EAB6F19D136DADB0EE66E010EE66E41
:10099000DA0EE66E010EE66E01DAE552E552E55238
:1009A000E552160E0101DA5D04E02A0E0101DB5D5D
:1009B00015E10101280EA76F160E0101DA5D03E1B2
:1009C0000101160E8C6F2A0E0101DB5D03E10101AE
:1009D0002A0E976F0101700EB66FEED00101340E32
:1009E000D8808A55210E8B5516E20101500ED88011
:1009F0009555460E96550FE2010101019D51010BDF
:100A00000AE00101780EAA6F0101140EA76F01011F
:100A1000640EB66FD1D0D0D0EDD9DB0EE66E010EEC
:100A2000E66EDA0EE66E010EE66E83D9E552E55209
:100A3000E552E5520101DA510101DB1101E0BCD0C0
:100A4000DB0EE66E010EE66EDA0EE66E010EE66E67
:100A5000A5D9E552E552E552E5520101DA5101010D
:100A6000DB1101E0A9D001019DB109D001011E0EE9
:100A7000B46F01015A0EA76F0101780EB66F9CD0BA
:100A8000DB0EE66E010EE66EDA0EE66E010EE66E27
:100A900050D9E552E552E552E5520101DA51010122
:100AA000DB1107E00101280EA76F0101820EB66F6E
:100AB00083D0DB0EE66E010EE66EDA0EE66E010EF8
:100AC000E66E6CD9E552E552E552E5520101DA5184
:100AD0000101DB1107E00101280EA76F0101870E5C
:100AE000B66F6AD00101B4510BE001019DA107D09E
:100AF0000101890EB66F0101280EA76F5DD00AD0E3
:100B000001019DA107D00101640EA76F0101960E9E
:100B1000B66F52D051D0DB0EE66E010EE66EDA0EE5
:100B2000E66E010EE66E05D9E552E552E552E55254
:100B30000101DA510101DB1107E00101280EA76F65
:100B40000101A00EB66F38D0DB0EE66E010EE66E28
:100B5000DA0EE66E010EE66E21D9E552E552E55257
:100B6000E5520101DA510101DB1107E00101280E14
:100B7000A76F0101A50EB66F1FD001018C6B01019B
:100B8000976B01018D9D0101989D01019C932ED9C8
:100B90000101090EB06F0101809F0101050EA86FD0
:100BA00001010A0EA76F0101AA0EB66F05D001015F
:100BB000280EA76FA7C1B6F13ED4120001018D8F98
:100BC000988F040E32D9F3CF8AF1F4CF8BF10A0E4D
:100BD0002CD9F3CF95F1F4CF96F10101BC0ED8805A
:100BE000F354340EF45433E2010E1FD9F3CF84F1E1
:100BF000F4CF85F1020E19D9F3CF86F1F4CF87F146
:100C00008250400B03E08250010B02E0000E01D045
:100C1000010E01018D97E8B08D87070E06D9F3CF3D
:100C20008FF1F4CF90F18250020B03E08050400B23
:100C300002E0000E01D0010E01019897E8B09887FC
:100C4000060EF3D8F3CF91F1F4CF92F10BD0000E52
:100C5000866F876B846F856B8D97916F926B8F6FAB
:100C6000906B989701018D918250200B01E08D814E
:100C70008350800B02E08D9301D08D838D95815040
:100C8000010B01E08D858D9B8250010B01E08D8B66
:100C900098918350010B01E0988198938350020B47
:100CA00001E09883989B8050400B01E0988B989FBF
:100CB0008D9F9D9F83B80FD0A95105080AE29C83A0
:100CC0008C5102E1150E8C6F975104E1290E976F3C
:100CD0001200A92B12009C93A96B120001018D8FA9
:100CE000E66A5BEC09F0E552F3CF83F1030E9DD881
:100CF000F3CF88F1F4CF89F101018350080B02E0B2
:100D00008D9901D08D898D9F988F090E8ED8F3CF44
:100D10008EF1080E8AD8F3CF93F1F4CF94F101014C
:100D20008350040B02E0989901D09889989F120093
:100D300012009BD80101B80ED88084550B0E855542
:100D400003E265D8170EEF6E5C0ED8809155440E05
:100D5000925503E263D82B0EEF6E86C114F087C163
:100D600015F0166A1634000E161807E6D880140E11
:100D70001454CD0E1554000E165403E248D8190E23
:100D8000EF6EF00ED8808F55550E905503E246D881
:100D90002D0EEF6EE552E7CFD9FF120066D80101A4
:100DA000640ED8808A55320E8B5503E230D81C0E63
:100DB000EF6E140ED8809555690E965503E22ED825
:100DC000300EEF6E83515F0803E221D8160EEF6EEE
:100DD0008E515F0803E222D82A0EEF6EE552E7CF6C
:100DE000D9FF120083988C989598120083988C985C
:100DF000958812008280829E808C1200040012006E
:100E00002FD8EE52EECF28F0EFCF29F01200FD0ED2
:100E1000DBCFE9FFFE0EDBCFEAFF1200FB0EDBCFDC
:100E2000E9FFFC0EDBCFEAFF1200E66E5BEC09F097
:100E3000E55212009E0ED16F010ED26FD36B0101ED
:100E40001200D1C1E9FFD2C1EAFFEF50C96E010122
:100E5000D12B000ED223120003D8030EEB50120048
:100E6000D7C1E9FFD8C1EAFF1200D9CFE6FFE1CF31
:100E7000D9FFCDDFEF6AD2DFEF6A12000F9E08D0F4
:100E80000F9E07AE05D0066C071EE86A07220F8E7C
:100E900007C001F006C000F0136A126A8E0E026EDF
:100EA000036AA2EF08F00D7E0F6ADEEC08F0F6ECA4
:100EB00008F00FB686EF08F00FA20AD00FAA03D0F1
:100EC0000FBE86EF08F00FA492EF08F08FEF08F046
:100ED0000FAA05D00FAC92EF08F08FEF08F00FA02B
:100EE0000AD00FA808D00FBE04D00FA402D09BEFE9
:100EF00008F09FEF08F0126A036A0D50085C116E4B
:100F000010E305C013F006C000F007C001F008C0F0
:100F100010F00AC005F00BC006F00CC007F00F3A45
:100F200009D00AC013F00BC000F00CC001F00DC0D6
:100F300010F0116C0F9E0FBC0F8E10C002F00FB09E
:100F4000CEEF08F01A0E1160CEEF08F0026A086AC0
:100F50000FA408D0056C061E071E081EE86A0622AC
:100F6000072208220FAC08D0136C001E011E021EBF
:100F7000E86A002201220222046A115207E00834C2
:100F80000732063205320432112EF9D705501326E6
:100F900006500022075001220850022204C012F01D
:100FA0000F9E02AE0BD0126C131E001E011E021EFD
:100FB000E86A13220022012202220F8E02A006D02C
:100FC000D8800132003213321232102A10C002F0DF
:100FD000A2EF08F00F6ADEEC08F0F6EC08F00FB6AE
:100FE00086EF08F00FA205D00FB886EF08F08DEF5E
:100FF00008F00FAA05D00FB086EF08F08DEF08F0CB
:101000000FB002D00FA802D099EF08F0036A0D507C
:101010000824026EE86A03227E0E025EE86A035A22
:10102000126A136A006A016A0C500702F4CF01F0D9
:10103000F3CF00F00B500702F3501326F4500022B8
:10104000000E01220C500602F3501326F450002229
:10105000000E01220A500702F3501226F450132208
:10106000000E002201220B500602F3501226F4500B
:101070001322000E002201220C500502F35012260A
:10108000F4501322000E002201220A500602F450EE
:101090001226000E1322002201220B500502F450EA
:1010A0001226000E132200220122A2EF08F00F6A7E
:1010B000DEEC08F00FB661EF08F00FA20ED00FB40F
:1010C00005D07F0E076EFF0E066E1FD0800E076ED6
:1010D000066A1BD0076A066A18D00FB0FBD78F0EBE
:1010E0000860EDD77E0E0864F5D78E0E085C05E02B
:1010F000D89007320632082AF8D70FA406D0066C1B
:10110000071EE86A072207AEE5D712007F0E086EB9
:10111000FF0E076E066E056E12007F0E0FBEFF0EED
:10112000086E02D07F0E086E800E076E066A056A92
:10113000F3D70FAE04D0800E086E076AF7D7086A9F
:10114000076AF4D70150001013101210F8E003BE24
:10115000F0D701BE0CD002500310EBE0D89012364D
:101160001336003601360206D8A00306F2D7035024
:10117000D4E10228D2E012AE11D07F0E121402E1A7
:1011800013A00CD0132AE86A0022012207E3D880BA
:10119000013200321332022A0228BFE00250C9E0B5
:1011A00013C005F000C006F00134076E0230086E6F
:1011B0000732089E0FBE088E8CEF08F007360836FF
:1011C00002E30F840F7E06E10F80086A076A066A51
:1011D000056A1200082803E0D88007321200D89070
:1011E000073202E10F8212000F8612000C360D3614
:1011F00002E30F8C0F7E06E10F880D6A0C6A0B6A02
:101200000A6A12000D2803E0D8800C321200D89030
:101210000C32EAE10F8A1200C290030EC16E9A0EE0
:10122000C06E0001CD6B0B0ECD5D0EE2CD5120D90D
:10123000EF6ACD511DD9EE52EE6AED6ACD5122D939
:10124000EE6AED6ACD2BEFD7010E806F020EBF6FF5
:10125000A50EC36F030EC46FC3C084F0E8CF85F042
:10126000200E836F040E8A6F010E916F040E9F6F24
:10127000010E986FA66F020EAD6F010EB46F020ED5
:10128000BB6F200EC26F040EC96F020E866F010E77
:101290008D6F946B090EA26F080E9B6F0A0EA96FDB
:1012A000040EB06F050EB76F070EBE6F030EC56F4D
:1012B000060ECC6F1200D9CFE6FFE1CFD9FFF29E28
:1012C000FE0EDB50DFD8EECFCEF0EDCFCFF0F28EBA
:1012D000FE0EDB500A0A6DE0020A64E00F0A5BE0D2
:1012E000010A52E0030A47E0060A3CE0070A33E03D
:1012F000060A38E0030A26E0010A02E0090A62E170
:101300000001670ED880CE55030ECF550CE2040EB7
:10131000D06FE70ED16F8C0ED26FBE0ED36FD46B31
:10132000D56B8C0E0BD05F0ED06F070ED16F0E0EEB
:10133000D26FBE0ED36FD46BD56B210ED66F430E1A
:10134000D76F4BD00001E60ED06F3F0ED16F9C0ED1
:10135000D26F400E3DD00001BD0ED06F520ED16F46
:101360004B0E2DD00001F90ED06F4F0ED16F430EF2
:10137000D26F420E2DD00001C70ED06F290ED16F53
:10138000FA0ED26F3E0E24D000010D0ED06F600E0B
:10139000D16FEA0E14D00001140ED06F500ED16F31
:1013A000C30E0DD00001D90ED06F5F0ED16F6A0E43
:1013B00006D00001DF0ED06FE00ED16FDE0ED26FCF
:1013C000410E06D00001D06BD16B800ED26F3F0E64
:1013D000D36FD46BD56BD66BD76BCEC006F0CFC0B6
:1013E00007F03EEC07F005C018F006C019F007C082
:1013F0001AF008C01BF0D0C00AF0D1C00BF0D2C068
:101400000CF0D3C00DF0EAEC07F005C014F006C0F4
:1014100015F007C016F008C017F0D4C00AF0D5C008
:101420000BF0D6C00CF0D7C00DF054EC07F057EC21
:1014300008F006C0CEF007C0CFF006C0F3FF07C02B
:10144000F4FFE552E7CFD9FF1200C2CFD8F0000178
:10145000D8A1CD6BCD510CD8060EE926000EEA229C
:10146000EF50040DF350C26EC280C282010C120014
:10147000070DF3CFE9FFF4CFEAFF800EE926000E57
:10148000EA221200F5DF040EE926000EEA2212001D
:101490009E96C86AC56AC66AC76A3E0EC66EC76AA5
:1014A000060EC86EC580C59EC76AC586C584C5823E
:1014B0009D869E96F28C0101030EF96F1200D9CF22
:1014C000E6FFE1CFD9FF030EC9D8DB040101EF6FBE
:1014D000FE0EDB50E824FE0BED6F010EED11EE6FFA
:1014E000EC6BFC0EDB50EC5D55E2EC51020A17E0B0
:1014F000030A10E0010A21E19E96C5800101070E52
:10150000F86F9EB603D0F851FCE13FD09E96EDC136
:10151000C9FF15D09E96FD0EDB50C96E10D09E9669
:10152000C5820101070EF86F9EB603D0F851FCE1A9
:101530002CD09E96EEC1C9FF02D09E96C5860101B1
:10154000070EF86F9EB603D0F851FCE11ED00101E2
:10155000EC51020818E29E96EF51EC5D02E1C58A5B
:1015600001D0C59AC58884D8C9CFEFFFFA0EDB2A0F
:10157000FB0E01E3DB2A0101070EF86FC5A807D0B7
:10158000F851FCE102D0C5AC02D0C5840CD00101F9
:10159000EC2BA7D79E96C5840101070EF86F9EB667
:1015A00004D0F851FCE1010E02D09E96000EE552E7
:1015B000E7CFD9FF1200D9CFE6FFE1CFD9FF020E66
:1015C0004DD8FE0EDB50E824FE0B0101F16FF06BED
:1015D000FC0EDB50F05D31E2F051010A19E0010A26
:1015E00009E09E9645D8EF50C96EFA0EDB2AFB0E35
:1015F00015E313D09E96C5800101070EF86F9EB6C5
:1016000003D0F851FCE114D09E96F1C1C9FF06D079
:101610009E96FD0EDB50C96E01D0DB2A0101070E3C
:10162000F86F9EB603D0F851FCE102D0C5AC02D0F1
:10163000C5840CD00101F02BCBD79E96C584010147
:10164000070EF86F9EB604D0F851FCE1010E02D0EF
:101650009E96000EE552E7CFD9FF1200146EFC0EE5
:10166000DBCFE7FF1450E726FC0EE7CFDBFF1200CD
:10167000FA0EDBCFE9FFFB0EDBCFEAFF1200120010
:101680006ED8FD0EDBCFE6FFFE0EDB38F00BE55229
:10169000E7240101F46FE828E66E58D8E55201010D
:1016A000F26FF36B156E146A14C0E6FFE66EF4C1B8
:1016B000E6FF4CD8E552E552E7CF15F0E552E7CF0B
:1016C00014F001011410F26F15C0F3F1F36E15C0A0
:1016D000F4FF4AD044D8FB0EDBCFE6FFFC0EDB382C
:1016E000F00BE552E7240101F76FFD0EDBCFF6F1B9
:1016F000FE0EDBCF15F015C014F0156A14C0F5F11D
:10170000F7C1E6FFF6C1E6FF0BD8E552E55201014D
:10171000F729E66EF5C1E6FF03D8E552E55224D07D
:101720001ED8FD0EDB50A96EFE0EDB50A86EA69EE5
:10173000A69CA684F29E550EA76EAA0EA76EA68240
:10174000F28EA6A202D0A694FCD70ED008D8FE0E28
:10175000DB50A96EA69EA69CA680A85005D0D9CF26
:10176000E6FFE1CFD9FF1200E552E7CFD9FF120023
:101770002A0EF66E000EF76E000EF86E01010900DB
:10178000F550E76F0900F550E86F03E1E76701D016
:101790003DD00900F550E26F0900F550E36F0900F4
:1017A000F550E46F09000900F550E96E0900F550A5
:1017B000EA6E090009000900F550E56F0900F550CF
:1017C000E66F09000900F6CFE9F1F7CFEAF1F8CFAB
:1017D000EBF1E2C1F6FFE3C1F7FFE4C1F8FF01015D
:1017E000E55302E1E65307E00900F550EE6EE50728
:1017F000F8E2E607F9D7E9C1F6FFEAC1F7FFEBC166
:10180000F8FF0101E707000EE85BBFD71200036A8B
:10181000026A100EE76ED890063607360236033697
:101820000B50025C0C50035805E30B50025E0C5049
:10183000035A062AE72EF0D71200000EF36E00EED0
:1018400000F0020E01D81200EA6002D0EE6AFCD766
:10185000F350E9601200EE6AFCD711EE00F021EEC1
:1018600000F0F86A0F9CB8EC0BF03BEC0CF00DECC0
:1018700002F0FBD71200120000030000000000007D
:1018800000000000000000A00000000000000000B8
:101890000000A00000050080000000000000000023
:1018A000000A050078640000090909010200000F20
:1018B000FFFFFFFFFFFFFFFFFFFFFFFFFFFFFFFF38
:1018C000FFFFFFFFFFFFFFFFFFFFFFFFFFFFFFFF28
:1018D000FFFFFFFFFFFFFFFFFFFFFFFFFFFFFFFF18
:1018E000FFFFFFFFFFFFFFFFFFFFFFFFFFFFFFFF08
:0200000400F00A
:020000040030CA
:0E00000000C80F130087B10003C003E00340E7
:020000040020DA
:08000000FFFFFFFFFFFFFFFF00
:00000001FF
