:10000000B01F0020A5360000F93600003135000091
:100010003135000031350000313500003135000048
:1000200031350000313500003135000085310000E8
:10003000313500003135000041310000313500001C
:1000400069360000F7930000693600006936000049
:100050006936000069360000693600006936000024
:100060006936000069360000693600006936000014
:100070006936000069360000693600006936000004
:1000800069360000693600006936000069360000F4
:1000900069360000693600006936000069360000E4
:1000A00069360000693600006936000069360000D4
:1000B0006936000069360000000000008D2E000047
:1000C00000000000A534000000000000A53400007E
:1000D00000000000A534000000000000A53400006E
:1000E00000000000A534000000000000E1B50000A1
:1000F00000000000A534000000000000A53400004E
:1001000000000000A534000000000000A53400003D
:1001100000000000BD93000000000000A5340000B6
:10012000EC2F0020F5BD000000000000A534000009
:1001300000000000A534000000000000A53400000D
:1001400000000000B52F000000000000A5340000F2
:1001500000000000A534000000000000A5340000ED
:1001600000000000A534000000000000A5340000DD
:1001700000000000A534000000000000F193000022
:1001800000000000A534000000000000A5340000BD
:1001900000000000A534000000000000A5340000AD
:1001A00000000000A53400007BB972B90029BEBF71
:1001B00000204FF0004106E008BF00281CBF6FF090
:1001C00000414FF0FF3000F0B7B9ADF1080C6DE918
:1001D00004CE002909DB002B1ADB00F04DF8DDF816
:1001E00004E0DDE9022304B07047404261EB4101C5
:1001F000002B1BDB00F040F8DDF804E0DDE9022312
:1002000004B0404261EB4101524263EB430370474B
:10021000524263EB430300F02FF8DDF804E0DDE920
:10022000022304B0404261EB41017047524263EB4C
:10023000430300F021F8DDF804E0DDE9022304B017
:10024000524263EB4303704753B94AB9002908BFD0
:1002500000281CBF4FF0FF314FF0FF3000F06CB9A9
:10026000ADF1080C6DE904CE00F006F8DDF804E00D
:10027000DDE9022304B070472DE9F047089E0D46E2
:1002800004468E46002B40F082808A42174646D9AB
:10029000B2FA82F24AB1C2F1200105FA02F320FA61
:1002A00001F1974041EA030E94404FEA1748230CAE
:1002B000BEFBF8FCB9B208FB1CEE43EA0E430CFB94
:1002C00001F098420AD9FB180CF1FF3580F0168135
:1002D000984240F21381ACF1020C3B441B1AA4B2C9
:1002E000B3FBF8F008FB103344EA034400FB01F1D0
:1002F000A14209D93C1900F1FF3380F00181A142EC
:1003000040F2FE8002383C44641A40EA0C4000216E
:100310001EB1D4400023C6E90043BDE8F08702B90E
:10032000FFDEB2FA82F2002A4FD1CB1B4FEA174E02
:100330001FFA87F80121B3FBFEFC250C0EFB1C33D2
:1003400045EA034508FB0CF3AB4207D97D190CF1D4
:10035000FF3002D2AB4200F2E7808446ED1AA3B22E
:10036000B5FBFEF00EFB105543EA054408FB00F810
:10037000A04507D93C1900F1FF3302D2A04500F295
:10038000D7801846A4EB080440EA0C40C0E78B4233
:1003900008D9002E00F0AF800021C6E9000508460C
:1003A000BDE8F087B3FA83F100294BD1AB4202D309
:1003B000824200F2B780841A65EB030301209E4657
:1003C000002EAAD0C6E9004EA7E7C2F1200C01FA20
:1003D00002F3974020FA0CF04FEA174E21FA0CFC7A
:1003E0001843BCFBFEF1050C0EFB11CC1FFA87F87D
:1003F00045EA0C4501FB08F3AB4204FA02F409D9C3
:100400007D1901F1FF3C80F08B80AB4240F2888087
:1004100002393D44EB1A85B2B3FBFEF00EFB1033FC
:1004200045EA034500FB08F3AB4207D97D1900F10B
:10043000FF3C71D2AB426FD902383D44EB1A40EA1F
:10044000014178E7C1F1200C8B4022FA0CF71F43E1
:1004500020FA0CF405FA01F34FEA174E25FA0CF5D1
:100460001C43230CB5FBFEF91FFA87F80EFB195548
:1004700043EA054509FB08FAAA4502FA01F200FA27
:1004800001F308D97D1909F1FF3047D2AA4545D9B2
:10049000A9F102093D44A5EB0A05A4B2B5FBFEF0A3
:1004A0000EFB105544EA054400FB08F8A04507D9A7
:1004B0003C1900F1FF352DD2A0452BD902383C4420
:1004C00040EA0940A4EB0804A0FB02894C45C6465B
:1004D0004D4619D316D05EB1B3EB0E0264EB0504A2
:1004E00004FA0CFCCA404CEA0202CC40C6E90024E3
:1004F0000021BDE8F087314630460EE7AC46EDE618
:10050000184601E74345E6D2B8EB020E69EB070552
:100510000138E0E72846D3E760468FE78146BAE72F
:10052000614677E708464BE7ACF1020C3D4415E71E
:1005300002383C4426E700BF704700BF10B5074CA7
:100540000A44914200D110BD11F8013B4340DBB297
:1005500034F8133083EA1020F3E700BF5CD40000C6
:1005600000F1804000F5E040002382B003600368A2
:100570000193019B02B07047012837B50D46144620
:1005800003D06FF0010003B030BD1649286803F0B6
:10059000FEF840B90423144901930DEB03022046F1
:1005A00002F042F9EFE71149286803F0F0F820B9AA
:1005B00002230F49019301AAF1E70E49286803F0CD
:1005C000E6F820B918230C49019301AAE7E70B4983
:1005D000286803F0DCF80028D3D1022308490193EE
:1005E00001AADCE7BBD6000055110020C5D60000EB
:1005F0004D110020D3D600005C110020E1D6000090
:100600007411002010B594B0002848D102212B4865
:1006100009F034FD04212A4809F030FD1021294851
:1006200009F02CFD012307A908A8079303F0F4FBA8
:10063000079B002B33D09DF820300AAC032B36D813
:10064000DFE803F0022F31331F49204603F08EF814
:100650009DF8213004939DF8223003939DF82330B8
:1006600002939DF8243001939DF82530174A00939A
:100670001B219DF8263005940DA801F01FFA0023D8
:100680000DA913488DF8453001F00AFA06221148E9
:100690000DF1210103F097F80F4B01221A7014B0ED
:1006A00010BD0E49D1E70E49CFE70E49CDE70E4AFE
:1006B0000A21204601F002FACAE700BF1C00002010
:1006C000180000204C0F00205CD6000085D60000EA
:1006D000A8D60000740F00201200002063D600008E
:1006E0006AD6000074D600007ED600001346426829
:1006F00010B494680A46A446002110BC6047134613
:10070000426810B414680A46A446002110BC604731
:1007100013B502220C46ADF806000DF106010020CB
:10072000FFF70CFF18222146FFF708FF02B010BDAB
:100730007FB504210190102302AA0DEB010002F005
:100740008AF802A9044801F09BFF002814BF882002
:10075000002007B05DF804FBB5D60000F0B587B007
:1007600000AF0D461446F880FFF7D2FF0221F88152
:10077000082307F11002B81D02F06DF8164807F1C2
:10078000100101F07DFF18B188201C37BD46F0BD77
:100790006E46A6EB04139D46A10023016A46284637
:1007A00002F059F80D48694601F06AFF08B1B546F4
:1007B000EAE7B546082307F11002022107F10E000F
:1007C00002F049F8064807F1100101F059FF00282E
:1007D0000CBF00208820D8E7BFD60000CDD600008F
:1007E000DBD60000104A08B50323C2F8F035022317
:1007F000C2F8F4356FF00043C2F808334FF482704A
:10080000FFF7AEFE4FF48070FFF7AAFE0123C2F897
:100810000035064BC2F828350023C2F824350923D9
:10082000C2F8203508BD00BF00700040000005017F
:100830002DE9F3414A4803F00FFD4A4A1378002B93
:10084000FCD002F059F84848484C01F0AFFF484846
:100850000BF08AFB474A20601421FFF750FF444801
:100860000BF082FB434A60601021FFF748FF4048CD
:100870000BF07AFB3F4AA0600F21FFF740FF3C4896
:100880000BF072FB3B4AE0600E21FFF738FF38485F
:100890000BF06AFB374A20610C21FFF730FF344828
:1008A0000BF062FB334A60610A21FFF728FF3048F2
:1008B000314C0BF059FB4FF4007206461221FFF742
:1008C0001EFF4FF400721C213046FFF718FF2B4823
:1008D0000BF04AFB436822461D684FF4183104238D
:1008E000A8472368013328D1254F0025B84618F8BA
:1008F000011B4FF4807230460135FFF700FF072DD2
:10090000F5D100252560A846236817F8011BCDF80E
:1009100004805B0001AA30462360FFF7E7FE019BDD
:100920001BB1236843F0010323600135072DEBD190
:100930002368013B032B98BF2360114D002415F859
:10094000011B4FF4007230460134FFF7D8FE072C2C
:10095000F5D100F08DFAFFF745FF02B0BDE8F08158
:100960000506000012000020B02C00205C0F0020C3
:10097000E5D600000201030020000020ECD60000B4
:1009800044D700001FB518490122C1F800254FF4D3
:100990008270C1F82CD6C1F83026FFF7E1FD134B69
:1009A0000A601A60124A03F58073196801B9AAB97E
:1009B000104B012119604FF48070FFF7D1FD4FF407
:1009C0008270FFF7CDFD084B0021C3F800153AB146
:1009D000BDF8000080B205B05DF804FB013AE4E721
:1009E00042F20F70F7E700BF007000400470004053
:1009F000A086010008700040464B47492DE9F04FA2
:100A0000464CDFF84491DFF81CB100251D602378C7
:100A10001F23237063780523637016220123A370BC
:100A2000E2700A782271B4F805201A4485B0A4F85F
:100A300005209A462E462F468846D8F8002059F8B9
:100A4000040B002A63D1364B6A4653F82510FFF792
:100A50004DFE0099AA0081B9DBF800101AEA010FD7
:100A600047EA0A0746EA0A0607D1A1184869013091
:100A70004861486900F007004861A11801354969DB
:100A8000013201FA02F2062D47EA02074FEA0A1A7A
:100A9000D3D1244DDFF8B480296859B156B9224A20
:100AA000136801330F2B98BFD8F80070136094BF00
:100AB0000E461660C4F80970B4F805001B49DFF84B
:100AC0009090FFF725FE99F80030A08533B9FFF725
:100AD00059FF0123A4F8070089F80030144915488C
:100AE0000A2202F070FE6A461349144809F0E0FA3F
:100AF000009BC4F80D30124BC8F8007041F2FF1291
:100B000030461A805C602E6005B0BDE8F08F0D4B5A
:100B10006A469AE70C0000202000002048110020BF
:100B20002CD7000028000020240000205C110020A9
:100B30004B1100207A0F0020740F00204C0F002072
:100B40000400002014D700005C0F00202C000020BF
:100B5000000000202DE9FF41164DDFF860800024E1
:100B60002F462B6823B12B68013B2B60002BF8D15B
:100B7000FFF742FF064603F0CFFC2EB901340F2CDD
:100B800003D904B0BDE8F081002404228DF80920C7
:100B900030220023ADF80A206022ADF80C2000932B
:100BA0000122414602A88DF8083003F0A3FB024B56
:100BB0003B60D6E714000020A0860100040000205E
:100BC00070B5FFF735FE4FF08043D3F8003413F0D3
:100BD000011F01D101F0BAFD384CB4F8050004F151
:100BE0001401FFF795FD364B18801A88A38D92B239
:100BF0009BB29A4227D011220021204602F00EFE1D
:100C00000021182204F1140002F008FE4FF0804386
:100C1000D3F81C25FE2A9EBFD3F81C250132C3F849
:100C20001C25284B1B88A4F80530274B1B68C4F8EB
:100C30000D30D4F80D00FFF77BFDB4F80500234913
:100C40000622FFF78BFD224B224819681F4D00F04A
:100C500027FF214800F024FF4FF08046D6F80034EB
:100C600013F0011F0BD0FFF775FF4FF00113C6F80B
:100C70000034B4F8050006222946FFF76FFD012273
:100C80000221164800F05CF9012211210B4800F006
:100C900057F901221821284600F052F901220221B9
:100CA0000F4800F04DF90F4B1868436800221B698C
:100CB000012198470C480BF031FFCDE74811002087
:100CC000100000201C000020180000205C110020F3
:100CD00020000020FFD6000008D70000741100207B
:100CE000761100205C0F0020C0D4010038B5034607
:100CF0001A4D00205A1C286013D0B3F5FA7F2ADB66
:100D000041F270729342164A04DC1060012400F034
:100D100063F914E0A3F5BB53113B41F26F718B42B1
:100D200017D90F4B03241C600E4B00221A7000F0E1
:100D300029F8204600F050F900F070F802242B68E2
:100D40002BB901232B60064B187800F079F9204667
:100D500038BD0120D9E70446F9E700BFC82C0020C0
:100D6000300000207D100020044B1A682AB90122AF
:100D70001A60034B187800F063B97047C82C002044
:100D800030000020204B2DE9F3411C681F4D204E00
:100D9000204F013C002C25DA1F4A012300219360DB
:100DA000C2F80015A2F5C042C2F8FC1F1361D3605F
:100DB00002F588325360A2F52042536002F580525A
:100DC000536002F58052536002F580525360A2F5E1
:100DD00010425360D3604FF08042C2F8003502B039
:100DE000BDE8F081335D286803EB430303220192E1
:100DF00050F823200121D2F8088000EB830001AADB
:100E0000C0473855013CC5E73400002038000020B9
:100E10003C0000204B000020007000402DE9F7430B
:100E20000F4D104E104FDFF8448000243368A3426A
:100E300002DC03B0BDE8F08315F8013B73B918F884
:100E40000430386803EB4303012150F8232001915B
:100E5000D2F8089000EB830001AAC8470134E5E707
:100E60004B00002034000020380000203C0000200F
:100E70002DE9F3472A482B4D294FDFF8BCA0DFF8B6
:100E8000BC8001A90BF098F805232B604FF00009F6
:100E9000019B4B4502DD2B680E2B02DD02B0BDE845
:100EA000F0870C243B6804FB09F451461B59186871
:100EB00002F06DFC5FFA89F620B988F8006009F14C
:100EC0000109E5E73B6818491B59186802F05FFC07
:100ED00010B988F80160F2E73B6814491B5918689B
:100EE00002F055FC10B988F80260E8E73B68104949
:100EF0001B59186802F04BFC10B988F80360DEE754
:100F00003B680C491B59186802F041FC10B988F87D
:100F10000460D4E72B685A1C08F803602A60CEE707
:100F2000380000203400002056D7000061D70000B0
:100F30006BD7000072D700004BD700003C000020A8
:100F40002DE9F041451800293ED0B0F1005F3BD3B8
:100F5000C1F1005101F5C041814235D31C4EDFF88B
:100F600074C00127B04299BF4FF0020E4FF00051FC
:100F700061464FF0100E95BF002308234FF48054B4
:100F80004FF40044411AB1FBF4F18E459FBFB1FB11
:100F9000FEF84344DBB20EFB181110311B0107FAB7
:100FA00001F103F1804362B1C3F8041903F5106342
:100FB000B0FBF4F004FB00408542D3D80020BDE82C
:100FC000F081C3F80819F3E76FF01500F7E700BFE9
:100FD000FFFF002000000120012807B50BD00328E7
:100FE0000CD0A0B90F4B01221A6020BF40BF20BF18
:100FF00003B05DF804FB0C4B1860F6E74FF080433C
:101000000122C3F80025BFF34F8F20BFFDE7074B38
:10101000074A08490848CDE90033084B00F040FD75
:10102000E6E700BF780000407C0000405ADD000089
:1010300078D700007FD7000087D70000AAD700002C
:10104000012807B50BD903280CD0084B084A0949D9
:101050000948CDE90033094B00F022FD02E00023EE
:1010600083F3118803B05DF804FB00BF5ADD000074
:1010700078D700007FD7000087D70000C3D70000D3
:1010800010B54FF02003EFF3118483F3118800F0C3
:101090006DFD044B4FF0FF329A62DA6284F31188DF
:1010A000002010BD00ED00E008B5044608461146DA
:1010B0001A46A0470BF06AFD02F0B0FA30B50A4CB0
:1010C0000A44914200D130BD11F8013B5840030958
:1010D000E35C83EA0013DDB2C3F30313E05C80EA50
:1010E0000510C0B2EDE700BFFFD700002DE9F043C7
:1010F0000546079810B91060BDE8F0830324B0FBE3
:10110000F4F404EB4407B84218BF0134B4F1804F43
:1011100005D34FF0FF3313606FF00B00ECE7A40032
:1011200001348C4200D80DB91460F5E7DFF8BCE05B
:101130002E460024BC4231469C4606F1040603F1CB
:1011400003032CD3844225D29CF80060274F01343E
:10115000844238BF9CF801304FEAA60C28BF002318
:1011600017F80CC081F800C0844207EB131C3CBF89
:101170009B0003F03C034FEA061606F0300638BF2A
:10118000FB5C1CF806604E7028BF3D238B703D232E
:10119000CB7004314D1B002015600870ACE713F8CC
:1011A00003CC13F8021C13F8018C4FEAAC094FEA88
:1011B0000C1C1EF8099006F8049C0CF0300C0EEB89
:1011C0001119890019F80CC006F803CC01F03C0194
:1011D0000EEB981C08F03F081CF8011006F8021CE2
:1011E0001EF8081006F8011C0334A3E78FD800008E
:1011F0002DE9F0434FF0000C079EDFF828810746E9
:1012000065466046B5420AD32E4604E00135AE423B
:101210000EF1010E05D1A8BB1060BDE8F0834FF0C0
:10122000000E5C5D202CF1D0AE42F4D0A6EB050997
:10123000B9F1010F15D90D2C13D103EB050999F85C
:101240000190B9F10A0F1BD0BEF1000F06D13D2C61
:1012500009D10CF1010CBCF1020F07D96FF0150098
:10126000DBE70A2CEFE714F0800FF7D118F8044001
:101270007F2CF3D03F2C02D8BCF1000FEED101300F
:101280000135BFE7062500F007046C4304F1070EA3
:10129000C4086C43A4EB0C0404EBDE0487B18C425D
:1012A0000ED80025DFF87CE0DFF87C801E4439464C
:1012B000032428469E4207D1C91B11600020ACE7D9
:1012C00014606FF00B00A8E713F8019BA9F10A0C5A
:1012D0005FFA8CFCBCF1160F04D828FA0CFC1CF049
:1012E000010FE7D11EF809C00130BCF1400F08BF63
:1012F000013C0CF03F0C04284CEA8515DAD17CB196
:10130000280C012C087002D101310020D2E7022CF8
:101310004FEA1520487016BF8D7002310331F4E793
:101320002046C7E70FD800000900400070B5C66826
:1013300090F90B000C240D464C43A84206EB040127
:10134000B8BF3159002A1046B8BF02F11F00401142
:1013500001EB8001196002F01F0070BD07B501AB01
:10136000FFF7E4FF019A012303FA00F01368034337
:10137000136003B05DF804FB07B501ABFFF7D6FFC0
:10138000019A012303FA00F0136823EA00031360B3
:1013900003B05DF804FB2DE9F8434368068905684E
:1013A00090F80AC05E43FF220446C2723544002012
:1013B0004FF00C0E844505DC00252389AB4221DC6F
:1013C000BDE8F883D4F80C80B6FBF3F10EFB00F710
:1013D00008EB070202F104091F29C2E9019906DCA2
:1013E000E0729B08033323F003030130E2E711F1BD
:1013F0001F0248BF01F13E02521148F8075005EBA9
:101400008205EEE76168E3682268694350181E1D93
:1014100056509A6842609A680021106098602A4687
:101420002046FFF79BFF0135C7E72DE9F04F89B054
:10143000867A00AFC7E90332B300073303F4FF63D2
:10144000ADEB030D4368E94603334D4623F0030338
:1014500045F804394FF0FF3400224FF00C0C96424F
:1014600002F1FF3A0ADD2AB12B689B08033323F00F
:1014700003036B6055F8043F8B420BD2BAF1FF3F78
:1014800013D1BA6C002313606FF00B002437BD46F4
:10149000BDE8F08FC3680CFB023303F1040E5B68F8
:1014A000734518BF14460132D9E7611CE9D0067CA8
:1014B00059F8241016F0010605D04FF02003EFF381
:1014C000118683F31188C3680C2202FB043353F89E
:1014D000045F9D4228D0D5E9003213605A6003684A
:1014E000F861EA1A92FBF1F22146FFF745FFF8692D
:1014F000037CDA0701D586F31188002D63D0611CC7
:1015000009EB84044B1E9A4510DC3B6959F82A20EC
:10151000C3F800A00368EB1A93FBF2F3FA681360B8
:10152000BB6C00201D60B1E70025E1E7037C13F0F0
:10153000010305D04FF02002EFF3118382F31188ED
:10154000FB61036854F8042BEB1A93FBF2F39B0046
:10155000BB610C234B437B614FF00108266808FBFD
:1015600006F305EB030B3B60BB6908EB0302C7E91D
:101570000110FFF7F3FEB868013E0268B0F808C03A
:101580005E44B61A426802FB0CF29642D7E900317B
:101590000CD2C2687E693244161DEE509368CBF8B7
:1015A00004309368C3F800B0C2F808B008F101082D
:1015B000B8F1040FD2D1037CDB0702D5FB6983F3BA
:1015C000118801319EE76FF00A005FE72DE9F04FC7
:1015D00087B0837A9B00073303F4FF6300AFADEB62
:1015E000030D4368EB46033323F003030E46144612
:1015F0000546CBF800305946012296425ED295F856
:1016000010805BF82690D5F800A018F0010805D0EE
:101610004FF02003EFF3118883F3118822463146FF
:101620002846FFF79BFE002E51D007F114032246F7
:1016300031462846FFF77AFE7B690028B8BF0330A1
:101640001B6820F0030023FA00F000F00F000F28C1
:101650003DD124F00302FA6009F1FF320023BA60A1
:10166000FA687B6002EB030A524631462846FFF7D0
:1016700083FE54457B6813D0BA682968B5F808E042
:1016800009FB0AFA0AEB020C6A6801EB0A0002FB8A
:101690000EF294453FBF406851F80A200260506046
:1016A0000133042BDCD12B7CDA0701D588F31188B8
:1016B000002CB8BF0334013EA410A0E70B689B08C0
:1016C000033323F0030341F8043F013295E709FB9C
:1016D00004F429682A890AEB040309F1FF399944C3
:1016E000A9EB01096968514389450BD2E9680C22CD
:1016F00002FB0616321D4AF80420B2685A60B2682E
:101700001360B3602B7CDB0701D588F311881C378D
:10171000BD46BDE8F08F0020704700000B68013324
:101720000B60014B1B681847042D00202DE9F04F7A
:1017300085B098460E9CDFF894A0012CB8BF012418
:10174000012B0CBF30232023154606468B460194FF
:10175000029301274FF00A0900220AF101040AB995
:10176000AA4521D2B5FBF4F059463030B0470137D5
:10177000012209F1FF39B9F1010F4FF00A03B5FB5E
:10178000F4F0BAFBF3FA04FB1055E6D1594605F123
:101790003000B047B8F1030F03D1019BDC1B002CD4
:1017A0000FDC05B0BDE8F08F019B4B45E1DBB8F1E4
:1017B000020FDED8029803925946B0470137039AC8
:1017C000D7E759462020B047013CE8E7FFC99A3BDC
:1017D00030B58A680C68551C14B14B68934201DC23
:1017E0008D6030BD013B934208BF00228D600CBF6D
:1017F000E254A054F5E70000014B1860704700BFA9
:10180000042D00202DE9F04F89B01C464FF0000850
:10181000531E05468A4604934FF0FF3746464FF065
:10182000000B07E0BBF1000F0DD1252800F01A8155
:101830005146A847049B13F8010F04930028F1D1E7
:1018400009B0BDE8F08F7A280AD862280FD830286E
:101850006BD043D8252800F003812D2800F00981A2
:1018600051462520A847049B51461878F6E0633876
:101870001728F5D801A353F820F000BF571A00002D
:10188000551900006118000061180000611800007F
:10189000351800005519000061180000611800009B
:1018A0004F19000061180000611800006118000065
:1018B000A519000061180000611800001F1A00003F
:1018C000611800008B190000611800006118000009
:1018D000E5180000611800003518000039282FD9DC
:1018E0005828BDD1B8F1010FC5BF073424F0070453
:1018F00054F8043B54F8083B05934FF000090823C3
:10190000CDF818909C460CF1FF3290000392059A96
:1019100022FA00F010F00F004DD1069A12B9BCF176
:10192000010F67D14FF0300C4BE0002F0ADA002E88
:1019300000F0A180A0F13007002E08BF022679E751
:10194000002FF7DB0A2303FB0707303FF4E708F11A
:1019500001086FE7B8F1010FC5BF073424F0070491
:1019600054F8049B54F8089BB9F1000F05DA51466E
:101970002D20A847C9F10009013F009733464A4688
:1019800051462846FFF7D2FE49E7B8F1010FC5BF1F
:10199000073424F0070454F8042B54F8082B00975C
:1019A0003346EDE751463020A84751467820A847F6
:1019B0000827012696E709288CBF4FF0570C4FF0F7
:1019C000300C6044514640B20693A847039A069BE8
:1019D00009F10109F2B9032E7FF421AFC9EB4709E0
:1019E000B9F1000F7FF71BAF51462020A84709F13E
:1019F000FF39F5E75A1E9F42079204DB012E04D1FE
:101A000051463020A847079B06E0022EFBD15146E5
:101A10002020F7E7CDF818B0DDF80CC073E754F8D4
:101A200004BB5B46994613F8010B78B9032E24D109
:101A3000A9EB0B09A7EB0909B9F1000F7FF7EFAE8E
:101A400051462020A84709F1FF39F5E75146039395
:101A5000A847039BE6E754F8040B5146A847DEE687
:101A60005146FBE7D8465E464FF0FF374FF0010B7B
:101A7000E0E60326DEE60126DCE68346DAE600BF82
:101A800007B50B46002102460191044801A9FFF762
:101A9000B9FE019803B05DF804FB00BF1D170000FC
:101AA0000FB407B504A951F8040B0191FFF7E8FF43
:101AB00003B05DF804EB04B0704700000CB430B51F
:101AC00085B008ABCDE9010153F8042B009304461F
:101AD00000250748039501A9FFF794FEDDE90230D0
:101AE0009842B8BF255405B0BDE8304002B07047F9
:101AF000D1170000704700000C4B1B78062B10D14B
:101B00000B4B1B681A070CD10A4B186800F0F00346
:101B1000302B08D000F0E000A0F1400358425841BB
:101B20007047002070470120704700BFE00F00F0B1
:101B3000E40F00F0E80F00F0094B1B78062B0CD1E6
:101B4000084B1B681A0708D1074B186800F0F00013
:101B5000A0F130035842584170470020704700BF41
:101B6000E00F00F0E40F00F0E80F00F008B5FFF719
:101B7000C3FF28B16F4B704A1B68C3F30423136083
:101B8000FFF7DAFF10B16D4B6D4A1A606D4B6E4A6C
:101B90001B68C3F342331360FFF7CEFF20B16B4ADB
:101BA000D36823F08073D3604FF080430022C3F8E2
:101BB0000C21C3F81021C3F83825FFF7BDFF10B181
:101BC000634B03221A60FFF7B7FF40B1614B052258
:101BD0001A6001229A6700229A603F225A604FF0F1
:101BE00080525D4BD2F80414C3F82015D2F80814C3
:101BF000C3F82415D2F80C14C3F82815D2F8101421
:101C0000C3F82C15D2F81414C3F83015D2F81814F0
:101C1000C3F83415D2F81C14C3F84015D2F82014B8
:101C2000C3F84415D2F82414C3F84815D2F8281480
:101C3000C3F84C15D2F82C14C3F85015D2F8301450
:101C4000C3F85415D2F83414C3F86015D2F8381418
:101C5000C3F86415D2F83C14C3F86815D2F84014E0
:101C6000C3F86C15D2F84424C3F8702503F540532B
:101C7000FB22C3F81825FFF73FFF28B1374B384A3E
:101C80001B6803F04F0313604FF08043D3F8002428
:101C9000D20744BF6FF00102C3F80024314B1B6828
:101CA000062B08D1304B1B68062B01BF2F4A136847
:101CB00043F4806313604FF01023D3F80022002A0E
:101CC00003DBD3F80432002B2FDA294B0122C3F8AF
:101CD0000425D3F80024002AFBD04FF01022152150
:101CE000C2F80012D3F80024002AFBD04FF01023D2
:101CF0001522C3F804221E4B1A46D3F800140029FB
:101D0000FBD00021C3F80415D2F80034002BFBD01F
:101D1000BFF34F8F1749184BCA6802F4E0621343B0
:101D2000CB60BFF34F8F00BFFDE7144B144A1A601E
:101D300008BD00BF240300104035014074C00740B7
:101D40000DF0ADBA440200103C050040F0ED00E09B
:101D5000A00500401056004000C00040580200108E
:101D6000E40E004030010010340100103C17004028
:101D700000E0014000ED00E00400FA05082D00201D
:101D80000090D00338B5416A044600F090FA236A07
:101D9000984205460FD070B1A28E0132014692B230
:101DA000204600F035F928B90823A362A38E6562A6
:101DB0000133A38638BD6FF00300FBE72DE9F04F38
:101DC00085B0044603A80D46174600F0F7F8061E36
:101DD00069DB94F83630012B29461FFA86F807D9BB
:101DE0005D1E19445A42A844013908EA020811400C
:101DF000012B0DB204F10C0A86BF59420B4001239E
:101E00004FF0FF3150461D440AF0A2FAADB206462B
:101E1000002854D1D4E909134A6843442B4493421F
:101E20002BD994F806B08146204600F040FA236A88
:101E3000B9F1000F08BF81469842014639D0B34539
:101E400006F1010333DCB9F1000F32D0D9F80420D8
:101E500008F108032B449A422BD3A28E013292B28E
:101E60004946204600F0D4F80646C8B90823A362C4
:101E7000A38EC4F824900133A386D4E90912CDF8C7
:101E8000008003AB204600F067F80646A0B9636AFD
:101E90003B60A36A7B60A36A43441D44BB60A562A8
:101EA00050460AF0BBFA304605B0BDE8F08F1E463A
:101EB000BAE76FF00306F3E76FF00106F0E74FF0C3
:101EC000FF36F0E7F0B583B090F83620D31D03F469
:101ED000FC7302AFADEB030D02AE04460D46304677
:101EE000FF2101F09BFC32462946204600F039F9DB
:101EF000A8B994F83630AA89A9680093012B81BF4C
:101F000002F1FF32D218584202400A44334629688F
:101F1000204600F021F8002818BF6FF001000437B8
:101F2000BD46F0BD806B08B100F0A3BB704770B533
:101F300014461A46049B4D68E618AE4209D8806BD9
:101F400020B10968214400F02DFB08B16FF00100B9
:101F500070BD4FF0FF30FBE770B514461A46049B86
:101F60004D68E618AE4209D8806B20B1096821445B
:101F700000F030FB08B16FF0010070BD4FF0FF3092
:101F8000FBE7806B08B520B1D1E9001200F04BFBF4
:101F900008B16FF0010008BD416A38B5044600255C
:101FA0006379AB4201DC284638BD204600F07FF95A
:101FB000236A83420146F6D00135F1E77F2902D832
:101FC00001700120704747F6FE7399429FBF61F090
:101FD0007F03C9090370417094BF02204FF0FF30A6
:101FE000704790F900200378002A0BDA427803EA60
:101FF0000200FF2809D003F07F0343EAC2130B80DD
:10200000022070470B80012070476FF0020070477C
:102010001FB503798DF80C30FF238DF80D300823A0
:102020000468ADF80E20009300226B440294FFF781
:1020300093FF002818BF6FF0010004B010BD30B549
:10204000054685B0144602B902AC0823009300226D
:1020500023462846FFF76BFF50B923685A1C05D06A
:102060002A6893420CBF01206FF0060005B030BD16
:102070006FF00100FAE72DE9F04F8B6885B00C4650
:102080002BB94FF0FF35284605B0BDE8F08F4B79EE
:102090008A799B1A002BF4DD3831C0B200F048FA7F
:1020A00006460028EDD12046FFF73CFF8146002878
:1020B000E7D04FF0FF3BB2463746D8466379B3428C
:1020C00023DCB8F1FF3F48D1A768002239462046FB
:1020D000FFF79EFF05460028D5D1BA46C4E9087A25
:1020E000082384F83690A362A58604F124063146BD
:1020F000204600F0BBF8C31C054630D00028F6D0BF
:1021000004F10C000AF01EF9BDE7A16802AA01EB78
:10211000C60120460191FFF792FF051EB3DB09D0EF
:10212000B8F1FF3FBDF80E30019905D198468A46B7
:102130000F469B460136C1E71DB20FFA8BF0281AF5
:10214000002802DD9B468A46F4E70FFA88F2521B0C
:10215000002AC4BF98460F46ECE75D46BEE700255F
:10216000CEE72DE9F0470C461746D1E900124B683F
:10217000951C9D428CB006464BD80223009304ABBD
:10218000FFF7D5FE20B16FF001000CB0BDE8F0877D
:102190000DF10E0104A8FFF724FF0028F5DB96F8E7
:1021A00036206168012A88BF02F1FF3583B282BF01
:1021B0005B19524213400B44A360BDF80E30A3815B
:1021C000024604A9FF20FEF779FFD4F80880BDF885
:1021D0000EA00546C244D04502D33D700020D4E78E
:1021E000AAEB0809B9F1200F28BF4FF02009216898
:1021F000CDF8009004AB42463046FFF798FE002829
:10220000C1D128464A4604A9FEF758FFC8440546EE
:10221000E1E76FF00200B8E77FB50DF10E02064668
:102220000D46FFF79EFFE0B996F83630AC89AA68F4
:102230002968012B81BF04F1FF34E4185B421C4084
:102240000123009322440DF10F033046FFF76FFE88
:1022500048B99DF80F209DF80E309A4218BF6FF0D4
:10226000050004B070BD6FF00100FAE738B5044610
:102270000D46FFF7D1FF08B1831D17D194F8361032
:10228000AB89AA68012981BF03F1FF335B1848427B
:1022900003400129134486BF4A420A4001221344E5
:1022A0006B6029462046FFF7B7FFE5E738BD826837
:1022B0004379083102EBC303994234BF0846104604
:1022C00070470B6870B505460C460BB9036A0B6086
:1022D000636853B90823214663602846FFF79CFFD3
:1022E000811D1FD048B9002070BD21462846FFF748
:1022F000BDFF0028F7D0C21C12D1082621686B6AE6
:10230000994218D02846FFF7D2FF2146C4E90006BB
:102310002846FFF781FF831D04D00028E3D0EDE7B6
:102320000630E0D121462846FFF7A0FF0028DAD08A
:102330000630F7D0E1E76FF00200D5E770B500F1A5
:102340000C0604460D4630464FF0FF310AF000F807
:1023500048B920462946FFF7B4FF044630460AF044
:102360005DF8204670BD4FF0FF34FAE7F8B500F194
:102370000C0704464FF0FF31384609F0E9FF48BB2F
:10238000216A2046FFF7FDFD08BBD4E908139942F6
:1023900012D12046FFF78BFFA28E0132014606467E
:1023A00092B22046FFF734FE054658B90823A362CF
:1023B000A38E66620133A386216A2046FFF777FF6A
:1023C0000025206238460AF029F82846F8BD6FF04B
:1023D0000105F7E74FF0FF35F7E72DE9F04186B04B
:1023E0009846002304460D4617460191029300F1DA
:1023F0000C064FF0FF31304609F0AAFF002812DA30
:102400004FF0FF3006B0BDE8F0810AF007F815B1D3
:10241000019BAB4210D1A36B0593414601A8B8477D
:102420000028E6D0EEE701A92046FFF74AFF033077
:102430003046EAD109F0F2FF0020E3E713B5114C72
:10244000BFF35B8F2068BFF35B8F60B90E4809F064
:102450008BFDBFF35B8F54E8003F44E80002002A85
:10246000F9D1BFF35B8F436804221B680DEB0201B7
:102470009847002802DA00F017FE0190019802B098
:1024800010BD00BF5C000020CFD800004368DB68AF
:1024900018470000094B70B51D68094B02461968C2
:1024A0000C2600239D4201DC002070BD06FB03F4D6
:1024B00008190C5D9442F8D00133F3E718D90000F5
:1024C0000C2D002008B5034809F04EFD024B1860A2
:1024D000002008BDECD600006000002070B5026846
:1024E0004C68A24216D38B6823449A4206D2D1E9A3
:1024F0000435AB4204D36FF00B038B6100200AE07C
:10250000CD68121B05EBC30645F8332042687260A4
:1025100001330B61012070BD10B9044B186870477E
:10252000404080F311884FF0050002DF600000207A
:10253000084B1B6810B50C462BB1FFF7ABFF28B159
:102540002060002010BD6FF00C00FBE76FF0010071
:10255000F8E700BF0C2D00207047000030B589B0AF
:102560000C4615460190FFF795FFB0B14368029302
:1025700083682268CDE903350023CDE9062305935E
:102580004078FFF7C9FF064901AA09F0D3FA079876
:1025900008B9059B236009B030BD6FF01500FAE75C
:1025A000DD24000070B51D4683688B4204460ED3BF
:1025B000681883420BD36078FFF7AEFF4368666804
:1025C0001C6831442B46A446BDE8704060474FF07C
:1025D000FF3070BD2DE9F843984683688B4207466B
:1025E0000E4691461CD308EB0102934218D3407863
:1025F000FFF792FF00210546FFF748FF044660B948
:102600006B6879685C68314443464A462846A0476F
:10261000012104462846FFF739FF2046BDE8F8832C
:102620004FF0FF34F9E783688B422DE9F04107460C
:102630000E4690461AD30A44934217D34078FFF7C8
:102640006BFF00210546FFF721FF044658B9796862
:102650006B6831449B6842462846984701210446EE
:102660002846FFF713FF2046BDE8F0814FF0FF3406
:10267000F9E708B54078FFF74FFF4368187D08BDBC
:10268000F0B5104B1D6885B006460F46A5B16B68C6
:102690000024CDE901011B680B49039401AA2846D7
:1026A0009847039B012B0AD06B683A469B683146DA
:1026B0002846984705B0F0BD6FF00100FAE72046C4
:1026C000F8E700BF900F0020D126000000F0DAB834
:1026D00038B50D461168144601F059F830B96168F3
:1026E0002DB909B10B7843B90123A36038BD21B1DD
:1026F000284601F04CF80028F6D00023F5E700004A
:102700000E4B10B51C680021224632B941B9046055
:102710005A6818605AB9586009E011461268F4E71F
:102720000C683CB902605A6812B9C3E9000010BDD8
:102730001060F0E704600860F9E700BF880F002030
:10274000014B1860704700BF900F002038B5094B4F
:102750001C684CB1084D636820461B68002229465E
:1027600098472468002CF6D1BDE83840002000F0DE
:102770009DB800BF880F0020CD260000024B00222C
:10278000C3E90022704700BF880F002010B5054C38
:10279000237833B9044AC2E90033FFF7EFFF01237E
:1027A000237010BD64000020940F0020044B1A68B1
:1027B00002605A68186002B958600020704700BF74
:1027C000940F002038B5074B1C68054614B9002447
:1027D000204638BD6168284600F0D9FF0028F7D0B0
:1027E0002468F3E7940F00200023F0B51E4608B9D3
:1027F0000B60F0BD42F823000446274614F8015B45
:102800002DB12F2D2046F8D13E700133EFE7284639
:10281000FBE710B5FFF7E8FF20B9BDE810401068EE
:10282000FFF7D0BF002010BDF0B585B017680D468A
:102830000646144600F0A4FF3346009003AA39462A
:102840002846FEF7D5FC18B9039B236005B0F0BD00
:102850004FF0FF30FAE77FB50E46741E194603238A
:1028600094FBF3F4A40005348C42154608DC0346BF
:10287000009603AA2846FEF739FC284604B070BD2E
:102880000025FAE710B58AB00C4602AA01A9FFF7A5
:10289000C0FF38B1C3680198224603A901389847A0
:1028A0000AB010BD6FF01500FAE7000030B504461D
:1028B0008BB068B102AA01A9FFF7ABFFB0B1036901
:1028C0001BB9002420460BB030BD98470446F9E7F9
:1028D000084B1D68002DF4D02B691BB19847002CC4
:1028E00008BF04462D68002DF6D1EBE76FF0150404
:1028F000E8E700BF940F002073B51E4C2378002B2F
:1029000035D1FFF743FF09231B4A00936946042092
:10291000FFF724FE38B10C3005D0404080F3118819
:102920004FF0050002DF154D009B6B73284600F049
:1029300073F9A8B101A90420FFF7FAFD01460028A8
:10294000EBD101988268FFF76EFE06460198FFF70B
:1029500003FE002EE1D1284600F05EF90028DCD10C
:10296000064800F083F90028D7D101232370002006
:1029700002B070BDB000002068000020102D0020C3
:1029800070B5002414602546064610F8013B33B9A3
:10299000A01E01284FF0FF3098BF002070BD032C0F
:1029A000F2D8DFE804F0020A1018202BECD0093B23
:1029B000042BE9D90E600124E6E73D2B0BD100F88A
:1029C000015C0224E0E7202BDED0093B042BDBD99D
:1029D00016600324D8E7202B02D0093B042BD3D860
:1029E00000F8015CD0E72DE9F8430546104689461A
:1029F00090461E4600F0C4FE0746E6B1304600F0A1
:102A0000BFFE0446BB1C23444B4516DC41463A46F8
:102A1000284600F0D8FE07F101083D23EB55224679
:102A2000314605EB080000F0CEFE04EB0800002361
:102A30002B54BDE8F8833446E4E74FF0FF30F8E765
:102A4000F0B5036885891F68D7B0B5F5A47F0C463B
:102A50008168006928BF4FF4A47503AE2B46324647
:102A60003944FFF79FFD58B9705502AA01A93046B5
:102A7000FFF786FF20B9D4E90032DDE9010198476C
:102A8000002057B0F0BD000007B50830CDE90012B6
:102A90006B46054A0021FFF7A0FC002818BF6FF025
:102AA000150003B05DF804FB412A0000F8B50446A8
:102AB0001F4603680D461868A168A389164601449D
:102AC0002A462069FFF76EFD40B9A3893A46E854CB
:102AD00031462846BDE8F840FFF752BFF8BD2DE962
:102AE000F0431346ADF2344D80460A4629B96FF0E3
:102AF00015000DF2344DBDE8F08340F2491113A8E2
:102B0000FFF771FF071EF2DBBB1CB3F5A57FEED20A
:102B10004FF00A0908F1080405AAB9B22046FFF7E8
:102B20004DF9031D63D12046FFF72CF960B9CDE9BB
:102B30000900D8F840300D9309A92046FFF7FEFBA5
:102B400030B12046FFF712FCB9F10109E2D1CEE71E
:102B5000099AD8F828309A42F3D102AB01AA66A9A3
:102B600009A8FFF7A3FF0028E6D1029B002BE3D0C2
:102B700009AE0FCE0EAD0FC533682B600EA92046EF
:102B8000FFF7DCFB20B3099B0B991868BDF83030C8
:102B9000014466AA0D98FFF705FD0028CCD1BDF8C9
:102BA00030100EAA2046FFF709F90028C4D10E9B69
:102BB00010991868BDF83030014466AA1298FFF7E2
:102BC00009FD0028B8D10EA92046FFF77BF9B3E72D
:102BD00004AB03AAB9A90EA8FFF768FF0028CDD15E
:102BE0000399019800F0D3FD0028C7D1A4E700287D
:102BF0007FF47DAF059B0799186813AA01443B46F3
:102C0000D8F84000FFF7E6FC00287FF470AF05A974
:102C10002046FFF757F96CE7012370B504460373AC
:102C2000837300F1080631460420FFF724FA0546B5
:102C3000B0B93046FFF7B0F900280ADCE36A206C2F
:102C4000D3E90012FFF7EFFC0028ECD06FF0040589
:102C500004E0054B63602046FFF752FD284670BD37
:102C60006FF01505FAE700BF542D002008B5034B9F
:102C70004360FFF765FD002008BD00BF542D002014
:102C80000A2838B5074D044604D1286843680D2149
:102C90005B68984728684368E1B25B6898472046BC
:102CA00038BD00BFB40000200148FEF7A5BD00BF3D
:102CB000812C000008B5044809F056F9034B186050
:102CC000FFF7F2FF002008BD6BD70000B400002022
:102CD00010B54FF02003EFF3118283F31188114CEC
:102CE000237823B982F311886FF0440010BD013BB3
:102CF000DBB2237023B182F311886FF00F00F5E788
:102D0000094B1878012128B1217082F311886FF0E6
:102D10000A00EBE7197082F31188044A11601870F9
:102D2000E4E700BFBA000020B90000200400004022
:102D300008B500221046012100F09CFB002000F0A5
:102D400067FB002008BD0000F8B54FF02002EFF34C
:102D5000118382F31188264A1078441C147070B1D4
:102D600083F311884FF08043D3F80C3403F0011340
:102D7000B3F1011F0CBF00206FF0430007E01D4DB1
:102D80002F782FB1107083F311886FF00A00F8BD0F
:102D900001262E7083F311884FF0804419B3384612
:102DA00000F046FBC4F80071D4F80433C4F804639F
:102DB0002660D4F8002192B10022C4F800210E4A06
:102DC00013F0010F4FF0010308BFC4F808330020CF
:102DD000C2F8803100F01CFB00232B70C2E720BF3B
:102DE00040BF20BFE5E7C4F800112660F4E700BF4C
:102DF000BA000020B900002000E100E038B54FF033
:102E00002002EFF3118382F311881D4D2A788AB1D5
:102E100083F311884FF08042D2F81C34D2F8182482
:102E200003F0030343F48033934314BF6FF0430074
:102E3000002038BD01242C7083F311884FF08043AB
:102E4000104DC3F80421C3F818152C6011F00301CC
:102E50004FF01805C3F80853C3F80C21C3F810212C
:102E6000D8D11022C3F83825C3F80453C3F804435B
:102E7000FFF76AFF0028CDD1034BC3F80041C9E733
:102E8000B80000200800004000E100E0F8B54FF075
:102E900080430446D3F808C1D3F80423D3F80C5474
:102EA000D3F80071D3F80401D3F80C11D3F81061F2
:102EB00002F00102BCF1000F03D04FF0000CC3F888
:102EC00008C127B14FF080430027C3F800713AB121
:102ED000EB0341BF4FF080430122C3F808231A617E
:102EE00020B14FF080430022C3F8042149B14FF0D4
:102EF00080450021C5F80C112046FFF7E9FE0123AB
:102F00006B6176B14FF0804300210125C3F81011A9
:102F10002046C3F80453FFF717FF10B9014BC3F85D
:102F20000051F8BD00E100E0094BC3F84005D3F8BB
:102F30000435C01A20F07F4323F001030BB10302D4
:102F400004D5044B4FF40032C3F80021704700BF92
:102F50000010014000E100E038B5114B114CD3F8EE
:102F600004052268104D801A2B6820F07F408342B0
:102F70000FD8B0FBF3F00D490968884228BF084616
:102F800000FB032323F07F432360094B186009F003
:102F90006DFE20682B681844BDE83840FFF7C4BFB9
:102FA00000100140C0000020A02F0020BC00002025
:102FB0009C2F0020024B0022C3F84021FFF7CCBF1A
:102FC00000100140084B00281A68084B93FBF2F3ED
:102FD00002DB8342A8BF034605490B600549086828
:102FE00002FB0300FFF7A0BFA02F0020FFFF7F0020
:102FF000BC000020C000002008B5074B0022C3F829
:103000004021064B4FF40032C3F88021FFF7A4FFA4
:10301000034B01221A6008BD0010014000E100E0EE
:10302000BC00002070B5194808F09EFF50B34368FB
:10303000174D1B6800219847164B00241C60164B47
:1030400001261E60154BC5F808451B68C5F84035BC
:103050004FF48033C5F84433C5F80433104BC5F83A
:1030600040414FF40032C3F88021314622461120FE
:1030700000F000FA112000F0CBF90A4B20461E6048
:103080002E6070BD4FF0FF30FBE700BF4BD7000054
:1030900000100140C0000020BC000020A02F002034
:1030A00000E100E008100140064BD3E90001064BA7
:1030B0001B685843054BD3F804351B1A23F07F4394
:1030C00018447047B8100020A02F002000100140C5
:1030D00007488168006A884208D000B509F0C2FC40
:1030E0005DF804EB03494FF080520A60704700001E
:1030F0008010002004ED00E0044800232021C218C5
:1031000001331E2B82F80013F9D1704700E100E073
:10311000084A094993680968D966084998664B685E
:1031200043F080534B60002383F311889368D86E7B
:10313000704700BF801000202CDE000000ED00E092
:10314000202080F311880D498A684FF02C0010442C
:10315000EFF3098C80E8F01F094F4FF000660A6A10
:103160008A603E60906E0023936680F3118802F1BE
:103170002C0090E8F01F8CF3098870478010002025
:1031800004ED00E01EF0040F0CBFEFF30880EFF336
:103190000980816931F8021C11F0FF010229FFD07A
:1031A00000B500F00BFA00BD38B5164C05461648C0
:1031B000FEF776FCA26AD30602D51448FEF770FC2F
:1031C000A36A180702D51248FEF76AFC0D4CA36AE1
:1031D00099070ED50F48FEF763FC616BA36A1A06C8
:1031E00007D50D48FEF75CFC1DB1A36A23F08003F0
:1031F000A362044B9B6ADB0702D50848FEF750FC2C
:10320000002038BD00ED00E034D900004BD90000AB
:103210005DD9000071D900008AD90000A1D9000051
:1032200038B5194C05461948FEF73AFCA36AD9048B
:1032300004D51748FEF734FC002038BDA36A1A05F0
:1032400001D51448F6E7A36A9B0514D51248FEF78A
:1032500027FCA16BA36A180407D51048FEF720FCD1
:103260001DB1A36A23F40043A362074B9B6A59056F
:10327000E2D50B48DEE7A36A5A05FAD4A36ADB0558
:10328000DAD50848D6E700BF00ED00E0C1D900005C
:103290004BD900005DD90000D8D90000F2D9000058
:1032A00008DA000024DA000010B5194C1948FEF7BE
:1032B000F7FBA26A930102D51748FEF7F1FBA36A58
:1032C000DC0102D51548FEF7EBFB114CA26A100396
:1032D00002D51348FEF7E4FBA36A590302D511484F
:1032E000FEF7DEFB0A4CA26A920302D50E48FEF7F7
:1032F000D7FBA36ADB0302D50C48FEF7D1FB044AD7
:10330000936A6FEA03436FEA13439362002010BD90
:1033100000ED00E03DDA000056DA00006ADA000055
:1033200085DA0000A4DA0000CADA0000E5DA00005D
:1033300070B5284D6B68C3F30802D11E06460929F3
:103340003BD8DFE801F0053436293A3A3A3A3A38C0
:103350002148FEF7A5FBEC6A14F0020404D01F48D4
:10336000FEF79EFB00241CE0EB6A5B0019D51C48AD
:10337000FEF796FB1B4B1B781BB10120FFF714FFD8
:103380000CE0194B1B781BB10120FFF749FF05E04A
:10339000164B1B889BB223B1FFF786FF0628044615
:1033A00017D031462046BDE8704000F0D5B8002067
:1033B000E4E70020E9E70E48D2E713F4F87F0D4B6D
:1033C0000D490E48A2F1100218BF1946FEF768FB1E
:1033D000C8E770BD00ED00E03FDB000057DB0000F8
:1033E00079DB000028ED00E029ED00E02AED00E0A7
:1033F00099DB000026DB000011DB0000D0DB0000C1
:10340000024A536943F010035361704700ED00E036
:1034100043B2002B08DB012200F01F0002FA00F08B
:103420005B09024A42F82300704700BF00E100E058
:1034300043B2002B0DDB01225B0900F01F0002FAF2
:1034400000F02033034A42F82300BFF34F8FBFF34D
:103450006F8F704700E100E0054B420900F01F004C
:1034600053F82220012303FA00F01040704700BFF8
:1034700000E100E043B2002BA8BF03F1604301F17B
:103480000101B8BF064B4FEA4111ACBF03F56143E0
:1034900000F00F00C9B2B4BF195483F8001370478D
:1034A00014ED00E000F044B808B572B6044BD869DA
:1034B00018B10022DA6108F08FFD62B608BD00BFC6
:1034C0008010002070470000F8B50C461646099998
:1034D0001F4604220A9B054609F0D8FDA6F12001EB
:1034E0000C4B214421F00701002223F00103C5E920
:1034F0001422C5E917468B61069B4B60079B8B60C6
:10350000089BCB604FF080730F60CB61E964AA66C3
:10351000F8BD00BFA9100000014910220A607047E1
:1035200010ED00E0404080F3118830BF704700BFCD
:10353000404080F31188DFF81CC0DCF800C01CF4A8
:10354000006C0CBFEFF30880EFF3098000B5FFF7C4
:10355000EFFE00BD04ED00E038B504460D46052839
:103560001AD8DFE800F00319191315170D48FEF7F4
:1035700097FA09F00BFBAA6901460B48FEF790FA8F
:1035800029462046BDE8384000F01CB80748EEE761
:103590000748ECE70748EAE701460748FEF780FAE4
:1035A000E7E700BFE4DB000082DC000004DC000091
:1035B0002ADC000044DC00005FDC000001460068FB
:1035C000FFF7CABF052810B50CD009F08FFC60B119
:1035D00009F08CFC0C4A0D49002818BF11460C4814
:1035E000FEF75EFAFFF79EFFFCE709F08FFC00286C
:1035F000EED1084C0848A168FEF752FAA068BDE871
:10360000104000F00BB800BFBEDC0000C2DC0000C0
:10361000D3DC000080100020F3DC000038B5044645
:103620004FF02003EFF3118583F3118809F0C4FCF8
:103630000B4B9B68A3420DD10A4B5A68C2F3080298
:1036400022B909F00FFA2846FFF762FD5A6842F0E6
:1036500080525A602846BDE8384009F091B800BF52
:103660008010002000ED00E000B572B60B4AD06972
:1036700000281EBF0021D16108F0AEFC62B6EFF356
:103680000580A0F110004FEAC0000549014409C9B6
:1036900098475DF804EBFFF71BBD00008010002089
:1036A000B8000000202080F3118806484FF4006124
:1036B000401880F30988022080F31488BFF36F8FCD
:1036C00000F006B8B020002030BFFFF7FDBF00BFFC
:1036D00008B5074B074A23F07F039360BFF34F8F72
:1036E000BFF36F8F08F0BEFC08F0C6FC08F0E4FCE6
:1036F0000000000000ED00E008B5FFF7E5FFBDE8C1
:103700000840FFF7E5BC0000034B05225A60BFF3F9
:103710004F8FBFF36F8F704790ED00E0114A10B5E7
:103720001468082C1BD81049506800234B609C4239
:1037300000F10C0003D1FFF7E7FF002010BD8B6004
:1037400050F80C2C22F01F021A4342F01002CA60FB
:1037500050F8042C42F001020A610133E7E74FF010
:10376000FF30EBE7CC2C002090ED00E00139034660
:1037700011F8012F0AB91A70704703F8012BF7E707
:10378000034600201A5C02B970470130FAE7431E75
:10379000013913F8012F11F8010F824201D1002ADB
:1037A000F7D1101A704710B55AB10139841810F8C2
:1037B000012B11F8013FA04201D09A42F7D0D01A54
:1037C00010BD1046FCE7F0B581EA0004A5070346EA
:1037D0000BD0013B0A4491421BD1F0BD002AFCD022
:1037E00011F8014B03F8014B013A9C07F6D122F086
:1037F00003041D1F96080F19B94205D16FF0030588
:1038000005FB06222344E4E751F804CB45F804CF36
:10381000F2E711F8014B03F8014FDCE770B5C9B2CC
:1038200003469C0711D141EA012422F0030644EA31
:1038300004451E449408B3420DD16FF0030505FB07
:1038400004221A44934209D170BD002AFCD003F827
:10385000011B013AE5E743F8045BECE703F8011BC1
:10386000F0E70346BFF35B8F53E8000F40EA010225
:1038700043E8002CBCF1000FF6D1BFF35B8F70471B
:1038800070B5064688790C4607F0A4FB0E4B8342C0
:1038900019D1204607F0A4FB204607F0A1FB0B4DF1
:1038A00005EBC000436873B1204607F099FB05F8AB
:1038B0003060204607F094FB05EBC0056868BDE862
:1038C000704009F072B970BD78300020C40000204B
:1038D000074BBFF35B8F024653E8000F00EA02017B
:1038E00043E8001CBCF1000FF6D1BFF35B8F7047BB
:1038F000D82D0020F8B50B4F06460025FB79ECB219
:10390000A34202D86FF0010409E0C4EBC40107220E
:1039100039443046FFF747FF01350028EED12046F5
:10392000F8BD00BF682D0020054BBFF35B8F1B6FF8
:10393000BFF35B8F43FA00F000F00100704700BF57
:10394000682D00202DE9F04706460F461348144D18
:103950004FF0FF3107F0D2FB044600F108080021C8
:1039600040464FF0000A07F0E8FB84F814A0204618
:1039700007F036FB05EBC0004680204607F030FB21
:1039800005EBC0050321C5F804A0404607F018FC6C
:10399000877006802046BDE8F08700BF78300020A1
:1039A000C400002070B5154686B00C4619B9FFF763
:1039B000C9FF044668B301220021684609F0ECF80B
:1039C000204607F00DFB144E06EBC000C0F804D0F3
:1039D000204607F0F1FB1148214607F0B2FB42F206
:1039E0001071684609F008F9204607F0F9FA16F850
:1039F000300030B1204607F0B1FB6FF0040006B094
:103A000070BD0DB12C60FAE7204607F0A7FB2846F1
:103A1000F5E76FF03600F2E7C40000200C2E00201E
:103A200070B5154E062206F10A010546FFF7BBFEEA
:103A30000446D8B1062142F20500FFF783FF044691
:103A4000B0B106222946083007F0C0FB214600220B
:103A500042F20500FFF7A6FF044638B906222946C0
:103A600006F10A00FFF7AFFE01237372204670BD16
:103A70006FF03604FAE700BF682D002007B5062175
:103A8000684606F0FBFA40B99DF80530684603F039
:103A90003F038DF80530FFF7C3FF03B05DF804FB6B
:103AA0002DE9F84F0C46202182461746FFF74AFFC2
:103AB0000646002854D02021083007F081FB202240
:103AC00000210546FFF7AAFE04EBC707BC4206D15A
:103AD000314650460022BDE8F84FFFF763BFD4F8E7
:103AE00000804FF0000B63685B4501D80834EDE7B8
:103AF0002B7898F8012098F80010981C02EB000C25
:103B0000BCF11F0F0CDD0929C3F11D0200D132B930
:103B1000304607F023FB6FF01500BDE8F88F082151
:103B20004FFA82F905EB030C09F1010E8CF801E064
:103B300003F1020C013355FA83F3C0B285F800C0DB
:103B400001305970D8F804102844FFF73CFE2B7858
:103B5000994485F800900BF1010B08F10808C2E7C1
:103B60006FF03600D9E7012310B50621044600F8AE
:103B7000013B06F083FA18B9A37963F03F03A37100
:103B800010BD000030B5154DC0EBC00085B0054438
:103B90000C4681B100230722694620460093CDF8E8
:103BA0000330FFF700FE30B1072221462846FFF719
:103BB0000AFE05B030BD02A8FFF7D5FF02A8FFF747
:103BC00099FE0028F7DA072202A92846FFF7FBFD35
:103BD000002CEED0072229462046E8E7682D002079
:103BE000024BD3F8B4301B69184700BF682D002082
:103BF0002DE9F041274D284E05F1A408F368264829
:103C00006FF310334FF0FF320121F36009F010FB26
:103C1000C8BBF368C3F30433042B2CD1377B57BBE9
:103C20003946404607F070FA044660B31B484FF02F
:103C3000FF3108F0E1FFD5F8A000F8B9204607F001
:103C4000BBFAC5F8A0002046FFF7CAFF98B1134899
:103C500008F0ABFF204607F0C3F900211F20FFF753
:103C60000FFED5F8A00007F079FA00232046C5F82A
:103C7000A03007F073FA08F021FFBFE707F06EFAF3
:103C8000C5F8A070DAE7404080F311884FF00400D7
:103C900002DF00BF682D0020202E0020F02D002024
:103CA000F8B5067D012E04464ED187683B780E3B61
:103CB000012B05D8404080F311884FF0040002DF4B
:103CC00000F108050221284607F091FA3B783E2BC7
:103CD00009D1A7683146284607F089FA3B78082BB6
:103CE00006D0092B22D0204607F038FA0020F8BD74
:103CF000A6686FF02000FFF7EBFD337843B9711C25
:103D000014484022FFF75FFD13481021FFF7A9FD7B
:103D1000124B1D68771C002DE5D032782B68002AE5
:103D20000CBF3846002098476D68F4E70C4D2A68B0
:103D3000002AD8D0A068037823B901309047002327
:103D40002B60D0E70020F9E707F008FA6FF01500C4
:103D5000CDE700BFD8000020D82D0020180100209A
:103D6000D4000020F8B5037D8668012B044605D0F9
:103D7000404080F311884FF0040002DF8389012B5B
:103D8000F6D933780E3B012BF2D800F10805022159
:103D9000284607F02CFA33780E2B05D00F2B17D0BE
:103DA000204607F0DBF9E3E7A368032128461E78E5
:103DB00007F01DFAA36821461878FFF761FD16B1D8
:103DC0000A4808F0F2FE204607F0C8F90020F8BDC6
:103DD000A66804217778284607F009FA307821464A
:103DE000FFF74EFD002FEED0EAE700BFF02D0020D8
:103DF000084A0346D2F8B40030B9D96839B1196914
:103E000029B1C2F8B43070476FF0440070476FF0CA
:103E100015007047682D002038B50D4605492B6800
:103E2000CC799C4228BF1C46C4EBC402FFF7CBFCF4
:103E30002C6038BD682D002073B50D46044618B9B6
:103E4000F5B16FF0150518E00023072269460093CD
:103E5000CDF80330FFF7A7FC0028F1D02378012B21
:103E6000EFD1A37903F0C003C02BEAD12046FFF7BE
:103E700041FD0028E4DB6FF04405284602B070BD28
:103E80000C4AD679012E11D0731CD371354646B930
:103E90000120FFF749FD20B9082102F17000FFF76A
:103EA000E0FC21463046FFF76DFEE6E76FF00B05BC
:103EB000E3E700BF682D002013B5164CE17921BB64
:103EC00094F86230DB0720D501AA4FF60940FFF7CE
:103ED00069FDD0B9019B99684B78002B14BF012371
:103EE0000023E37107D02046012300F8013B06229E
:103EF0000231FFF768FC019807F030F9E37923B14C
:103F00000548FFF78DFD02B010BD00210846FFF700
:103F100093FFF8E7682D0020692D0020F0B5BC4D17
:103F2000D5F8B430996811F0010187B022D101AA07
:103F300040F60340FFF736FD0446002840F0948029
:103F4000019B9B681B7893B9BFF35B8F2B4653F89B
:103F5000702FBFF35B8F02F00D02BFF35B8F53E84E
:103F6000001F43E800200028F9D1BFF35B8F0198C0
:103F700007F0F4F801AA002141F20300FFF712FD57
:103F80000446002870D1019BA2489968082201319B
:103F9000FFF719FC019807F0E1F8214601AA41F268
:103FA0000100FFF7FFFC044600285DD101988368FB
:103FB0005A782A74D9789A7842EA01226A821A7960
:103FC0006A74197ADA7942EA0122AA825A799B79CB
:103FD00042EA0323EB8207F0C1F80320FFF7A4FCB9
:103FE000014650BB01AA41F20900FFF7DBFC044681
:103FF000002839D1019B02909E68ADF80C00013673
:10400000062202A93046FFF7CEFB98B1824B186812
:1040100004909B88ADF81430062204A93046FFF7BF
:10402000C2FB38B17D4806223146FFF7CCFB0123A5
:104030002C70EB71019807F091F801AA002141F270
:104040000200FFF7AFFC044670B9019B7448996801
:1040500040220131FFF7B7FB019807F07FF82B7F73
:10406000590604D46FF01204204607B0F0BD214673
:1040700004AA42F20300FFF795FC04460028F3D19E
:10408000049B6848996808220131FFF79CFB04985B
:1040900007F064F82B7F9A0640F1898095F83C3050
:1040A0001B0700F1A080082142F20100FFF74AFC43
:1040B0000446002800F082800821084407F080F8B8
:1040C00095F8423003F00603062B14BF02234FF489
:1040D000C173002203701B0A43708270C2700271A8
:1040E00042718271C271214642F20100FFF75AFC0F
:1040F00004460028B8D1082140F60140FFF722FC11
:10410000064600285AD00821084407F059F88023B1
:1041100043700227202304708470047144718471F9
:10412000C770C3712246314640F60140FFF73AFCA2
:104130000446002898D1014604AA4FF60140FFF733
:1041400031FC20BB049807F009F804AA21464FF679
:104150000240FFF727FCD0B9049B334899683A46E0
:104160000131FFF730FB049806F0F8FF04AA21465E
:104170004FF60340FFF716FC48B9049B2B4899689B
:1041800001221144FFF71FFB049806F0E7FFEB79CB
:10419000002B4FD026480221FFF763FBEB79002B61
:1041A0003FF462AF04212248FFF75BFB5CE702218A
:1041B00040F66D40FFF7C6FB064610B96FF03604B7
:1041C00052E70221083006F0FBFF01234470037020
:1041D0002246314640F66D40FFF7E4FB04460028D6
:1041E0003FF45CAF40E704AA002142F21C00FFF755
:1041F000D9FB044600287FF437AF0498836853F84E
:10420000012F5B68C5E9202306F0A8FF4BE700BF3C
:10421000682D0020802D002048D40000692D00204A
:10422000882D0020E02D0020C92D0020C82D002061
:10423000D82D0020FFF740FE0028ABD0044613E73E
:1042400010B5FFF76BFE034B1B6813B1BDE81040C0
:10425000184710BD1C01002070B5204DD5F8B430B2
:1042600086B006469BB3012105F17000FFF7F9FA0D
:1042700010F001002ED11A4A1A4B16606FF0080296
:10428000CDE90202CDE90400CDE900001649174846
:104290004FF4207208F072FED5F8B430DB6898470E
:1042A000044688B926B906B0BDE87040FFF736BEAF
:1042B000012105F16C00FFF7D4FAC30704D40C48C0
:1042C00005F1640108F03EF9204606B070BD6FF0BC
:1042D0001204F9E76FF04404F6E700BF682D0020F0
:1042E0001C010020F13B000078110020200100207B
:1042F000C81000202DE9F047DFF818A288B0054665
:104300001646102289460DEB020000219846109CAB
:10431000FFF784FA28789AF807308342574602D884
:104320006FF015048DE0C0EBC00000230722694642
:1043300050440093CDF80330FFF735FA0028EFD052
:104340006A786B88D20705D49AF81020082A01D819
:104350009F2BE5D9AA889A42E2D31F2BE0D9B2F568
:10436000804FDDD80620FFF7DFFA002840F0C98033
:10437000012204A942F20800CDE90496FFF790FB60
:104380000646002840F0C0806B781807CDE9048409
:104390000FD5B8F1000F02D03346A34240D1092314
:1043A0005A488DF80030FFF7EBF90123CDF818D00B
:1043B0000793049B002B3BD1069B002B38D16B78D5
:1043C000D90735D40F2200216846FFF727FA6B88FA
:1043D0002C78ADF80030AB883C72ADF802306B78C9
:1043E0000720DA078DF80D002FD4590749D5C4EB03
:1043F000C4034FEAC409FB5C012B05D110FB043058
:104400003844FFF70DFB0646A9EB04043B5D8DF82D
:1044100005303446ACB9B8F1000F39D0022324E09E
:1044200018F83320083A012A7FF67AAF0133B4E74F
:10443000022204A942F20900FFF732FB04460028D9
:10444000C0D0204608B0BDE8F087C4EBC403E60046
:10445000FB5C012B04D110FB04303844FFF7E0FA79
:10446000341B3B5D8DF8053000230F2142F206001E
:104470008DF80430FFF766FA044658B96FF0360439
:10448000DFE7FFF7FBFA012304468DF80530C1E7AB
:104490000323EAE70F226946083006F097FE21461B
:1044A000002242F20600FFF77DFA04460028C8D138
:1044B000012142F20A00FFF745FA06460028DDD046
:1044C0000121083006F08BFE2246314642F20A00F6
:1044D000FFF768FA04460028B3D10D484021FFF7E2
:1044E000C0F96B789A0704D409484FF48071FFF73C
:1044F000B8F96B781B07A4D580210548FFF7B1F9FF
:104500009FE76FF044049CE704469AE718DD00003B
:10451000D82D0020682D002010B56FF48070FFF7B3
:10452000D7F90620FFF700FA10B90024204610BD85
:10453000012142F20A00FFF705FA0446E8B1002122
:10454000083006F04CFE2146002242F20A00FFF736
:1045500029FA04460028E9D16FF04000FFF7B8F9C6
:104560000920FFF7E1F90028DFD00B20FFF7DCF985
:104570000028DAD0FFF782FAD8E76FF03604D5E7E3
:1045800038B50546054806F0B9FD044620B10021BE
:10459000083006F0D2FD2575204638BD9830002041
:1045A00010B54FF02003EFF3118283F311880C4B09
:1045B0000021D3F8A040C3F8A01082F311882CB9D1
:1045C0000146BDE810400120FFF7DABF012304F1E6
:1045D00008002375A18106F0B0FD204610BD00BF84
:1045E000682D0020F7B51860C31D23F003030E46A5
:1045F0001A80013A94B205460422002106FB040009
:10460000FFF70CF94FF6FF77013CA4B2BC4201D191
:1046100003B0F0BD04FB06602B180422801B0DEBD9
:10462000020128440193FFF7CEF8EDE773B5046863
:1046300005468CB1E31D23F00303042221460DEB54
:1046400002001E88FFF7BFF8019B23B1DA1D22F09C
:104650000302013E16802B60204602B070BD70B58B
:104660000C6806460D461CB1E31D23F003031C88AD
:10467000042229463046FFF7A6F8F21D22F0030275
:10468000631C13802E6070BD02FB01007047401A4E
:1046900080B2B0FBF2F0704710B5114401384FF60C
:1046A000FF73013A92B29A4200D110BD11F8014D48
:1046B00000F8014FF5E710600860704710B5146806
:1046C000206014686160106010BD884203D01AB188
:1046D000436813607047002070470B68834209D01D
:1046E00022B1586810601A680A6001E0002BFAD104
:1046F000184670470023FBE72DE9F047114FDFF81C
:1047000048A00424013CE4B2FF2C18D004EB44067A
:104710004FEA8409360104254FF00C080AE018FB23
:1047200005610A1D05EB09003A4439440AEBC00053
:10473000FFF7C1FF013DEDB2FF2DF0D1E2E7BDE88B
:10474000F08700BF1002002090010020F0B4124B4F
:104750000F464FF00C0C302672B106FB01F40CFB37
:1047600000469C19217A637A8B4204BF013323727D
:104770003946F0BC06F09ABB4E430CFB006633444E
:104780009C7ADA7AA24204D101329A72F0BC06F025
:10479000BBBBF0BC704700BF10020020F8B5054657
:1047A0000E461C468AB1012362782078801A10F0E8
:1047B000030729D003B3012F39D00132D2B22270BE
:1047C0003146284606F0A0FB1CE006F08BFB0028D3
:1047D000E9D03146284606F077FB0028E3D03023A5
:1047E0000C22734302FB0533124A1A44937AD27A9D
:1047F0009B1A18BF0123D7E70232D2B22270D4E944
:10480000020398470020F8BD002BF8D00132D2B245
:1048100022700423302212FB06320C2313FB0523E3
:10482000044A60681A442146FFF748FFC8E7384643
:10483000E9E700BF100200202DE9F04F00EB400334
:1048400087B01B014FF00008404E03930446042537
:10485000CDF80080013DEDB2FF2D0BD1009B002B68
:104860006CD0B8F1000F69D142462146204606F0CF
:104870001DFB63E00C27002307FB05F94FF0300A0E
:1048800005930AFB0493F118F058496805AAFFF74D
:104890001CFF039B17FB0537F31983460193BBF1FC
:1048A000000F30D0059A177851787F1A07F0030768
:1048B000012F04D101395170D2E9020188470599CD
:1048C0000A784978D3B2521A02F00302012A0293FD
:1048D0000CD00AFB04903044002201994068FFF795
:1048E000FCFE059A029BC2F804B053700AFB0493C5
:1048F000F118F058496805AAFFF7E7FE012F834633
:10490000CDD1BDB9B0B930220C23624303FB0522DF
:104910003244917AD07A884213D13022624303FB29
:10492000052333441A7A597A91421CBF5A724FF0C8
:1049300001088FE72146204606F0E6FA07B0BDE8F9
:10494000F08FD17201220092E7E700BF1002002031
:1049500010B5421E00200139C9B2FF2900D110BD97
:1049600012F8013F002BF6D05BB25C1E23400130F1
:10497000DBB2C0B2F6E7F0B5427F046805461346E5
:104980000020FF2A01D10020F0BD02EB820604EBDB
:10499000C60C8A42DCF8087014F83660384402D03D
:1049A00013463246EDE7934200D16E771BB203EB1C
:1049B000830304F833609CF80030FF2BE4D003EB52
:1049C000830304EBC304A3683B44A360DCE730B576
:1049D000551A15F4000F8368446909D125F07F4505
:1049E0002B44A3420ED91B1B00248360446130BDBD
:1049F0008A1A22F07F42934201D99B1AF1E71444AC
:104A0000E41A0023E41A0023EFE7034600221A7099
:104A10009A6A596208460AB1D96A104770472DE967
:104A2000F047857F01230446C3771DB9437FFF2BE1
:104A300002D1C577BDE8F08705F0E2FD6769667FC2
:104A4000D4F80080C71B27F07F47FF2E06D006EB67
:104A5000860608EBC6018B689F4218D2E27AA37AD9
:104A6000934205D10133DBB2022B08BF0023E3726E
:104A7000E37A04EB83030122DD60656A0023E377B8
:104A8000AC4623460421BDE8F047032060478A78FE
:104A900018F83660FF1A1D444B789B1ADBB2012BC5
:104AA000D3D1D1F80C90013A8A70B9F1000FCCD073
:104AB00048696369CA8B281A184420F07F400B6943
:104AC000496AC847C1E700002DE9F04FC27F93B0A3
:104AD0008046002A40F09F83436905930121837A31
:104AE0008177C07A984200F088800B44DBB2022BB9
:104AF00008BF002388F80A3008EB83038A46D3F8FE
:104B00000CB0059B5B4423F07F43C8F8143098F841
:104B10001D300393D8F800300493D8F804300B9379
:104B200098F80930029300230693FF230193029B18
:104B3000013BDBB2FF2B029362D198F81D30039A40
:104B40009B1A18BF01230293BAF1000F1AD0D8F8AC
:104B50000070DFF8FC93002698F81D40FF2C0BD066
:104B600025B205EB850507EBC50083685B4540F280
:104B70002C81A3EB0B038360DDE90232A24218BF54
:104B800053460293D8F800300793D8F804301093B6
:104B900098F809300493049B013BDBB2FF2B04938C
:104BA00040F06181DDE9022198F81D308B4218BF89
:104BB0000122069B0292002B00F09282002388F8CB
:104BC0001E30029B4BB198F81D30FF2B40F0E38262
:104BD00005F0FEFC08B9C8F8180098F81F30002B43
:104BE00000F01983D8F82440434601220321042011
:104BF000A44613B0BDE8F04F60479246934686E75F
:104C00000B9B029A03EBC2077B680793F978BE7887
:104C10008E428CD0079B387806EB46052A0103EBC1
:104C20000515731CDBB2984208BF0023BB70079BBD
:104C30009A5C032AEBD9697801EB81030A930A98FD
:104C4000049B03EBC004052A6378A078A3EB000360
:104C5000DBB20AD84BB1042A0CD16A6852B9AA68EF
:104C600042B9EA6832F07F4204D101212846FFF7B9
:104C7000CCFECBE7012B40F09D804046FFF77BFE4A
:104C8000A0602B78042B064640F08680D8F81430BC
:104C9000089305F0B5FC089B0990C31A23F07F43E5
:104CA0005B449E4298BF616960689DBF891B5B1829
:104CB0006361F31A98BF0023002849D0A98900290D
:104CC00046D001F1FF3C1FFA8CFCA5F80CC09842BD
:104CD000B4F81EE001D2F44502D3DFF8749231E05B
:104CE000616A994E994A8E19964281BF01F1E87125
:104CF00001F5D43101F5A5716162D4E908168CBFC4
:104D00004FF001094FF00009761A81440EF1FF3E81
:104D10006662A3EB0903A4F81EE0D8E7D4E90816FD
:104D20000E448949894A711891428EBF00210121A0
:104D30004E4401440EF1010E8CBF666266620B4464
:104D4000A4F81EE0B4F81EE0F445E7D8A4F81CC0AF
:104D5000A888E9880344A36063690B446361DDE9C3
:104D600008122046FFF733FEA2692B8913446A8993
:104D700093428CBF9B1A0023A361AB7B03B1E3700A
:104D8000049B0A9A019903F832106B7801936378B7
:104D900001336370002169E7A37863706B7898F83A
:104DA0001C209A4201BFFF2388F81C300023C8F85A
:104DB0001830EFE704214346D8F824400122084682
:104DC000A0470123BE700693B1E6D8F8182093429D
:104DD000ABEB030B1E4429BFFF23D31A88F81C300A
:104DE0000023C8F8183083691BB188F81C40C8F844
:104DF00018300021816017F8353088F81D30D0F860
:104E000004E0BEF1000F2AD0B0F81CC00491D0E934
:104E1000082313444C4A4D499A188A4296BF4B4482
:104E200043624362049A8CBF0023534673441A447E
:104E3000BCF1010C0492EAD2059B8260D8F81410F0
:104E40009A19FFF7C4FD838BC3830023C370019BB2
:104E500007F8353043780133437001947CE683785A
:104E6000019C4370F9E7109B049A03EBC20305937E
:104E70005B680993059B93F80190019BFF2B42D03F
:104E8000BDF90430079ADDF804A003EB830302EBBD
:104E9000C30412F8333001930025D8F800300A9388
:104EA000FF23A28B2370E38B93427ED99B1A9BB284
:104EB0000B930FFA8AF303EB8303DB001193C4E037
:104EC000099A09EB49052B0102EB051509F10102CD
:104ED0005FFA82F9059A12784A4508BF4FF0000937
:104EE000099AD35C032B0ED195F801A0079B0AEB1E
:104EF0008A0403EBC4046278A3789A4208D00121A3
:104F00002846FFF782FD059B9B784B45D8D142E6AA
:104F1000EB68D8F8141063602B692362AB8AA38313
:104F2000AB69A361EB69E3602B6A23610026AB6880
:104F3000A3606A6866612046FFF749FD0123666247
:104F4000E683E370A9E700BF5A2B17FF592B177FA1
:104F5000B6562EFE6068002800F0C080D4E9081222
:104F6000AE4B0A44AE49D3188B429CBFA2F1E87203
:104F7000A2F5D432A3688BBF6262A2F5A5720022AB
:104F80006262034498BF01221344E28B0132E28340
:104F9000626993424FF0000189BF9B1AD31AA36044
:104FA00061619CBF6361A1604FE0002380E7B66947
:104FB000401A46B9614501D2ACEB01060893B446EC
:104FC00012F83E304EE01F46F8E70EB206EB8606BA
:104FD0000F9602EBC6060D96B6680E9676450AD277
:104FE0000D9EB669002E4ED10E99AEEB010E0F99B3
:104FF00012F8311045E0FF2145E0BA4563D0FF2F9C
:10500000A8D039460A9B0FB207EB870703EBC70608
:10501000F28BB38B9A4288BFD21A73688CBF92B25C
:105020000022002B96D00B9B9A4293D8F278E3781B
:105030009A428FD24046FFF79EFCB37873700A9B6A
:10504000019AB06003F837200191119BD8F8002035
:10505000D8F818C002EB030B98F81D30DBF80800F5
:105060000893FF27FF2B06D003EB830E02EBCE063F
:10507000B16888429BD8DBF818100C9100EB010E48
:105080001946FF29A1D10C9E26B16045B5D3FF2951
:1050900040F0BD800899CBF808008B4218BFBDF9DD
:1050A00020108BF8003016BF01EB810188F81DA09D
:1050B00002F831A0FF2B06D003EB830302EBC303FE
:1050C0009A68101A9860A378013363700021002D4C
:1050D0003FF4D3AE2846FFF798FCCEE60121F6E771
:1050E000D8F80430019398F80940069B0493013CDA
:1050F000E4B2FF2C3FF462AD019B03EBC4056E6884
:105100006B78EA789A42F2D003EB43031A0106EB7C
:105110000313B25C012A24D0022A29D1D3E90190D9
:1051200099F80020D3F80CE0D8F800C0D8F8141093
:10513000FF2A02D007688F4223D098F81D20016013
:105140000021FF2A09D002EB820B0CEBCB0ADAF824
:1051500008000144DAF81800D0B189F80020CEF830
:105160000010049A5A629A6A12B1D96A00209047D4
:105170006B782A780133DBB29A4208BF00236B7048
:10518000BEE702EB8202DEF800101CF83220D8E7FE
:105190001CF83B20D5E7039BFF2B07D105F030FA25
:1051A000044605F007FA08B9C8F8144098F81D300D
:1051B000D8F8002003EB830302EBC3030A269D68A3
:1051C00005F01EFAD8F81430C41A24F07F440334D2
:1051D000AC422CBF1B195B1923F07F440746D8F85B
:1051E00028302046984705F00BFAC31B23F07F4375
:1051F000E41B033324F07F44A3427FF6EEAC013E70
:10520000DED1404080F311884FF0040002DF8A4570
:105210007FF4F8AE57E713B0BDE8F08F5A2B17FFB5
:10522000592B177FF0B51A4D059E04462C2767436E
:1052300005EB070C8E469DF818000799EA518CF88B
:1052400008E08CF80930CCF80460013BDBB2FF2B9E
:1052500010D1D8B92C2303FB0453089A1A62099A77
:105260005A620A9A9A624FF6FF7298619A8358615D
:105270005881F0BD06EBC302516016F8337007EB9E
:105280004702C01B01EB0211C0B2DEE70120F0E7CC
:10529000D0020020044B2C2202FB0030007A0038A0
:1052A00018BF0120704700BFD0020020074B2C22FE
:1052B00002FB003110B44C6A34B10B46A446012203
:1052C00010BC03210220604710BC7047D0020020B0
:1052D0002DE9F041054608461946214B2C2405FBD3
:1052E0000438D8F8043003EBC00713F83030FC78EA
:1052F000661CF6B2B34298BF00267B78B3422CD02E
:105300007B6804EB44044FEA041C4FF0030E03EBEC
:10531000041403F80CE0069BA360079BE360089B62
:1053200023610A9BA361BDF82430A3820B9BE36138
:105330000C9B2362022363620D9BA3620E9B62702F
:105340006160E362FE70D8E9083698474346002260
:105350000421B047606ABDE8F0810120FBE700BF8F
:10536000D00200202DE9F8439C46224B0546084612
:105370002C2105FB0138D8F8043003EBC00713F8E3
:105380003030FC78661CF6B2B34298BF00267B78BA
:10539000B3422CD07B6804EB440421014FF0040994
:1053A00003EB041403F80190BDF82030E380BDF84E
:1053B00024302381BDF828306381BDF82C30A381CF
:1053C0009DF83030A373022363620D9BA3620E9B92
:1053D0006270A4F804C0E362FE70D8E9083698470A
:1053E000434600224946B047606ABDE8F883012081
:1053F000FBE700BFD00200202DE9F041054608463A
:105400001946184B2C2405FB0438D8F8043003EB5C
:10541000C00713F83030FC78661CF6B2B34298BF70
:1054200000267B78B3421BD004EB44047B684FEA30
:10543000041C4FF0050E03F80CE003EB04140223E8
:10544000C4E90931069B6270E362FE70D8E9083650
:105450009847434600220421B047606ABDE8F081C6
:105460000120FBE7D00200202DE9F0410546084667
:1054700019461A4B2C2405FB0438D8F8043003EBEA
:10548000C00713F83030FC78661CF6B2B34298BF00
:1054900000267B78B3421FD07B6804EB44044FEABC
:1054A000041C4FF6027E03EB041423F80CE0069B69
:1054B000E36002236362079BA362089BE362C4E983
:1054C0000121FE70D8E9083698474346002204219E
:1054D000B047606ABDE8F0810120FBE7D002002000
:1054E0002DE9F041054608461946174B2C2405FBCB
:1054F0000438D8F8043003EBC00713F83030FC78D8
:10550000661CF6B2B34298BF00267B78B34219D02E
:105510007B6804EB44044FEA041C4FF6017E03EB66
:10552000041423F80CE00223C4E90932E162FE709E
:10553000D8E908369847434600220421B047606AFC
:10554000BDE8F0810120FBE7D00200202DE9F04109
:10555000084D2C2606FB0053D3E9083704460846BD
:10556000984704FB0653BC460022BDE8F0410421E5
:10557000604700BFD002002005F042B8401A20F07A
:105580007F40704708B50346012B08460ED833B15B
:1055900019B107490622FEF716F9054807E019B1C7
:1055A00004490622FEF70FF9024800E0002008BD7A
:1055B0002E0300202803002070B506460D4603F098
:1055C0000BFC10B10C24204670BD03F019FC10F048
:1055D0000604F7D1062229461EB10348FEF7F3F868
:1055E000F1E70248FAE700BF2E030020280300205D
:1055F000002303700B70704720BF40BF20BF70476F
:10560000F0B50D4B89B002460E4601AC03F1180708
:1056100018685968254603C50833BB422C46F7D1A4
:105620001B882B8008AB1A4412F81C0C831B5842B1
:10563000584109B0F0BD00BF40DD00000860704770
:1056400018B90B6843F000430B60704718B90B683A
:1056500023F000430B60704730B5421E031D00204D
:10566000934200D130BD00F1080412F8015FE4B2AA
:105670008442F5D015F0010F03D00029F2D0013992
:10568000C9B20130C0B26D08F2E7000010B50E4B90
:1056900093F8392193F83A1191423BBF93F838219E
:1056A00093F8394193F83921121B2CBF8A1A5218EA
:1056B000D2B290429BBF93F83921D3F83431002005
:1056C00053F8220010BD00BF3403002030B590F81D
:1056D0005D3090F85C10994227D190F91D30002B75
:1056E00025DBC48C828CA0F86440C48DA0F86220B5
:1056F00054437D2262434FF47A7492FBF4F2A0F893
:10570000662090F8602022F007020125002342F075
:105710000502013980F87050C36680F8602080F877
:105720005E5080F85D10184630BD0120FCE7022075
:10573000FAE700002DE9F0470C78944280460F46C6
:10574000914639D01D4ED6F8683133F83430038095
:10575000002506F5AE7AD6F86831B8F8002003EBDC
:10576000C40133F834309A4220D14868012820F02F
:1057700003020AD9F2B1031D1CD04379D3B10379D6
:1057800003F00303013B012B14D80135EDB20123D3
:105790004B6012B15146FEF762FF96F86C3101344E
:1057A000E4B2A34208BF00244C45D4D13C70284643
:1057B000BDE8F0870223EBE70025F8E7340300207B
:1057C0002DE9F04F8BB00024FF25DFF814A18DF8F0
:1057D0001F50074691461E4601F1040B1C600894B9
:1057E000A0460223099309AB02933B4B019308ABFC
:1057F00000930DF11F024B4639460020FFF734FE9F
:1058000002280BD0099B6BB1404080F311884FF008
:10581000040002DF39460020FFF798FE099B022BA7
:10582000F8D0EFE79DF81F20FF2A4DD0062AD8D9DF
:105830009AF8103107339A42D3DA073ADAF80801B6
:1058400092B24FF48271FEF71FFF0028C9D090F981
:105850001D30002BC5DBD0E9002C002A089B12DA92
:10586000816822F000428C452CBF63445B189B1A70
:10587000C168FF2D01F104010A4408D19DF81F50B1
:1058800014469846ADE7624538BF6246F0E74146A8
:10589000184605920493FFF771FE04EB0B01884252
:1058A000DDE90432EAD90D484444A4FB0001072392
:1058B00003FB041106A3D3E90023FAF7C5FC8030EB
:1058C00030600BB0BDE8F08FFF2DECD1F9E700BFE1
:1058D00000CA9A3B000000003D5600008D49FD1AA9
:1058E0003403002070B504780A78C4F38013B3EB56
:1058F000D21F19D104F00F04012C00F1020501F1AF
:10590000080608D0062231462846FDF74CFFB0FABB
:1059100080F0400970BD062231462846FDF743FF5E
:105920000028EFD12046F5E70020F3E70B4A92F874
:10593000783192F8791199420ED192F8783102EBD0
:105940004303A3F8720192F878310133DBB2032BE1
:1059500008BF002382F87831704700BF340300206D
:10596000404080F311884FF0040002DF08B508B111
:10597000FFF7F6FF08BD0000012808B5094B07D165
:10598000DA7C052A02D10022DA7408BDFFF7E8FFAD
:105990005B7C052BF9D1404080F311884FF0040067
:1059A00002DF00BF34030020012808B5094B07D1EE
:1059B000DA7C062A02D10022DA7408BDFFF7D0FF94
:1059C0005B7C062BF9D1404080F311884FF0040036
:1059D00002DF00BF3403002008B528B1034BDB7C95
:1059E000052B01D0FFF7BCFF08BD00BF340300202A
:1059F00008B530B1034BDB7CC9B2994201D0FFF747
:105A0000AFFF08BD34030020044B5B7D23B10121AF
:105A100000220846FEF79ABE704700BF34030020FC
:105A200010B50A4B93F810218242044601D8002099
:105A300010BD02464FF48271D3F80801FEF724FE30
:105A40000028F4D0038CA342F1D1F1E73403002005
:105A50002DE9F04186B00223052805460E46029343
:105A60000CD0062841D03AD9073880B2FFF7D8FFCA
:105A7000002800F0D580D0E900780EE0694BD3E92A
:105A8000067802AB00930A46674B03210020FFF71C
:105A9000B3FC02281CD0029BF3B9624CE37C03F0F8
:105AA000FF00E3B90223E574029302AB00932A4698
:105AB0005D4B0321FFF7A0FC02281AD0029B33B3F1
:105AC0000023E374029806B0BDE8F081FFF794FD6F
:105AD000029B022BFAD0DEE7029B012BDDD0404077
