:020000040000FA
:10000000C87400200D2200002D6C0000E1210000CA
:10001000E1210000E1210000E121000000000000DA
:10002000000000000000000000000000251D00008E
:10003000E121000000000000DD1C0000E1210000C3
:10004000A11D0000A11D0000A11D0000A11D0000B8
:10005000A11D0000A11D0000A11D0000A11D0000A8
:10006000A11D0000A11D0000A11D0000A11D000098
:10007000A11D0000A11D0000A11D0000A11D000088
:10008000A11D0000A11D0000A11D0000A11D000078
:10009000A11D0000A11D0000A11D0000A11D000068
:1000A000A11D0000A11D0000A11D0000A11D000058
:1000B000A11D0000A11D0000A11D0000A11D000048
:1000C000A11D0000A11D0000A11D0000A11D000038
:1000D000A11D0000A11D0000A11D0000A11D000028
:1000E000A11D0000A11D0000A11D0000A11D000018
:1000F000A11D0000A11D0000A11D0000A11D000008
:1001000053B94AB9002908BF00281CBF4FF0FF317E
:100110004FF0FF3000F074B9ADF1080C6DE904CE7A
:1001200000F006F8DDF804E0DDE9022304B07047D2
:100130002DE9F047089E0D4604468846002B4DD118
:100140008A42944668D9B2FA82F252B101FA02F3B5
:10015000C2F1200120FA01F10CFA02FC41EA030885
:1001600094404FEA1C45210CB8FBF5FE1FFA8CF7B2
:1001700005FB1E8341EA03430EFB07F199420BD9AD
:100180001CEB03030EF1FF3080F01E81994240F218
:100190001B81AEF1020E63445B1AA4B2B3FBF5F00F
:1001A00005FB103344EA034400FB07F7A7420AD9D2
:1001B0001CEB040400F1FF3380F00881A74240F2F9
:1001C000058164440238E41B40EA0E4000211EB160
:1001D000D4400023C6E90043BDE8F0878B4208D92C
:1001E000002E00F0EE800021C6E900050846BDE8BB
:1001F000F087B3FA83F100294AD1AB4202D382429D
:1002000000F2F980841A65EB030301209846002E62
:10021000E2D0C6E90048DFE702B9FFDEB2FA82F2B7
:10022000002A40F09180A1EB0C054FEA1C471FFA11
:100230008CFE0121B5FBF7F307FB1350250C45EAB3
:1002400000450EFB03F0A84208D91CEB050503F19D
:10025000FF3802D2A84200F2CB8043462D1AA4B246
:10026000B5FBF7F007FB105544EA05440EFB00FE12
:10027000A64508D91CEB040400F1FF3502D2A645BF
:1002800000F2BB802846A4EB0E0440EA03409EE740
:10029000C1F120078B4022FA07FC4CEA030C20FA3C
:1002A00007F405FA01F31C43FD404FEA1C4900FA2C
:1002B00001F3B5FBF9F8200C1FFA8CFE09FB185569
:1002C00040EA054508FB0EF0A84202FA01F20BD9FC
:1002D0001CEB050508F1FF3A80F08880A84240F247
:1002E0008580A8F1020865442D1AA4B2B5FBF9F087
:1002F00009FB105544EA054500FB0EFEAE4508D942
:100300001CEB050500F1FF346CD2AE456AD902380A
:10031000654440EA0840A0FB0294A5EB0E05A54207
:10032000C846A64656D353D05EB1B3EB080265EB80
:100330000E0505FA07F722FA01F3CD401F43C6E97F
:1003400000750021BDE8F087C2F1200320FA03F117
:100350000CFA02FC25FA03F395400D434FEA1C47C3
:100360001FFA8CFEB3FBF7F107FB11302B0C43EAAD
:10037000004301FB0EF0984204FA02F408D91CEB8A
:10038000030301F1FF382FD298422DD9023963447B
:100390001B1AADB2B3FBF7F007FB103345EA034578
:1003A00000FB0EF3AB4208D91CEB050500F1FF384A
:1003B00016D2AB4214D902386544ED1A40EA014125
:1003C00038E73146304607E78646E5E61846FAE65E
:1003D0004B45A9D2B9EB020864EB0C0E0138A3E738
:1003E0004046EAE7204694E74146D1E7D0467BE71E
:1003F000023B654432E7084609E76444023842E7B5
:10040000704700BF7FB5264B264AC3F80026264812
:10041000C3F804264921C3F80826C3F80C26C3F8FC
:100420001026C3F81426C3F81826C3F81C2606F0B5
:100430007BFB00F065F801A800F0D2FC1B4B1B68A9
:10044000834204D01A48452106F06EFBFEE7039A6A
:100450001848492106F068FB1748492106F064FB5B
:1004600069469DF8080000F02BF8009B039C1C4493
:10047000019B1D8900F070FF661901F0DFFE6359D2
:1004800083F30888002383F31488BFF36F8FBFF3CF
:100490006F8F736898470948452106F045FBFEE7D2
:1004A000000001403546526E64970000E0020020D3
:1004B0007D970000A0970000CF970000F497000000
:1004C00008B5024638B105480023452106F02CFB4B
:1004D0006FF0150008BD0860FCE700BF179800002A
:1004E0001FB50C46014601AA044806F0D8FE18B90B
:1004F000019B2360029B636004B010BDC4900000A8
:1005000002484FF4C05104F0A3BD00BF8C17002077
:100510002DE9F04FF9B0DDE98448DFF8E8A138A80B
:10052000DAF8006017461D4608F0B8FA002138A82E
:1005300004F0A0FE3CB1B8F1000F04DD42462146B4
:1005400038A808F0AFFA7B89B7F808809844FB68B0
:100550004FF000099844C84521D80DA938A808F0E3
:10056000E9FA869B23B120220DA9184606F093FBD9
:10057000002300932A464FF6FF73394607A805F07B
:1005800081FF044638B928460C9F00F0E3F9874202
:100590001CD94FF0FF34204679B0BDE8F08FDDF86C
:1005A0000CB2829AA8EB09039B4528BF9B465B4689
:1005B0004946284606F0C6FA04460028EBD182993F
:1005C0005A4638A808F06EFAD944C4E7DFF83891E3
:1005D000A0464FF0FF370DF1160305AA06A907A89C
:1005E00005F09EFF041ED6DB7ED1BDF816B0BBF130
:1005F000100F1AD1BDF81480B8F1200FC9D1069997
:10060000434638AA284606F09DFA04460028C2D17F
:10061000424638A90DA805F0CFFF04463B4B1B68A6
:100620008342B8D14FF00108D5E7BBF1010F36D1B5
:10063000BDF81430202BACD8069938AA284606F00D
:1006400081FA04460028A6D19DF814B0BBF1200F12
:1006500003D94FF0FF342746BDE7D9F800302C4FBF
:100660000393039B9C42F4DA1DA808F017FA0021BB
:100670001DA804F0FFFD7A6857F8081B12681DA832
:1006800008F010FA15A91DA808F054FA5A4638A91E
:1006900015A806F0EFFA0028DDD00134E1E7BBF140
:1006A000200F98D17B1C96D0D9F80030BB4218DDC2
:1006B000BDF81430B3F5807F7FF46BAF069938AA8C
:1006C000284606F03FFA044600287FF464AFFFB2E4
:1006D000BDF81430009738AA59460DA800F01AF852
:1006E00006464FF0FF3776E7B8F1000F07D0074B0B
:1006F0001B68B34201D0DAF8006034464BE70124AE
:1007000049E700BF0000002078930000E0020020CD
:100710007C9300002DE9F04F9846ADF54B7D6B4B77
:100720009DF850631D68074627A88A46914608F041
:1007300072F9674B53F83640029403EBC6038AAA5A
:100740005B6819680C443023214602A806F0B4FF08
:1007500068BB029B8A9A13449C4228D129AA21464D
:1007600002A806F0BDFF10BB0DF1B00B5A462146A2
:1007700002A806F0B5FF0646C8B929A807F0C0F8D8
:10078000029B28909C4212D1CDE9006B3346324641
:1007900029A927A808F0FBF848B927A804F008FD04
:1007A00028B929A807F0ACF8804528900AD027A8D6
:1007B00008F03BF927A808F038F928460DF54B7DDD
:1007C000BDE8F08FB8F5807F02D04FF0FF35F1E73C
:1007D000BAF1200FF9D18AAA494627A804F00CFDE6
:1007E00004460028F1D19DF82733BC2BEDD10DF53F
:1007F000A4780390DF2645460CA808F04FF90021A5
:100800000CA804F037FD20220DF207310CA808F0E7
:1008100049F9042203A90CA808F044F904A90CA87A
:1008200008F088F91F2E9DF80F30D4BFB1464FF065
:100830002009013340464A4604A9A6EB09068DF873
:100840000F3006F028FA002EC844D5DC28468AAEC0
:100850002A46DF23117816F801CB013B81EA0C010F
:1008600002F8011BF6D12B7803F07F032B7010F8F0
:10087000016B002EA9D10134BE2CF8D195F8BE3001
:10088000012BA2D10CA808F009F931460CA804F0FC
:10089000F1FC104908220CA808F004F9394620227E
:1008A0000CA808F0FFF820220DF207210CA808F090
:1008B000F9F804A90CA808F03DF920220DF207313F
:1008C00004A805F079FE054681E700BF000000207E
:1008D0007C9300003D9800002DE9F04186B0012393
:1008E000DFF86C80ADF800300D466F46002617F833
:1008F000010B01A901F0C2F80446A0B90198816872
:10090000102302AA103906F01DF90446019806F0DA
:1009100018F944B91022414602A806F0ABF940B1DB
:100920002EB14FF0FF34204606B0BDE8F08101261D
:10093000DDE7019808F091F90423A0F108012A46A7
:10094000019806F0FFF80446019806F0FAF8EAE785
:100950005497000007B505F043FE6946FFF7C0FD58
:1009600038B10548452106F0DFF8002003B05DF8F6
:1009700004FB0098FAE700BF459800002DE9F0411C
:10098000384B88B0064600200D461C6805F06FFD08
:1009900006A9C0B201F072F8002857D1294605F027
:1009A00066FD2C2407A9C0B204FB056401F066F8BB
:1009B000002836D04FF02C0808FB05F806EB080796
:1009C000396911F0100137D14FF480730193264B30
:1009D00000932246CDE90311069B02910846FFF7DA
:1009E00097FD0446214B56F8082006989A420CD1F0
:1009F0003A89FB68D1438B4207D8134482689342FB
:100A000003D21B4B1B68A3421DD045B38268002153
:100A100006F0C2F8174A1848452106F085F8012467
:100A200011E0079806F0D3F80746079806F089F812
:100A3000631EE21C93420DD1002DF0D00699304682
:100A400005F0B4FE2C46069806F07BF8204608B068
:100A5000BDE8F08113F8011FB942EBD0AAE7074ABD
:100A6000D9E700BF000000208C2F00203DB8F3968E
:100A7000E002002080980000929800008A98000010
:100A800073B50D46044600212846CDE9001105F056
:100A90004CFE30B3164E2368B34203D101AA204660
:100AA00005F0D8FDE36AB34204D16A46012120462D
:100AB00005F0D0FDDDE90032934288BF0193019B30
:100AC000AB60019A2946204600F034FB094B1A68B6
:100AD000002A03DD0848572106F026F8002002B05E
:100AE00070BD05F10801FFF7F7FEAB680193E8E779
:100AF0003DB8F39664150020BA9800002DE9F84F30
:100B0000DFF870B01C4C1D4D884691469A46002671
:100B10000B9B9E4201D300200FE00B9B154A9F1BAD
:100B2000B7F5806F28BF4FF480673B4606EB0A019C
:100B3000404606F007F810B10120BDE8F88F0A9989
:100B40003B465A467118484606F011F80028F3D182
:100B5000C4F800563E44C4F80456C4F80856C4F815
:100B60000C56C4F81056C4F81456C4F81856C4F8F5
:100B70001C56CDE744030020000001403546526E6C
:100B80002DE9F0438E4B1E688E4B43620F468E4B11
:100B90000365002185B00446084605F068FC04F1B1
:100BA0002001C0B200F06AFF0121002005F05FFCC7
:100BB00004F14C01C0B200F061FF0546204605F08B
:100BC0008AFD804668B900221146204605F02AFDBC
:100BD000804600B37D480022572105F0A5FF012380
:100BE00091E07B48E222572105F09EFF01239845C2
:100BF00084F85830E7D194F858308DF80730042B3A
:100C000000F28480012B00F2888000F09F80FF2397
:100C100084F858309AE0204600F0A4F90028DED08D
:100C2000684605F079FD6946204605F014FE18B1C6
:100C3000684842465721D0E7684605F076FD80F0C7
:100C400001016A46C9B2204605F0ECFC02460028C4
:100C5000C0D1684605F069FD804660BB6946204604
:100C6000FFF70EFF9DF8073084F85830033B012B47
:100C700006D8404605F03EFE10B1FF2384F85830F8
:100C80009DF80730023B022B0BD8002005F020FE18
:100C900038B1FF2384F858304F48452105F044FF10
:100CA000FEE794F85830FF2BF6D06A460021204624
:100CB00005F0B8FC93E79DF80790B9F1010F17D143
:100CC000104604F047FC831E022B80460DD849468F
:100CD0002046FFF753FE414B1B68984205D0012880
:100CE0000CBF4FF001084FF0050884F8588082E7E8
:100CF00001212046FFF742FE384B1B6898420CBF8B
:100D00009DF80730052384F8583074E7052B7FF4ED
:100D10007EAF002005F0EEFD13E069462046FFF7A8
:100D2000AFFE94F85830DA1E012A05460CD8002090
:100D300005F0E0FD054600287FF469AF002005F0CE
:100D4000C7FD054610B162E7022BF7D094F8583082
:100D5000FF2B04D12048452105F0E6FEFEE7012BDC
:100D600006D06A460021204605F05CFC0546D0B955
:100D700000212046FFF702FE0646DFF86080D8F823
:100D8000003098420FD110220021684605F08EFFF6
:100D9000206A05F075FB3871236A5B683C60D8F8FF
:100DA0000060BB600025E06C05F0CBFE206A05F01A
:100DB000C8FE002D14BF2846304605B0BDE8F083BC
:100DC0000000002044070020540E00202B99000052
:100DD000E99800005799000081990000E002002086
:100DE00038B5064D044660220021284605F05EFF16
:100DF00021462846FFF7C4FE38BD00BFE4020020AC
:100E000073B516461C4633B3436A5D686379012B9C
:100E100015D101BB1F4B22681B689A4298BF002561
:100E2000002005F024FB01A9C0B200F027FEF0B1BC
:100E30000125019805F085FE284602B070BD022B01
:100E400009D12368012B08D9124A1268934202D8AB
:100E5000B1FA81F149090025E2E7FCD10029DFD090
:100E60000129F8D12179023918BF0121F3E7294678
:100E700001982023324605F065FE05460028D7D1AB
:100E8000002CD6D0356804482D1A18BF4FF0FF3516
:100E9000CFE700BF040000203DB8F3962DE9F04FE6
:100EA000074685B00C4601460020164605F08BFB30
:100EB000051E51DB3846E46D05F092FB5FFA84F9BC
:100EC00005F1FF3809FB08084FF0000A4FF0010B4D
:100ED0004FF0FF349DB9BAF1010F03DD20484521E1
:100EE00005F022FE631C06D0E12C2ADC013440F21E
:100EF00001133460B380284605B0BDE8F08F6B1E47
:100F000000930DF10F0201234146384605F01AFE09
:100F1000031E019322DB01220DF10F01384607F079
:100F2000B0FE019B40B15B4501D00AF1010A009D72
:100F3000A8EB09089B46CDE7B4F1FF3F08BF2C465C
:100F4000F5E70223E23C7371631004F001040133FE
:100F5000013433603471CEE70725CCE70125CAE7B9
:100F60008D99000038B5816A426D914208D0531CBA
:100F70008B4205D01348572105F0D6FD002038BD1F
:100F8000E2291CD910485721F6E7446A056D04EBA5
:100F9000C30405EBC30564686D68AC4202D00B481E
:100FA0005721E9E701339A42EFD1914205D9436ACB
:100FB00003EBC2025368A342F1D10120DFE7002313
:100FC0001C46F0E7B0990000E8990000179A00006D
:100FD00000B589B004A9012007F0B9FE9DF81020E2
:100FE000012A41D0254B2649032A18BF0B469DF8FC
:100FF000132002929DF8122001929DF811202148A1
:1010000000924921204A05F08FFD06A9042007F02F
:101010009EFE9DF81820012A28D0184B1849032A53
:1010200018BF0B469DF81B2002929DF81A200192D2
:101030009DF8192000921348144A492105F074FDC7
:101040009DF81030012B13D19DF81230032B0FD1D6
:101050009DF81830012B0BD00D48492105F064FD97
:10106000022009B05DF804FB0A4BC0E7094BD9E741
:101070000948492105F058FD0020F2E7489A000090
:101080004E9A0000609A0000529A0000A19A000057
:10109000B19A0000439A0000D09A000070B54B68E6
:1010A00014461E4A03F0FF23934286B006460D46BF
:1010B0002FD10B68012B2CD104A9204604F0F6F99E
:1010C0009DF81020012A26D0154B1649032A18BF77
:1010D0000B469DF8132002929DF8122001929DF874
:1010E000112000921048114A492105F01DFD9DF87C
:1010F0001030032B0DD12146304605F057FB20461A
:1011000007F018FEA968204605F07DFA204604F095
:10111000ADF906B070BD064BDBE700BF000100046F
:10112000489A00004E9A0000609A0000A19A0000C0
:10113000439A00002DE9F04F054689B081480C46DE
:101140004921174605F0F0FC6B6A01225E68002316
:101150003344BB42114602F10102F9D3DFF8E8A1A2
:101160002046CAF8001005F0E0FA08B3E86D05F073
:1011700025FAAF6A0023013F3344834201D2013F85
:10118000FAE7DAF80030BB4212D37048572105F075
:10119000CBFCDAF800206E4807FB06F302FB066280
:1011A000572105F0C1FC0123E37109B0BDE8F08FC0
:1011B00006A9012000F062FC07A9042000F05EFCF3
:1011C000079A21462846FFF769FF6379012B08D16A
:1011D000DAF80070DFF87CB1DAF80030A7B9012343
:1011E00023604FF00203DFF86C8163710127DAF8A6
:1011F0000030DDF818909F424BD9484605F0A1FC1D
:10120000079805F09EFCD0E7226801339B1A9F42A5
:101210003DD86B6ADDF81880196853F8370003EB86
:10122000C703012A53F8083CA3EB0103A0EB010913
:10123000029312D1E268079B022A0AD0414628464F
:10124000039305F0B3FA22464146284605F0E4FA36
:10125000039B1946284605F0A9FA324649464046FE
:1012600005F0A2FA029B42464146CDE90096284687
:10127000FFF744FC2146284605F064FA2368013351
:10128000236020B1DBF800300133CBF80030013FA0
:10129000A2E723689F4252D36A6ADDF81CB052F875
:1012A00037100491FB0011680391083B296DC85861
:1012B0000968411A0291217901293ED1D158039B35
:1012C0003246C91A4846059105F06EFA0599029B07
:1012D00000914A46594601962846FFF70FFC2146E1
:1012E000284605F02FFA4FF00203237120B1D8F8F9
:1012F00000300133C8F8003002993246584605F0F4
:1013000053FA029B0093DDE9032349469B1A019699
:101310005A462846FFF7F2FB2146284605F012FA06
:101320002368013323604FF00103237138B1D8F8EB
:1013300000300133C8F8003001E00229DCD0013769
:1013400055E700BFE79A000004000020109B000052
:101350003F9B000064150020BFF36F8F72B6124BE5
:101360004FF0FF32C3F88020C3F88420C3F88820F0
:10137000C3F88C20C3F89020C3F89420C3F89820B9
:10138000C3F89C20C3F88021C3F88421C3F88821C6
:10139000C3F88C21C3F89021C3F89421C3F8982195
:1013A000C3F89C21704700BF00E100E038B5154844
:1013B00004F086F9054640B9124A1348452105F064
:1013C000B3FB6FF01204204638BD83680F499B6859
:1013D0009847041E05DA0E482246452105F0A4FB75
:1013E000F1E7AB6802211B6828469847044618B10C
:1013F000024645210748F1E70748492105F094FBDB
:10140000E1E700BFD3A500007E9C000088930000A8
:101410009C9C0000B99C0000CC9C0000014B1B6808
:10142000184700BF08000020014B1860704700BF3C
:101430000800002007B50B46002102460091034832
:1014400000F0E6F803B05DF804FB00BF1D140000D7
:101450002DE9F84FB0F8189019F0080804469346A3
:101460000DD001290CBF49F0100949F02009A0F85E
:1014700018908BF31188BFF36F8FBDE8F88F09F0D8
:101480000709022907D1204605F084FA0028F0D088
:101490000128238B4ED16769218B002F15DA25682F
:1014A00021F00701C4E9008841F0010121830026F1
:1014B000218B01F0070ACA4502D0A368002B5AD13C
:1014C0000DB9002E71D0002356E001F007035A1F1A
:1014D000012A1ED821F00701062B256889B2C4E92C
:1014E000008802D16DB941F002012183204605F048
:1014F00051FA06460028DBD0238B43F020032383D8
:10150000D5E72B46628B013262831B68002BF9D131
:10151000E9E7042B0CD121F0070189B22183204691
:1015200005F038FA05460028C1D041F0200121839A
:101530000025BCE7032809D1226923F007031668B8
:1015400043F00603238300252F46B1E7042806D184
:10155000226923F00703566843F00403F2E70528E5
:1015600006D1226923F00703966843F00503E9E7F3
:1015700000252E46E8E7012341F0080121838BF383
:101580001188BFF36F8FFBB985BB16B11F49204689
:10159000B0474FF02003EFF3118B83F31288BFF3B2
:1015A0006F8F238B23F008032383238BDA0625D543
:1015B00023F0100323830121B4F8189009F00709E0
:1015C00000297FF45EAF54E7A1680029DCD0D1F890
:1015D0000090D1F804B03B4652462046D847B9F1B6
:1015E000000FD1D04946D9F80090F2E729463B4692
:1015F000524620462D6805F0E9F9C5E713F02001B1
:101600001EBF23F0200323830221D5E7F9690000E0
:101610002DE9F04F8FB01D46531E01908A4602936C
:101620004FF00009029B5878252803F1010421D1CD
:101630004FF0000C18464FF0FF3702306146CDF8EE
:101640000CC03C460A2602780290392A00F10100BB
:1016500058D81F2A18D8002A00F0FC81019B514657
:1016600025209847029B51461878019B984709F11D
:101670000209D7E7002800F0ED81019B5146984709
:1016800009F101090294CDE7A2F12003192BE5D855
:101690000FF2040E5EF823F0011700005D16000043
:1016A0005D160000011700005D16000085170000A0
:1016B0005D1600005D1600005D1600005D1600005E
:1016C000C7170000011700005D160000DB170000BF
:1016D000931700005D1600009F170000BB17000065
:1016E000BB170000BB170000BB170000BB170000B2
:1016F000BB170000BB170000BB170000BB170000A2
:101700009446A0E7582A00F03F81A2F163035FFAF4
:1017100083FEBEF1170FA1D8172B9FD80FF2040E2E
:101720005EF823F0EB190000011800005D160000C0
:101730005D1600005D160000E117000001180000B2
:101740005D1600005D160000E11700005D16000048
:101750005D1600005D160000331900005D160000E4
:101760005D160000CB1900005D1600000118000096
:101770005D1600005D160000331900005D160000C4
:10178000E1170000019B51462520984709F1010906
:1017900048E7039B03F0FE030393002753E7002C65
:1017A0000BDA002F0BDA039B002B00F04F8124EAA9
:1017B000E47406FB0424303C45E7002FF7DB06FB0E
:1017C0000727303F3FE7002F55F8043B01DB1F465A
:1017D00039E71C1EBFF637AF64420223039332E79A
:1017E000682A03D1682906D148212CE76C2A02D146
:1017F0006C2900F02D8100297FF430AF114622E7DB
:101800007A2908D1752A05F104062D6840F08680F2
:101810004FF000080DE06C29F4D04C29F2D1EB1DFB
:1018200023F007031E46752AF6E8020107D1D3E923
:101830000058BCF1200F74D1884B013C09E00546EB
:101840008846B8F1000FF4DA6D42854B68EB480822
:10185000013C00930DAB05934FF0000B2846414629
:101860000A220023CDF810B0FEF74AFC059BCDF804
:101870001C80303203F801292846CDE90535414660
:1018800000230A22FEF73CFC069B0A2B079B73F100
:1018900000030BF1FF3B05468846DFD2049B049A08
:1018A000C3F1010B0EAB9D18002FA5F1040504DA5E
:1018B000039B13F0010F18BF2746039BA7EB0B08F0
:1018C000B8F1000FD4BFA4EB0B04E41B9B0740F15D
:1018D000A580009BA9EB030909EB030713F8010B93
:1018E000002840F09D80C146B9F1010940F19E8079
:1018F00028EAE878D946B9F1010940F19C80BBF1AA
:10190000000FA8BFD8442546013D40F19A80002C25
:10191000A8BFA04408EB0709354683E64FEAE578FF
:101920008FE7BCF12B0F0ABF4E4B4F4B04F1FF3436
:101930008FE7702A28D12E46002356F8041B002971
:101940005CD04A480090023C02F06002A2F13908E3
:101950000DF1340E002501F00F02092A88BF424420
:1019600030320EF8012910294FEA111242EA0372AF
:101970004FEA131073F1000305F1FF3C21D20EABC7
:10198000C5F1010B1D448FE76C2904D12E460023BD
:1019900056F8041B08E04C29F8D1073525F0070557
:1019A0002E466B6856F8081BBCF1230F06D1304D4C
:1019B0002E4812F0200F08BF2846C3E72A4800909F
:1019C000C2E7654611460346C5E72E4656F8045B56
:1019D000284605F03CF9002F834602DBB842A8BF39
:1019E000BB46214B0093002767E72E464FF0010BC3
:1019F00056F8043B8DF8203008ADF2E71D4D4FF04E
:101A0000050BEEE7019B514620209847013FF9D591
:101A100024EAE473013C9944E41A5AE72746F5E7BF
:101A200000935146019B9847009B55E7019B514607
:101A30003020984758E715F8010B019B514698470D
:101A400059E7019B5146202098475DE70123C5E6F1
:101A50004C21F8E548460FB0BDE8F08F82A00000A9
:101A6000069D0000089D000088A400000D9D000058
:101A70000A9D0000109D000002F0B4B970B5114B32
:101A80001B680C468BB1104A116800228A4202DBA7
:101A90006FF0010070BD1D4613F8106B864207D031
:101AA0000132F3E725600020F4E76FF00C00F1E766
:101AB000E86818B107F078F90028F3D16FF0120048
:101AC000E8E700BF0C000020F893000070B588B074
:101AD00005460C46C0B269461646FFF7CFFF002800
:101AE0001BDB0098C8B143680293836822680195A4
:101AF000CDE903360023CDE906230593C56805F03B
:101B000020F86DB12846084901AA05F0CCFB0798DA
:101B100008B9059B236008B070BD6FF01500FAE7A7
:101B20006FF01200F7E700BFDD6B000001491022E3
:101B30000A60704710ED00E072B6404080F31188F3
:101B4000BFF36F8FBFF34F8F30BF62B6BFF36F8F9E
:101B5000704700BF72B6494081F3118820BF80F3FF
:101B6000118862B6704700BF37B505460C46C9B14B
:101B70008B680093D1E900230E48452104F0D4FF7F
:101B800063690093D4E903230B48452104F0CCFF9B
:101B9000E2690A48452104F0C7FFA26908484521C7
:101BA00004F0C2FF2146284603B0BDE8304003F0F0
:101BB000BDBD00BF169D00004A9D00007E9D000037
:101BC000929D000043B2002B08DB012200F01F00B1
:101BD00002FA00F05B09024A42F82300704700BF96
:101BE00000E100E043B2002B0DDB01225B0900F0B5
:101BF0001F0002FA00F02033034A42F82300BFF32B
:101C00004F8FBFF36F8F704700E100E0054B420933
:101C100000F01F0053F82220012303FA00F01040C7
:101C2000704700BF00E100E043B2002BA8BF03F102
:101C3000604301F10101B8BF064B4FEA4111ACBF4F
:101C400003F5614300F00F00C9B2B4BF195483F823
:101C50000013704714ED00E030BFFFF7FDBF00BF79
:101C60000F4A08B50F4B22F07F029A60BFF34F8FE7
:101C7000BFF36F8FD3F8882022F47002C3F8882056
:101C8000EFF3148323F0040383F31488BFF36F8FFF
:101C900003F0D4FD04F080FA00F0ACFA03F00EFE7D
:101CA0000000000000ED00E0094A0A499368096855
:101CB0009967094958674B6843F080534B6000238C
:101CC00083F31188BFF36F8F9368986F704700BFDD
:101CD000581700202497000000ED00E00F498A68A3
:101CE0004FF030001044EFF3098C80E8F01F202003
:101CF00080F31288BFF36F8F094F4FF000668A6937
:101D00008A603E60506F0023536780F3118802F1B0
:101D1000300090E8F01F8CF30988704758170020B6
:101D200004ED00E01EF0040F0CBFEFF30880EFF3AA
:101D30000980816911F8021C0229FFD001B504F065
:101D40006DFF01BD42F8203C009B42F81C3C0A4953
:101D5000019B42F8183C029B42F8143C21F001011F
:101D60004FF0807342F8043C42F8081C0023203AEC
:101D700002654367704700BF81690000074B9860A8
:101D8000104681F30988002163B681F31188BFF3FF
:101D90006F8F0022002304F0F3FD00BF58170020CE
:101DA00001B5EFF30580A0F110004FEAC00004492F
:101DB000014409C99847BDE80140024908470000AD
:101DC00024910000C91D0000044B9968986988425D
:101DD00003D003494FF080520A6070475817002023
:101DE00004ED00E010B5204C2048452104F09CFE95
:101DF000A36A990136D51E48452104F095FE1E20A0
:101E0000A36ADA0104D51B48452104F08DFE1F208A
:101E1000154CA36A1B0304D51748452104F084FE22
:101E20002120A36A590304D51448452104F07CFEFF
:101E300022200D4CA36A9A0304D51148452104F0D1
:101E400073FE2320A36ADB0304D50E48452104F06A
:101E50006BFE2420044A936A6FEA03436FEA13433C
:101E6000936210BD1D20CBE700ED00E0C59D000092
:101E7000E29D0000FA9D0000199E00003C9E0000BB
:101E8000669E0000859E000070B5294C06460D46F2
:101E90002848452104F048FEA36AD90432D52648D3
:101EA000452104F041FE1720A36A1A0504D52348F2
:101EB000452104F039FE18201D4CA36A9B0508D566
:101EC0001F48452104F030FEA26BA36A18041BD4FE
:101ED0001920174CA36A590504D51A48452104F066
:101EE00023FE1A20A36ADA0519D51748452104F004
:101EF0001BFE1B200E4A936A43F47F439362002328
:101F00002B7070BD1620CFE71048452104F00CFE61
:101F1000002EDDD0A36A23F40043A362D8E7A36AAE
:101F20009B04E7D50A48452104F0FEFD1C20E1E7AB
:101F300000ED00E0B59E0000D09E0000E69E00008F
:101F4000FE9E0000369F0000569F00001C9F000070
:101F5000739F000070B52B4C06460D462A4845215C
:101F600004F0E2FDA36AD8063ED52848452104F0D6
:101F7000DBFD1120A36A190704D52548452104F08B
:101F8000D3FD12201F4CA36A9A0708D5214845218A
:101F900004F0CAFD626BA36A1B0627D41320194CF8
:101FA000A36ADE0704D51C48452104F0BDFD1420BA
:101FB000A36A9C0604D51948452104F0B5FD1520F7
:101FC000104B9A6AD10658BF9A6A9A6A920642BF23
:101FD0005A6A22F400525A620A4A936A43F0FF0393
:101FE000936200232B7070BD1020C3E70C4845217D
:101FF00004F09AFD002ED1D0A36A23F08003A362DF
:10200000CCE700BF00ED00E0A79F0000C29F0000EA
:10201000E69E0000FA9F000032A00000739F0000BF
:1020200017A000002DE9F0415E4B5E688AB00F46B4
:10203000C6F30804002585F31188BFF36F8F02F003
:102040007F43B3F17F4F07D102F00C03082B05D17A
:102050005548452104F068FD2F4603E0120701D4DE
:10206000074601254FF00008E31E8DF80780092B75
:1020700000F28580DFE803F005787C758383838335
:1020800083804A48474E452104F04EFD8DF8078075
:10209000F46A14F0020405D04548452104F044FDDB
:1020A000002406E0F36A002B1DDA4248452104F0C3
:1020B0003BFD9DF807309BB92022394602A804F069
:1020C000EAFD099B002D67D0C3F3080222B96FEA2D
:1020D00053236FEA4323099302A92046FFF744FDE7
:1020E0000AB0BDE8F081F36A5B00E2D532484521D1
:1020F00004F01AFD7369BA6943F480737361BFF326
:102100004F8FBFF36F8F736932F8022C23F4807303
:102110007361BFF34F8FBFF36F8F4DF602739A4217
:1021200009D0B36ADBB26BB10DF107010120FFF7F3
:1021300011FF0446BDE73A682048452104F0F4FC4D
:102140003C68B6E7B36A13F47F4F05D00DF1070181
:102150000120FFF799FEECE7B36A1B0C1B04002B70
:10216000A7D0FFF73FFEE4E70DF107010020DEE70F
:102170000DF107010020ECE7114845218EE71149D8
:10218000114A124816F4F87F08BF0A46A4F110035A
:10219000452104F0C9FC83E723F4FF7323F0010316
:1021A00099E700BF00ED00E084A00000B4A00000AB
:1021B000D0A00000F6A0000009A100002DA10000A1
:1021C0004EA1000056A000006BA0000077A1000007
:1021D000024A536943F010035361704700ED00E079
:1021E000EFF30880EFF3098101B57246FFF71AFF9C
:1021F00001BD00BF044800232021C2180133302B49
:1022000082F80013F9D1704700E100E0FFF734FCD9
:10221000202080F3118808484FF40061401880F3B3
:102220000988EFF314800221084380F31488BFF378
:102230006F8FFFF715FD0000087600200749D1F8E1
:1022400090200023C2F307221846934200D1704722
:10225000C1F89830C1F8A0000133F6E700ED00E0C6
:10226000084B9B6883420BD1EFF3058343B1064BC8
:102270005A6842F080525A605A6A22F400425A6206
:1022800003F02ABF5817002000ED00E0024B034A7C
:102290000348012100F06CB8000004200000002079
:1022A000FC930000F8B5244F154600228A420EDA4E
:1022B0004468002C3CD093B104F1FF3C14EA0C0FAD
:1022C00007D01E48452104F02FFC6FF01505284665
:1022D000F8BD1F2CF5D906681CEA060FF1D1202C99
:1022E0000668D0F808C0EDB210D9B4F1004F0FD88D
:1022F000013CB4FA84F4C4F11F046400072D4CEAD5
:10230000040407D90E482A464521DCE70824F5E7EE
:102310003E24F3E726F01F062E4346F0100644F055
:102320000104C7F89850C7F89C600135C7F8A04071
:1023300001320C30BAE700BF00ED00E093A10000CD
:10234000BBA10000044B0522C3F89420BFF34F8FBC
:10235000BFF36F8F704700BF00ED00E0BFF35F8FEA
:10236000024B0022C3F89420704700BF00ED00E04C
:1023700010B5034C01232278FFF794FF207010BDA5
:102380008C30002014490868082810B521D8FFF7C0
:10239000E5FF124C49680022904201F10C0105D181
:1023A0000F4B1870FFF7CEFF002010BDC4F8982027
:1023B00051F80C3C23F01F03134343F01003C4F8FF
:1023C0009C3051F8043C43F00103C4F8A0300132C2
:1023D000E2E74FF0FF30E8E70894000000ED00E08E
:1023E0008C300020014B1860704700BF10000020A7
:1023F00010B54FF02003EFF3118083F31288BFF381
:102400006F8F114A0123C2F840354FF080424FF0E0
:102410008051C2F87835D1F83041082C08D1D1F874
:102420003411052904D8094C615C09B1C2F8383669
:102430004FF080430122C3F8802580F31188BFF359
:102440006F8F002010BD00BF00E00140F9A1000027
:1024500020B1034B800143F001031847704700BFD0
:1024600070930000084B70B5C31A0D4607499B10C6
:10247000044659430648402204F040FC2B460146DE
:102480002046BDE87040184778150020B76DDBB6D0
:102490004C90000073B50C4C0C4A4023041B009375
:1024A0000D460B460A49A41061430646094804F04C
:1024B00052FC011E05DA30462B4602B0BDE87040E2
:1024C000184702B070BD00BF78150020C56D000030
:1024D000B76DDBB64C900000002270B501210446B8
:1024E0001046FFF7A1FB0F4801F002FE0E4B984289
:1024F00015D104F09CFF26690C49304604F099FA86
:1025000000280BDB012535642469084904F11C000F
:1025100004F08FFA002801DBE564002070BD6FF045
:102520000400FBE7652500000000AD0B5C94000093
:1025300070B501460C2309484B43C418D4E90E5624
:1025400000224033A263184404F0C5FB2DB132468B
:102550002B460348BDE87040184770BD7815002031
:102560004C90000010B1012804D07047034B1B6C45
:102570005B0701D1FFF7DCBF704700BF7815002073
:1025800008B54FF02003EFF3118183F31288BFF3F6
:102590006F8F124A136843F0020013F001031060BA
:1025A0000CD04FF08042D2F80C34D2F80C2413F047
:1025B000010303D00A4804F08EFB012381F3118844
:1025C000BFF36F8F23B1BDE808400020FFF7B0BF15
:1025D000BDE80840012004F037BF00BFC815002047
:1025E000B81500201FB500220123CDE90223094AB6
:1025F000CDF800D06B46CDF804D004F0DCFB002809
:1026000005DB4FF480420023684603F071FA05B001
:102610005DF804FBE36D000010B54FF02003EFF30D
:10262000118483F31288BFF36F8F074A136823F076
:102630000201DB07116002D4012004F042FF84F3A1
:102640001188BFF36F8F10BDC81500202DE9F04130
:102650003949BFF35B8F0746012251E8003F41E84B
:1026600000200028F9D1BFF35B8F33B933493448D8
:102670004B60CB608A6004F0EFF97B1E012B2FD8F2
:10268000012F07D14FF08043D3F81C3403F003032C
:10269000012B25D006F0A0FB044618B9294B1B7866
:1026A000002B41D14FF02003EFF3118683F3128802
:1026B000BFF36F8F0124DFF890804FF08045D5F88D
:1026C0001834D5F81824D2030CD503F00303012BDA
:1026D00001D0012F06D10CB386F31188BFF36F8FA1
:1026E000BDE8F081ACB13046FFF734FAD5F81835C3
:1026F000002BE4D1D5F80421002AE0D0C5F804313C
:10270000D5F804310123C5F81835C8F88031AB601D
:10271000D5E70021212003F0BFFCE7E74FF080431D
:102720000222C3F80423DBE74FF080430222C3F800
:1027300008230646BFE700BFCC150020681500201F
:1027400094150020C034002000E100E008B50748DF
:1027500006F02AFB38B10648FFF744FE0448FEF7AE
:1027600063FE002008BD6FF01200FBE7AC90000094
:10277000752700000A2838B5074D044604D1AB6818
:102780000D215B6828469847AB6803485B68E1B257
:102790009847204638BD00BFAC90000030B5406877
:1027A000047B01F01F05B2F5001F45EA441585B012
:1027B0004FF0000405D1284601F020FF002005B0AD
:1027C00030BDB2F5800FCDE9024434D1B3F1007FC2
:1027D0000CBF042305238DF80830836823FA01F128
:1027E000C9071AD4B2F1A07F17D16A09012A05F0EE
:1027F0001F031C4A03F5E07318BF4FF0A04252F8C4
:102800002330DB0709D40DF107042146284601F0E7
:1028100059FE154B984219D003940023194602AA79
:10282000284601F025FD114B984218D10121284678
:1028300001F09CFEC2E7B3F1C06F05D0B3F1007F99
:102840000CBF02230123C6E70323C4E7204601F09F
:1028500087FE064B9842DFD06FF00B00AFE76FF0BA
:102860001500ACE7000300500400AD0B0000AD0BF9
:1028700010B501F065FE044668B901F039FE084B59
:1028800098420AD10748214601F016FE224605214A
:102890000620FFF7C9F9002010BD6FF00400FBE728
:1028A0000000AD0BA9280000420970B5034602D014
:1028B000012A15D070BD0B4E326951680029F9D03C
:1028C00003F01F0301250C689D408A682A4002D04E
:1028D0004B6830469847002CECD021462468F4E73A
:1028E000014EE9E7649000007C9000002DE9F04380
:1028F000D0F8048098F80C3001F01F0685B046EA45
:1029000043160F4630460DF10301144601F0DAFD7F
:1029100014F4403581460BD1304601F097FE434B0D
:10292000994503D19DF8030001F014FE002057E003
:102930000023194602AA3046CDE9023301F098FC83
:102940003A4B984202D06FF0150049E0814503D11F
:102950009DF8030001F0FEFDA50354D540F20633B7
:102960002340B3F5837F3ED00CD8062B15D004D876
:102970009BB1022BE7D104230FE0B3F5807FE2D1B6
:1029800001230AE040F2022293422ED0B3F5407FA9
:102990002DD0B3F5007FD6D102238DF8043084F416
:1029A0008033C3F30043E0068DF8053054BFC4F311
:1029B0004013032321038DF806301AD5D8F80430CC
:1029C000012101FA07F7C3F80875002201A9304672
:1029D00001F000FD154B984214BF6FF01500002068
:1029E00005B0BDE8F0830723D7E70523D5E7032328
:1029F000D3E7620341BFD8F80430012101FA07F799
:102A0000C3F80C75E1E7E3064FF0000354BFC4F3CD
:102A1000401403241A4601A930468DF8044001F001
:102A200027FC024B984281D08DE700BF0000AD0B20
:102A30002DE9F34144680569A66A01AA00213046E0
:102A400004F0D5FC002823DB019B32681979186853
:102A500001F01EF900281BDB636A9847AC68012669
:102A6000D5E9023203EBC2039C4204D3284604F0AA
:102A700066FA00200CE0206806F096F958B9226842
:102A8000164823791268452104F04EF86FF01200C1
:102A900002B0BDE8F08120682179E388D0F810C049
:102AA000D0F80880DCF80070DA0754BF43F4B013A4
:102AB00083F4D01323F4801206FA01FEDB074CBF27
:102AC0004EEA070727EA0E07CCF80070D8F8003066
:102AD00098470028DCDB0834C2E700BF44A20000AE
:102AE000F0B50569AB6C2C6D85B006463BB95CB999
:102AF0002146306905B0BDE8F04004F042BA002C30
:102B000034D09C4228BF1C46696C776869B163B1B8
:102B100001F06043B3F1005F07D0102C28BF1024F0
:102B2000286E224604F0B7F8296E6B6C00914FF6C0
:102B3000FF72944228BF1446AC651BB1AB6C002BEE
:102B400018BF23460193EB6C02931BB12B6D002B36
:102B500018BF2346002269463846039302F002F864
:102B6000044B984204D06FF00401C2E71C46CBE747
:102B700005B0F0BD0000AD0B10B503780C46002B7E
:102B800050D18A6D3AB94B6DBDE8104018696FF0AD
:102B9000730104F0F6B98B6C2BB19A4211D922481B
:102BA000452103F0C1FF236D33B1A26D9A4220D9B4
:102BB0001D48452103F0B8FF606DBDE81040FFF7E8
:102BC0008FBF9B1A8B6473B94B6B08334B638B6B52
:102BD000013B8B6301F1480204F13400383104F009
:102BE00065F96064DFE74B6C002BDCD013444B6469
:102BF000D9E79B1A23657BB9E36B0833E363236C46
:102C0000013B236404F1500204F1400104F13C0053
:102C100004F04CF9E064CFE7E36C002BCCD0134414
:102C2000E364C9E710BD00BF6DA200002DE9F04FBD
:102C30008BB004690093436802938B889B0406461B
:102C40000F46904631D44FF0FF324FF0FF3304F17E
:102C5000100002F04DFF6760D6F804A0D6F810907F
:102C6000DAF80830039399F85D30019323B1D9F86D
:102C700000309F4200F0B580B7F804C01CF4006F2C
:102C80001AD0A048452103F04FFF6FF08505236857
:102C90009B8813F4005304D1636004F1100002F028
:102CA00007FF28460BB0BDE8F08FA369002BCAD1FF
:102CB00063689942C7D1CFE71CF0010F07D0326893
:102CC0009148452103F030FF6FF01505DFE71CF058
:102CD000080F04D08D48452103F026FFF4E7CCF31C
:102CE0004513082B02D08A484521F5E73D68894BFA
:102CF0009D4202D888484521EEE70AF10C0BBBE85B
:102D00000F000DF1100EAEE80F00039BAB4228BF81
:102D10002B461D469BE80300804B9D428EE8030036
:102D200041D97F4B9D4241D97E4B9D4241D97E4B3B
:102D30009D4241D97D4B9D4241D97D4B9D4241D31E
:102D40007C4B9D4241D37C4B9D4234BF4FF020656C
:102D50004FF0A0551CF0020F06950CF0040337D07D
:102D6000002B14BF032302238DF81C30019BCCF3EE
:102D7000001C8DF81DC02BB1504601F0ABFE0023A6
:102D800089F85D306D4A4B4604A9504601F0A6FD16
:102D90006B4B984202461FD06A48452103F0C4FE9F
:102DA0006FF0040573E74FF00075D3E74FF08065CF
:102DB000D0E74FF00065CDE74FF08055CAE74FF000
:102DC0000055C7E74FF08045C4E74FF00045C1E725
:102DD000003B18BF0123C7E7012389F85D30C9F81C
:102DE0000070012384F85C30B8F1000F65D1C4F89D
:102DF00034804246A26304F1380104F1480204F130
:102E0000340004F053F8009B6064002B5DD1E36351
:102E1000236404F1500204F1400104F13C0004F089
:102E200045F800250121E0642A462046256304F088
:102E300064F83046FFF754FEA16B2B468B424CD111
:102E40000023206C1A4682424ED1AB42274638BF3F
:102E50002B464FF4FA555D4357F8203B4FF00008DE
:102E60001B68B5FBF3F54FF4004CC835414640F202
:102E7000E7304FF47A720023E5FB0C01FDF740F9CF
:102E800002460B46384602F033FE002833D02E4867
:102E9000452103F049FE0298C4F8588001F01AFE5B
:102EA00084F85D8030696FF0730104F06AF8384689
:102EB00002F046FE6FF07305E9E6D8F80020626381
:102EC000002A97D0D8F8042094E7009B1B68E3639E
:102ED000002B9DD0009B5B689AE7626B02EBC302FC
:102EE000013352681544A9E7E16B01EBC2010132DD
:102EF00049680B44A7E7256B15F1740F7FF4C7AE43
:102F0000C9E700BF90A20000AFA20000D6A2000057
:102F1000FAA2000047E801002EA300008FD00300B2
:102F20001FA107003F420F007F841E00FF083D00E5
:102F300000127A000024F4000048E801792B000018
:102F40000000AD0B64A3000090A3000037B503465A
:102F50000D461C690B7B4068022B26D10B680BBB0E
:102F600094F824204B68D2B9134A591E914219D8BB
:102F700023620DF1070101F0CFFE104B984217D0EC
:102F8000AB681BB19DF8072044F8223094F8243038
:102F90009DF80700013384F8243003B030BD226A65
:102FA0009A42E6D06FF01500F7E76FF08500F4E77E
:102FB0006FF00B00F1E700BFFEFFCF070200AD0B83
:102FC00010B54468002201211020FEF72DFE064AAC
:102FD00004F10801204601F063FE044B984214BF3F
:102FE0006FF00F00002010BDF12F00000000AD0BAE
:102FF000F8B50B4D0B4E0C4F002495F824309C4235
:1030000000DBF8BDD6F80434E340DB0705D555F8FE
:10301000243013B12146384698470134EDE700BF0C
:10302000E81500200000014094900000004870471F
:10303000809500002DE9F74F43680F1ED3F810A0CC
:10304000054616466DDBBB1853456AD847EA0209A8
:10305000C9F30B09B9F1000F66D1006903F0DBFF7A
:103060004946284604F024F84FF0FF3B0446002E62
:103070003ED10121284604F01BF8002C08BF04466D
:10308000286903F0C6FF204603B0BDE8F08F284B47
:103090002246A04647EA0600597861B10BFA01FCC6
:1030A00030EA0C0C07D1B8F1000F1CD098F801C021
:1030B0008C4538BF98460132042A03F10203EBD154
:1030C000B8F1000F11D03B4698F800108122CDE9ED
:1030D0000099284603F0A5FF98F8012001239340AA
:1030E0001F44F61A19E09846E5E76FF0150414E05E
:1030F000002CBED1CDE9004423468022062128467B
:1031000003F08FFFB245C2D1CDE9004423468022AF
:10311000C721284603F085FF2646284604F009F813
:10312000A5E76FF01204AEE76FF01504ABE700BF40
:10313000C1A400002DE9F041044686B000694FF0BB
:10314000FF32012105F05CFE6768386805F02CFE4F
:1031500010B96FF0120651E0FB6823BB206903F041
:103160005AFF204603F0B4FF002822DC206903F058
:1031700050FF206903F04FFF4FF00308002305AE16
:10318000CDF8048000961A469F21204603F049FF9F
:103190000546206903F03DFFADB14D482A46452163
:1031A00003F0C2FCD5E7186805F0FEFD0028D5D174
:1031B000CFE7C107DAD54748572103F0B5FC2046D1
:1031C00003F0B7FFD2E73046424607F11C0103F097
:1031D00051FD0646B0B1BB7F03937B7F02933B7FDB
:1031E00001939DF8163000939DF814209DF815303A
:1031F0003948452103F098FC6FF01506304606B0BB
:10320000BDE8F08197F820306BB3206903F003FF2D
:10321000204603F05DFF051E1DDD97F8203080225B
:1032200025EA0305CDE900663346062120468DF8E0
:10323000135003F0F6FE054670B901210DF113039A
:103240000093019103468022204603F0EAFE0546E2
:10325000204603F06EFF1DB120482A4645219FE716
:10326000206903F0D6FEFD7F6B1EDBB2FD2BC5D8B7
:10327000AA0729D0206903F0CEFEAB0712D40023A1
:10328000CDE900338022B721204603F0CAFE05466F
:10329000A0B1206903F0BDFE002DAFD010482A4632
:1032A00045217DE70023CDE9003380220621204619
:1032B00003F0B7FE05460028E1D0EAE72269137D56
:1032C00043F001031375E4E76FF08505E6E700BFFF
:1032D0000EA40000ECA300002CA400006FA40000CA
:1032E00089A40000024B0B6001231360704700BFEC
:1032F0002816002000487047D495000070B50D4690
:103300002846194616461C4603F087FF40B909486F
:1033100023462A46452103F007FC6FF0150070BDD7
:1033200034B122462946304603F0B5FC0020F6E7CA
:103330002046F4E7C9A4000010B501221146064852
:10334000064C05F05DFD04F01EF9206004F017F94D
:103350006060002010BD00BF30160020281600203D
:103360004FF08042D2F81015D2F8103501F01E014E
:1033700023F01F030B4343F00103C2F81035024B47
:1033800000221A70704700BFAD3000204FF080530C
:10339000D3F83031082B22D14FF08042D2F81015EB
:1033A00011F001001CD0D2F8100501F01E0120F030
:1033B0001F000843C2F81005D2F8080158B1D2F82E
:1033C000103523F01F030B4343F00103C2F81035FF
:1033D0006FF08B007047034B01221A70704700207A
:1033E000704700BFAD3000202DE9F0410F46154673
:1033F00004F0C5F829460646384603F00EFFB846E5
:10340000B0B3B7FBF6F306FB137323B9B5FBF6F4C1
:1034100006FB145444B119482B463A46452103F0A3
:1034200083FB6FF015041DE0AE421BD84FF0FF3256
:103430004FF0FF331248134F02F05AFB04F09FF88D
:103440000646FFF7A3FF044678B9404601F004FAA8
:103450003B780BB1FFF784FFAD1BB044F1D10848B6
:1034600002F026FB2046BDE8F0816FF08B04F6E702
:1034700005482B463A464521D1E700BFEBA40000A2
:1034800030160020AD300020C9A400002DE9F8431B
:103490000E463046194617461C4603F0BEFE50B98C
:1034A000204823463246452103F03EFB6FF01504C9
:1034B0002046BDE8F88344EA060515F0030504D06C
:1034C0001948234632464521EEE7002CF0D0174834
:1034D000DFF85C904FF0FF324FF0FF3302F008FB53
:1034E00024F00304AC4205EB060809D1114AD2F8D6
:1034F0000034DB07FBD500240C4802F0D9FAD7E7EB
:10350000FFF744FF50B97959404601F0C5F999F8E1
:1035100000300BB1FFF724FF0435E3E76FF08B04B5
:10352000EAE700BFC9A400000FA500003016002084
:10353000AD30002000E00140F0B54B79012B26D0E2
:10354000032B21D110268B79032B1DD1CC790CB103
:10355000012C19D10A7912B1022A15D10E220B6859
:103560004568B3F5164F2F6867D02DD8B3F5165FB1
:1035700066D016D8B3F5966F64D00AD8B3F5967FA7
:1035800063D0B3F5167F63D06FF0850054E000265A
:10359000D9E7B3F5166F5ED0B3F5965FF4D1384B2B
:1035A0003CE0B3F5E14F59D007D8B3F5615F57D090
:1035B000B3F5964FE8D1334B30E047F61225AB42D6
:1035C000E2D14FF4000329E0B3F5613F4AD013D8AC
:1035D000B3F5963F49D009D84DF6C025AB4246D049
:1035E000B3F5614FD0D14FF46B0317E0B3F5E13F72
:1035F000CAD14FF0EB7311E0B3F5612F3AD008D880
:10360000214DAB4239D0B3F5E12FBDD14FF0E86386
:1036100004E01E4DAB42B7D14FF080530569C7F8A7
:103620002435436834431B682243C3F86C2503C91F
:103630002B1D83E803000020F0BD4FF41D03EDE7D0
:10364000134BEBE74FF49E23E8E74FF4A033E5E795
:103650004FF41C33E2E74FF41D23DFE70D4BDDE7AA
:103660000D4BDBE74FF06C73D8E70C4BD6E74FF40C
:103670006503D3E74FF07063D0E74FF08063CDE789
:1036800000B0130000A04E0090D0030040420F0095
:103690000050270000C0750000F03A0000903A0189
:1036A0002DE9F7438046002201210220FEF7BCFAF3
:1036B0000220FEF787FAD8F80470D8F810603C684A
:1036C0000021C4F80015C6F80080D7F80C9001AAB4
:1036D000484603F08CFE051E1EDB019BD9F8002036
:1036E0001979186800F0D4FA051E15DB311D404623
:1036F000FFF722FF054678B97B68990724D506F1C4
:10370000180001F0D7F8244B984209D023484521EE
:1037100003F00AFA6FF00405284603B0BDE8F08311
:10372000337EDB0003F1804303F5F83304F10C0230
:1037300004F59071C3F81015C3F81425327E0123E7
:103740009340174AC2F804350823C4F800353B7A81
:1037500053B9C4F81031D4F810317369C4F8343552
:103760000123C4F8383523607B689A075CBF4FF4A7
:103770008073C4F804337B68DB0644BF4FF48003D6
:10378000C4F804333369C4F844350023C4F8483519
:103790000123A360E360BFE70000AD0B56A5000066
:1037A00000F00140F8B5044607690D4605F014FB2A
:1037B00010B92E4B1B788BB94FF02003EFF3118615
:1037C00083F31288BFF36F8F6068314603F0BAFD50
:1037D00030BB86F31188BFF36F8FEDE76426606816
:1037E00003F0B0FD70B9012003F01FFE013EF6D1D9
:1037F0000021212002F050FCF0E786F31188BFF38E
:103800006F8FF5E74FF02003EFF3118683F31288F3
:10381000BFF36F8F6068314603F094FD0028ECD051
:103820003B691D70626838691368C3F8440501205C
:10383000C3F848050020C3F82001D3F82051C3F88D
:1038400058015268D3F85801D20608D56268126848
:103850000820C2F800054FF48002C3F804230122B7
:103860009A6081F31188BFF36F8FF8BDC0340020D8
:1038700010B501238340114ABFF35B8FDC4352E84C
:10388000001F01EA040C42E800CEBEF1000FF6D1A1
:10389000BFF35B8F4FF4803202FA00F002F18042F6
:1038A00002F58052C2F80803BFF35F8FBFF36F8F3A
:1038B0000B4214BF0120002010BD00BF44160020A1
:1038C00070B40E49D1E90034D01AC31844F1000491
:1038D00022F07F46C1E90034A6F50013B3F5400F8E
:1038E00009D2074B1B681A0A1B069C19054B42F1AB
:1038F0000005C3E9004570BC02F02EBDD0010020D8
:1039000048160020B801002019B3BFF35B8F0123D4
:10391000104A834052E8001F194342E8001CBCF1E2
:10392000000FF7D1BFF35B8F0B4A4FF48033834016
:10393000C2F80433094BBFF35B8F1B68BFF35B8F87
:1039400023FA00F0C30742BF054B4FF40032C3F81F
:10395000002170474416002000100140401600204E
:1039600000E100E00D4B1868010A0006BFF35F8F0D
:103970000B4BD3F80435181841F10001B3F5801F43
:103980000AD2084BD3E90023904271EB030303D220
:1039900010F1807041F10001704700BF481600200F
:1039A00000100140B80100202DE9F74F16461F46D0
:1039B0000446FFF75DFF8246FFF7D4FFB04271EB8C
:1039C000070352D23B4B301A67EB0101984271F169
:1039D00000036BD2384B03EB0413D3E902239F425D
:1039E00008BF96424FD035494FF4803909FA04F99F
:1039F00004F15005C1F848932046AD0003F0EBFCFC
:103A0000ADB204F5A87226F07F4B05F18045009217
:103A10002B4A05F58835DC460323DDF800E02CF061
:103A20007F4041F82E00C1F84493D1F804856FF02F
:103A30000200A0EB0800604420F07F40904222D9B1
:103A4000286870B10193D1F80485A8EB0B0020F031
:103A50007F40B0F5000F16D9204603F0BCFC184A91
:103A6000019B03EB080C0133D7E70123154ABFF391
:103A70005B8FA34052E8001F194342E80010002862
:103A8000F8D1BFF35B8F0C490C98230101EB0412B2
:103A9000C2E90267C8500D9B53600025204651467D
:103AA000FFF732FF284603B0BDE8F08F6FF0150531
:103AB000F4E700BF01008000C001002000100140B9
:103AC000FDFF7F004016002073B5194B194D0024EF
:103AD0004FF0FF304FF0FF31C5F80845C3E9020150
:103AE0004FF48033C5F80433134B02264FF40032F1
:103AF0000121C5F804631120C3F880212246FEF796
:103B000093F81120FEF75EF80C4A0123AB602B609E
:103B100013600B4B0B4A0093019400232046FFF7E0
:103B200043FF3046FEF792FD204602B070BD00BF55
:103B3000C00100200010014000E100E04416002018
:103B4000C1380000FFFF7F002DE9F3472E4CD4F869
:103B5000043399070BD5D4F8043143B12B4A002321
:103B6000C4F80431D4F80431136801331360D4F875
:103B70000433DA0342D5BFF35B8F254B53E8002FA4
:103B800022F0010143E800100028F7D1BFF35B8F5A
:103B9000D30702D4D4F8403183B30025C4F8405190
:103BA000D4F84031FFF7DEFE4FF02003EFF311822F
:103BB00083F31288BFF36F8F164BD3E90267B042CD
:103BC000B9411ED34FF0FF384FF0FF39C3E90289E6
:103BD000D3E9001A1D604FF48033C4F84833C4F8A9
:103BE0004051D4F8403182F31188BFF36F8F29B16F
:103BF000CDF800A032463B460020884702B0BDE821
:103C0000F0872946EFE700BF00100140481600206A
:103C100040160020C0010020431C13B521D001280C
:103C200021DD124B124C9842D8BF0446FFF79AFE92
:103C3000104B1149D3E90023801AB0F5000F28BFBB
:103C4000002404440A480091844228BF0446A21874
:103C50004FF00000019043F10003FFF7A5FE02B012
:103C600010BD034CE2E70124E0E700BFFEFF7F0048
:103C7000FFFF7F00D0010020C138000008B5FFF72A
:103C800071FE024B1B68C01A08BD00BFD0010020A6
:103C90002DE9F041454F00EB81014FF0010C8842C6
:103CA00002D10020BDE8F081046804F07F03C4F372
:103CB00043257F2B4FEA144408BF4FF0FF33192CE4
:103CC00070D8DFE804F00D1E225B25575B6F6F6F25
:103CD0006F6F6F6F6F6F6F6F6F6F6F6F5E66696C17
:103CE000C2F80C355E09012E14BF4FF0A0463E46C7
:103CF00003F01F040CFA04F4C6F808450126344604
:103D000018E0C2F814350026F9E7C2F80835E9E7EB
:103D1000C2F8083500244FEA531EBEF1010F03F02C
:103D20001F0614BF4FF0A04EBE460CFA06F6CEF8A2
:103D30000C65012650F804EB0EF40058B8F1000FA2
:103D4000CEF3C11E03F01F084FEA05254FEA5313B7
:103D50001CBF0124002645EA8E05012B14BF4FF03D
:103D6000A0433B462E4308F5E07846EA440443F876
:103D7000284094E7C2F80C350124CCE7C2F810358E
:103D8000C1E7C2F860350468C4F38034002CF3D076
:103D9000A8E7C2F86435F6E7C2F86835F3E7C2F879
:103DA0006C35F0E76FF085007CE700BF0003005042
:103DB0004FF08053D3F83021082A06D1D3F834319C
:103DC000052B02D8024AD05C70470020704700BF24
:103DD0009EA50000024AD2F80034002BFBD07047A9
:103DE00000E0014010B503F016FB40B14FF08043F6
:103DF0000022C3F80C21C3F81021C3F8382503F0C2
:103E00000AFB002846D04FF08052604BD2F80414D1
:103E1000C3F82015D2F80814C3F82415D2F80C14EE
:103E2000C3F82815D2F81014C3F82C15D2F81414BE
:103E3000C3F83015D2F81814C3F83415D2F81C148E
:103E4000C3F84015D2F82014C3F84415D2F824144E
:103E5000C3F84815D2F82814C3F84C15D2F82C141E
:103E6000C3F85015D2F83014C3F85415D2F83414EE
:103E7000C3F86015D2F83814C3F86415D2F83C14AE
:103E8000C3F86815D2F84014C3F86C15D2F844246E
:103E9000C3F87025FFF78CFF18B13D4B3D4AC3F8BE
:103EA0008C26FFF785FF18B13B4BFB22C3F8182582
:103EB000FFF77EFF70B14FF080414FF08053D1F893
:103EC000E42ED3F8583222F00F0203F00F0313430D
:103ED000C1F8E43EFFF76CFF20B1304B4FF40072A5
:103EE000C3F8402603F097FA48B14FF08043D3F867
:103EF0000024D20744BF6FF00102C3F800244FF042
:103F00008053D3F83021082A0ED1D3F83431052B51
:103F100002D8234AD35C3BB14FF01023D3F80822D8
:103F20004FF08043C3F858254FF01023D3F80022F8
:103F3000002A03DBD3F80432002B22DA19490123CB
:103F40004FF01020C1F804351224FFF743FFC0F8EA
:103F50000042FFF73FFFC0F80442FFF73BFF00239A
:103F6000C1F80435FFF736FFBFF34F8F0E490F4BF3
:103F7000CA6802F4E0621343CB60BFF34F8F00BF07
:103F8000FDE70B4B0B4A1A6010BD00BF00C000409C
:103F9000005000404881030000F0004000900240C3
:103FA00098A5000000E0014000ED00E00400FA05E3
:103FB000040100200090D00370B501250268B2FA18
:103FC00082F3C3F11F035E1CDCB214D0BFF35B8F1E
:103FD00005FA03F322EA030350E8006F964204D186
:103FE00040E8003CBCF1000FF6D1BFF35B8FE5D198
:103FF00002480C7070BD0248FCE700BF0000AD0B2A
:104000000200AD0B10B50368CB40DB0715D40123CC
:1040100003FA01F10368BFF35B8F41EA030250E842
:10402000004F9C4204D140E8002CBCF1000FF6D1B7
:10403000BFF35B8FEED1024810BD0248FCE700BF22
:104040000000AD0B0400AD0BF7B5044618B1012814
:1040500029D003B0F0BD4FF080430222C3F80823FB
:10406000C3F80401D3F804210122DA6001239C4241
:104070008DF8073014BF00250DF1070542F21077C7
:104080004FF08046D4B1012CE3D125B1D6F80C34E1
:1040900003F001032B70D6F80C34DB0318D4134B58
:1040A00000225A71D5E74FF080430022C3F808037D
:1040B000C3F80021D3F800215860D7E725B1D6F81E
:1040C000183403F003032B60D6F81834DA03C0D594
:1040D0002DB9012003F0A9F9013FD3D103E09DF8E8
:1040E0000730012BF5D0012CD9D0B2E74C160020B7
:1040F000044B1A7922B9012218609A80024870474D
:10410000024870474C1600200000AD0B0C00AD0BB0
:1041100010B54FF08043D3F800216AB10022C3F8F4
:104120000021D3F800210122C3F80823114B58794C
:1041300010B95A711B6898474FF08043D3F8042197
:1041400072B10022C3F80421D3F80421D3F8182453
:10415000D3F81814920704D10122C3F818259A60E5
:1041600010BD0222C3F80823024BBDE810401B68B3
:10417000012018474C160020036803F01F025B095A
:10418000012B0260024818BF4FF0A040704700BFEB
:1041900000030050034B083033F81000C0F3401008
:1041A000704700BF0801002070B500F108030C4CF7
:1041B00034F81330DA0505460E4607D5C3F343231A
:1041C00004EBC30254F8333052689847A3682BB10C
:1041D000E26831462846BDE87040184770BD00BF10
:1041E0000801002010B4124A083032F81030D90506
:1041F0001BD5C3F3432123F4F85322F8103002F106
:104200001004002034F8023B13F4807F03D0C3F382
:104210004323994209D001303028F3D1002342F8DA
:104220003130044810BCFFF7EDBE10BC704700BF32
:10423000080100207C01002038B50246FFF7AAFFE4
:10424000094C02F1080540B134F8153007495B0B01
:1042500003F5A273002041F823001046FFF7C2FFC8
:10426000002324F8153038BD08010020006000400C
:104270002DE9FF41044615461E4621B3504F00F17B
:10428000080837F818309B0706D5FFF783FF18B1E9
:104290004C4804B0BDE8F0810023CDE900338DF82F
:1042A0000E308DF80F300DF10F020B4620460DF148
:1042B0000E0103F008F937F8183023F0020343F039
:1042C000010327F818309DB13D4B2F786A6804F13F
:1042D000080033F8101011F0020F0DD0002AD7D1CA
:1042E00033F8102022F01C0242EA870223F8102043
:1042F000002E3AD13448CCE721F02001C904C90C82
:1043000023F81010002AEBD0032FC1D86A68157863
:104310002FB92E4A05F5A27142F82170E0E7AA00F4
:1043200002F1804202F5C04241EA4531D2F810C59F
:104330002CF0030CC2F810C5D2F810C52CF44F3C79
:104340002CF4407CC2F810C5D2F810E54FEA042CDA
:104350000CF47C5C4EEA074E4CEA0E0C41F0200156
:1043600023F81010C2F810C5BAE7D6E90076204647
:10437000FFF738FF002FBDD0114D2B689F4204D1AD
:104380006B689E4201D100220AE011480DF10F0135
:10439000FFF712FE0C4B98427FF47BAF9DF80F2085
:1043A00045F8327005EBC20308345E6035F814300E
:1043B00043EA422343F4807325F814309AE700BFA0
:1043C000080100200400AD0B0000AD0B00600040B0
:1043D0007C010020F0B5044685B0154619B3334E74
:1043E00000F1080736F81720930703D4FFF7D2FE31
:1043F000002858D112F01C0F02D04B78012B52D05C
:1044000001238DF80F300023CDE900134A1C8B1CCB
:1044100020460DF10F0103F056F836F8173043F03F
:10442000030326F8173015B9214805B0F0BD1F4E1B
:1044300004F1080736F81700830734D595F800C053
:104440006146890020F0200001F18041C00401F59F
:10445000C041C00C26F817000023C1F810356A7857
:10446000002AE1D0D1F81035AD7823F4991323F464
:10447000F853C1F81035D1F810E5230203F47C534A
:10448000120402F4403243EA0E0313432A0502F4F5
:10449000801240EA4C30134340F0200026F8170009
:1044A000C1F81035C0E70348BFE700BF080100208E
:1044B0000000AD0B0400AD0B014BC3E902017047D6
:1044C0000801002008B50246FFF764FE38B1054B2D
:1044D0000548083233F812305B0B0B7008BD0348F7
:1044E000FCE700BF080100200000AD0B0400AD0B8D
:1044F00038B50F4C94F87850BDB96022294604F1C4
:10450000100002F0D3FB0620FDF75CFB094B0A48C4
:10451000C3F87C51D3F87C214FF00042C3F8042348
:10452000012384F87830636738BD0448FCE700BF96
:1045300008010020006000400000AD0B0500AD0B3D
:10454000034B93F87800003818BF0120704700BF74
:104550000801002001460148FFF754BD7801002002
:1045600001460148FFF728BD7801002037B5044611
:10457000FFF710FE04F108021E4B33F81230E8B1C9
:1045800013F002051AD15B0B9A0002F1804000F58E
:10459000C24002F1804202F5C04205600068D2F8D4
:1045A000100540F00100C2F8100529B1012202FAFD
:1045B00003F3114AC2F8043303B030BDC3F38203DE
:1045C000042B12D0052B12D001A80194FFF7D4FDC3
:1045D000019BD0F81015D94001F0010102312046AD
:1045E00003B0BDE8304002F0B5BF0321F7E7022178
:1045F000F5E700BF080100200060004008B5024652
:10460000FFF7C8FDC0B102F108010E4B33F81130BD
:10461000990711D45B0B01229A409B000A4903F1D0
:10462000804303F5C043C1F80823D3F8102522F0D6
:104630000302C3F8102508BDBDE80840002110465C
:1046400002F088BF080100200060004013B50E4B47
:1046500000F10802044633F81230DB0711D5FFF7EA
:10466000CDFF2046FFF7E8FD01A80194FFF784FD88
:10467000019B03F5E073022240F82320034802B0B7
:1046800010BD0348FBE700BF080100200000AD0B90
:104690000400AD0B2DE9F04F644B654865490026D9
:1046A00087B0012234461D6835B1D0F80453154255
:1046B0001EBF1C601D68164304338B424FEA420242
:1046C000F1D1DFF86C81D8F87C31002B00F09180BB
:1046D0004FF0A043D3F820250492C3F82025D3F847
:1046E00020280592C3F8202800270DF110097B012E
:1046F00000934FF0010A49E0009B4F4A94FAA4F45A
:10470000B4FA84F41C4404F10803E00832F81330CE
:10471000039404F007020AFA02FC19F8002022EAC6
:104720000C0209F8002003A8C3F382059908FFF7DB
:1047300023FD039A02F5E0724B0750F82220AB46A6
:10474000C2F3014229D520465946D5B2FFF72CFDC8
:1047500003A80394FFF710FD039B03F5E07350F8E3
:104760002330C3F301439D4207D10021204602F0CC
:10477000F1FE2946204602F0EDFE03A80394FFF760
:10478000FBFC039B0AFA03F3C0F8203559F82740D5
:10479000002CB1D1CFB90127A9E7022A0CBF032110
:1047A00002212046019202F0D5FE032D04D0019A89
:1047B000022A06D1012DE0D159462046FFF7F4FC2C
:1047C000DBE7032AD9D1022DF5E7C8F87C41D8F8F8
:1047D0007C311A494FF0A043D3F820250492C3F846
:1047E0002025D1F820350593C1F8203513437FF4F7
:1047F0007BAF012416B907B0BDE8F08F96FAA6F397
:10480000B3FA83F304FA03F29B0003F1804303F548
:10481000C04326EA0206D3F81005D3F81015C0F3FA
:104820000520C1F30141FFF7BFFCE3E70061004051
:10483000006000402061004008010020000300509B
:10484000044AD2F80034DB07FBD50160BFF35F8F69
:10485000704700BF00E001404FF080531A69B0FB81
:10486000F2F302FB130373B9084B0222C3F80425C9
:10487000C3F80805D3F80024D207FBD5002204486A
:10488000C3F8042570470348704700BF00E00140AB
:104890000000AD0B0A00AD0B10B5054C0123C4F8A8
:1048A0000435FFF7CDFF0023C4F8043510BD00BF69
:1048B00000E0014001460148FFF77EBB8401002073
:1048C000036803F01F025B09012B0260024818BF56
:1048D0004FF0A040704700BF000300502DE9F347A0
:1048E000784D90F804C0064605EB4C104FEA4C1783
:1048F000047F002C40F0E280BCF1010F00F2E08068
:10490000D1F808C0BCF1206F00F0DA80BCF1A05FE4
:1049100000F0D68091F811C0BCF1000F40F0D080BB
:1049200091F80FC0BCF1FF0F40F0CA80D6F80080AC
:10493000EA51436091F813C0827F6CF300028277E2
:1049400091F804C0D2B26CF34102827791F811C0A1
:10495000D2B26CF382028277CB78C377CB7CD6F865
:104960000090002B5ED18B680878B3F1A05F0B7BC1
:1049700008BF0324012B00F2958002F023FE0B7880
:10498000019301A8FFF79CFF019B240203F5E0734C
:1049900044F0010240F823204878FF280DD002F0AF
:1049A00011FE4B78019301A8FFF78AFF019B03F5E5
:1049B000E07344F0030240F823208B78FF2B0CD0E7
:1049C00001A891F80EA00193FFF77AFF019B03F570
:1049D000E07344EA8A0240F82320C878FF2810D008
:1049E0000B79002B61D002F0EDFDCB78019301A88B
:1049F000FFF766FF019B03F5E07344F0030240F804
:104A00002320C87BFF280DD002F0CFFDCB7B019384
:104A100001A8FFF755FF019B03F5E07344F0030481
:104A200040F823400B7D93B94B780878FF2B18BFD3
:104A30001A468B78C9F8080508BF4FF0FF32FF2BE4
:104A400008BF4FF0FF33C9F80C25C9F810350B7CAF
:104A5000C8F860358B68C8F824354B7B0A7B003B6F
:104A600018BF0123022A23D0032A24D0012A01D10E
:104A700043F00203C8F854358B79C8F8C0350723D2
:104A8000C8F80035EB5923B1306840F30730FDF723
:104A900099F8EB1900225A770B4801221A7702B0D5
:104AA000BDE8F08702F081FD69E702F07EFD9CE73A
:104AB00043F00403DEE743F00603DBE70348EEE7D9
:104AC0000348ECE7541600200000AD0B0500AD0BC9
:104AD0000300AD0BF8B50379204C05685E0104EBCB
:104AE0004317A359B3B145F30730FDF77BF81C4BCF
:104AF000C5F808337B7F6BB101236B616427D5F860
:104B0000043123B9012002F090FC013FF7D1A31931
:104B100000225A770023C5F80035A3199B7FD807D8
:104B200017D4D5F80805411C01D002F030FDD5F8A6
:104B30001005421C01D002F02AFDD5F80C05431CDB
:104B400001D002F024FDA319D87FFF2801D002F084
:104B50001EFD344400232377F8BD00BF5416002007
:104B6000520108002DE9F843374F037907EB43184A
:104B7000154698F81D2081460C465E01002A60D13A
:104B8000BA592AB115F0140F04BF012288F81D206C
:104B900094E80F0007EB060C0CF10C0C8CE80F00EE
:104BA0000121404602F01BFD226822B102F0604361
:104BB000B3F1005F06D1A36853B103F06043B3F1D2
:104BC000005F05D03E44002320487377BDE8F8839A
:104BD000D9F800306168C3F84425C3F84815D4E912
:104BE0000212C3F83415C3F838250022C3F818217F
:104BF000D3F8182115F0010218BF0122C3F850257F
:104C000015F0020218BF0122C3F8402515F0080272
:104C100004BF01211961B95949B912B9D3F8182152
:104C2000FBE70021404602F0DAFC0948CEE715F028
:104C3000040F4FF0400214BFC3F80823C3F8042345
:104C4000F3E70448C2E700BF541600200A00AD0B8A
:104C50000000AD0B0B00AD0B064BD3F818213AB199
:104C60000022C3F81821D3F81831034802F0C7BC5A
:104C7000704700BF0030004054160020064BD3F8A8
:104C800018213AB10022C3F81821D3F8183103488B
:104C900002F0B5BC704700BF00300240741600201F
:104CA000F8B5144B15460279044603EBC200456083
:104CB00013F83200E0B9012603F8326023680A785D
:104CC000C3F80C2549682768C8034FF47A7200239B
:104CD000490CFBF715FAC7F804053DB12368C3F882
:104CE0000463206840F30730FCF76CFF024800E0E3
:104CF0000248F8BD941600200000AD0B0500AD0B76
:104D00000368027901211960024B022103F8321075
:104D1000704700BF9416002010B502794FF02003B1
:104D2000EFF3118483F31288BFF36F8F0C4B03EB07
:104D3000C2035A78072A10D80A70511C59700168AA
:104D40000123D1F80805934003430648C1F808350C
:104D500084F31188BFF36F8F10BD0348F8E700BFDD
:104D6000941600200000AD0B0200AD0B0368034A4F
:104D700001F5C07143F82120704700BF3546526EDF
:104D800010B5064CD4F800313BB1054B5B68984731
:104D90000023C4F80031D4F8003110BD00000140F8
:104DA0009416002001680E4A9142034615D1C1694C
:104DB000A2F11022A2F1EF1291420ED18268012AD3
:104DC0000BD8C26812B101698A4206D0586928B16D
:104DD0009B691B1A5842584170470120704700BF19
:104DE00055AA00FF70B50D4B9E68A6B13046FFF77F
:104DF000D9FF044678B9F3686BB935690DB9204617
:104E000070BD2846FFF7CEFF28B9EB68B34202D148
:104E10002E462D69F2E70124F1E700BF9C16002021
:104E20002DE9F8433F4F3C68D4B1BC68C4B10028B9
:104E30004AD0002948D001FB00F5B5FBF0F08842CC
:104E400042D1281D40D8A9070DD025F0030604360D
:104E5000FC6803E06368B34238D2A469002CF9D13E
:104E60002046BDE8F8832E46F2E7FB6041E006F1FC
:104E700020016318203A5A600022C3E902242A481C
:104E800022691A6160502949D96102B1D36062690F
:104E90005A61A1699961AAB193619A6902B153619A
:104EA0004FF00109C4E9016923610023C4E9053316
:104EB0003B69DB072ED5FFF795FF58B31C4B4846DF
:104EC0001B6826E0FB60E8E70024C9E7A3681BB184
:104ED000174B01201B6898476268921B232A04F134
:104EE0002008C4D80123A360D4E90523002ABCD03C
:104EF0009361A3690BB162695A610023C4E9053368
:104F00003B69DA0706D5FFF76DFF18B1084B1B6840
:104F1000012098472A4600214046444601F0C6FE3B
:104F20009EE700BF9C16002055AA00FF669911EE6F
:104F30008C01002070B50546002800F08480424EA8
:104F40003368002B7FD0B268002A7CD0834203D81C
:104F500072681344984203D33C4B01201B68984766
:104F6000A5F120042046FFF71DFF18B1374B0120A3
:104F70001B68984755F8183C012B03D0334B012090
:104F80001B68984755F8143C002245F8182CC3B10B
:104F90009968002942D155F81C2C02F120015A6869
:104FA0000A445A6055E905321A6155F8145C2B69B8
:104FB00003B1DD6020462022002101F077FE234668
:104FC0002C462069002836D08268002A33D16368D5
:104FD000426820331344636003692361D4E90523E5
:104FE000F2B923BB436963618269A2610BB39C611F
:104FF000A36903B15C61236903B1DC602022002155
:1050000001F054FE33699B071DD5FFF7EBFED0B1CD
:105010000E4BBDE870401B68012018471346D0E7CF
:105020009361A369002BDDD062695A61DAE7F3600E
:10503000F7E7F460DCE7002BE4D1F368A36103B188
:105040005C61F460DEE770BD9C1600208C010020DE
:1050500038B514220C4605460021134801F026FEFF
:105060001249134800F034F8232C1CD915F003031F
:105070001FBF043CE418C3F10403ED1822460021CD
:10508000284601F013FE084B0A499D60C3E900540D
:10509000203C6C609A6811609A68DA60A1F1102176
:1050A000A1F1EF11D16138BD9C160020354F0000F1
:1050B000214E000055AA00FF014B1B68184700BF96
:1050C00088010020014B1B68184700BF9001002099
:1050D000024B1860024B00201960704788010020C5
:1050E000900100200A4619B1024B00211B681847A5
:1050F000704700BF94010020F8B500F1080647682A
:10510000044630460D4602F0FBFB874216D1636829
:10511000B3F5807F12D80021304602F05AFD0028F6
:105120000CDD0021304602F0BEFB38B145B900214C
:1051300004F1140002F04DFD00281EDC1B481EE0A7
:1051400004F12C060021304602F043FD0028F5DD75
:105150000021304602F0A7FB0028EFD004F138060A
:105160000021304602F035FD0028E7DD0021304601
:1051700002F099FB0028DAD1E0E70DB90020F8BD74
:10518000002104F1440002F024FD0028D6DD0021B6
:1051900004F1500002F01DFD0028CFDD002104F1D4
:1051A0005C0002F016FD0028E8DCC7E780BFFFFFC7
:1051B00070B500210446FFF79FFF0546B8B904F11A
:1051C0000806304602F080FB7F2810D914342946A7
:1051D000204602F068FB50B1204602F075FB012822
:1051E00005D93146204602F0B3FC002800DB014D12
:1051F000284670BD00BEFFFFF0B50C4687B0002109
:1052000005461646FFF778FF80BB03A802F0A4FA14
:1052100021466A6803A802F079FB0446D0B905F17B
:105220000804214603A802F093FC00281BDA05F1CC
:10523000680303A9009305F11402234608466F682A
:1052400003F02EF9044628B93A46314603A802F085
:105250007EFB044603A802F085FA0CB1A4F5854450
:10526000204607B0F0BD6FF00304F3E7004CF7E70A
:1052700080BFFFFF0023C0E90033C1B9194A1A4BB0
:10528000DFF868C0C0E90223194B1A4AC0E904C319
:10529000194BC0E90623194B036203F17453A3F5BC
:1052A0002303A3F692434362816600207047144BA8
:1052B000144ADFF854C0C0E9022303F1794303F52F
:1052C000740303F501630361104BC0E905C303F1E7
:1052D000D14303F5C01303F51E63C3610C4B036296
:1052E0000C4BE0E767E6096A85AE67BB72F36E3C7C
:1052F0003AF54FA57F520E518C68059BABD9831FA1
:1053000007D57C36D89E05C139590EF7310BC0FF41
:10531000A78FF964A44FFABE2DE9F04FD1B048AB86
:10532000019300F1080600F12803019A0493334623
:1053300053F8040B42F8040B04988342F8D14F9BB6
:1053400002934CADDDE94AE395E82011DDE94847D9
:105350000393454B059306AA4FF00009B9F10F0FCF
:105360006AD84B7891F800B091F802A01B0443EA88
:105370000B6391F803B043EA0B0343EA0A234FEAB5
:10538000F52080EAB51080EA756A8CEA0800DDF83D
:1053900014B09360284080EA0C0050445BF804ABE2
:1053A000CDF814B082440298534403444FEA743A4F
:1053B00044EA07008AEAB40A00EA0E0004EA070B8E
:1053C0008AEAB45A40EA0B00504409F10109DDF8B9
:1053D0000CA0B9F1400F9A44CDE902CE034402F18A
:1053E000040201F1040120D1CDE94D58CDE9483442
:1053F000CDF83CC1CDF830A14A970790CDF82CE10B
:1054000006930199336851F8042B0191134446F82F
:10541000043B049BB342F4D106A84FF49471FFF708
:1054200061FE002051B0BDE8F08FBE46C44627465D
:10543000A8461C46554691E7136852F834BC52F80A
:10544000380C4FEAF34A8AEA734A8AEA932A52F8F6
:10545000143C03444FEABB4080EAFB109A4480EAC4
:10546000DB0353448BE700BF2496000030B581680E
:1054700085B0103921F00704054601F0A8FB102281
:105480000146684601F012FC07491022684601F007
:1054900002FC10236A462146284601F068FB0038CA
:1054A00018BF012005B030BD5497000030B50C4640
:1054B000816887B0102302AA1039054601F042FB2B
:1054C000002802DA012007B030BD102202A92846C8
:1054D00003F0B2FB90B303232370284603F0BDFB17
:1054E000012301460DF10702284601F02BFB00289D
:1054F000E8DB9DF8073003F00F021B09627023718F
:1055000001220DF10701284603F096FB10B96378DC
:10551000042B03D90123637000232371AA68183A6E
:1055200022F00702083AA11C284603F0B0FB00282D
:10553000C8D1E11C284603F004FCC4E7044910224A
:1055400002A801F097FB002814BF02230123C3E740
:10555000549700002DE9F04385B0064669460120C6
:1055600003F0F5FB054618B1FF2005B0BDE8F08358
:1055700002A9042003F0EBFB012804463FD12D488B
:105580003246492101F0D0FA03238DF808308DF816
:1055900009408DF80A308DF80B308DF80C509DF8CD
:1055A00000509DF808609DF803709DF80B809DF8F1
:1055B0000290214C00222078294603F054FB18B3B6
:1055C0006078314603F04FFBF0B1A378042B01D093
:1055D000BB4219D1E378042B01D0434514D1237980
:1055E000042B0FD16379022B19D1144A1448492195
:1055F00001F09AFA6079831E022BB6D9B4E700282D
:10560000CDD0B1E74B45EDD00132032A04F10604B9
:10561000D1D10C48492101F087FA0120A5E7032BDD
:1056200005D0094A0949042B18BF0A46DEE7084A93
:10563000DCE700BFFAA500006DA60000DEA50000B3
:1056400045A6000058A60000D7A50000E8A5000068
:10565000E3A5000010B5144C144A15490323236137
:105660006361144BA261E3614FF480632362002302
:10567000A3626362E36222660F4A6266E01D102243
:10568000A2662367E366636701F0D7FABFF35F8F13
:105690000A49204601F0D1FABFF35F8F2023A3719E
:1056A000BFF35F8F10BD00BFB01600207FA60000C3
:1056B00088A60000C0300020B03000208CA600007A
:1056C00070B5054610B90024204670BD0378002B44
:1056D000F9D00E4C0E4EB44208D10C4CB442F2D06C
:1056E000204603F061FB50B91834F7E7204603F079
:1056F0005BFB10B12368AB42E6D01834EBE72168BE
:10570000284601F0ABFA0028EED1DDE74C9000000E
:105710002491000010B545210446034801F004FA25
:10572000204603F04CFB00BF93A60000F7B50546EA
:105730000E464FF02003EFF3118783F31288BFF377
:105740006F8F00F0C3FC042D96BF184B184B53F815
:10575000253000220446009216482A46452101F0D1
:10576000E3F93EB1F369C3F308031BB112484521C5
:1057700001F0DAF934B1204603F034FB034608B1F6
:10578000027802B90D4B0E482246452101F0CCF9B2
:1057900031462846FFF7BEFF87F31188BFF36F8FAE
:1057A000204603B0BDE8F040FCF75ABD2897000042
:1057B000A7A60000BDA60000EAA60000B5A600004E
:1057C00010A700000F4B70B553F82040013053F87C
:1057D0002060A64200D870BDD4E90035284698471D
:1057E0006DB138B10028B8BF4042EB68FF28A8BFB0
:1057F000FF201870EA68537843F0010353700834AF
:10580000E7E700BF3C97000008B50A4B01220320E0
:105810001A70FFF7D7FF00F023FE0420FFF7D2FF36
:1058200000F0EAF8FAF7EEFD034A137B23F00103D8
:10583000137308BDC03400205802002008B5034887
:10584000034A0021121A03F0C3FA08BDB801002070
:10585000C434002070B5002386B00122CDE90423B2
:10586000114E124D01930F22CDE902321049182337
:1058700003FB005506EBC0164FF4A072044602FB72
:1058800000110C4B0095304600F086F8737B0A48F7
:105890002C75013423F0040300EBC4247373EE6011
:1058A0006C6006B070BD00BFD80100205817002002
:1058B000C8740020E98D00000876002080B5002023
:1058C000A6B0FFF77FFF2D4B83F308882C4D2D4E9C
:1058D0006B692D4F43F400736B610024E02385F85E
:1058E0002230EC772C766C76AC7685F820406B6AAB
:1058F00043F4E0236B6285F82340FCF769FCFCF776
:1059000015F94FF0FF33AB62EB62FCF73BFDFCF7A0
:10591000BDFC40F20113ADF8243006ABB360CDE915
:105920001F44229403F03FFA0120FFF74BFF0220AF
:10593000164DFFF747FF00F01BFB154BB5610593B4
:10594000012314490094CDE903434FF480423B46C0
:10595000CDE90144284600F01FF86A7B064622F094
:10596000040228466A7303F085FA2046FFF772FFA7
:105970003A4631462846FCF701FA00BF087E00206F
:1059800000ED00E0581700200958000058020020E0
:1059900077A70000C83400202DE9FF410E9E067352
:1059A000042646730D9E867300F15805D61DC0E986
:1059B00016550C9A002526F00706C0E90655C0E9E1
:1059C00019168560C573C56602920B9A019201EBA8
:1059D00006080A9A009242460446FCF7B3F9054BC2
:1059E00065659B6803B11B6F2367404604B0BDE843
:1059F000F08100BF581700202DE9F043294C2A4DB3
:105A000087B02646AE4204F130040FD300F00EF901
:105A1000244CDFF898904FF4004640F2E737AC4250
:105A200020D307B0BDE8F04300F086BA54F8043C38
:105A3000059354F8103C049354F8143C039354F821
:105A4000183C029354F81C3C019354F8203C0093FA
:105A500054E90C0154E90A23FFF79EFF54F8303C47
:105A60005E65CEE7636A5A1C0DD023EAE37300211A
:105A70003846C3FB060151EAC333D4F8008004D191
:105A8000404600F0BBF93034C9E74FF47A72002386
:105A9000FAF736FB02460B4608F11800494600F0BB
:105AA000E1FBF0E7A4920000A4920000958E0000B4
:105AB00038B504464FF02003EFF3118583F31288C5
:105AC000BFF36F8F03F032FA48B10022826703F010
:105AD000D1F929460548BDE8384000F095B8D4E929
