:020000040000FA
:100000005053002025260000A9510000CD240000F7
:10001000CD240000CD240000CD240000CD2400001C
:10002000CD240000CD240000CD24000031210000AB
:10003000CD240000CD240000D920000099510000FB
:10004000FD250000FD250000FD250000FD25000028
:10005000FD250000FD250000FD250000FD25000018
:10006000FD250000FD250000FD250000FD25000008
:10007000FD250000FD250000FD250000FD250000F8
:10008000FD250000FD250000FD250000FD250000E8
:10009000FD250000FD250000FD250000FD250000D8
:1000A000FD250000FD250000FD250000FD250000C8
:1000B000FD250000FD250000FD250000FD250000B8
:1000C000FD250000FD250000FD250000FD250000A8
:1000D000FD250000FD250000FD2500007BB972B95B
:1000E0000029BEBF00204FF0004106E008BF0028F5
:1000F0001CBF6FF000414FF0FF3000F0BDB9ADF113
:10010000080C6DE904CE002909DB002B1ADB00F096
:100110004DF8DDF804E0DDE9022304B07047404209
:1001200061EB4101002B1BDB00F040F8DDF804E03F
:10013000DDE9022304B0404261EB4101524263EB2E
:1001400043037047524263EB430300F02FF8DDF89E
:1001500004E0DDE9022304B0404261EB4101704755
:10016000524263EB430300F021F8DDF804E0DDE9DF
:10017000022304B0524263EB4303704753B94AB9B8
:10018000002908BF00281CBF4FF0FF314FF0FF309F
:1001900000F072B9ADF1080C6DE904CE00F006F87C
:1001A000DDF804E0DDE9022304B070472DE9F047F3
:1001B000089E04468846002B4BD18A42154667D9D3
:1001C000B2FA82F24AB1C2F1200701FA02F320FA30
:1001D00007F7954047EA030894404FEA154E230C71
:1001E000B8FBFEF71FFA85FC0EFB178843EA0843AD
:1001F00007FB0CF1994209D9EB1807F1FF3080F0A9
:100200001B81994240F21881023F2B445B1AA4B231
:10021000B3FBFEF00EFB103344EA034400FB0CFC7E
:10022000A44509D92C1900F1FF3380F00781A445BA
:1002300040F2048102382C4440EA0740A4EB0C044D
:1002400000271EB1D4400023C6E900433946BDE86B
:10025000F0878B4209D9002E00F0EB800027C6E919
:10026000000138463946BDE8F087B3FA83F7002F1E
:1002700047D18B4202D3824200F2FA80841A61EBAA
:10028000030301209846002EE0D0C6E90048DDE7D0
:1002900002B9FFDEB2FA82F2002A40F08F80491BD9
:1002A0004FEA154E1FFA85F80127B1FBFEFC230C1F
:1002B0000EFB1C1143EA014308FB0CF1994207D9DC
:1002C000EB180CF1FF3002D2994200F2CD80844647
:1002D000591AA3B2B1FBFEF00EFB101443EA04441A
:1002E00008FB00F8A04507D92C1900F1FF3302D212
:1002F000A04500F2B6801846A4EB080440EA0C4082
:100300009FE7C7F1200CBB4022FA0CFE4EEA030E19
:1003100001FA07F420FA0CF521FA0CF34FEA1E4813
:100320002543B3FBF8F92C0C08FB19331FFA8EFA9E
:1003300044EA034309FB0AF49C4202FA07F200FA7A
:1003400007F10BD91EEB030309F1FF3080F0878022
:100350009C4240F28480A9F1020973441B1BADB298
:10036000B3FBF8F008FB103345EA034400FB0AFA3C
:10037000A24508D91EEB040400F1FF336BD2A2455D
:1003800069D90238744440EA0940A0FB0289A4EB11
:100390000A044C45C2464B4654D351D0002E69D076
:1003A000B1EB0A0564EB030404FA0CFCFD40FC40CD
:1003B0004CEA0505C6E90054002747E7C2F12003CF
:1003C00020FA03F7954001FA02F021FA03F34FEA0D
:1003D000154E3843010CB3FBFEF71FFA85F80EFBF0
:1003E000173341EA034107FB08F38B4204FA02F496
:1003F00007D9691807F1FF3C2FD28B422DD9023F54
:100400002944CB1A81B2B3FBFEF00EFB103341EA54
:10041000034100FB08F38B4207D9691800F1FF3C48
:1004200017D28B4215D902382944C91A40EA074726
:100430003BE73746304609E70746E7E61846FBE65E
:100440004145ABD2B8EB020A69EB0E020138134604
:10045000A4E76046E9E7184695E76746D1E7814695
:100460007CE702382C4447E7ACF1020C2B442FE721
:10047000384608E73746E9E6704700BF7FB500F029
:100480003FF800F0FFF8124800F024F800B9FEE74A
:1004900001A800F051FB00B1FEE769469DF8080095
:1004A00004F0CEFA009B039C1C44019B1D89661935
:1004B0004FF02002EFF3118382F31188BFF36F8FA7
:1004C00004F06BFE635983F3088873689847FEE76E
:1004D0004C7A000010B5044C236813B903F0BCFD3E
:1004E0002060206810BD00BF0800002002289ABFCD
:1004F000024B53F820006FF015007047B0770000F2
:100500004FF4C051014802F0E7BA00BF460E002088
:100510002DE9F341DFF84C80064600252C272846BC
:10052000FFF7E4FF01A9C0B201F0F8FA014698B95B
:10053000202307FB0582019804F0ADFD041C18BFC1
:100540000124019804F0A6FD44B1002D18BF3446E3
:10055000204602B0BDE8F0810124F2E7002DF7D17A
:100560000125DCE70C000020F0B587B00546FFF759
:10057000BDFF04A9C0B201F0D1FA002843D128463A
:10058000FFF7B4FF214E2C2405A9C0B204FB05647B
:1005900001F0C4FA88B12C226A43B3181B6913F026
:1005A000100315D1B1581A4A914219D085B1049857
:1005B0000021826804F0B5FD0AE0059804F046FACF
:1005C0000746059804F066FD631EE21C9A4202D1BC
:1005D0004FF0FF3411E013F8011FB942F6D0DAE70B
:1005E000CDE90133009320464FF48073094A049902
:1005F00000F034FD04460028D8D1049804F04AFDE8
:10060000204607B0F0BD0124FAE700BF0C0000202F
:100610003DB8F396472A002073B502AD802645F811
:10062000046D174C2946626A032001F08BFA40B929
:10063000019B226DA36229460420019601F082FAF3
:1006400008B1012518E0019BE26D63652946012090
:10065000019601F077FA05460028F2D1019B206A45
:10066000236604F084FD0646A06D04F080FDB042D0
:1006700038BF304684F86400284602B070BD00BF21
:100680000C00002038B50C480C4C03F0E5FC436826
:1006900020601D68042201230021A8472068084A21
:1006A000002313704268194654680422A047054B82
:1006B00041F288321A8038BD5F7A0000780C002041
:1006C00046260020440E00200E4B198810B4B9B104
:1006D000013989B206221980B1FBF2F302FB131132
:1006E00089B269B9084A1378B3FA83F35B091370C6
:1006F000064A1068426854680422A44610BC604749
:1007000010BC7047440E002046260020780C0020C4
:100710002DE9F84F0A9EDFF850B00746884691460B
:100720009A460024B44201D3002010E0351BFFF7A5
:10073000CBFFB5F5806F28BF4FF480652B460A4A82
:1007400004EB0901384604F0A6FC10B10120BDE815
:10075000F88F2B465A4604EB0A01404604F0B8FCD9
:100760000028F3D12C44DDE7472600202DE9F8438B
:100770000378032B074623D0042B23D10125124BEA
:100780002C2202FB053593F86400AC6A04F0F8F9FA
:1007900004F10054013C8046E40000266B6A1A19FB
:1007A0001959D2F804901B684A46C91A38464E4473
:1007B00004F0AEF9B045A4F10804EFD8BDE8F88321
:1007C0000025DCE70120F9E70C0000202DE9F041CD
:1007D000224B82B01D68EB1D23F0070300AFADEB89
:1007E000030D4379002B064607F1040114BF0120D5
:1007F000032001F093F978BB786804F0D4F9184B22
:10080000347993F864203368013C013B02EB4201E8
:10081000544301FB03440444786804F0A8FC804678
:10082000786804F013F92A460146684604F015FD7D
:1008300033798DF80030214643466A46786804F0E3
:1008400047FC041C18BF0124786804F023FC2046F0
:100850000837BD46BDE8F0810124F5E7C877000000
:100860000C0000202DE9F04F04468BB02368AE4EFB
:100870000020012BCDE904003CD12379012B39D193
:10088000AA4D3268AA4203D105AA314604F0F5F810
:10089000F36AAB4204D104AAA549012004F0EDF8A3
:1008A000DDE90432934288BF0593059BA3600023D2
:1008B0000599376DD6F824C01A461D46914202D8D4
:1008C0009A4280F02681E8000CEB000E9942DEF897
:1008D00004E0724402D8934280F019813844914276
:1008E0004068034404D8994202D89A4200F00A8131
:1008F0000135E3E704F1080000F022FBA36805934B
:10090000D5E7B36D726A99684FF0000802EBC50332
:100910005B684344994203D3013D98466B1CF5D173
:100920002368013B5B4500F2E2806B1C96F8640093
:1009300052F833701368FF1A04F022F9B36A716A2F
:10094000013B07EB080251F8333009685B1A9A4201
:1009500023688CBFA8EB000AC246012B40F0D08070
:10096000BAEB080318BF0123637106A9032001F045
:10097000D5F807A9042001F0D1F808A9012001F059
:10098000CDF82379012B2ED108980021826804F03C
:10099000BFF82368012B13D12146089804F09AF878
:1009A00063796BB906980393FFF7E0FE214606983A
:1009B00004F090F80898039B8268194604F0A8F8A0
:1009C0000023CDF800A03A46DDE90701FFF7A0FEBD
:1009D000022323712046FFF7F9FE20B1D9F8003039
:1009E0000133C9F800302379022B1FD14246394622
:1009F000079804F08DF83B46CDF800A03A46DDE9B3
:100A00000601FFF785FE2368012B04D1637913B932
:100A10000798FFF7ABFE032323712046FFF7D6FEAE
:100A200020B1D9F800300133C9F800302379032B05
:100A300054D142463946069804F06AF83B46CDF850
:100A400000A0002206990898FFF762FE63796BB355
:100A5000089804F0A8F896F86430069903EB43036D
:100A6000009302460AEB07030898FFF751FE20B1F6
:100A7000D9F800300133C9F8003009A9012004F089
:100A8000B4F89DF82730012B02D1069804F0BDF888
:100A90009DF82510012902D0069804F0BBF8A16842
:100AA000069804F0BDF8069800F08AFA4FF00003AB
:100AB0006779637123680133236001232371204622
:100AC000FFF784FE20B1D9F800300133C9F80030B7
:100AD00027B142460021089804F01AF8069804F05D
:100AE000D9FA079804F0D6FA089804F0D3FA0BF173
:100AF000010B002DBFF605AF00200BB0BDE8F08F55
:100B0000002331E74FF0000BDFF82890F1E7914226
:100B1000EAE6994202D89A427FF6E7AE07EBC500B3
:100B200040680344DFE600BF0C0000203DB8F396A8
:100B300038000020740000202DE9F04FBD4CBE4B62
:100B40006362BE4B236589B0BD4BE365064600205A
:100B5000FFF7CCFC04F12001C0B200F0DFFFFFF78B
:100B6000B3FD0120FFF7C2FC04F14C01C0B200F05C
:100B7000D5FFFFF7A9FD04F15801012000F0CEFFD9
:100B8000FFF74AFD0546002863D1FFF7C1FC054683
:100B900000285ED1D4F82880B8F1800F00F26A8175
:100BA000D4F854E0BEF1800F00F26481A36DD4F854
:100BB00050A09B68D4F82490019302460146074652
:100BC00084460346884551D896454FD8884540F01D
:100BD0005181964540F04E81BC4540F04B810C223E
:100BE000002105A804F039FB012504A9032005957F
:100BF0008DF818508DF81A5003F0F7FF284603A916
:100C0000DFF8408203F0F1FF0025C2469DF8101086
:100C100018F82500AF0003F0A4FF002856D008EB19
:100C200007099DF80C1099F8010003F09AFF0028BD
:100C30004CD099F80230042B03D09DF812209A4230
:100C400044D15744F87801284FD042D302284BD0E2
:100C50000725A06D04F01EFAE06C04F01BFA206A70
:100C600004F018FA284609B0BDE8F08FAB4216D15F
:100C700009EBC10B0131DBF804B05B440AEBC20B9A
:100C80000132DBF804B05D44AB429BD1019898423D
:100C90009C441F44C0F0EE800020054691E70AD234
:100CA00009EBC10B0228DBF804B05B4400F0E280E2
:100CB00001310120E8E70AEBC20B0128DBF804B0A0
:100CC0005D4400F0D78001320220DDE70135042DBC
:100CD0009CD1059B012B03D19DF81800012861D000
:100CE00005A8FFF7BFFD74E0032004A900F016FF7C
:100CF000074608B10125ACE7DDF81080404603F057
:100D000052FF8246404603F040FF3D468146BB46C7
:100D1000B94506DCBBF1000F29D0002D08BF3D46C8
:100D200019E094F86410012303AA07FB01A14046CF
:100D300003F08EFE00282EDB012807D1BBF1000F47
:100D400002D0002D08BF3D460137E1E7BBF1000F9F
:100D50001ED0002DF8D0013D032395FBF3F35A1C60
:100D600003EB4303ED1A013505928DF818500498F2
:100D700003F024FF012301460DF11A02049803F049
:100D800067FE0128054604BF8DF81A00002503E020
:100D90004FF0010BD8E70125049804F07BF9002DF2
:100DA00097D056E79DF81A70012F1FD100F016F961
:100DB000831E022B054605D83846FFF7D5FB0028D1
:100DC00018BF05258DF81A509DF81A30023B022BEA
:100DD00086D99DF81A50EB1E022B0FD9013D042D28
:100DE00024D8DFE805F0473131314000FFF7BCFB84
:100DF0000028E9D005238DF81A30E5E704A903207F
:100E000000F08CFE90B905A9049800F041F807465F
:100E100068B99DF817300498032B02D103F0F5FE52
:100E20000746049804F036F9002FD7D0FEE70127D3
:100E3000F7E700BF0C0000207800002078080020B1
:100E400078040020667A000005A9032000F066FE01
:100E50000028EBD1059803F0D3FE0546059804F071
:100E600019F9002DE2D10020FFF752FB05460028BA
:100E70007FF4EFAE0020FFF777FB054630B9236A19
:100E80005A7832715B68B3603460E2E60325E0E6CD
:100E900030B50C46816885B010236A461039054686
:100EA00003F0D6FD002802DA012005B030BD01288C
:100EB0002DD103232370A9680123E218283928467D
:100EC00003F0C6FD0028EFDB012802D06378042B75
:100ED00001D901236370A9680123A21C2039284687
:100EE00003F0B6FD0028DFDB01281AD10323A3702D
:100EF000A9680123E21C1839284603F0A9FD00283F
:100F0000D2DB012813D10323E3700020CDE71022A8
:100F10000A49684604F064F900280CBF0123022343
:100F2000C8E7A378012B14BF02230123DFE7E3788E
:100F3000012B14BF02230123E6E700BFCC7700009A
:100F400010B586B0044601A9032000F0E7FD18B1F2
:100F50000124204606B010BD01988168102302AA22
:100F6000103904F098F820B10124019804F092F8A7
:100F7000EFE71022114902A804F032F950B90198A4
:100F8000816822460423303904F085F8041C18BF18
:100F90000124EAE7019804F07DF801A9012000F09E
:100FA000BDFD0028D4D101988168102302AA103910
:100FB00004F071F80028D7D1E1E700BFCC7700003A
:100FC0008168054A08B51039102304F081F8003013
:100FD00018BF012008BD00BFCC7700002DE9F34702
:100FE0000320694603F0EDFD98BB01A9042003F03E
:100FF000E8FD70BB9DF800609DF804709DF80380CB
:101000009DF807909DF802A0134D02463146A85C5A
:10101000AC1803F0A6FDB8B13946607803F0A1FD25
:1010200090B1A378042B01D043450DD1E378042B74
:1010300001D04B4508D12379042B03D1607902B04C
:10104000BDE8F0875345F9D00632122ADED10120DF
:10105000F5E7FF20F3E700BF767A00002DE9F04FB7
:10106000F3B007467C9C7D9D32A8884692461E467A
:1010700005F0BCFC002132A801F03CFE34B1002D8B
:1010800004DD2A46214632A805F0B4FCB7F80890E2
:10109000FB6800249944A14521D807A932A805F08E
:1010A000E6FC7E9B23B1202207A9184604F0A8F88D
:1010B000FB683C891C4405AA04232146404603F0F2
:1010C000EAFF834638B9BDF8141046F6071291427C
:1010D0001AD04FF0FF3B584673B0BDE8F08FA9EB34
:1010E0000405B54228BF35462B46524621464046A8
:1010F00003F0D1FF83460028EDD12A46514632A89D
:1011000005F078FC2C44C6E7BDF81620DFF83891CE
:10111000DFF838A1029013190393043406464FF008
:10112000FF35039B9C4208D3029B002BD1D0B6FA1B
:1011300086F67609C6F1000BCDE7042306AA214600
:10114000404603F0A8FF83460028C4D19DF818B09C
:10115000BDF81A70BBF1100F18D1202FB9D13B4642
:1011600032AA211D404603F096FF83460028B2D1E3
:101170003A4632A907A804F033F80028A9D1012380
:101180000293BDF81A3004331C44CAE7BBF1010FC7
:1011900032D1202F9DD83B4632AA211D404603F074
:1011A0007AFF8346002896D19DF81A70D9F800502E
:1011B000AB4503DB4FF0FF3B5D46E2E717A805F0C8
:1011C00015FC002117A801F095FD0AEBCB025AF897
:1011D0003B10526817A8126805F00CFC0FA917A85D
:1011E00005F045FC3A4632A90FA803F0F9FF0028A4
:1011F000E2D00BF1010BDBE7BBF1200FC1D1002DD9
:101200001FDBD9F80030AB421BDDB7F5807F7FF4E0
:1012100060AF3B4632AA211D404603F03CFF002848
:101220007FF457AFEDB20095BDF81A3032AA594697
:1012300007A800F00DF800284FF0FF3508BF012681
:101240009FE74FF0FF359CE7BC770000C0770000B8
:101250002DE9F04F1746ADF54B7D002280468946BB
:1012600027A811469DF850631D4605F07BFB714B86
:1012700053F83640029403EBC6038AAE5B681B68E2
:101280001C4432463023214602A804F053F810B122
:101290004FF0FF34BAE0029B326813449C4240F0A6
:1012A000C68029AA214602A804F058F8002840F078
:1012B000BB800DF1B00B5A46214602A804F04EF84F
:1012C0008246002840F0B08029A804F0ABFB029BC6
:1012D00028909C4240F0A580CDE900AB5346524691
:1012E00029A927A805F0FAFA002840F0978027A836
:1012F00001F09EFC0446002840F0868029A804F0F6
:1013000091FB8542289040F08180B5F5807FBFD168
:10131000B9F1200FBCD13246394627A801F0ACFC08
:1013200005460028B4D196F8FF30BC2BB0D10DF59E
:10133000A4790390DF274C460CA805F057FB002149
:101340000CA801F0D7FC20220DF207310CA805F003
:1013500051FB042203A90CA805F04CFB04A90CA81E
:1013600005F085FB1F2F9DF80F30D4BFBA464FF014
:10137000200A01334846524604A9A7EB0A078DF814
:101380000F3003F03DFF002FD144D5DC0023E25C99
:10139000F15C4A40E2540133DF2BF8D1237803F0AB
:1013A0007F032370665D002E7FF472AF0135BE2D82
:1013B000F8D194F8BE30012B7FF46AAF0CA805F089
:1013C00015FB31460CA801F095FC08221A490CA81F
:1013D00005F010FB202241460CA805F00BFB202253
:1013E0000DF207210CA805F005FB04A90CA805F0D7
:1013F0003EFB20220DF2073104A803F0F1FE00307D
:1014000018BF0120444201E06FF0050427A805F051
:10141000B4FA20460DF54B7DBDE8F08F6FF0040463
:10142000F4E76FF00304F1E76FF00204EEE76FF00A
:101430000104EBE7C0770000887A00000B680133F5
:101440000B60014B1B681847905C00202DE9F04FA2
:1014500085B09B460E9CDFF890A0012CB8BF0124FC
:10146000012B0CBF3023202315468046894601946A
:10147000029301260A2700220AF101040AB9AA45AB
:101480001FD2B5FBF4F049463030C0470136012287
:10149000013F012FB5FBF4F14FF00A0304FB115596
:1014A000BAFBF3FAE8D1494605F13000C047BBF179
:1014B000030F03D1019B9C1B002C0FDC05B0BDE882
:1014C000F08F019BBB42E3DBBBF1020FE0D8494642
:1014D000029803920136C047039AD9E74946202073
:1014E000C047013CE8E700BFFFC99A3B014B1860C9
:1014F000704700BF905C002013B502AC002344F895
:10150000043D02460B460348214603F037FC02B077
:1015100010BD00BF3D14000010B54FF02003EFF3E5
:10152000118483F31188BFF36F8F00F051F8094ADB
:101530000123C2F840354FF08042C2F87835064B9F
:101540004FF0FF329A62DA6284F31188BFF36F8F33
:10155000002010BD00E0014000ED00E00C4B1B78C6
:10156000062B10D10B4B1B681A070CD10A4B1868BD
:1015700000F0F003302B08D000F0E000A0F14003B1
:10158000584258417047002070470120704700BF03
:10159000E00F00F0E40F00F0E80F00F0094B1B78BB
:1015A000062B0CD1084B1B681A0708D1074B18688B
:1015B00000F0F000A0F1300358425841704700207D
:1015C000704700BFE00F00F0E40F00F0E80F00F0FC
:1015D00008B5FFF7C3FF28B1784B794A1B68C3F3FE
:1015E00004231360FFF7DAFF10B1764B764A1A60D6
:1015F000FFF7B4FF28B1754B754A1B68C3F342333C
:101600001360FFF7CBFF20B1724AD36823F08073D9
:10161000D360FFF7A3FF40B14FF080430022C3F82F
:101620000C21C3F81021C3F83825FFF7B7FF10B11C
:10163000694B03221A60FFF7B1FF40B1674B0522E7
:101640001A6001229A6700229A603F225A60644B16
:101650001B78062B50D1634B1B6819074CD1624B8A
:101660001B6803F0F003502B46D14FF080525F4BC4
:10167000D2F80414C3F82015D2F80814C3F82415BE
:10168000D2F80C14C3F82815D2F81014C3F82C158E
:10169000D2F81414C3F83015D2F81814C3F834155E
:1016A000D2F81C14C3F84015D2F82014C3F844151E
:1016B000D2F82414C3F84815D2F82814C3F84C15EE
:1016C000D2F82C14C3F85015D2F83014C3F85415BE
:1016D000D2F83414C3F86015D2F83814C3F864157E
:1016E000D2F83C14C3F86815D2F84014C3F86C154E
:1016F000D2F84424C3F87025FFF730FF28B13C4BE3
:101700003C4A1B6803F04F031360FFF727FF48B103
:101710004FF08043D3F80024D20744BF6FF001029A
:10172000C3F80024344B1B68062B08D1334B1B68CD
:10173000062B01BF324A136843F4806313604FF0F5
:101740001023D3F80022002A03DBD3F80432002B45
:101750002FDA2C4B0122C3F80425D3F80024002AE9
:10176000FBD04FF010221521C2F80012D3F800244C
:10177000002AFBD04FF010231522C3F80422214B7E
:101780001A46D3F800140029FBD00021C3F8041531
:10179000D2F80034002BFBD0BFF34F8F1A491B4BFC
:1017A000CA6802F4E0621343CB60BFF34F8F00BFFF
:1017B000FDE7174B174A1A6008BD00BF240300104D
:1017C0004035014074C007400DF0ADBA440200102E
:1017D0003C050040F0ED00E0A00500401056004040
:1017E000E00F00F0E40F00F0E80F00F000C0004050
:1017F00058020010E40E00403001001034010010C7
:101800003C17004000E0014000ED00E00400FA0554
:10181000945C00200090D0032DE9F04704794F4DEF
:10182000944624226243AE18377F002F40F0938005
:10183000006845F802C0736091F800E00F7B4FF03C
:10184000A046012303FA0EF3012F94BFC6F80C350E
:10185000C6F808350EF5E073012246F823204B78D0
:10186000FF2B1FBF9A40C6F80C2503F5E0724FF01E
:10187000030818BF46F822808E7808BF4FF0FF3368
:10188000FF2E1FBF06F5E0724FF0A0494FF0040A8B
:1018900049F822A04FF0240202FB045218BFB046C0
:1018A00082F82060CE78D67708BF4FF0FF38FF2E41
:1018B00014D091F804900122B2404FF0A04AB9F13F
:1018C000000F3FD0CAF80C2506F5E07603224AF84F
:1018D0002620242202FB045282F81E90C0F808E55C
:1018E000C0F80C358B68C0F81085C0F824354B7BE8
:1018F000003318BF0123022F27D0032F28D0012F38
:1019000001D143F00203C0F854358B79C0F8C035DB
:10191000BCF1000F02D04023C0F804330723C0F805
:101920000035BCF1000F03D040F3073000F05CFD40
:10193000242303FB045400236377094801232377FE
:10194000BDE8F087CAF80825BEE743F00403DAE7EC
:1019500043F00603D7E70348F2E700BF7C0C002002
:101960000000AD0B0500AD0B2DE9F3410479464DA8
:10197000242363431746EA180E46517F8046002908
:101980007FD1EB5823B117F0140F04BF0123537715
:1019900096E80F004FF0240C0CFB045C0CF10C0ECD
:1019A0008EE80F009CF81F20FF2A08D09CF81E101C
:1019B000012393404FF0A042C1B1C2F8083531680D
:1019C00021B101F06043B3F1005F06D1B26882B18A
:1019D00002F06043B3F1005F0BD0242303FB0454F7
:1019E0002A480023637702B0BDE8F081C2F80C35C5
:1019F000E5E7D8F800307068C3F84415C3F8480527
:101A0000F168C3F834250022C3F83815C3F818214B
:101A1000D3F818210192019A17F0010218BF012290
:101A2000C3F8502517F0020218BF0122C3F8402561
:101A30003A075CBF01221A6124226243AA58B2B954
:101A4000D3F81821002AFBD0242303FB0454E27F9F
:101A5000FF2A07D0A17F012393404FF0A04219B184
:101A6000C2F80C350A48BEE7C2F80835FAE717F0A5
:101A7000040F4FF0400214BFC3F80823C3F8042337
:101A8000F0E70448AFE700BF7C0C00200A00AD0B74
:101A90000000AD0B0B00AD0B4FF0402382B0D3F82C
:101AA0001831E3B10F4B00221A601B680193019BB0
:101AB0000D4BD97FFF2907D0987F01228A404FF034
:101AC000A04148B1C1F80C2500225A771A72D3E917
:101AD0000021064802B01047C1F80825F4E702B01B
:101AE000704700BF184100407C0C0020840C00208F
:101AF000084B30B51C68084B19680022944202DC80
:101B00000023184630BD0B4610311D788542F8D0B1
:101B10000132F3E760780000985C0020084B1B68F6
:101B200010B50C462BB1FFF7E3FF28B12060002071
:101B300010BD6FF00C00FBE76FF00100F8E700BF8D
:101B4000985C002030B589B00C4615460190FFF72F
:101B5000CFFFB0B14368029383682268C068CDE9C3
:101B600003350023CDE90623059302F075FA01AA97
:101B7000054905F0BBFB079808B9059B236009B030
:101B800030BD6FF01500FAE7595000000A2838B54B
:101B90000446064D03D10D21286803F0EFFA2868AA
:101BA000E1B203F0EBFA204638BD00BFA00C0020E4
:101BB00010B5044C204600F035FE2046BDE810402C
:101BC000FFF794BC8D1B000008B5044802F044FAEE
:101BD000034B1860FFF7ECFF002008BDB67B000048
:101BE000A00C002010B54FF02003EFF3118283F317
:101BF0001188BFF36F8F154C237833B982F31188A6
:101C0000BFF36F8F6FF0440010BD013BDBB2237058
:101C100033B182F31188BFF36F8F6FF00F00F3E7DA
:101C20000B4B1878012138B1217082F31188BFF372
:101C30006F8F6FF00A00E7E7197082F31188BFF326
:101C40006F8F044A11601870DEE700BF492B002037
:101C5000482B002004000040F8B54FF02002EFF3BD
:101C6000118382F31188BFF36F8F294A1078441CC7
:101C7000147080B183F31188BFF36F8F4FF08043EE
:101C8000D3F80C3403F00113B3F1011F0CBF002093
:101C90006FF0430009E01F4D2F783FB1107083F3C0
:101CA0001188BFF36F8F6FF00A00F8BD01262E7008
:101CB00083F31188BFF36F8F4FF0804419B3384618
:101CC00000F0A2FBC4F80071D4F80433C4F8046334
:101CD0002660D4F8002192B10022C4F800210E4AF7
:101CE00013F0010F4FF0010308BFC4F808330020C0
:101CF000C2F8803100F078FB00232B70BEE720BFD4
:101D000040BF20BFE5E7C4F800112660F4E700BF3C
:101D1000492B0020482B002000E100E070B54FF077
:101D20002002EFF3118382F31188BFF36F8F244DEC
:101D30002A789AB183F31188BFF36F8F4FF08042F6
:101D4000D2F81C34D2F8182403F0030343F4803390
:101D5000934314BF6FF04300002070BD01242C702A
:101D600083F31188BFF36F8F4FF08043154EC3F894
:101D700004210225C3F81815C3F8045311F0030118
:101D800034604FF01806C3F80863C3F80C21C3F899
:101D90001021D3D11022C3F83825C3F80463D3F837
:101DA0001824D20302D4C3F80453C7E7C3F804438A
:101DB000FFF752FF0028C1D1034BC3F80041BDE734
:101DC000472B00200800004000E100E0F8B54FF08C
:101DD00080430546D3F808C1D3F80423D3F8007133
:101DE000D3F80403D3F80461D3F80C11D3F81041ED
:101DF000003402F0010218BF0124BCF1000F03D02F
:101E00004FF0000CC3F808C1002F41D04FF08043C1
:101E10000027C3F8007152B14FF08043224F0122D6
:101E20004FF0020CC3F80823C7F800C01A61EEB9DE
:101E300059B11D4B4FF08046002119602846C6F865
:101E40000C11FFF7CFFE0123736174B14FF0804393
:101E500000210124C3F810112846C3F80443FFF7FA
:101E6000FBFE10B9114BC3F80041F8BD4FF08043A1
:101E70000022C3F804218207DAD50222C3F808231E
:101E8000D3F81C349B07D3D10029DFD00124D0E73D
:101E9000002ACCD04FF08043D3F80C3403F0011368
:101EA000B3F1011FC3D1B7E7340C004000E100E0FB
:101EB000104B002210B4C3F840214FF02002EFF382
:101EC000118482F31188BFF36F8F0B4AD3F8040596
:101ED000116840F24713401A20F07F40B0FBF3F046
:101EE00003FB0013136084F31188BFF36F8F10BCE2
:101EF00002F03CBD00100140A40C002037B51F4883
:101F000002F0AAF8002835D043681D4D1B68012156
:101F10009847002440F24713C5F80845C5F84035F6
:101F20004FF48033C5F84433C5F8043303F18043DC
:101F300003F58A534FF400321C601B680193019B28
:101F4000104B0121C3F880211120224600F070FAC5
:101F5000112000F049FA0C4A012313602B60D5F8D8
:101F6000043503F2471323F07F43C5F8403520467C
:101F700003B030BD4FF0FF30FAE700BFBD7B00007B
:101F80000010014000E100E0081001404CF6690239
:101F900070B5B0F1FF3F08BF10464FF02003EFF3DC
:101FA000118483F31188BFF36F8F1349134DD1F858
:101FB00004352E6801389042A8BF10469A1B22F0C3
:101FC0007F4240F2471502F5A37220EAE07005FB5C
:101FD0000020B0FBF5F005FB0060C31A23F07F433F
:101FE0001F2B98BF401920F07F40C1F8400584F3B3
:101FF0001188BFF36F8F70BD00100140A40C00204A
:102000004FF02002EFF3118382F31188BFF36F8F3B
:10201000084AD2F80405084A1268801A20F07F4066
:1020200040F24712B0FBF2F083F31188BFF36F8FD9
:10203000704700BF00100140A40C00204FF02003A7
:10204000EFF3118283F31188BFF36F8F0649074BBB
:102050000868D3F8043582F31188BFF36F8F1B1A19
:1020600023F07F4318447047A40C00200010014067
:1020700004488168006A884203D003494FF08052C7
:102080000A607047080E002004ED00E004480023B9
:102090002021C2180133272B82F80013F9D1704791
:1020A00000E100E0094A0A4993680968996609490C
:1020B00058664B6843F080534B60002383F31188CC
:1020C000BFF36F8F9368986E704700BF080E0020B3
:1020D000447A000000ED00E0202080F31188BFF377
:1020E0006F8F11498A684FF028001044EFF3098C74
:1020F00080E8F01F0D4F4FF000660A6A8A603E606C
:10210000506E0023536680F3118804B5064880683A
:1021100003F051F8BDE8044002F1280090E8F01FF8
:102120008CF3098870470000080E002004ED00E0E1
:102130001EF0040F0CBFEFF30880EFF309808169F4
:1021400031F8021C11F0FF010229FFD001B503F0A4
:1021500027F801BD38B51B4C05461B4802F06AFF45
:10216000A36AD90602D5194802F064FFA36A1A07C8
:1021700002D5174802F05EFFA36A9B070ED51548EB
:1021800002F058FF616BA36A180607D5124802F0E7
:1021900051FF1DB1A36A23F08003A362094CA36A17
:1021A000DA0702D50D4802F045FFA36A9B0602D567
:1021B0000B4802F03FFFA36AA36A43F0FF03A36248
:1021C000002038BD00ED00E0697C0000807C00004C
:1021D000B47C0000C87C0000E17C0000F87C0000BA
:1021E000187D000038B51E4C05461E4802F022FF3F
:1021F000A36AD90402D51C4802F01CFFA36A1A0581
:1022000002D51A4802F016FFA36A9B050ED518489E
:1022100002F010FFA16BA36A180407D5154802F05D
:1022200009FF1DB1A36A23F40043A3620C4CA36A07
:10223000590502D5104802F0FDFEA36ADA0509D55A
:102240000E4802F0F7FE064A936A43F47F43936216
:10225000002038BDA36A9B04F5D50948F1E700BF0B
:1022600000ED00E0DB7B0000F27B0000B47C0000AE
:10227000047C00001E7C0000347C0000507C0000C8
:10228000187D000010B5194C194802F0D3FEA36A5E
:102290009A0102D5174802F0CDFEA36ADB0102D5F0
:1022A000154802F0C7FEA36A180302D5134802F0CE
:1022B000C1FE0E4CA36A590302D5114802F0BAFEC2
:1022C000A36A9A0302D50F4802F0B4FEA36ADB03A7
:1022D00002D50D4802F0AEFE044A936A6FEA03434A
:1022E0006FEA13439362002010BD00BF00ED00E0D1
:1022F000487D0000617D0000757D0000907D00003C
:10230000AF7D0000D57D0000F07D000038B5274C82
:102310006368C3F30803DA1E0546092A3AD8DFE8E2
:1023200002F005333530393939393937204802F070
:1023300081FEE36A9A0703D51E4802F07BFE02E0A5
:10234000E36A5B0005D400202946BDE8384000F070
:10235000D1B8194802F06EFE184B1B782BB1012042
:10236000FFF7F8FE0628EFD138BD154B1B781BB1DF
:102370000120FFF737FFF5E7124B1B889BB2002BBC
:10238000E1D0FFF77FFFEDE70020E9E70020F0E76D
:102390000D48D2E70D480E49A3F110020F2BD8BF0C
:1023A00001460C4802F046FECDE700BF00ED00E01C
:1023B0004A7E0000627E0000847E000028ED00E07E
:1023C00029ED00E02AED00E0A47E00001C7E000064
:1023D000317E0000DB7E0000024A536943F01003A7
:1023E0005361704700ED00E043B2002B08DB01228F
:1023F00000F01F0002FA00F05B09024A42F82300D5
:10240000704700BF00E100E043B2002B0DDB01226A
:102410005B0900F01F0002FA00F02033034A42F883
:102420002300BFF34F8FBFF36F8F704700E100E0D1
:1024300043B2002BA8BF03F1604301F101014FEA51
:102440004111AEBF03F5614300F00F00034BC9B269
:10245000ACBF83F800131954704700BF14ED00E0BF
:102460002DE9F0418C18884617461E4604220A9B27
:102470000999054605F050F8A4F120030C4923F012
:102480000703002221F00101C5E91322C5E91687DF
:10249000996106995960079999600899D9604FF038
:1024A00080711E60D961AB646A66BDE8F08100BFCF
:1024B000494D0000014910220A60704710ED00E00C
:1024C000404080F3118830BF704700BF404080F328
:1024D0001188DFF81CC0DCF800C01CF4006C0CBFD5
:1024E000EFF30880EFF3098001B5FFF70FFF01BD9F
:1024F00004ED00E038B504460D4605281AD8DFE89B
:1025000000F00319191315170D4802F093FD02F09E
:102510008BF8AA6901460B4802F08CFD294620463B
:10252000BDE8384000F018B80748EEE70748ECE788
:102530000748EAE70146074802F07CFDE7E700BFED
:10254000EF7E00008D7F00000F7F0000357F0000D0
:102550004F7F00006A7F0000052810B50CD002F004
:10256000B3F860B102F0B0F80C490D4B002808BF79
:1025700019460C4802F05EFDFFF7A2FFFCE702F0EF
:10258000B3F80028EED1084C0848A16802F052FDCB
:10259000A068BDE8104000F00BB800BFC97F000084
:1025A000CD7F0000DE7F0000080E0020FE7F0000CF
:1025B00038B505464FF02003EFF3118483F31188FB
:1025C000BFF36F8F04F089FF0A4B9B68AB420BD1BE
:1025D000094B5A68C2F3080212B92046FFF762FDA0
:1025E0005A6842F080525A602046BDE8384004F0F4
:1025F000E9BE00BF080E002000ED00E001B5EFF3DA
:102600000580A0F110004FEAC0000449014409C947
:102610009847BDE80140024800470000DC75000013
:1026200071200000202080F3118808484FF40061D9
:10263000401880F30988EFF314800221084380F3E7
:102640001488BFF36F8F00F007F80000905400204B
:1026500030BFFFF7FDBF00BF08B5084B084A23F0A5
:102660007F039360BFF34F8FBFF36F8F01F01AFDAD
:1026700001F022FDFFF70AFD01F050FD000000000F
:1026800000ED00E01FB5094B0193094B029304A82C
:10269000084B039301AB40F8103D074A074B01215B
:1026A00000F076F805B05DF804FB00BF00000020E4
:1026B0000000000000000B060000002000000120C8
:1026C00030B5D1E90043202B896817D9B3F1004F09
:1026D00016D8013BB3FA83F3C3F11F035B0007284D
:1026E00041F001010ED824F01F02084D024342F0D0
:1026F00010020B43A860EA602B6130BD0823EEE7AF
:102700003E23ECE76FF01500F7E700BF90ED00E027
:10271000034B05225A60BFF34F8FBFF36F8F704793
:1027200090ED00E0BFF35F8F014B00225A607047CD
:1027300090ED00E013490868082810B51ED8FFF78F
:10274000F1FF114C49680022904201F10C0105D1C2
:102750000E4B1870FFF7DCFF002010BDA26051F88F
:102760000C3C23F01F0343F010031343E36051F8C4
:10277000043C43F0010323610132E5E74FF0FF30F1
:10278000EBE700BFE077000090ED00E04A2B00206F
:10279000F8B5104C074620780E460025B54208DAF9
:1027A00057F825104B6893B15A1E134203D06FF0AF
:1027B00015002070F8BD1F2BF9D90B681A42F6D10D
:1027C000C0B2FFF77DFF10F1160FF0D001300135D8
:1027D000E4E700BF4A2B002070B5104B064618787E
:1027E0000D460024AC4207DB10F1160F03D00C4B52
:1027F000002207280DDD70BD56F824104B6833B158
:10280000C0B2FFF75DFF10F1160FF4D001300134B4
:10281000E8E798601A610130EBE700BF4A2B00201F
:1028200090ED00E0014B1860704700BF9C5C0020F9
:1028300002680E4B9A4215D1C269A3F11023A3F18D
:10284000EF139A420ED18368012B0BD8C36813B1E2
:102850000269934206D0436933B18069C31A584272
:1028600058417047012070471846704755AA00FF2D
:1028700038B50D4B9D68A5B12846FFF7D9FF014635
:1028800078B9EB686BB92C690CB9084638BD20469D
:10289000FFF7CEFF28B9E368AB4202D12546246991
:1028A000F2E70121F1E700BFA80C00202DE9F84371
:1028B000414E3468DCB1B468CCB101FB00F70028AC
:1028C0004CD000294AD0B7FBF0F48C4246D1381DD9
:1028D00044D8B9070ED027F0030808F10408F468BB
:1028E00003E0636843453BD2A469002CF9D120463C
:1028F000BDE8F883B846F2E7F06045E008F1200C47
:1029000004EB0C03203959600021C3E90214DFF8FD
:10291000B0E02169196144F80CE0DFF8A8C0C3F801
:102920001CC001B1CB60C3E90520AAB193619A69CB
:1029300002B1536123610023C4E9053333694FF0C9
:102940000109DB07C4E901892ED5FFF791FF58B3D0
:102950001A4B48461B6826E0F360E8E70024C6E708
:10296000A3681BB1154B01201B6898476168A1EB58
:1029700008012329D4E9052004F12005BED801234C
:10298000A360002AB8D09061A36903B15A61002303
:10299000C4E905333369DA0706D5FFF769FF18B1D3
:1029A000064B1B68012098473A46002128462C46D2
:1029B00002F053FC9BE700BFA80C0020A45C0020A1
:1029C00055AA00FF669911EE2DE9F041074600284F
:1029D0007CD03F4D2B68002B78D0AA68002A75D098
:1029E000834203D86A681344984203D3394B0120C9
:1029F0001B689847A7F120042046FFF719FF18B17C
:102A0000344B01201B68984757F8183C012B03D022
:102A1000304B01201B68984757F8146C002347F887
:102A2000183CAEB1B26892B957F81C3C03F12002D1
:102A300073681344736057F8103C336103B1DE6070
:102A400020462022002102F008FC234634461E4680
:102A50002069002832D08368002B2FD16368426838
:102A600020331344D4E90521636003692361DAB993
:102A700001BB426981696261A161EAB19461A269A5
:102A800002B1546103B1DC602022002102F0E5FBB9
:102A90002B699B071AD5FFF7EBFEB8B10D4B012050
:102AA0001B68BDE8F04118479161A1690029E0D099
:102AB0004A61DEE7E960F8E7EC60E0E7002EE7D185
:102AC000EB68A36103B15C61EC60E1E7BDE8F08114
:102AD000A80C0020A45C002038B514220D46044642
:102AE0000021124802F0B9FB1149124800F032F8F7
:102AF000232D1AD914F003031FBF043DED18C3F1B1
:102B00000403E4182A460021204602F0A6FB074BE6
:102B1000094A9C60C3E900452260A2F11022203DD1
:102B2000A2F1EF126560E261DC6038BDA80C002004
:102B3000C9290000AD28000055AA00FF014B1B6801
:102B4000184700BFA05C0020014B1B68184700BF5E
:102B5000A85C0020024B1860024B002019607047EF
:102B6000A05C0020A85C0020024B0A461B680021E4
:102B7000184700BFAC5C0020F8B500F108054768B5
:102B8000044628460E4602F04DFF874201D02748F2
:102B9000F8BD6368B3F5807FF9D80021284603F0BB
:102BA0000EF90028F3DD0021284602F00BFF002873
:102BB000EDD0F6B9002104F1140003F000F900286B
:102BC000E5DDA6B1002104F1440003F0F8F8002887
:102BD000DDDD002104F1500003F0F1F80028D6DD1E
:102BE000002104F15C0003F0EAF80028CFDD0020AA
:102BF000CEE704F12C050021284603F0E0F8002878
:102C0000C5DD0021284602F0DDFE0028BFD004F11A
:102C100038050021284603F0D2F80028B7DD00214E
:102C2000284602F0CFFE0028C4D1B0E780BFFFFFE6
:102C300070B500210446FFF79FFF0546B8B904F1BF
:102C40000806304602F0CEFE7F2810D914342946FB
:102C5000204602F0B7FE50B1204602F0C3FE012824
:102C600005D93146204603F06AF8002800DB014D03
:102C7000284670BD00BEFFFFF0B50C4687B00021AE
:102C800005461646FFF778FF80BB03A802F014FE46
:102C900021466A6803A802F0CBFE0446D0B905F1CC
:102CA0000804214603A803F04AF800281BDA05F1BE
:102CB000680303A9009305F11402234608466F68D0
:102CC00003F0D8FB044628B93A46314603A802F07F
:102CD000E5FE044603A802F0F5FD0CB1A4F5854419
:102CE000204607B0F0BD6FF00304F3E7004CF7E7B0
:102CF00080BFFFFF0023C0E90033C1B9194A1A4B56
:102D0000DFF88CC0C0E90223184B194AC0E904C39C
:102D1000184BC0E90623184B036203F17453A3F563
:102D20002303A3F692434362816600207047134B4E
:102D3000134ADFF860C0C0E9022303F1794303F5C9
:102D4000740303F5016303610E4BC0E905C303F18E
:102D5000D14303F5C01303F51E63C3610A4B03623D
:102D60000A4BE0E767E6096A85AE67BB3AF54FA50F
:102D70007F520E518C68059BABD9831F07D57C36DB
:102D8000D89E05C1310BC0FFA78FF964A44FFABECE
:102D900072F36E3C39590EF72DE9F04FCFB000F1C8
:102DA000080304931A46002306AC52F8040B44F8B7
:102DB00023000133082BF7D100224B7808781B043D
:102DC00043EA0063C8780343887843EA00230EA8E7
:102DD000043140F822300132102AEED1A14DDDF845
:102DE00034E0099C0C98089B0B99079ADDF8289011
:102DF000069F00950DF1380BDA46A846D8F800502A
:102E0000DAF800604FEAF92C8CEAB91C35448CEAF8
:102E1000796CAC4480EA010505EA09054540AC44FB
:102E200047EA02064FEA7735E64485EAB70507EA3E
:102E3000020C1E4085EAB75546EA0C062E4474443F
:102E4000D8F80450B644DAF804603544054489EAF9
:102E50000100204080EA010C05EB0C004FEAF4254C
:102E600085EAB41585EA746505444EEA07064FEA1B
:102E70007E300EEA070C80EABE00164046EA0C06D9
:102E800080EABE50304428442B44DAF80860D8F871
:102E9000085035440D4484EA0901194081EA090CBF
:102EA00005EB0C014FEAF32585EAB31585EA736556
:102EB0000D444EEA00064FEA70310EEA000C81EA3A
:102EC000B0013E4046EA0C0681EAB0513144294443
:102ED0002A44DAF80C60D8F80C503544A94484EA46
:102EE0000305154085EA040C09EB0C054FEAF229AD
:102EF00089EAB21989EA7269A94440EA01064FEAEF
:102F0000713507EB090C85EAB10500EA010706EA0D
:102F10000E063E4385EAB155DAF810703544D8F80C
:102F200010604D443E4483EA0209344409EA0C0926
:102F30004FEAFC2689EA030986EABC164C4486EA75
:102F40007C66264441EA05074FEA753401EA050923
:102F500084EAB504074047EA090784EAB5543C44CB
:102F60003444B644D8F81470DAF814603E4433445C
:102F700082EA0C0606EA0E06564033444FEAFE2665
:102F800086EABE1686EA7E661E4445EA04074FEAD4
:102F9000743305EA04090F4083EAB40347EA0907DA
:102FA00083EAB4533B4433443044D8F81870DAF819
:102FB00018608CEA0E093E44324409EA00094FEADF
:102FC000F02689EA0C0986EAB0164A4486EA706659
:102FD000164444EA03074FEA73322F4004EA030918
:102FE00082EAB30247EA090782EAB3523A4432441A
:102FF0003144DAF81C70D8F81C608EEA00093E44AF
:1030000009EA01094FEAF127B44489EA0E0987EA7F
:10301000B117CC4487EA7167BC4405EB0C094FEA51
:10302000723743EA020587EAB207254003EA02063F
:10303000354387EAB2572F440B4D08F12008454528
:1030400067440AF1200A7FF4D9AECDE90B10CDE92F
:103050000672CDE908343EADCDF834E0CDF82890C5
:10306000059503E07C780000BC780000DBF8385060
:10307000DBF804C0DBF800604FEAF54888EA7548E1
:1030800088EA9528DBF824504FEABC4A35448AEA9E
:10309000FC1A8AEADC0AA8444FEAF92608EB0A057A
:1030A00086EAB916039586EA796580EA010606EA9A
:1030B000090646402E44009D2D6C3544039ECBF8F6
:1030C00040603544AE4404EB0E0847EA02054FEA7F
:1030D000773407EA020684EAB7041D4084EAB7544D
:1030E00035432544DBF83C40DBF808604FEAF44AFE
:1030F0008AEA744A8AEA942ADBF828406444A244A3
:10310000009CAE444FEAB64585EAF615646C89EA40
:10311000010C85EAD60555440CEA080C04444FEA34
:10312000F8202C448CEA010C80EAB81080EA786020
:10313000A44400EB0C04234401934FEA7E3047EA99
:103140000E0307EA0E0C80EABE00134043EA0C03AC
:1031500080EABE501844039BCBF844504FEAF34C2E
:103160008CEA734C20448CEA932CDBF80C40DBF89F
:103170002C301E444FEAB44383EAF41383EAD403A9
:1031800066441E44019BCBF8486089EA080C0CEAAF
:10319000030C009B9B6C0B4433448CEA090C9C444D
:1031A000019B4FEAF32181EAB31181EA736101EBDC
:1031B0000C031A4402924FEA70314EEA00020EEA02
:1031C000000C81EAB0013A4042EA0C0281EAB051B7
:1031D00011441944DBF83030DBF810204FEAF54C8D
:1031E0001C448CEA754C019B8CEA9525254488EAA1
:1031F0000304029B1C40009B4FEAB24C8CEAF21C79
:10320000DB6C8CEAD20CAC444B44634484EA080483
:10321000CBF84CC01C44029B4FEAF32585EAB3155A
:1032200085EA73652B1940EA010500EA010405EA05
:103230000E0525434FEAF6444FEA713984EA764495
:1032400089EAB10984EA9626DBF8344007EB030AE1
:1032500089EAB159DBF8147022444D441D441644E8
:10326000DDE901344FEAB74282EAF71282EAD70277
:10327000324483EA040606EA0A065E40009BCBF865
:1032800050201B6D4FEAFA241344434484EABA14D5
:103290001E4484EA7A64A31941EA05064FEA7534AC
:1032A00001EA050884EAB504064046EA080684EA0D
:1032B000B55434441C449E44DBF81880DBF83830A5
:1032C0004FEAFC4686EA7C4686EA9C2CDE194FEAE9
:1032D000B84383EAF81383EAD80366441E44029B8A
:1032E000019FCBF8546083EA0A0C0CEA0E0C8CEABE
:1032F000030C009B5B6D33443B449C444FEAFE232C
:1033000083EABE1383EA7E6303EB0C0745EA040CF1
:103310004FEA743305EA04090CEA010C83EAB403AA
:103320004CEA090C83EAB45363443B443844DBF869
:103330001C7001974FEAF24CDBF83C708CEA724C3F
:103340008CEA9222B8449044019A019F4FEAB2421B
:1033500082EAF71282EAD7029044009A029F926DA5
:10336000CBF858808AEA0E09424409EA00094FEA7C
:10337000F02C89EA0A093A448CEAB01C4A448CEAE7
:10338000706C944444EA03084FEA733208EA050873
:1033900004EA030982EAB30248EA090882EAB3525E
:1033A0004244624461444FEAF64C8CEA764CDBF8C6
:1033B0002080039F8CEA962C019E3E444FEAB8473A
:1033C00087EAF81787EAD808009F6644FF6D4644ED
:1033D0008EEA0008374408EA01084FEAF12C574406
:1033E00088EA0E088CEAB11CB8448CEA716CC444BB
:1033F00005EB0C094FEA723743EA0205CBF85C6033
:1034000087EAB207254003EA0206354387EAB25746
:103410002F44009D20350095059D0BF1200B5D4547
:1034200067447FF423AECDE90B10CDE90672CDE9F8
:103430000834CDF834E0CDF828900023049A1168C0
:1034400006AA52F823200A440499013341F8042BB8
:10345000082B0491F2D100204FB0BDE8F08F00BFDF
:1034600008B5094B1A786AB901211970062005219F
:10347000FEF7DEFF0620FEF7B7FF044B4FF00042D9
:10348000C3F80423002008BD4B2B0020006000403F
:103490002DE9F7434A4E3568012D63D1494A9368B7
:1034A0001268DC69D2F80880D3E902120A40D3E935
:1034B0000510014322EA0102D8F800101B69D1F877
:1034C00010155C404C4022EA04042F464FF00009DE
:1034D000002A36D1326033680093009B3A4E0023B5
:1034E00001279C46D6F8042307FA03F1114214D0B1
:1034F00003F1805202F5C2529200116801290CD1E9
:1035000003F5A27056F82000C2F800C012680192BC
:10351000C0F304208140019A0C430133082BE1D110
:1035200014B3284FBB681968F1B10E688B681C4250
:1035300003D04B68224638469847AEB131463668CC
:10354000F4E73A420AD098F8043009F01F0000214D
:1035500040EA431003F020FB22EA070209F10109C7
:103560007F00B5E70024B9E7012D0DD1154B9C680C
:103570001B689F68D4E902321A40D4E905310B4335
:1035800022EA0302002612B903B0BDE8F083154217
:1035900012D0E169236997F804C04B40F34013F05F
:1035A000010F06F01F000CBF0321022140EA4C105E
:1035B00003F0F2FA22EA050201366D00E3E700BFEC
:1035C0007C6100407C5D002000600040F7B503682E
:1035D00086689B6801F01F040D464C491B79D1F8A1
:1035E000042344EA4314D2B2002303F5A27051F835
:1035F0002000C0F3042084426CD122FA03F0C007FB
:1036000068D59A0002F1804202F5C042D2F8100556
:1036100020F00100C2F81005012202FA03F3C1F8FC
:1036200008332046002103F0B7FAB068E84010F0F4
:1036300001004DD0F068E84010F0010048D07069FA
:10364000E84010F0010251D0B369EB40DB0745D4EC
:103650003369F269EB4022FA05F503F0010305F046
:103660000105AB420CBF02250125284F002101F5C1
:10367000A27357F8230010F0030031D18A0002F141
:10368000804303F5C0432402D3F8106526F447367F
:1036900026F44076C3F81065D3F8106504F4F854A6
:1036A00002F1804202F5C24244EA05453543C3F8BF
:1036B0001055106012680192019AD3F8102542F05B
:1036C0000102C3F81025012303FA01F1C7F804131E
:1036D00003B0F0BD0133082B87D1A2E70325C4E76F
:1036E00001310829C3D16FF01200F1E7F1693369A4
:1036F0004B4023FA05F515F0010F20460CBF0321BE
:10370000022103F049FA1046E2E700BF00600040E2
:1037100030B5054685B0002201210420FEF788FE61
:103720000D4B286800934FF08043002402930B4A0E
:10373000806801942B4669460394FEF76DF8084BA8
:10374000984205D1A86803F09FFB204605B030BD24
:103750006FF00F00FAE700BF1C1B1AFFC96E0000D4
:103760000000AD0B7FB58568EA6B6B6C8AB9002BE6
:1037700033D11C4600221146284603F05BFB6C62E5
:1037800005F1140000F056FF002385F84C3004B01A
:1037900070BD23B39342194628BF11460068AC6B35
:1037A000806800948668B14228BF3146A964C4B1DC
:1037B000002A18BF0A4601922A6C02929AB1002B85
:1037C00018BF0B46002269460393FEF7CDF8074B5E
:1037D0009842DCD06FF00404CCE71946DEE71146CE
:1037E000DCE72246E7E71346ECE700BF0000AD0B3D
:1037F0002DE9F04707468068884604304FF0FF31D6
:103800001D46164600F03CFFBC682368984560D012
:10381000B8F8043041F60901194040F0AA80C3F31A
:103820004513082B40F0A580D8F80020524B9A424F
:1038300040F29F803B68D8F80820D3F80890C4F87D
:1038400000808AB1106878B143685268D3F800A04C
:103850000123D04722689368B2F90420D243D20FE3
:10386000D3E9000103F0DDFAB8F80430D9F800100C
:10387000980703F0040259D5002A0CBF0222032244
:10388000022AC3F3001355D0032A56D0012A01D1CE
:1038900043F00203C1F85435384AD8F80030934257
:1038A0004ED9374A93424ED9364A93424ED9364A78
:1038B00093424ED9354A93424ED902F5741202F51D
:1038C000106293428CBF4FF000434FF08043C1F829
:1038D0002435012384F84C30002E40D033687268C0
:1038E000A362E2621A685B68A263E363002D3BD0C7
:1038F0002B686A68236362631A685B682264636486
:10390000002262620121204603F094FA3846FFF754
:1039100029FF4FF0FF3104F1140000F0B1FE656A99
:10392000201D00F087FE2846BDE8F087003218BF52
:103930000122A5E743F00403ACE743F00603A9E73F
:103940004FF00073C3E74FF08063C0E74FF00063B0
:10395000BDE74FF08053BAE74FF00053B7E7C4E933
:103960000A66C4E90E66C1E7C4E90C55C4E91055FE
:10397000C6E76FF01505D3E747E801008FD00300D5
:103980001FA107003F420F007F841E00FF083D007B
:10399000024B0B6001231360704700BFDC0C00205A
:1039A00030B50546806887B04FF0FF3201211C30EA
:1039B00003F085FD2248AC6800F04EFB2060002833
:1039C00037D0DFF88CC01F484FF48073C4E904C3BC
:1039D00000F042FB606078B31D200123C4E90203BC
:1039E000231DA36103220023CDE9012305AA009230
:1039F0009F211A46A86803F0A5FAB8B99DF81530BA
:103A00009DF814201B0243EA02439DF8162013433D
:103A10000D4A934218BF6FF012000C4B4FF4007127
:103A20004FF48052C3E9001207B030BD6FF00400BC
:103A3000F3E76FF01500F0E76FF01200EDE700BF5D
:103A4000238000005F7A00001540EF00DC0C0020AE
:103A500040A5AE02024AD2F80034002BFBD07047DA
:103A600000E00140024B0B6001231360704700BF70
:103A7000100D0020012208B51146064803F01FFD75
:103A80004FF08052044B5169196012695A6000204E
:103A900008BD00BF180D0020100D00202DE9F041D9
:103AA0000D464FF0805811462846D8F81070B2FBEA
:103AB000F7F4164603F0E9FB40B3B5FBF7F307FB59
:103AC00013531BBB07FB146707BB14B34FF0FF3145
:103AD000114800F0D5FD11490223D1F80445D8F86A
:103AE0001000C1F80435FFF7B5FFC1F80855FFF71E
:103AF000B1FF361A0544F8D1C1F80445FFF7AAFF13
:103B0000054800F097FD3046BDE8F0816FF01500E4
:103B1000FAE72046F8E700BF180D002000E001405A
:103B200010B50A480C464FF0FF3100F0A9FD084BD4
:103B30004CB10022C3F80425FFF78CFF034800F0C6
:103B400079FD002010BD0122F4E700BF180D002010
:103B500000E001402DE9F3410E4630461946144677
:103B60001D4603F092FB002848D0002D49D04FF0AD
:103B7000FF31254800F084FD16F0030018D026F030
:103B8000030802ABC0F10407D8F8002043F8042D65
:103B9000AF4228BF2F46214618443A4601F030FB79
:103BA000FFF758FF019BC8F800303E443C44ED1B32
:103BB00025F00307E0192146341B04E0FFF74AFF14
:103BC0000B680B5104318142F8D1AA086FF0030051
:103BD00000FB02524AB102A8F35940F8043D01F03B
:103BE0000FFBFFF737FF019BF351FFF733FF064849
:103BF00000F020FD002002B0BDE8F0816FF015005C
:103C0000F9E72846F7E700BF180D0020054B1B68B1
:103C10002BB9054B1878003018BF012070470120E0
:103C2000704700BF1C2100404C2B0020034B18683C
:103C300018B1D3F85C03C3F85C037047242100403B
:103C4000024B0422C3F80423704700BF0020004049
:103C5000024B0422C3F80823704700BF0020004035
:103C6000024B1868003018BF01207047082100403F
:103C7000024B4FF40072C3F8042370470020004049
:103C8000024B4FF40072C3F8082370470020004035
:103C9000024B1960024B1A60704700BF280D0020CC
:103CA0002C0D0020034B1B6813B1034A1068184702
:103CB000704700BF280D00202C0D0020034B8022F0
:103CC000C3F808230122DA6003F04BBB0020004058
:103CD00008B503F045FB0D4B01221A608022C3F8A2
:103CE000FC224FF02002EFF3118382F31188BFF31F
:103CF0006F8F074A12781AB1064A0421C2F80011E0
:103D000083F31188BFF36F8F08BD00BF0820004008
:103D10004C2B002000E100E030B54B79012B20D185
:103D20008B79032B1DD1CC792CB1012C19D10368CF
:103D30009B681B78ABB10A7912B1022A11D10E220D
:103D40000B6847F61225AB426CD027D8B3F5965FC7
:103D500061D012D8B3F5167F4CD005D8B3F5967F55
:103D600070D06FF0220052E0B3F5966F50D0B3F5EB
:103D7000166FF6D14FF41D233EE0B3F5615F4CD0D2
:103D800004D8B3F5165FECD1304B35E0B3F5964F60
:103D900046D0B3F5E14FE4D12D4B2DE0B3F5E13F33
:103DA00048D011D84DF6C025AB423ED004D8B3F56B
:103DB000164FD6D1274B1FE0B3F5614F38D0B3F57E
:103DC000963FCED1244B17E0B3F5E12F36D008D87B
:103DD000B3F5613F30D0214DAB42C2D14FF080638B
:103DE0000AE0B3F5612F2BD01D4DAB42B9D14FF096
:103DF000805301E04FF41C331A4D2243C5F824359B
:103E0000C5F86C25836803C983E80300002030BD32
:103E10004FF49E23F0E7144BEEE74FF46C13EBE7FF
:103E2000124BE9E74FF40003E6E74FF46503E3E7DD
:103E30000F4BE1E70F4BDFE70F4BDDE70F4BDBE706
:103E40000F4BD9E74FF4A033D6E700BF005027004F
:103E500000F0750000509D0000903A0190D00300E2
:103E600040420F000020004000B0130000A04E00B0
:103E700000F0EB0000E0D70100B0AF0300705F0777
:103E800000D0BE0E08B50C4BD3F8042312F0800FFF
:103E90001A4605D1D2F8040310F0040006D108BD7B
:103EA000FFF7B4FE0028F5D00120F8E7034B1868AF
:103EB000003018BF0120F2E7002000400821004038
:103EC0004FF0A04337B51C4C4022C3F8082503210E
:103ED00000220825C3F81817C3F82027C4F8145582
:103EE0000625C4F80C552025C3F80855C3F8141747
:103EF000C3F81C270523C4F808350723C4F8103578
:103F00008168FFF709FF054690B90423C4F800351E
:103F10000A4B18601B680193019B094B012121602A
:103F2000024602201970FEF783FA0220FEF75CFABF
:103F3000284603B030BD00BF0020004008210040EB
:103F40004C2B0020F7B50023094C0A4F1E46D8B26F
:103F5000151A002D02DD256801330DB903B0F0BD3F
:103F6000266025680195019DD7F818550D54EEE798
:103F7000082100400020004007B50B4A00231360D1
:103F800012680192019A094A1370094B01221A60C2
:103F9000C3F81415FFF73AFE0028FBD0054B0122A9
:103FA0001A6003B05DF804FB1C2100404C2B00207C
:103FB000082000400C200040084B1A6882B052B123
:103FC000002018601B680193019B054BD3F818353E
:103FD0000B7002B070474FF0FF30FAE70821004045
:103FE000002000402DE9F3410D4E0E4FDFF83880E0
:103FF0000024E5B2531B002B03DDFFF707FE01345D
:1040000018B9284602B0BDE8F0810023336030685B
:10401000019001983B704B5DC8F81C35E9E700BF83
:104020001C2100404C2B002000200040094B70B5A3
:1040300053F820400130002653F82050A54200D804
:1040400070BD236820465B68984700B166600C34F9
:10405000F4E700BF307A0000104B70B5104C0546F5
:104060001E469C4204D10E4CB44209D1002412E0F9
:1040700062681AB122681268AA420CD00C34F0E7C8
:1040800063680BB90C34EFE723682846196801F020
:104090009AF80028F6D1204670BD00BFAC5D002024
:1040A000105D00200248034A0021121A01F0D5B821
:1040B00000000020502B002008B50648064A07499A
:1040C000121A01F09DF8064A06490748BDE8084063
:1040D00001F096B8905C0020C05D00207480000064
:1040E00000000000748000000000002008B50220DD
:1040F000FFF79CFF074800F09DFF0320FFF796FFA6
:1041000000F04CFBFCF7BAF9034A137B23F00103E0
:10411000137308BD2A8000009C0D002080B53D4B24
:10412000A2B083F308883C4B3C4E5A693C4D42F4A4
:1041300000725A610024E02283F82220DC771C768A
:104140005C769C765A6A42F4E0225A62FEF744F9A1
:10415000FEF7B0F907AB21466C22184601F07DF856
:104160000127B06020468DF82970FFF75FFF3846C1
:10417000FFF75CFF00F04CFA2A4B35624FF42052F7
:10418000CDE90473CDE90244CDE90044264B27492B
:10419000284600F0E9FA6B7B23F0040213F01B0FB2
:1041A0006A73344604D1AB6913B9284600F002F9AA
:1041B0001F4B204E059301220F23CDE9033200232C
:1041C0004FF4A0721C4900933046CDE901331B4BDC
:1041D00000F0CAFA737BE66023F004037373184B94
:1041E000C4E90633FEF74EFA0D48A56000F0E3FF80
:1041F0000D4B144A184682F3098863B64FF000014C
:1042000081F31188BFF36F8F00210022002300F09B
:104210009BFD00BF905C002000ED00E0080E002038
:104220009C0D002069800000ED400000502B002014
:104230006E800000300D002050530020A975000052
:10424000200E002050530020EFF305800D2809D8E0
:1042500028B1054B586880F40060C0F3C02080F09E
:10426000010070470120FAE700ED00E008B5FDF716
:10427000C7FE054B054A1B6818441061002118460B
:10428000BDE8084003F076B93C0E0020080E00207F
:10429000F8B50D464FF02003EFF3118483F3118836
:1042A000BFF36F8F0D4E0E4B4FF400410027C1FB43
:1042B000006700221A6130464FF4A02200233946DD
:1042C000FBF70CFF074B1860074B1D60FFF7CEFF95
:1042D00084F31188BFF36F8FF8BD00BFFFFF0400A8
:1042E000080E00203C0E0020380E00204FF0200366
:1042F000EFF3118183F31188BFF36F8F044B9A683A
:10430000D37B013BD37381F31188BFF36F8F704769
:10431000080E0020094B03F12402824205D19B685C
:104320008B4202D14B7BDB0607D1D1E900231A6017
:104330000A6853600023C1E900337047080E00206B
:1043400038B50D4C024604F1240003F054F805463C
:1043500000B9E568A3684AB95A7BD20606D1AA69B2
:1043600022B9DA897F2A01D9236238BD9D4201D062
:10437000FFF77CFF2562F8E7080E002010B54FF02C
:104380002003EFF3118483F31188BFF36F8F084B81
:104390009A68D37B0133D3730120FFF7D1FF84F3F5
:1043A0001188BFF36F8FBDE8104003F01AB800BF4B
:1043B000080E0020F8B54FF02003EFF3118483F3CB
:1043C0001188BFF36F8F164A114651F8243F8B4274
:1043D0000CD05BB1966A90F90E5093F90E70AF4213
:1043E0000BDCB34202D01B68002BF6D1936A43600A
:1043F000936A01601860906205E05A68C0E9003273
:104400005A6810605860437B43F0400343730020B8
:10441000FFF796FF84F31188BFF36F8FF8BD00BFDD
:10442000080E0020F8B504464FF02003EFF3118684
:1044300083F31188BFF36F8F194F07F124050146ED
:104440002846FFF767FF7B6AAB423A460CD05BB168
:10445000B86A94F90E1093F90E708F420BDC834208
:1044600002D01B68002BF6D1936A6360936A2560C3
:104470001C60946205E05968C4E9003159680C6019
:104480005C60637B906843F040036373031B584296
:104490005841FFF755FF86F31188BFF36F8FF8BDC2
:1044A000080E0020164A174938B50C689368A342D5
:1044B000144603D1BDE83840FFF7D8BE00250D6093
:1044C00011490968C1B1D9897F2915D80F4993F9D4
:1044D0000E5009688D420FDB0D4909688B420BD0E5
:1044E000996949B91169814203DC1846FFF79AFFBF
:1044F000E0E7091A116138BD00232361FBE700BF23
:10450000080E0020340E00203C0E0020380E002043
:10451000487A000038B504464FF02003EFF31185C8
:1045200083F31188BFF36F8F437B5A0607D501468B
:104530000948FFF7EFFE637B23F040036373074BEB
:104540009868031B58425841FFF7FAFE85F311881B
:10455000BFF36F8F38BD00BF2C0E0020080E002067
:1045600070B504460D461646FFF7D4FF637B43F053
:1045700002036373EDB12B68A5609D420CD05BB163
:1045800094F90E2093F90E1091420CDC69688B426D
:1045900002D01B68002BF5D16B6863606B682560E7
:1045A0001C606C6005E05A68C4E900325A68146007
:1045B0005C60731C12D00A484FF4004500214FF490
:1045C000A022C5FB06010023FBF788FD0549421C1C
:1045D00004F11800BDE8704000F084B970BD00BF60
:1045E000FFFF04000374000010B50C461146064A94
:1045F0009068064A10601A46FFF7B2FF2046BDE8F1
:104600001040FDF74FBD00BF080E0020340E002003
:10461000044B002103F12402C3E909220846FFF7F5
:1046200037BE00BF080E0020014B9868704700BFDE
:10463000080E002070B504464FF02003EFF31186FA
:1046400083F31188BFF36F8F02F00CFF054670B142
:10465000437BDB0603D183690BB9FFF7ABFE002375
:10466000AB6631460548BDE8704002F09DBED4E916
:1046700002329A4218BF0133A360F2E74D2B0020AB
:1046800010B402460B464FF02000EFF3118180F387
:104690001188BFF36F8F946844B1013C946081F33B
:1046A0001188BFF36F8F002010BC704733B981F3BE
:1046B0001188BFF36F8F6FF00F00F5E7014810BC52
:1046C000FFF792BF4D2B0020EFF305800D2807D890
:1046D00038B1044B586880F40060C0F3C0207047C4
:1046E0000120704700ED00E0024B9B68187B00F052
:1046F00001007047080E0020014638B5074A002324
:10470000C003490CFBF73AFD0446FDF797FC05464C
:10471000FDF794FC401BA042FAD338BD40420F0085
:1047200010B502464FF02003EFF3118483F3118894
:10473000BFF36F8F437B590704D484F31188BFF311
:104740006F8F10BD23F00403437302F0BDFE10B160
:104750001046FFF72FFE21460248BDE8104002F048
:1047600023BE00BF4D2B002030B587B004460E9D00
:1047700004950D9D03950C9D02950B9D01950A9D39
:104780000095FDF76DFE044B9B6813B9236607B0D7
:1047900030BD1B6EFAE700BF080E00202DE9F04F78
:1047A000284E294D87B0B046B54205F130040FD3ED
:1047B000FFF79CFD244C254EDFF894A04FF40049F0
:1047C0000027444521D307B0BDE8F04FFFF7D6BD21
:1047D00054F8043C059354F8103C049354F8143CEA
:1047E000039354F8183C029354F81C3C019354F87A
:1047F000203C009354E90A2354E90C01FFF7B4FF6D
:1048000054F8303CDD642546CEE7616A4B1C04D089
:10481000256821B92846FFF783FF3034D1E7B34636
:10482000BC46C9FB01BC4FF4A02200235846614698
:10483000FBF754FC5146421C05F1180000F052F8F9
:10484000EBE700BFAC5D0020AC5D0020FFFF040083
:1048500003740000034B1B680BB9FDF7D1BB0020AC
:10486000704700BF400E0020036840B1084A5268FC
:10487000904204D01BB19A6881680A449A604268E9
:10488000136003685A600023C0E90033704700BF1B
:10489000085D002038B5104B1B78002B0F4B1C68AF
:1048A00014BF4FF0FF306FF000409C420AD04CB173
:1048B000A568FFF7CFFF281A00280ADBA468FFF7D6
:1048C000C9FF201A064B1B6913B19842A8BF1846AE
:1048D00038BD0020F6E700BF4D2B0020085D00200A
:1048E000080E002070B504461646C1604FF0200344
:1048F000EFF3118583F31188BFF36F8FFFF7AAFFE2
:10490000194B1A68012EACBF801901309A42A06081
:1049100001D05E6832B95A6862605A6823601460D8
:104920005C600BE09068A168884216DD411A9160D6
:104930005168C4E9002151680C6054601A689A42B9
:1049400006D0944204D1FFF7A5FF0021FDF71EFB1E
:1049500085F31188BFF36F8F70BD091A9642A1606D
:10496000D9D01268D6E700BF085D00202DE9F04BD2
:104970000446FFF797FD4FF02003EFF3118583F313
:104980001188BFF36F8F214E214FDFF8889034607C
:10499000B846D9F8004032684C45D7E900BC05D08C
:1049A00024B1A368934214DD9B1AA3601BEB0200A1
:1049B0004CEBE2710024C8E900013460FFF76AFFA4
:1049C0002146FDF7E3FA85F31188BFF36F8FBDE849
:1049D000F08B1BEB03004CEBE371D31A3360002325
:1049E000C7E90001A3602046FFF73EFF85F3118869
:1049F000BFF36F8FE36898474FF02003EFF3118503
:104A000083F31188BFF36F8FC3E700BF400E002010
:104A100000000020085D002038B5074C074DAC426F
:104A200001D3002038BD04F114032046C4E9053346
:104A300000F03FF91C34F2E7AC5D0020AC5D0020D3
:104A400008B9086070476FF015007047FF20704785
:104A500038B515461C4600F01EFB58B90346DAB2BD
:104A6000944201D8012004E0AA5CFF2A03F101036B
:104A7000F5D038BD4FF0FF30FBE773B50D46164655
:104A8000FBF734FD6946C0B2FDF748F830B10124A8
:104A9000009800F0FFFA204602B070BD2889E9684E
:104AA000042301440DEB0302009800F0F4FA0446DD
:104AB0000028ECD1BDF8042046F607139A4201BF46
:104AC000EA68BDF806309B182A8906BF9B18336038
:104AD0000324DDE737B50D46044601A9042000F0A4
:104AE00084F8A979012902D0204600F093F89DF8B6
:104AF0000730012B02D1204600F087F8A968204634
:104B000000F08EF82046FCF75BFA002003B030BDC1
:104B100070B504460D461646FBF7D6FD32462946CB
:104B20002046BDE8704000F0FCBAF7B50D461746C8
:104B3000044600F01CFB06462046FFF787FF0822CC
:104B40000146684600F089FB33466A4629462046FE
:104B50008DF8007000F0BCFA003018BF012003B0DF
:104B6000F0BD04280AD0052804D111F1FF3018BF88
:104B700001207047431A584258417047012070473E
:104B80004FF4C0735843303070470378012B05D081
:104B900002D3033B012B03D9072070470320704742
:104BA0004FF4C070704710B5044600F0E0FAA368F7
:104BB0004FF4C072303B02FB103010BD80682838C3
:104BC000704713B50C46C0B201A9FCF7A7FF50B956
:104BD00021460198FCF75CF90446019800F05AFA66
:104BE000204602B010BD0124FAE7042806D80123AC
:104BF000834013F01A0F01D0FFF7E3BF072070477F
:104C0000816801222039FFF790BF8168012218399D
:104C1000FFF78BBF83680A46A3F12801FFF785BF22
:104C20007FB5019181680446A1F1300500F09FFA3B
:104C300006462046FFF70AFF082201460DEB020058
:104C400000F00BFB04220DEB020102A800F0D8FAE1
:104C5000042E38BF0426F3B202AA2946204600F0EB
:104C600037FA003018BF012004B070BD70B5C668B7
:104C700090F90B000C254D43884206EB0504B4BFA8
:104C800071592146202492FBF4F401EB8401196050
:104C900002F01F0070BD07B501ABFFF7E7FF019AF7
:104CA000012303FA00F013680343136003B05DF8B7
:104CB00004FB2DE9F843044643680589006894F82D
:104CC0000AC05D43FF222844E27200214FF00C0E1F
:104CD0008C4505DC00252389AB4222DCBDE8F88346
:104CE000D4F80C80B5FBF3F20EFB01F71F2A08EB9A
:104CF0000706C8BF1F324FEA930306F10409C8BF75
:104D0000520903F10303C6E9019923F00303D4BF59
:104D1000E17248F8070001F10101C8BF00EB820011
:104D2000D6E76268E36820686A4381181E1D8650D2
:104D30009A684A609A682046116099602A46002164
:104D4000FFF7A9FF0135C6E708B504460846114636
:104D50001A46A047FFF768FCFDF72AFC00207047C1
:104D600070B504460D464520A04729465220A0476D
:104D7000294623465220BDE8704018472DE9F04FE0
:104D800089B01C464FF0000A531E06460F46039397
:104D90004FF0FF39D046002505E06DB9252800F019
:104DA0003D813946B047039B13F8010F0393002858
:104DB000F3D109B0BDE8F08F642862D019D8392842
:104DC0000AD8312851D22D283DD030283ED0252870
:104DD00008D13946B047DEE7582800F0A88063289C
:104DE00000F0168139462520B047039B39461878D4
:104DF000F0E7702800F0918006D8692841D06C282F
:104E00003CD06828CFD0EDE775286DD017D873282F
:104E1000E8D1256804F1040B2B461C4614F8010B5D
:104E2000002840F0EC80B8F1030F40F000815C1BDB
:104E3000A9EB0404002C00F3E6805C46ABE778287D
:104E400075D07A28DEE74FF00308ACE7B9F1000F20
:104E50000EDAB8F1000F00F0E780A0F13009B8F1E8
:104E6000000F08BF4FF002089DE7B9F1000FF4DB17
:104E70000A2303FB0909A9F13009F0E70AF1010A45
:104E800091E7BAF1000F12D125680434002D05DA3C
:104E900039462D20B0476D4209F1FF39CDF8009019
:104EA00043462A4639463046FCF7D0FA73E7BAF152
:104EB000010FE9D0073424F0070303F10804D3E914
:104EC000002312F1004043F100014FF0000C4FF0BD
:104ED000FF3B8C4508BF834504D239463046FFF777
:104EE0003FFF58E71546D1E7BAF1000F05D1226818
:104EF0000434CDF800904346D4E7BAF1010FF6D060
:104F0000073424F0070303F10804D3E90023002B3E
:104F100008BFB2F1004FECD3DFE739463020B0478D
:104F200039467820B0474FF008094FF00108BAF130
:104F3000010F27DC23680793002304930434002324
:104F40001022029306939346079B0BF1FF3B4FEA17
:104F50008B00C0F1200CA0F1200123FA00F0049B8B
:104F600003FA0CFC40EA0C0023FA01F1084310F0AC
:104F70000F0013D1069B13B9BBF1000F2ED14FF0D8
:104F8000300C11E0073424F0070303F108041A6819
:104F90005B6807920493D2E7059AD5E709288CBF8E
:104FA0004FF0570C4FF0300C394660440592B04733
:104FB000029B069501330293BBF1000FECD1B8F1CF
:104FC000030F7FF4E8AE029BC3EB4905002D7FF78A
:104FD000E2AE39462020B047013DF7E7531E914528
:104FE0000593E9DBB8F1010F03D139463020B04712
:104FF000E2E7B8F1020FDFD139462020F7E7394662
:10500000B047234609E739462020B047013C11E765
:105010002068251D3946B0472C46BCE6AA46A8465E
:105020004FF0FF390125BEE64FF00108BBE65C46B4
:105030000546B8E60FB407B504A951F8040B019171
:10504000FCF75AFA03B05DF804EB04B07047704700
:1050500000474368DB68184770B502684C68A24295
:1050600016D38B6823449A4206D2D1E90435AB4269
:1050700004D36FF00B038B6100200AE0CD68121B94
:1050800005EBC30645F833204268726001330B61BB
:10509000012070BD70472DE9F0411E4683688B42A8
:1050A00005460C4617460FD3721893420CD3C068BE
:1050B000FEF7D2FF436869681D683A4633462144CB
:1050C000AC46BDE8F04160474FF0FF30BDE8F081ED
:1050D0002DE9F843984683688B4207460E46914671
:1050E0001CD308EB0102934218D3C068FEF7B4FF4B
:1050F00000210546FFF7ADFF044660B96B6879688B
:105100005C68314443464A462846A047012104468C
:105110002846FFF79EFF2046BDE8F8834FF0FF3496
:10512000F9E783688B422DE9F04107460E46904629
:105130001AD30A44934217D3C068FEF78DFF0021AB
:105140000546FFF786FF044658B979686B68314415
:105150009B68424628469847012104462846FFF7A7
:1051600078FF2046BDE8F0814FF0FF34F9E708B53D
:10517000C068FEF771FF4368187D08BD43685B682F
:10518000184708B5002210460121FDF751F900200B
:10519000FDF72AF9002008BD70477047FDF796B962
:1051A00001460068FDF7A6B908B5FDF751FABDE85C
:1051B0000840FCF75DBF07B5002101A8FDF70CFB17
:1051C00003B05DF804FB0138013910F8013F11F814
:1051D000012F934202D1002BF7D11A46981A70473B
:1051E00010B55AB10139841810F8012B11F8013F9C
:1051F000A04201D09A42F7D0D01A10BD1046FCE769
:10520000F0B581EA0004A50703460BD0013B0A4430
:1052100091421DD1F0BD002AFCD011F8014B03F8DA
:10522000014B013A9C07F6D11D1F0C468F183E1BFF
:10523000032E08D894086FF0030505FB0422A40090
:1052400023442144E2E754F8046B45F8046FEEE789
:1052500011F8014B03F8014FDAE7F0B5C9B2034684
:105260009C070FD141EA012444EA04441D469F18DB
:105270007E1B032E0CD8940803EB840413449C4239
:1052800009D1F0BD002AFCD003F8011B013AE7E781
:1052900045F8044BECE704F8011BF0E74FF0FF3052
:1052A000704700207047036830B5CD1A002D02DC2E
:1052B0006FF05F0030BD1C7814F0800F0AD15C1CC9
:1052C00004601B7813600368C91A13688B42EFD817
:1052D0000020EFE704F07F04013C032C27D8DFE82F
:1052E00004F00209121E012DE2D05C781460023332
:1052F0000360E8E7022DDBDDB3F8014064BAA4B235
:1053000014600333F4E7032DD2DD9C785D7824022A
:1053100044EA0544DD782C4314600433E8E7042DA7
:10532000C6DDD3F8014024BA14600533E0E76FF01E
:105330006300BFE770B404680E1B002E07DD2678FB
:105340009E4208D10134046070BCFFF7ACBF6FF01F
:105350005F0070BC70476FF06100FAE737B5022359
:10536000154601AA0446FFF7E5FF40B9019A2168F6
:10537000284600F05DFB2368019A1344236003B0C4
:1053800030BD0023F0B5161F1C46844203D102EB4A
:105390008402BBB9F0BDD6F804C0ACEB030546F8F7
:1053A000045F51F82470BD422CBF4FF0000E4FF047
:1053B000010EED1B9C452CBF73460EF101033560B9
:1053C0000134E2E71168C81A994242F8040B2CBF75
:1053D00000230123DDE72DE9F04384460D4602F169
:1053E00040044FF0000EBCF10F0F54F8408C05F153
:1053F000400504F1400400F2BB804FEA101C6FF03E
:105400000F0404FB0C0007284FEA8C1C01EB0C0571
:1054100002EB0C0440F2938051F80C60A3FB06678A
:105420001EEB060E2CBF4FF001094FF0000918EBE0
:105430000E0142F80C106E68B9442CBF0122002204
:10544000A3FB06674A44921966682CBF012100211C
:1054500092196260AE6801EB070C4FF0000128BFA3
:105460000121A3FB066761448919A6682CBF0122AC
:1054700000228919A160EE6802EB070C4FF00002D0
:1054800028BF0122A3FB066762449219E6682CBF7D
:10549000012100219219E2602E6901EB070C4FF007
:1054A000000128BF0121A3FB066761448919266911
:1054B0002CBF01220022891921616E6902EB070CC1
:1054C0004FF0000228BF0122A3FB06676244921935
:1054D00066692CBF0121002192196261AE6901EB5E
:1054E000070C4FF0000128BF0121A3FB06676144B0
:1054F0008919A6692CBF012200228919A161EE69D0
:1055000002EB070E4FF0000228BF0122724405F1A2
:10551000200CA3FB0667E56992192CBF4FF0010E22
:105520004FF0000E52190EEB07014FF0000E28BF8E
:105530004FF0010EE2618E44083820346546800049
:1055400005EB000C2146654551F8042B40F09F8186
:105550000444236813EB0E034FF0000228BF01221E
:1055600044F8043B4FF0010E002AF2D1BDE8F0836D
:1055700055F8406CA3FB06671EEB060E2CBF4FF0E0
:1055800001094FF000091EEB080644F8806C55F83D
:105590003C6CB9442CBF4FF001084FF00008A3FB4E
:1055A0000667C84418EB060854F87C6C2CBF4FF013
:1055B000010E4FF0000E16EB080644F87C6C55F80F
:1055C000386C0EEB07094FF0000E28BF4FF0010EAC
:1055D000A3FB0667CE441EEB060E2CBF4FF001085E
:1055E0004FF0000808EB070954F8787C17EB0E071A
:1055F00044F8787C55F8346C4FF0000828BF4FF021
:105600000108A3FB0667C84418EB060854F8746C3D
:105610002CBF4FF0010E4FF0000E16EB080644F8B9
:10562000746C55F8306C0EEB07094FF0000E28BF74
:105630004FF0010EA3FB0667CE441EEB060E2CBFF7
:105640004FF001084FF0000808EB070954F8707C90
:1056500017EB0E0744F8707C55F82C6C4FF00008DF
:1056600028BF4FF00108A3FB0667C84418EB0608E3
:1056700054F86C6C2CBF4FF0010E4FF0000E16EB7F
:10568000080644F86C6C55F8286C0EEB07094FF0CF
:10569000000E28BF4FF0010EA3FB0667CE441EEBA1
:1056A000060E2CBF4FF001084FF0000808EB070969
:1056B00054F8687C17EB0E0744F8687C55F8246CA6
:1056C0004FF0000828BF4FF00108A3FB0667C8444D
:1056D00018EB060854F8646C2CBF4FF0010E4FF025
:1056E000000E16EB080644F8646C55F8206C0EEBBF
:1056F00007094FF0000E28BF4FF0010EA3FB06670D
:10570000CE441EEB060E2CBF4FF001084FF00008F0
:1057100008EB070954F8607C17EB0E0744F8607C2F
:1057200055F81C6C4FF0000828BF4FF00108A3FB90
:105730000667C84418EB060854F85C6C2CBF4FF0A1
:10574000010E4FF0000E16EB080644F85C6C55F89D
:10575000186C0EEB07094FF0000E28BF4FF0010E3A
:10576000A3FB0667CE441EEB060E2CBF4FF00108CC
:105770004FF0000808EB070954F8587C17EB0E07A8
:1057800044F8587C55F8146C4FF0000828BF4FF0CF
:105790000108A3FB0667C84418EB060854F8546CCC
:1057A0002CBF4FF0010E4FF0000E16EB080644F828
:1057B000546C55F8106C0EEB07094FF0000E28BF23
:1057C0004FF0010EA3FB0667CE441EEB060E2CBF66
:1057D0004FF001084FF0000808EB070954F8507C1F
:1057E00017EB0E0744F8507C55F80C6C4FF000088E
:1057F00028BF4FF00108A3FB0667C84418EB060852
:1058000054F84C6C2CBF4FF0010E4FF0000E16EB0D
:10581000080644F84C6C55F8086C0EEB07094FF07D
:10582000000E28BF4FF0010EA3FB0667CE441EEB0F
:10583000060E2CBF4FF001084FF0000808EB0709D7
:1058400054F8487C17EB0E0744F8487C55F8046C74
:105850004FF0000828BF4FF00108A3FB0667C844BB
:1058600018EB060854F8446C2CBF4FF0010E4FF0B3
:10587000000E16EB080677444FF0000E28BF4FF0DD
:10588000010E44F8446CACF1100CBE44ABE555F885
:10589000046BA3FB06781EEB070E2CBF0126002627
:1058A0001EEB020246442CBF4FF0010E4FF0000EDB
:1058B00041F8042CB64446E600230122C0E9002347
:1058C0008360704710B5044668B1806830B1616884
:1058D0008900FDF749F9A068FDF736F90023012298
:1058E000C4E90023A36010BD42F21073994270B561
:1058F00004460D4602D96FF00F0070BD43688B421D
:1059000016D204212846FDF719F906460028F2D0E0
:10591000A16859B162689200FFF772FC6168A068E3
:105920008900FDF721F9A068FDF70EF9C4E90156D9
:105930000020E2E78842F8B506460F4603D08D689E
:105940001DB9FFF7BFFF002011E04C68013C1CB1FE
:1059500055F82430002BF9D072683B68336001346D
:10596000A24205D221463046FFF7BEFF40B1F8BD46
:10597000B068121B9200002100EB8400FFF76DFC61
:10598000A200B968B068FFF73BFCDCE770B50E46D3
:1059900001210446FFF7A8FF054688B96268014661
:1059A0009200A068FFF759FCA36886EAE672002E11
:1059B000A2EBE6721A60B4BF4FF0FF3301232360FD
:1059C000284670BD4368B1EB431F3FBF83684A0957
:1059D00001F01F0153F822003ABFC84000F0010057
:1059E000002070474368DBB181685A1E9B007AB97A
:1059F00051F8221000204FF00043194204D1013029
:105A000020284FEA5303F8D1C0EB421020307047F2
:105A1000C818043B50F8040C0028E9D1013AE6E725
:105A20001846704708B5FFF7DDFF0730C00808BD0E
:105A3000F8B50F4612F0030118BF0121436801EBCE
:105A40009205AB42044616461AD100212046FFF7C4
:105A50009DFF10BBB91903469E421ED023F00307D9
:105A600011F8012DD4F808C0DD0005F0180502FA80
:105A700005F55CF807202A434CF807200133EBE7D3
:105A8000FFF720FF00230122C4E90023A360294679
:105A90002046FFF729FF0028D7D0F8BDF8B5054606
:105AA00008466C68A40094421CD2121B8E18002178
:105AB000FFF7D3FB30462246104400239A4213D10D
:105AC0000020F8BD23F0030CAF6803F00301CE0003
:105AD00057F80C10F14011F0FF0F11D10133A34220
