:020000040000FA
:1000000050530020152900009B510000BD2700001F
:10001000BD270000BD270000BD270000BD27000050
:10002000BD270000BD270000BD27000019240000E7
:10003000BD270000BD270000C12300008B51000038
:10004000ED280000ED280000ED280000ED2800005C
:10005000ED280000ED280000ED280000ED2800004C
:10006000ED280000ED280000ED280000ED2800003C
:10007000ED280000ED280000ED280000ED2800002C
:10008000ED280000ED280000ED280000ED2800001C
:10009000ED280000ED280000ED280000ED2800000C
:1000A000ED280000ED280000ED280000ED280000FC
:1000B000ED280000ED280000ED280000ED280000EC
:1000C000ED280000ED280000ED280000ED280000DC
:1000D000ED280000ED280000ED2800007BB972B982
:1000E0000029BEBF00204FF0004106E008BF0028F5
:1000F0001CBF6FF000414FF0FF3000F0B7B9ADF119
:10010000080C6DE904CE002909DB002B1ADB00F096
:100110004DF8DDF804E0DDE9022304B07047404209
:1001200061EB4101002B1BDB00F040F8DDF804E03F
:10013000DDE9022304B0404261EB4101524263EB2E
:1001400043037047524263EB430300F02FF8DDF89E
:1001500004E0DDE9022304B0404261EB4101704755
:10016000524263EB430300F021F8DDF804E0DDE9DF
:10017000022304B0524263EB4303704753B94AB9B8
:10018000002908BF00281CBF4FF0FF314FF0FF309F
:1001900000F06CB9ADF1080C6DE904CE00F006F882
:1001A000DDF804E0DDE9022304B070472DE9F047F3
:1001B000089E0D4604468E46002B40F082808A42FF
:1001C000174646D9B2FA82F24AB1C2F1200105FAC5
:1001D00002F320FA01F1974041EA030E94404FEAFE
:1001E0001748230CBEFBF8FCB9B208FB1CEE43EA2F
:1001F0000E430CFB01F098420AD9FB180CF1FF35B5
:1002000080F01681984240F21381ACF1020C3B441D
:100210001B1AA4B2B3FBF8F008FB103344EA034402
:1002200000FB01F1A14209D93C1900F1FF3380F034
:100230000181A14240F2FE8002383C44641A40EA47
:100240000C4000211EB1D4400023C6E90043BDE8A4
:10025000F08702B9FFDEB2FA82F2002A4FD1CB1B3F
:100260004FEA174E1FFA87F80121B3FBFEFC250C5D
:100270000EFB1C3345EA034508FB0CF3AB4207D9E0
:100280007D190CF1FF3002D2AB4200F2E7808446C8
:10029000ED1AA3B2B5FBFEF00EFB105543EA054480
:1002A00008FB00F8A04507D93C1900F1FF3302D242
:1002B000A04500F2D7801846A4EB080440EA0C40A1
:1002C000C0E78B4208D9002E00F0AF800021C6E9BC
:1002D00000050846BDE8F087B3FA83F100294BD149
:1002E000AB4202D3824200F2B780841A65EB03036B
:1002F00001209E46002EAAD0C6E9004EA7E7C2F113
:10030000200C01FA02F3974020FA0CF04FEA174E46
:1003100021FA0CFC1843BCFBFEF1050C0EFB11CCC2
:100320001FFA87F845EA0C4501FB08F3AB4204FAD3
:1003300002F409D97D1901F1FF3C80F08B80AB42BA
:1003400040F2888002393D44EB1A85B2B3FBFEF0DF
:100350000EFB103345EA034500FB08F3AB4207D917
:100360007D1900F1FF3C71D2AB426FD902383D4498
:10037000EB1A40EA014178E7C1F1200C8B4022FAE8
:100380000CF71F4320FA0CF405FA01F34FEA174E5D
:1003900025FA0CF51C43230CB5FBFEF91FFA87F870
:1003A0000EFB195543EA054509FB08FAAA4502FA6E
:1003B00001F200FA01F308D97D1909F1FF3047D2A3
:1003C000AA4545D9A9F102093D44A5EB0A05A4B205
:1003D000B5FBFEF00EFB105544EA054400FB08F89F
:1003E000A04507D93C1900F1FF352DD2A0452BD9E6
:1003F00002383C4440EA0940A4EB0804A0FB02890F
:100400004C45C6464D4619D316D05EB1B3EB0E022D
:1004100064EB050404FA0CFCCA404CEA0202CC402E
:10042000C6E900240021BDE8F087314630460EE7DA
:10043000AC46EDE6184601E74345E6D2B8EB020EBE
:1004400069EB07050138E0E72846D3E760468FE708
:100450008146BAE7614677E708464BE7ACF1020C04
:100460003D4415E702383C4426E700BF704700BF13
:100470007FB500F03FF800F00BF9124800F024F8C7
:1004800000B9FEE701A800F04FFB00B1FEE79DF8C0
:100490000800694604F02DFC009B039C1C44019B52
:1004A0001D8966194FF02002EFF3118382F3118842
:1004B000BFF36F8F04F06AFE635983F30888736893
:1004C0009847FEE7C079000010B5044C236813B9C3
:1004D00003F02EFF2060206810BD00BF0800002040
:1004E00002289ABF024B53F820006FF015007047A6
:1004F0002477000002484FF4C05102F055BC00BF01
:10050000460E002073B506460020FFF7E9FF01A95B
:10051000C0B201F075FC014630BB154A019820239A
:1005200004F0B2FD041E18BF0124019804F0ABFDD5
:10053000BCB90120FFF7D4FF01A9C0B201F060FCF3
:10054000A0B90C4A01982023214604F09DFD051E08
:1005500018BF0125019804F096FD15B1002E18BFB3
:100560002C46204602B070BD0124DEE70125F1E7EC
:100570000C00002038000020F0B587B00546FFF7DA
:10058000AFFF04A9C0B201F03BFC002844D12846CB
:10059000FFF7A6FF214F2C2405A9C0B204FB057468
:1005A00001F02EFC48B12C226A43BB181B6913F0E2
:1005B000100312D04FF0FF3428E0059804F09FFBA1
:1005C0000646059804F05FFD631EE21C9A42F1D0D6
:1005D00013F8011FB142F9D0E5E7B958104A91422A
:1005E00007D0002DE6D004980021826804F092FD27
:1005F000E0E7CDE90133009320460A4A04994FF41D
:10060000807300F025FD04460028EAD1049804F028
:100610003AFD204607B0F0BD0124FAE70C000020A7
:100620003DB8F396472A002073B5184C8025626ABE
:10063000019501A9032001F0F7FB40B9019B226D50
:10064000A36201A90420019501F0EEFB08B1012588
:1006500018E0019BE26D019501A90120636501F09D
:10066000E3FB05460028F2D1019B206A236604F0D3
:1006700077FD0646A06D04F073FD864238BF06463E
:1006800084F86460284602B070BD00BF0C000020F2
:1006900038B50C480C4C03F04BFE436820601D68D5
:1006A000042201230021A8472068084A0023137070
:1006B0004268194654680422A047054B41F288322B
:1006C0001A8038BDD3790000780C0020462600201F
:1006D000440E00200E4B198810B4B9B1013989B20B
:1006E00006221980B1FBF2F302FB131189B269B93A
:1006F000084A1378B3FA83F35B091370064A10684B
:10070000426854680422A44610BC604710BC70477D
:10071000440E002046260020780C00202DE9F84FDA
:10072000DDF828A0DFF850B006460F4690469946FF
:100730000024544501D3002011E0AAEB0405FFF783
:10074000C9FFB5F5806F28BF4FF480650A4A2B4674
:1007500004EB0801304604F097FC10B10120BDE81D
:10076000F88F2B465A4604EB0901384604F0A9FCE1
:100770000028F3D12C44DCE7472600202DE9F8437C
:100780000378032B064622D0042B22D10124124BDE
:100790002C2202FB043493F86400A56A04F048FBA1
:1007A000013D80460027636A03EBC50253F835100C
:1007B000D2F804901B684A46C91A30464F4404F0E8
:1007C00000FBB84505F1FF35EDD8BDE8F8830024FE
:1007D000DDE70120F9E700BF0C0000202DE9F04122
:1007E000224B82B01E68F31D23F0070300AFADEB70
:1007F000030D4379002B054607F1040114BF0120C6
:10080000032001F0FDFA70BB786804F022FB2B682E
:100810002C79013B03EB4303013C1C44144B93F83C
:10082000643003FB0404786804F09AFC804678681E
:1008300004F065FA32460146684604F004FD2B795F
:100840008DF800302146786843466A4604F039FC4A
:10085000041E18BF0124786804F015FC20460837F0
:10086000BD46BDE8F0810124F5E700BF3C770000FC
:100870000C0000202DE9F04F04468BB02368A64DF4
:100880000020012BCDE904003AD12379012B37D187
:10089000A24E2A68B24203D105AA294604F046FABC
:1008A000EB6AB34204D19E4904AA012004F03EFA47
:1008B000DDE90432934288BF0593059BA360686A13
:1008C0002F6D059900231A461E46043007F1040CCB
:1008D000914201D89A4202D250F836703A44994275
:1008E00002D89A4240F216815CF8367091423B443D
:1008F00004D8994202D89A4200F007810136E7E70E
:1009000004F1080000F016FBA3680593D7E7AB6D70
:100910006A6A9968101D0023994650F836304B4496
:10092000994202D3013EF7D299462368013B5B45C9
:1009300000F2E080731C95F8640052F8337013687D
:10094000FF1A04F075FAAB6A696A013B09EB07020A
:1009500051F8333009685B1A9A4223688CBFA9EBBF
:100960000008C846012B40F0CE80B9EB080318BF41
:100970000123637106A9032001F042FA07A90420AC
:1009800001F03EFA08A9012001F03AFA2379012B7F
:100990002ED108980021826804F013FA2368012BF5
:1009A00013D10898214604F0EEF963796BB90698E3
:1009B0000393FFF7E3FE2146069804F0E4F9089854
:1009C000039B8268194604F0FCF90023DDE9070166
:1009D000CDF800803A46FFF7A1FE0223237120469E
:1009E000FFF7FCFE20B1DAF800300133CAF800301E
:1009F0002379022B20D14A463946079804F0E1F9C1
:100A00003B46DDE90601CDF800803A46FFF786FE59
:100A10002368012B04D1637913B90798FFF7AEFE61
:100A20004FF0030323712046FFF7D8FE20B1DAF818
:100A300000300133CAF800302379032B51D14A46E4
:100A40003946069804F0BDF93B4606990898CDF85A
:100A500000800022FFF762FE63796BB3089804F010
:100A6000F8F995F86430069903EB430302460093C6
:100A7000089808EB0703FFF751FE20B1DAF80030C1
:100A80000133CAF8003009A9012004F004FA9DF8E6
:100A90002730012B02D1069804F00BFA9DF825109F
:100AA000012902D0069804F009FAA168069804F01A
:100AB0000AFA069800F07EFA23686779013323600A
:100AC0000123A3802046FFF789FE20B1DAF8003029
:100AD0000133CAF8003027B108984A46002104F0D3
:100AE00070F9069804F0CFFA079804F0CCFA089849
:100AF00004F0C9FA0BF1010B002EBFF608AF00207D
:100B00000BB0BDE8F08F002333E7DFF818A04FF0FB
:100B1000000BF1E79142EDE60C0000203DB8F396A2
:100B200038000020740000202DE9F04FC14CC24B6A
:100B30006362C24B236589B0C14BE3650646002062
:100B4000FFF7CEFC04F12001C0B201F059F9FFF724
:100B5000C1FD0120FFF7C4FC04F14C01C0B201F05B
:100B60004FF9FFF7B7FD04F15801012001F048F9F2
:100B7000FFF75AFD0546002840F0A880FFF7C2FCA9
:100B80000546002840F0A280D4F82880B8F1800FF4
:100B900000F24381D4F854E0BEF1800F00F23D81B1
:100BA000A36DD4F850A09B68D4F82490019302461A
:100BB0000146074684460346884546D8964544D8AC
:100BC000884540F02A81964540F02781BC4540F099
:100BD00024810C22002105A804F035FB012504A97D
:100BE000032005958DF818508DF81A5004F053F92C
:100BF000284603A9934F04F04EF90025B8469DF806
:100C00001010387804F006F900284ED09DF80C102A
:100C1000787804F0FFF8002847D0BB78042B03D085
:100C20009DF812209A4240D108EB8505EB78022B03
:100C300059D04AD8002B3DD0012004A901F0E0F89A
:100C40000746002851D0012540E0AB4216D109EB00
:100C5000C10B0131DBF804B05B440AEBC20B01327B
:100C6000DBF804B05D44AB42A6D1019898429C44A5
:100C70001F44C0F0D280002005469CE70AD209EB51
:100C8000C10B0228DBF804B05B4400F0C6800131E0
:100C90000120E8E70AEBC20B0128DBF804B05D4451
:100CA00000F0BB8001320220DDE70135042D07F1A1
:100CB0000407A4D1059B012B03D19DF8180001283E
:100CC00069D005A8FFF7D6FD84E00725A06D04F0E4
:100CD000DAF9E06C04F0D7F9206A04F0D4F9284678
:100CE00009B0BDE8F08F0320A7E7DDF810A050465B
:100CF00004F0AFF88346504604F09FF83D46814625
:100D0000B846B94506DCB8F1000F29D0002D08BF60
:100D10003D4619E094F86410012303AA07FB01B1D2
:100D2000504603F0EEFF00282EDB012807D1B8F172
:100D3000000F02D0002D08BF3D460137E1E7B8F1B2
:100D4000000F1ED0002DF8D0013D032395FBF3F3D7
:100D50005A1C03EB4303ED1A013505928DF8185028
:100D6000049804F081F8012301460DF11A02049859
:100D700003F0C7FF0128054604BF8DF81A000025BF
:100D800003E04FF00108D8E70125049804F07BF94F
:100D9000002D8FD09AE79DF81A70012F13D100F023
:100DA00017F9831E022B054605D83846FFF7E4FBEA
:100DB000002818BF05258DF81A509DF81A30023BFF
:100DC000022B07D87DE7FFF7D7FB0028F5D00523D6
:100DD0008DF81A309DF81A70FB1E022B34D9052F9E
:100DE00014D049D8012F18D0023F022F44D805A9AA
:100DF000032001F005F800283ED1059804F054F8CE
:100E00000546059804F03FF9002D35D10020FFF785
:100E100079FB054600287FF459AF0020FFF7ACFBB3
:100E2000054660BB236A5A7832715B68B3603460F0
:100E30004CE700BF0C00002078000020780800205C
:100E400078040020DA79000004A9032000F0D8FF1C
:100E500090B9049805A900F015F8054668B99DF801
:100E60001730032B03D1049804F023F805460498A7
:100E700004F009F9002DB2D0FEE70125F7E70325BC
:100E800024E700BF30B50C46816885B010236A4660
:100E90001039054603F035FF002802DA012005B0BD
:100EA00030BD01282DD103232370A9680123E21846
:100EB0002839284603F025FF0028EFDB012802D05F
:100EC0006378042B01D901236370A9680123A21C54
:100ED0002039284603F015FF0028DFDB01281AD14E
:100EE0000323A370A9680123E21C1839284603F0E4
:100EF00008FF0028D2DB012813D10323E370002070
:100F0000CDE70B491022684604F062F9002814BFAF
:100F100002230123C8E7A378012B0CBF012302237E
:100F2000DFE7E378012B0CBF01230223E6E700BFD4
:100F30004077000010B586B0044601A9032000F0F8
:100F40005FFF18B10124204606B010BD01988168EA
:100F5000102302AA103904F097F820B10124019857
:100F600004F091F8EFE71249102202A804F030F9DA
:100F700050B90198816822460423303904F084F87E
:100F8000041E18BF0124EAE7019804F07CF801A9C7
:100F9000012000F035FF0028D4D10198816810238A
:100FA00002AA103904F070F80028E2D0D6E700BF9A
:100FB000407700008168054A08B51039102304F015
:100FC00080F8003818BF012008BD00BF407700003E
:100FD0002DE9F7430320694603F049FFA0BB01A9AF
:100FE000042003F044FF024670BB9DF800509DF8BA
:100FF00004609DF803709DF807809DF80290134CE3
:101000002078294603F006FFB8B16078314603F036
:1010100001FF90B1A378042B01D0BB420DD1E3783E
:10102000042B01D0434508D12379042B03D16079E7
:1010300003B0BDE8F0834B45F9D00132032A04F137
:101040000604DDD10120F3E7FF20F1E7EA79000093
:101050002DE9F04FF3B0DDE97C46054632A80F4696
:1010600092469B4605F091FC002132A801F0AAFFB0
:1010700034B1002E04DD3246214632A805F089FC49
:10108000B5F80890EB6800249944A14521D807A938
:1010900032A805F0BBFC7E9B23B1202207A918468D
:1010A00004F0A6F8E9682C890C44042305AA21461B
:1010B000384603F0E9FF804638B9BDF8142046F6FB
:1010C00007139A421AD04FF0FF38404673B0BDE87C
:1010D000F08FA9EB04035B4528BF5B4652462146CF
:1010E00038461E4603F0D0FF80460028EDD1324638
:1010F000514632A805F04DFC3444C6E7BDF81690C1
:10110000DFF83CB109EB040302930434064682463F
:101110004FF0FF35029B9C4208D3BAF1000FD2D0AA
:10112000B6FA86F04009C0F10008CEE7042306AA0B
:101130002146384603F0A8FF80460028C5D19DF817
:101140001880BDF81A30B8F1100F19D1202BBAD180
:1011500032AA211D3846039303F096FF80460028EB
:10116000B3D1039B32A91A4607A804F031F800282E
:10117000A9D14FF0010ABDF81A3004331C44C9E765
:10118000B8F1010F34D1202B9DD832AA211D384649
:1011900003F07AFF8046002897D1DBF800309DF8F5
:1011A0001A50DFF8A0900393039B984503DB4FF0A0
:1011B000FF384546DFE717A805F0E7FB002117A831
:1011C00001F000FFD9F8042059F8081B126817A88D
:1011D00005F0DFFB0FA917A805F018FC2A4632A975
:1011E0000FA803F0F5FF0028E3D008F10108DBE7C2
:1011F000B8F1200FBFD1002D1EDBDBF80020AA4282
:101200001ADDB3F5807F7FF45EAF32AA211D384628
:1012100003F03AFF00287FF456AFEDB20095BDF819
:101220001A3032AA414607A800F00EF800284FF005
:10123000FF3508BF01269EE74FF0FF359BE700BF53
:1012400030770000347700002DE9F0479046ADF587
:101250004A7D00220746894627A811469DF8485333
:101260001E4605F04EFB724B53F83540029403EBDB
:10127000C5038AAA5B6819680C443023214602A87A
:1012800004F051F810B14FF0FF340DE0029B8A9A40
:1012900013449C4240F0C88029AA214602A804F0C9
:1012A00056F848B16FF0020427A805F035FB204638
:1012B0000DF54A7DBDE8F0870DF1B00A5246214692
:1012C00002A804F044F805460028EBD129A804F050
:1012D00091FB029B28909C4240F0A380CDE9005AEC
:1012E0002B462A4629A927A805F0C7FA002840F06E
:1012F000958027A801F004FE0446002840F08B806A
:1013000029A804F077FB86422890CDD1B6F5807FDE
:10131000B9D1B9F1200FB6D18AAA414627A801F068
:1013200013FE04460028AED19DF82733BC2BAAD16A
:101330000DF5A4780390DF2645460CA805F025FBA3
:1013400000210CA801F03EFE20220DF207310CA86E
:1013500005F01FFB042203A90CA805F01AFB04A941
:101360000CA805F053FB1F2E9DF80F30D4BFB146DB
:101370004FF02009013340464A4604A9A6EB09066E
:101380008DF80F3003F034FF002EC844D5DCAC4696
:101390008AAB2946DF22087813F8016B013A80EA0C
:1013A000060001F8010BF6D12B7803F07F032B70B8
:1013B0001CF8016B002E7FF466AF0134BE2CF7D110
:1013C00095F8BE30012B7FF45EAF0CA805F0DDFA76
:1013D00031460CA801F0F6FD164908220CA805F0CC
:1013E000D8FA202239460CA805F0D3FA20220DF2B3
:1013F00007210CA805F0CDFA04A90CA805F006FBFE
:1014000020220DF2073104A803F0E2FE041E18BFEB
:101410000124644248E76FF0050445E76FF00404D7
:1014200042E76FF003043FE76FF001043CE700BFC1
:1014300034770000FC7900000B6801330B60014B2E
:101440001B681847905C00202DE9F04F85B0984646
:101450000E9CDFF894A0012CB8BF0124012B0CBF17
:1014600030232023154606468B460194029301271C
:101470004FF00A0900220AF101040AB9AA4521D253
:10148000B5FBF4F059463030B0470137012209F17D
:10149000FF39B9F1010F4FF00A03B5FBF4F0BAFBC5
:1014A000F3FA04FB1055E6D1594605F13000B04778
:1014B000B8F1030F03D1019BDC1B002C0FDC05B03E
:1014C000BDE8F08F019B4B45E1DBB8F1020FDED8A0
:1014D000029803925946B0470137039AD7E7594615
:1014E0002020B047013CE8E7FFC99A3B014B186058
:1014F000704700BF905C00202DE9F04F8BB01C4678
:101500004FF00008531E05468B4603934FF0FF37FC
:1015100046464FF0000A07E0BAF1000F0DD125282A
:1015200000F04D815946A847039B13F8010F039320
:101530000028F1D10BB0BDE8F08F7A280AD86228D4
:101540000FD8302876D043D8252800F036812D28B2
:1015500000F03C8159462520A847039B594618783E
:1015600029E163381728F5D801A353F820F000BF0C
:10157000B11700005F16000055150000551500005A
:1015800055150000291500005F16000055150000D4
:10159000551500005916000055150000551500009E
:1015A00055150000F11600005515000055150000F6
:1015B0007D17000055150000C116000055150000EC
:1015C00055150000D915000055150000291500001B
:1015D00039283AD95828BDD1B8F1010F00F39180CC
:1015E00054F8043B0893002304934FF000091023A0
:1015F000CDF814909C460CF1FF32089902929000AD
:10160000C0F12002A0F1200E21FA00F0049901FAA5
:1016100002F2104321FA0EFE40EA0E0010F00F0015
:1016200078D1059A1AB9BCF1010F40F092804FF0C1
:10163000300C75E0002F0ADA002E00F0C980A0F10E
:101640003007002E08BF02266EE7002FF7DB0A23C3
:1016500003FB0707303FF4E708F1010864E7B8F13E
:10166000000F12D154F8049BB9F1000F05DA594666
:101670002D20A847C9F10009013F009733464A468B
:1016800059462846FFF7E0FE43E7B8F1010FE9D0DD
:10169000073424F00704F4E8022312F10041069114
:1016A00043F100010791DDE90601012908BF002887
:1016B00004D35946284603F0A8FC2AE79146D3E70D
:1016C000B8F1000F04D154F8042B00973346D7E744
:1016D000B8F1010FF7D0073424F00704F4E802232F
:1016E00000216FF00040994208BF9042EDD2E0E740
:1016F00059463020A84759467820A8470827012690
:101700006AE7E31D23F007031C465B6854F8082BC7
:10171000089269E709288CBF4FF0570C4FF0300C46
:101720006044594640B20593A847029A059B09F1C7
:101730000109F2B9032E7FF4ECAEC9EB4709B9F108
:10174000000F7FF7E6AE59462020A84709F1FF3980
:10175000F5E75A1E9F42099204DB012E04D1594637
:101760003020A847099B06E0022EFBD159462020D5
:10177000F7E7CDF814A0DDF808C03CE754F804AB57
:10178000D1464B4619F8010B78B9032E22D1A3EBB1
:101790000A0AA7EB0A0ABAF1000F7FF7BAAE594658
:1017A0002020A8470AF1FF3AF5E75946A847E8E79D
:1017B00054F8040B5946A847ABE65946FBE7D04618
:1017C00056464FF0FF374FF0010AADE60326ABE671
:1017D0000126A9E68246A7E607B50B460021024688
:1017E0000191034801A9FFF787FE03B05DF804FBF0
:1017F0003914000010B54FF02003EFF3118483F388
:101800001188BFF36F8F00F051F8094A0123C2F825
:1018100040354FF08042C2F87835064B4FF0FF322A
:101820009A62DA6284F31188BFF36F8F002010BDD3
:1018300000E0014000ED00E00C4B1B78062B10D1BE
:101840000B4B1B681A070CD10A4B186800F0F00309
:10185000302B08D000F0E000A0F14003584258417E
:101860007047002070470120704700BFE00F00F074
:10187000E40F00F0E80F00F0094B1B78062B0CD1A9
:10188000084B1B681A0708D1074B186800F0F000D6
:10189000A0F130035842584170470020704700BF04
:1018A000E00F00F0E40F00F0E80F00F008B5FFF7DC
:1018B000C3FF28B1784B794A1B68C3F30423136034
:1018C000FFF7DAFF10B1764B764A1A60FFF7B4FFE4
:1018D00028B1754B754A1B68C3F342331360FFF799
:1018E000CBFF20B1724AD36823F08073D360FFF737
:1018F000A3FF40B14FF080430022C3F80C21C3F88E
:101900001021C3F83825FFF7B7FF10B1694B032248
:101910001A60FFF7B1FF40B1674B05221A60012240
:101920009A6700229A603F225A60644B1B78062B0C
:1019300050D1634B1B6819074CD1624B1B6803F0F5
:10194000F003502B46D14FF080525F4BD2F8041475
:10195000C3F82015D2F80814C3F82415D2F80C14D3
:10196000C3F82815D2F81014C3F82C15D2F81414A3
:10197000C3F83015D2F81814C3F83415D2F81C1473
:10198000C3F84015D2F82014C3F84415D2F8241433
:10199000C3F84815D2F82814C3F84C15D2F82C1403
:1019A000C3F85015D2F83014C3F85415D2F83414D3
:1019B000C3F86015D2F83814C3F86415D2F83C1493
:1019C000C3F86815D2F84014C3F86C15D2F8442453
:1019D000C3F87025FFF730FF28B13C4B3C4A1B6829
:1019E00003F04F031360FFF727FF48B14FF0804328
:1019F000D3F80024D20744BF6FF00102C3F80024DB
:101A0000344B1B68062B08D1334B1B68062B01BFD8
:101A1000324A136843F4806313604FF01023D3F805
:101A20000022002A03DBD3F80432002B2FDA2C4BE0
:101A30000122C3F80425D3F80024002AFBD04FF07C
:101A400010221521C2F80012D3F80024002AFBD07E
:101A50004FF010231522C3F80422214B1A46D3F865
:101A600000140029FBD00021C3F80415D2F800347B
:101A7000002BFBD0BFF34F8F1A491B4BCA6802F4EF
:101A8000E0621343CB60BFF34F8F00BFFDE7174BFE
:101A9000174A1A6008BD00BF2403001040350140FA
:101AA00074C007400DF0ADBA440200103C05004080
:101AB000F0ED00E0A005004010560040E00F00F0FF
:101AC000E40F00F0E80F00F000C0004058020010E2
:101AD000E40E004030010010340100103C170040BB
:101AE00000E0014000ED00E00400FA05945C0020F5
:101AF0000090D0032DE9F0470479504D2426664329
:101B0000AF1997F81CC0BCF1000F40F0948000683A
:101B1000AA517B6091F800E00F7B4FF0A0460123B3
:101B200003FA0EF3012F94BFC6F80C35C6F808353A
:101B30000EF5E0734FF0010C46F823C04B78FF2BF5
:101B40001FBF0CFA03FCC6F80CC503F5E07C4FF090
:101B5000030818BF46F82C808E7808BF4FF0FF337B
:101B6000FF2E1FBF06F5E07C4FF0A0494FF0040A9E
:101B700049F82CA04FF0240C0CFB045C18BFB046B5
:101B80008CF82060CE788CF81F6008BF4FF0FF38CB
:101B9000FF2E17D091F804904FF0010C0CFA06FCC0
:101BA0004FF0A04AB9F1000F3CD0CAF80CC506F5B9
:101BB000E0764FF0030C4AF826C0242606FB0456B4
:101BC00086F81E90C0F808E5C0F80C358B68C0F8A0
:101BD0001085C0F824354B7B003B18BF0123022F32
:101BE00023D0032F24D0012F01D143F00203C0F8EA
:101BF00054358B79C0F8C03512B14023C0F8043396
:101C00000723C0F800351AB140F3073000F064FD37
:101C1000242303FB0454002363770948012323771B
:101C2000BDE8F087CAF808C5C1E743F00403DEE762
:101C300043F00603DBE70348F2E700BF7C0C00201B
:101C40000000AD0B0500AD0B2DE9F3410679464FC1
:101C5000242373431546FA180C46517F8646002903
:101C60007FD1FB5823B115F0140F04BF0123537724
:101C700094E80F004FF0240C0CFB067C0CF10C08D0
:101C800088E80F009CF81F20FF2A08D09CF81E103F
:101C9000012393404FF0A042C1B1C2F8083521683A
:101CA00021B101F06043B3F1005F06D1A26882B1B7
:101CB00002F06043B3F1005F0BD0242303FB0676F0
:101CC0002A480023737702B0BDE8F081C2F80C35D2
:101CD000E5E7DEF800306068C3F84415C3F848054E
:101CE000E168C3F834250022C3F83815C3F8182179
:101CF000D3F818210192019A15F0010218BF0122B0
:101D0000C3F8502515F0020218BF0122C3F8402580
:101D10002A075CBF01221A6124227243BA58B2B961
:101D2000D3F81821002AFBD0242303FB0676F27F88
:101D3000FF2A07D0B17F012393404FF0A04219B191
:101D4000C2F80C350A48BEE7C2F80835FAE715F0C4
:101D5000040F4FF0400214BFC3F80823C3F8042354
:101D6000F0E70448AFE700BF7C0C00200A00AD0B91
:101D70000000AD0B0B00AD0B4FF0402382B0D3F849
:101D80001831E3B10F4B00221A601B680193019BCD
:101D90000D4BD97FFF2907D0987F01228A404FF051
:101DA000A04148B1C1F80C2500225A771A72D3E934
:101DB0000021064802B01047C1F80825F4E702B038
:101DC000704700BF184100407C0C0020840C0020AC
:101DD000094B30B51D68094B02461C6800239D4223
:101DE00001DC002030BD190104EB0310615C91425D
:101DF000F8D00133F3E700BFD4770000985C0020EF
:101E0000084B1B6810B50C462BB1FFF7E1FF28B15A
:101E10002060002010BD6FF00C00FBE76FF00100A8
:101E2000F8E700BF985C002030B589B00C46154635
:101E30000190FFF7CDFFB0B1436802938368226839
:101E4000C068CDE903350023CDE90623059302F0F0
:101E50006FFA064901AA05F006FA079808B9059B2A
:101E6000236009B030BD6FF01500FAE74B50000059
:101E70000A2838B5064D044603D128680D2103F021
:101E800076F92868E1B203F072F9204638BD00BF48
:101E9000A00C002010B5044C204600F02DFE20467A
:101EA000BDE81040FFF722BB711E000008B50448D2
:101EB00002F03EFA034B1860FFF7ECFF002008BD6C
:101EC0002A7B0000A00C002010B54FF02003EFF398
:101ED000118283F31188BFF36F8F154C237833B9C8
:101EE00082F31188BFF36F8F6FF0440010BD013B88
:101EF000DBB2237033B182F31188BFF36F8F6FF0C1
:101F00000F00F3E70B4B1878012138B1217082F3F1
:101F10001188BFF36F8F6FF00A00E7E7197082F343
:101F20001188BFF36F8F044A11601870DEE700BF9D
:101F3000492B0020482B002004000040F8B54FF04A
:101F40002002EFF3118382F31188BFF36F8F294AC8
:101F50001078441C147080B183F31188BFF36F8F25
:101F60004FF08043D3F80C3403F00113B3F1011F99
:101F70000CBF00206FF0430009E01F4D2F783FB1E8
:101F8000107083F31188BFF36F8F6FF00A00F8BDF4
:101F900001262E7083F31188BFF36F8F4FF08044BA
:101FA00019B3384600F0A8FBC4F80071D4F8043324
:101FB000C4F804632660D4F8002192B10022C4F86A
:101FC00000210E4A13F0010F4FF0010308BFC4F8BF
:101FD00008330020C2F8803100F07EFB00232B7014
:101FE000BEE720BF40BF20BFE5E7C4F80011266070
:101FF000F4E700BF492B0020482B002000E100E05F
:1020000070B54FF02002EFF3118382F31188BFF314
:102010006F8F244D2A789AB183F31188BFF36F8FA5
:102020004FF08042D2F81C34D2F8182403F0030396
:1020300043F48033934314BF6FF04300002070BD1E
:1020400001242C7083F31188BFF36F8F4FF080430E
:10205000154EC3F804210225C3F81815C3F804531C
:1020600011F0030134604FF01806C3F80863C3F899
:102070000C21C3F81021D3D11022C3F83825C3F89E
:102080000463D3F81824D20302D4C3F80453C7E777
:10209000C3F80443FFF752FF0028C1D1034BC3F834
:1020A0000041BDE7472B00200800004000E100E0B0
:1020B000F8B54FF080430546D3F808C1D3F80423A0
:1020C000D3F80071D3F80403D3F80461D3F80C11EA
:1020D000D3F81041003C02F0010218BF0124BCF10A
:1020E000000F03D04FF0000CC3F808C1002F41D0FF
:1020F0004FF080430027C3F8007152B14FF0804386
:10210000224F01224FF0020CC3F80823C7F800C089
:102110001A61EEB959B11D4B4FF08046002119608C
:102120002846C6F80C11FFF7CFFE0123736174B186
:102130004FF0804300210124C3F810112846C3F852
:102140000443FFF7FBFE10B9114BC3F80041F8BD83
:102150004FF080430022C3F804218207DAD502221F
:10216000C3F80823D3F81C349B07D3D10029DFD050
:102170000124D0E7002ACCD04FF08043D3F80C34B0
:1021800003F00113B3F1011FC3D1B7E7340C0040D2
:1021900000E100E0104B002210B4C3F840214FF0E2
:1021A0002002EFF3118482F31188BFF36F8F0B4A83
:1021B000D3F80405116840F24713401A20F07F401D
:1021C000B0FBF3F003FB0013136084F31188BFF33B
:1021D0006F8F10BC02F024BD00100140A40C002041
:1021E00037B51F4802F0A4F8002835D043681D4DCC
:1021F0001B6801219847002440F24713C5F80845A1
:10220000C5F840354FF48033C5F84433C5F804337E
:1022100003F1804303F58A534FF400321C601B68BE
:102220000193019B104B0121C3F88021112022460C
:1022300000F076FA112000F04FFA0C4A01231360E7
:102240002B60D5F8043503F2471323F07F43C5F81C
:102250004035204603B030BD4FF0FF30FAE700BFF5
:10226000317B00000010014000E100E00810014057
:102270004CF6690270B5B0F1FF3F08BF10464FF051
:102280002003EFF3118483F31188BFF36F8F144D94
:1022900014492E68D1F8043501389042A8BF104681
:1022A0009A1B22F07F4240F2471520EAE07002F5C7
:1022B000A37205FB0020B0FBF5F005FB0060C31A1C
:1022C00023F07F4323F01F0303B9284420F07F400D
:1022D000C1F8400584F31188BFF36F8F70BD00BF54
:1022E000A40C0020001001404FF02002EFF31183F6
:1022F00082F31188BFF36F8F084AD2F80405084AA9
:102300001268801A20F07F4040F24712B0FBF2F0D2
:1023100083F31188BFF36F8F704700BF0010014037
:10232000A40C00204FF02003EFF3118283F31188F7
:10233000BFF36F8F0649074B0868D3F8043582F363
:102340001188BFF36F8F1B1A23F07F431844704727
:10235000A40C00200010014004488168006A8842F3
:1023600003D003494FF080520A607047080E0020E6
:1023700004ED00E0044800232021C2180133272B7C
:1023800082F80013F9D1704700E100E0094A0A49D8
:10239000936809689966094958664B6843F0805309
:1023A0004B60002383F31188BFF36F8F9368986E9F
:1023B000704700BF080E0020B879000000ED00E073
:1023C000202080F31188BFF36F8F11498A684FF086
:1023D00028001044EFF3098C80E8F01F0D4F4FF0F8
:1023E00000660A6A8A603E60506E0023536680F37E
:1023F000118804B50648806802F0D6FEBDE80440A6
:1024000002F1280090E8F01F8CF309887047000063
:10241000080E002004ED00E01EF0040F0CBFEFF3E7
:102420000880EFF30980816931F8021C11F0FF0187
:102430000229FFD001B502F0ACFE01BD38B51C4C3D
:1024400005461C4802F0EFFDA26AD10602D51A48E3
:1024500002F0E9FDA36A1A0702D5184802F0E3FD6D
:10246000134CA36A9B070ED5154802F0DCFD616B87
:10247000A36A180607D5134802F0D5FD1DB1A36A5B
:1024800023F08003A3620A4CA26AD20702D50E4849
:1024900002F0C9FDA36A9B0602D50C4802F0C3FDF9
:1024A000034B9A6A9A6A42F0FF029A62002038BD92
:1024B00000ED00E04F7B0000667B00009A7B00008F
:1024C000AE7B0000C77B0000DE7B0000FE7B0000CF
:1024D00038B51E4C05461E4802F0A5FDA26AD1047F
:1024E00002D51C4802F09FFDA36A1A0502D51A48BE
:1024F00002F099FD154CA36A9B050ED5174802F012
:1025000092FDA16BA36A180407D5154802F08BFD54
:102510001DB1A36A23F40043A3620C4CA36A5905BE
:1025200002D5104802F07FFDA36ADA0509D50E48EE
:1025300002F079FD054A936A43F47F4393620020D9
:1025400038BDA36A9B04F5D50848F1E700ED00E02B
:102550002E7C0000457C00009A7B0000577C000028
:10256000717C0000877C0000A37C0000FE7B0000E3
:1025700010B5194C194802F056FDA26A930102D514
:10258000174802F050FDA36ADC0102D5154802F09D
:102590004AFD114CA26A100302D5134802F043FD14
:1025A000A36A590302D5114802F03DFD0A4CA26A04
:1025B000920302D50E4802F036FDA36ADB0302D572
:1025C0000C4802F030FD044A936A6FEA03436FEA55
:1025D00013439362002010BD00ED00E0BC7C0000BE
:1025E000D57C0000E97C0000047D0000237D000014
:1025F000497D0000647D000070B5284D6B68C3F311
:102600000802D11E064609293BD8DFE801F005344F
:1026100036293A3A3A3A3A38214802F004FDEC6A4F
:1026200014F0020404D01F4802F0FDFC00241CE05A
:10263000EB6A5B0019D51C4802F0F5FC1B4B1B78BC
:102640001BB10120FFF7FAFE0CE0194B1B781BB100
:102650000120FFF73DFF05E0164B1B889BB223B11D
:10266000FFF786FF0628044617D031462046BDE80E
:10267000704000F0B7B80020E4E70020E9E70E481A
:10268000D2E713F4F87F0D4B0D490E48A2F110026A
:1026900018BF194602F0C7FCC8E770BD00ED00E0A6
:1026A000BE7D0000D67D0000F87D000028ED00E032
:1026B00029ED00E02AED00E0187E0000A57D000075
:1026C000907D00004F7E0000024A536943F01003E2
:1026D0005361704700ED00E043B2002B08DB01229C
:1026E00000F01F0002FA00F05B09024A42F82300E2
:1026F000704700BF00E100E043B2002B0DDB012278
:102700005B0900F01F0002FA00F02033034A42F890
:102710002300BFF34F8FBFF36F8F704700E100E0DE
:1027200043B2002BA8BF03F1604301F10101B8BF20
:10273000064B4FEA4111ACBF03F5614300F00F00B7
:10274000C9B2B4BF195483F80013704714ED00E008
:102750002DE9F0418C180F46164609999846042237
:102760000A9B054604F094FE0D4BA4F1200222F0D2
:102770000702002123F00103C5E91311C5E916760C
:102780009361069B5360079B9360089BD3604FF057
:102790008073C2F80080D361AA646966BDE8F081E5
:1027A000F34F0000014910220A60704710ED00E06D
:1027B000404080F3118830BF704700BF404080F335
:1027C0001188DFF81CC0DCF800C01CF4006C0CBFE2
:1027D000EFF30880EFF3098001B5FFF70DFF01BDAE
:1027E00004ED00E038B504460D4605281AD8DFE8A8
:1027F00000F00319191315170D4802F014FC02F02C
:1028000075F8AA6901460B4802F00DFC29462046DE
:10281000BDE8384000F018B80748EEE70748ECE795
:102820000748EAE70146074802F0FDFBE7E700BF7B
:10283000637E0000017F0000837E0000A97E00000F
:10284000C37E0000DE7E0000052810B50CD002F02B
:102850009BF860B102F098F80C4A0D49002818BFA7
:1028600011460C4802F0DFFBFFF7A2FFFCE702F085
:102870009BF80028EED1084C0848A16802F0D3FB71
:10288000A068BDE8104000F00BB800BF3D7F00001D
:10289000417F0000527F0000080E0020727F000080
:1028A00038B504464FF02003EFF3118583F3118808
:1028B000BFF36F8F04F0CDFD0A4B9B68A3420BD191
:1028C000094B5A68C2F3080212B92846FFF75EFDA9
:1028D0005A6842F080525A602846BDE8384004F0F9
:1028E0002EBD00BF080E002000ED00E001B5EFF3A3
:1028F0000580A0F110004FEAC0000449014409C955
:102900009847BDE8014002480047000050750000AC
:1029100059230000202080F3118808484FF40061FB
:10292000401880F30988EFF314800221084380F3F4
:102930001488BFF36F8F00F007F800009054002058
:1029400030BFFFF7FDBF00BF08B5084B084A23F0B2
:102950007F039360BFF34F8FBFF36F8F01F00EFDC6
:1029600001F016FDFFF706FD01F044FD0000000038
:1029700000ED00E01FB5084B0193084B0293084B94
:10298000039301AB0093074A074B0121684600F00F
:1029900093F805B05DF804FB000000200000000083
:1029A00000000B060000002000000120DFF884C0BA
:1029B000F0B50646002710468F4200DBF0BD56F802
:1029C00027E0DEF8044094B343B1651E2C4219D1D0
:1029D0001F2C17D9DEF80020154213D1202CC2B2CB
:1029E000DEF80050DEF808000FD9B4F1004F0ED821
:1029F000013CB4FA84F4C4F11F046400072A44EAD9
:102A0000000406D96FF01500D8E70824F6E73E2445
:102A1000F4E725F01F05154345F0100544F00104C7
:102A2000CCF80820501CCCF80C50CCF810400137E2
:102A3000C2E700BF90ED00E0034B05225A60BFF3F0
:102A40004F8FBFF36F8F704790ED00E0BFF35F8F44
:102A5000014B00225A60704790ED00E0134908686E
:102A6000082810B51ED8FFF7F1FF114C4968002265
:102A7000904201F10C0105D10E4B1870FFF7DCFFFD
:102A8000002010BDA26051F80C3C23F01F0313433B
:102A900043F01003E36051F8043C43F00103236169
:102AA0000132E5E74FF0FF30EBE700BF547700005D
:102AB00090ED00E04A2B002010B5034C0123227852
:102AC000FFF774FF207010BD4A2B002008B5084A9C
:102AD00000231278FFF76AFF10F1160F03D0054BA1
:102AE0000022072800DD08BD98601A610130F8E770
:102AF0004A2B002090ED00E0014B1860704700BFAA
:102B00009C5C002001680E4A9142034615D1C169C0
:102B1000A2F11022A2F1EF1291420ED18268012A95
:102B20000BD8C26812B101698A4206D0586928B12F
:102B30009B691B1A5842584170470120704700BFDB
:102B400055AA00FF0D4B70B59E68A6B13046FFF741
:102B5000D9FF044678B9F3686BB935690DB92046D9
:102B600070BD2846FFF7CEFF28B9EB68B34202D10B
:102B70002E462D69F2E70124F1E700BFA80C0020E2
:102B80002DE9F843404D2C68D4B1AC68C4B100289D
:102B90004DD000294BD001FB00F6B6FBF0F0884287
:102BA00045D1301D43D8B1070DD026F003070437B7
:102BB000EC6803E06368BB423BD2A469002CF9D106
:102BC0002046BDE8F8833746F2E7E86044E007F1C5
:102BD000200C04EB0C03203959600021C3E90214D6
:102BE000DFF8ACE02169196144F80CE0DFF8A4C01B
:102BF000C3F81CC001B1CB60C3E90520AAB1936141
:102C00009A6902B1536123610023C4E905332B693A
:102C10004FF00109DB07C4E901792DD5FFF792FFD9
:102C200050B31A4B48461B6825E0EB60E8E70024E8
:102C3000C6E7A3681BB1154B01201B689847616864
:102C4000C91B2329D4E9052004F12008BFD801239A
:102C5000A360002AB9D09061A36903B15A6100232F
:102C6000C4E905332B69DA0706D5FFF76BFF18B106
:102C7000064B1B68012098473246002140464446D7
:102C800002F0E1FA9CE700BFA80C0020A45C002041
:102C900055AA00FF669911EE2DE9F041054600287E
:102CA0007CD03F4E3368002B78D0B268002A75D0B4
:102CB000834203D872681344984203D3394B0120EE
:102CC0001B689847A5F120042046FFF71BFF18B1A9
:102CD000344B01201B68984755F8183C012B03D052
:102CE000304B01201B68984755F8147C002345F8A9
:102CF000183CAFB1BA6892B955F81C3C03F12002F8
:102D00007B6813447B6055F8103C3B6103B1DF6086
:102D100020462022002102F096FA23463C461F4618
:102D20002069002832D08368002B2FD16368426865
:102D300020331344D4E90521636003692361DAB9C0
:102D400001BB426981696261A161EAB19461A269D2
:102D500002B1546103B1DC602022002102F073FA59
:102D600033699B071AD5FFF7EDFEB8B10D4BBDE8EF
:102D7000F0411B68012018479161A1690029E0D04A
:102D80004A61DEE7F160F8E7F460E0E7002FE7D1A1
:102D9000F368A36103B15C61F460E1E7BDE8F08131
:102DA000A80C0020A45C002038B514220D4604466F
:102DB0000021124802F047FA1149124800F032F897
:102DC000232D1AD914F003031FBF043DED18C3F1DE
:102DD0000403E4182A460021204602F034FA074B87
:102DE000094A9C60C3E900452260A2F11022203DFF
:102DF000A2F1EF126560E261DC6038BDA80C002032
:102E0000992C0000812B000055AA00FF014B1B6884
:102E1000184700BFA05C0020014B1B68184700BF8B
:102E2000A85C0020024B1860024B0020196070471C
:102E3000A05C0020A85C0020024B0A461B68002111
:102E4000184700BFAC5C0020F8B500F108064768E1
:102E5000044630460D4602F0CDFD874216D1636828
:102E6000B3F5807F12D80021304602F09CFF002885
:102E70000CDD0021304602F090FD38B145B900214B
:102E800004F1140002F08FFF00281EDC1B481EE036
:102E900004F12C060021304602F085FF0028F5DD04
:102EA0000021304602F079FD0028EFD004F1380609
:102EB0000021304602F077FF0028E7DD0021304690
:102EC00002F06BFD0028DAD1E0E70DB90020F8BD73
:102ED000002104F1440002F066FF0028D6DD002145
:102EE00004F1500002F05FFF0028CFDD002104F163
:102EF0005C0002F058FF0028E8DCC7E780BFFFFF56
:102F000070B500210446FFF79FFF0546B8B904F1EC
:102F10000806304602F052FD7F2810D914342946A5
:102F2000204602F03AFD50B1204602F047FD01284C
:102F300005D93146204602F0F3FE002800DB014DA2
:102F4000284670BD00BEFFFFF0B50C4687B00021DB
:102F500005461646FFF778FF80BB03A802F097FCF2
:102F600021466A6803A802F04BFD0446D0B905F17A
:102F70000804214603A802F0D3FE00281BDA05F15D
:102F8000680303A9009305F11402234608466F68FD
:102F900003F04BFA044628B93A46314603A802F03A
:102FA00065FD044603A802F078FC0CB1A4F5854445
:102FB000204607B0F0BD6FF00304F3E7004CF7E7DD
:102FC00080BFFFFF0023C0E90033C1B9194A1A4B83
:102FD000DFF88CC0C0E90223184B194AC0E904C3CA
:102FE000184BC0E90623184B036203F17453A3F591
:102FF0002303A3F692434362816600207047134B7C
:10300000134ADFF860C0C0E9022303F1794303F5F6
:10301000740303F5016303610E4BC0E905C303F1BB
:10302000D14303F5C01303F51E63C3610A4B03626A
:103030000A4BE0E767E6096A85AE67BB3AF54FA53C
:103040007F520E518C68059BABD9831F07D57C3608
:10305000D89E05C1310BC0FFA78FF964A44FFABEFB
:1030600072F36E3C39590EF72DE9F04FD1B000F1F3
:103070000803059308AB009300F128030693009A18
:10308000059B53F8040B42F8040B06989842F8D1BC
:103090000DF1400901F140004A464B780C781B04C1
:1030A00043EA0463CC7823438C78043143EA042355
:1030B000884242F8043BF0D1009B00999B48D3F82A
:1030C0001CC0D3F81080C9680190D3E9056BD3E91F
:1030D00000729B68CA468646DEF80000DAF80040B7
:1030E0004FEAF82585EAB815204485EA7865054455
:1030F0008BEA060000EA080080EA0B00054447EA74
:1031000002044FEA7730AC4480EAB70007EA0205D0
:103110001C4080EAB7502C430444DEF80450DAF82F
:10312000040005446144AB4488EA06050D40A4440C
:1031300085EA06040BEB04054FEAF12B8BEAB11B81
:103140008BEA716BAB444CEA07004FEA7C350CEA22
:10315000070485EABC051040204385EABC55DEF82B
:1031600008400544DAF8080004445B44264481EA38
:1031700008041C405D4484EA080B06EB0B044FEA8C
:10318000F32686EAB31686EA736626444CEA0500FF
:103190004FEA75340CEA050B84EAB504384040EA7E
:1031A0000B0084EAB554044434443244DEF80C0085
:1031B000DAF80C6081EA030B30440BEA020B4FEAA9
:1031C000F2268BEA010B404486EAB216584486EA9E
:1031D0007266064407EB06084FEA743045EA0407B6
:1031E00005EA040B80EAB40007EA0C0747EA0B077C
:1031F00080EAB45038443044DAF81070DEF81060D9
:1032000083EA020B3E4431440BEA080B4FEAF826EE
:103210008BEA030B86EAB816594486EA78660E44B0
:1032200044EA00074FEA703104EA000B81EAB0017A
:103230002F4047EA0B0781EAB05139443144B44486
:10324000DAF81470DEF8146082EA080B3E44334466
:103250000BEA0C0B4FEAFC268BEA020B86EABC1643
:103260005B4486EA7C661E4405EB060B4FEA71332D
:1032700040EA010500EA0107254083EAB1033D4326
:1032800083EAB1532B443344DEF81850DAF818605F
:103290003544154488EA0C0202EA0B0282EA080768
:1032A000EA194FEAFB2585EABB1585EA7B651544DB
:1032B00066194FEA733241EA0304044001EA030746
:1032C00082EAB3023C4382EAB35222442A44DEF843
:1032D0001C40DAF81C506719B8448CEA0B073740D9
:1032E00087EA0C0747444FEAF62888EAB61888EAC6
:1032F0007668474400EB070843EA02044FEA72305D
:1033000080EAB2000C4003EA020580EAB2502C4386
:10331000044407480EF1200E704527440AF1200AA4
:103320007FF4DAAE09F1C000079003E0F077000007
:1033300030780000D9F83800D9F80450D9F80040A6
:103340004FEAF04E8EEA704E8EEA902ED9F82400A5
:103350004FEAB54A20448AEAF51A8AEAD50A864431
:103360004FEAF8240EEB0A0084EAB814049084EAC9
:1033700078608BEA060404EA080484EA0B04044437
:103380000198006C2044049CC9F8404020448444C7
:103390006144029147EA02004FEA773107EA0204EA
:1033A00081EAB701184081EAB75120430844D9F8AF
:1033B0003C10D9F8084084444FEAF14080EA71405B
:1033C00080EA9120D9F8281029440144029888EA1B
:1033D000060E0EEA000E01984FEAB445406C85EAED
:1033E000F41585EAD4052944584408448EEA060EAB
:1033F00086440298C9F844104FEAF02585EAB015D2
:1034000085EA706505EB0E0003EB000B4FEA7C3597
:1034100047EA0C0307EA0C0E85EABC05134043EAB1
:103420000E0385EABC551D44049BD9F80CE0054405
:103430004FEAF34080EA734080EA9320D9F82C30B9
:1034400023440344029888EA000A01984FEABE44E4
:10345000806C84EAFE1484EADE0423440AEA0B0A40
:1034600030444FEAFB2418448AEA080A84EABB1471
:1034700084EA7B64824404EB0A0002444CEA0504BB
:103480004FEA7536039286EAB5060CEA05023C401F
:1034900086EAB5561443344404444FEAF14080EAC6
:1034A000714080EA9121D9F83000D9F81020C9F88C
:1034B0004830864471444FEAB24E8EEAF21E8EEADC
:1034C000D20E8E440299039881EA0B0101400298C2
:1034D00041400198C66C0398C9F84CE046447644D4
:1034E0003144039E4FEAF02080EAB61080EA76600D
:1034F000461845EA040005EA04014FEA743800EA78
:103500000C0088EAB40808434FEAF34188EAB4584B
:1035100081EA7341404481EA9323D9F8341030445E
:1035200007EB060AD9F814600A4413444FEAB6427E
:1035300082EAF61282EAD6021A44039B0299C9F87B
:1035400050208BEA0307019B1B6D13440B4407EAD1
:103550000A074FEAFA2187EA0B0781EABA111F44EA
:1035600081EA7A61CB1944EA00074FEA703104EA34
:10357000000881EAB0012F4047EA080781EAB0510C
:10358000394419449C44D9F81880D9F838304FEAA6
:10359000FE4787EA7E4787EA9E2E9F194FEAB84387
:1035A00083EAF81383EAD80377441F44039BC9F8DE
:1035B000547083EA0A0E0EEA0C0E8EEA030E019B8B
:1035C0005B6D3B445B449E444FEAFC2383EABC139F
:1035D00083EA7C6303EB0E0605EB060B4FEA7133BF
:1035E00040EA010500EA010E254083EAB10345EAFD
:1035F0000E0583EAB1532B443344D9F83C50D9F833
:103600001CE04FEAF24686EA724686EA922205EB11
:10361000080616444FEABE4282EAFE1282EADE0241
:103620001644019AC9F85860956D039A35448AEAA0
:103630000C08154408EA0B084FEAFB2288EA0A083E
:1036400082EABB12454482EA7B62154466194FEA5E
:10365000733241EA0304044001EA030882EAB30238
:1036600044EA080482EAB35222444FEAF74484EA67
:1036700077442A4484EA9727D9F82050049CA6442A
:103680004FEAB54484EAF51484EAD505019C7744F1
:10369000E46D3D448CEA0B0E2C440EEA060E4FEA14
:1036A000F6278EEA0C0E544487EAB617744487EA6C
:1036B0007667274400EB070843EA02044FEA7230BA
:1036C000C9F85C5080EAB2000C4003EA020580EAC7
:1036D000B2502C430444019820300190079809F11E
:1036E0002009484527447FF425AECDE90D6BCDE98F
:1036F0000872CDE90A31CDF83CC0CDF83080059B89
:1037000000991B6851F8042B00911344059A42F864
:10371000043B069B05929342F1D1002051B0BDE8D5
:10372000F08F00BF08B5094B1A786AB901211970EA
:1037300006200521FEF7F4FF0620FEF7CDFF044B1F
:103740004FF00042C3F80423002008BD4B2B00209B
:10375000006000402DE9F3474F4F3E68012E69D1CC
:103760004E4A93681268DC69D2F80890D3E90225C2
:103770001540D3E905210A4325EA0205D9F80020BE
:103780001B69D2F810255C40544025EA0404B04679
:103790004FF0000A002D3AD13D603B680093009B3A
:1037A0003F4D002301279C46D5F8042307FA03F177
:1037B000114214D09A0002F1804202F5C24211680F
:1037C00001290CD103F5A27055F82000C2F800C001
:1037D00012680192C0F304208140019A0C43013326
:1037E000082BE1D144BB012E0ED12C4B9D681B68E8
:1037F000D3F80880D5E902341C40D5E905321343DB
:1038000024EA0304002774BB02B0BDE8F08715EA80
:10381000080F0AD099F804300AF01F00002140EA8E
:10382000431003F076F925EA08050AF1010A4FEA88
:103830004808AFE70024B3E7184FD7F80880D8F856
:1038400000100029CFD00D68D8F80C308A682340CA
:10385000134203D04B68224638469847002DC2D009
:1038600029462D68F0E7264212D02B69E9695940B4
:10387000F94098F8043001F00101C1F1030107F0AB
:103880001F00C9B240EA431003F043F924EA0604DA
:1038900001377600B7E700BF7C6100407C5D002007
:1038A00000600040F7B5036887689B6801F01F055A
:1038B0000E464D491879D1F8042345EA4015D2B295
:1038C000002303F5A27051F82000C0F304208542C4
:1038D00070D122FA03F0C0076CD59A0002F1804241
:1038E00002F5C042D2F8100520F00100C2F8100520
:1038F000012202FA03F3C1F808332846002103F03D
:1039000008F9BB68F34013F0010051D0FB68F340A5
:1039100013F001004CD07B69F34013F0010455D043
:10392000BB69F340DB0749D43B69F969F34021FAED
:1039300006F603F0010306F00106B34214BF0126A8
:103940000226294F002404F5A27357F8230010F033
:10395000030035D1A20002F1804202F5C0422D02DF
:10396000D2F8101521F4473121F44071C2F8101536
:10397000D2F8101505F4F85545EA06460E4304F151
:103980004001890089B201F1804101F5C041C2F8CE
:1039900010650860096801910199D2F8101541F08D
:1039A0000101C2F81015012202FA04F4C7F8044319
:1039B00003B0F0BD0133082B83D19EE70326C0E797
:1039C0000134082CBFD16FF01200F1E73969FB69AF
:1039D0005940F14001F00101C1F103012846C9B28B
:1039E00003F097F82046E3E70060004030B5054655
:1039F00085B0002201210420FEF792FE0D4B2868BD
:103A000000934FF08043002402930B4A8068019496
:103A10002B4669460394FEF76DF8084B984205D192
:103A2000A86803F0EDF9204605B030BD6FF00F0037
:103A3000FAE700BF1C1B1AFF416E00000000AD0B2F
:103A40007FB58568EA6B6B6C8AB9002B33D11C4655
:103A500000221146284603F0A9F96C6205F1140012
:103A600000F04AFF002385F84C3004B070BD1146C9
:103A700013B19A4228BF19460068AC6B8068009465
:103A80008668B14228BF3146A964B4B1002A18BF84
:103A90000A4601922A6C02928AB1002B18BF0B468B
:103AA000002269460393FEF7CFF8064B9842DCD01C
:103AB0006FF00404CCE71946DEE72246E9E7134637
:103AC000EEE700BF0000AD0B2DE9F04780468068AF
:103AD000894604304FF0FF311E46174600F032FF92
:103AE000D8F80840236899455CD0B9F8043041F60D
:103AF0000901194040F0A680C3F34513082B40F09C
:103B0000A180D9F80020514B9A4240F29B80D8F80E
:103B10000030D9F808209D68C4F800908AB1106878
:103B200078B143685268D3F800A00123D0472268D7
:103B30009368B2F90420D243D3E90001D20F03F015
:103B40002CF92A68B9F80450A90705F0040356D5E2
:103B5000002B14BF03230223022BC5F3001552D000
:103B6000032B53D0012B01D145F00205D9F80010E9
:103B7000374BC2F8545599424BD9364B99424BD9E1
:103B8000354B99424BD9354B99424BD9344B9942DD
:103B90004BD9344B994234BF4FF080414FF0004134
:103BA000C2F82415012384F84C30002F40D03B6824
:103BB0007A68A362E2621A685B68A263E363002E1C
:103BC0003BD033687268236362631A685B6822645F
:103BD0006364002262620121204603F0E7F8404658
:103BE000FFF72EFF4FF0FF3104F1140000F0AAFEA2
:103BF000656A201D00F080FE2846BDE8F087003B86
:103C000018BF0123A8E745F00405AFE745F0060516
:103C1000ACE74FF00071C3E74FF08061C0E74FF0B1
:103C20000061BDE74FF08051BAE74FF00051B7E7B0
:103C3000C4E90A77C4E90E77C1E7C4E90C66C4E9B0
:103C40001066C6E76FF01505D3E700BF47E801002F
:103C50008FD003001FA107003F420F007F841E008A
:103C6000FF083D0000127A00024B0B600123136035
:103C7000704700BFDC0C002030B50546806887B077
:103C80004FF0FF3201211C3003F0D5FB2248AC6815
:103C900000F04EFB2060002837D0DFF88CC01F48B2
:103CA0004FF48073C4E904C300F042FB606078B352
:103CB0001D200123C4E90203231DA3610322002365
:103CC000CDE9012305AA0092A8681A469F2103F0B6
:103CD000F7F8B8B99DF815309DF814201B0243EA97
:103CE00002439DF8162013430D4A934218BF6FF00C
:103CF00012000C4B4FF400714FF48052C3E90012D4
:103D000007B030BD6FF00400F3E76FF01500F0E787
:103D10006FF01200EDE700BF977F0000D37900003D
:103D20001540EF00DC0C002040A5AE02024AD2F89C
:103D30000034002BFBD0704700E00140024B0B60C9
:103D400001231360704700BF100D0020012208B549
:103D50001146064803F06FFB4FF08052044B516947
:103D6000196012695A60002008BD00BF180D0020BC
:103D7000100D0020F8B50D464FF08057114628462B
:103D80003E69144603F03EFA48B3B5FBF6F306FB72
:103D9000135323BBB4FBF6F006FB1040F8B9A64260
:103DA0001CD84FF0FF310F4800F0CCFD0E49022324
:103DB000D1F804653869C1F80435FFF7B7FFC1F8D9
:103DC0000855FFF7B3FF241A0544F8D1C1F804657C
:103DD000FFF7ACFF034800F08FFD2046F8BD6FF001
:103DE0001500FBE7180D002000E0014010B50A485F
:103DF0000C464FF0FF3100F0A5FD084B4CB10022FE
:103E0000C3F80425FFF792FF034800F075FD00207A
:103E100010BD0122F4E700BF180D002000E00140B2
:103E20002DE9F3410D462846194616461C4603F077
:103E3000E9F9002845D0002C46D024484FF0FF3146
:103E400000F080FD15F0030017D025F00308C0F145
:103E50000407A742D8F80030019328BF274601ABDA
:103E6000314618443A4601F0C3F9FFF75FFF019B62
:103E7000C8F800303D443E44E41B24F00301002711
:103E800004E0FFF753FFF359EB5104378F42F8D1A9
:103E9000A2086FF0030303FB0242F11942B1EB5990
:103EA000019301A801F0A4F9FFF740FF019BEB513A
:103EB000FFF73CFF054800F01FFD002002B0BDE801
:103EC000F0816FF01500F9E72046F7E7180D0020A4
:103ED000054B1B682BB9054B1878003818BF01201B
:103EE00070470120704700BF1C2100404C2B002070
:103EF000024BD3F88004C3F88004704700200040D0
:103F0000024B0422C3F80423704700BF0020004086
:103F1000024B0422C3F80823704700BF0020004072
:103F2000024B1868003818BF012070470821004074
:103F3000024B4FF40072C3F8042370470020004086
:103F4000024B4FF40072C3F8082370470020004072
:103F5000024B1960024B1A60704700BF280D002009
:103F60002C0D0020034B8022C3F808230122DA60C5
:103F700003F0B4B90020004008B503F0AEF90D4BD2
:103F800001221A608022C3F8FC224FF02002EFF3D6
:103F9000118382F31188BFF36F8F074A12781AB129
:103FA000064A0421C2F8001183F31188BFF36F8F12
:103FB00008BD00BF082000404C2B002000E100E0BD
:103FC00030B54B79012B22D18B79032B1FD1CC79C2
:103FD0002CB1012C1BD103689B681B78BBB10A79FB
:103FE00012B1022A13D10E220B68B3F5164F5FD01F
:103FF0002BD8B3F5165F5DD014D8B3F5966F5BD0B0
:1040000008D8B3F5967F5AD0B3F5167F5AD06FF023
:1040100022004CE0B3F5166F57D0B3F5965FF6D19A
:10402000344B39E0B3F5E14F52D007D8B3F5615FB7
:1040300050D0B3F5964FEAD12F4B2DE047F612251D
:10404000AB42E4D14FF4000326E0B3F5613F44D026
:1040500011D8B3F5963F42D008D84DF6C025AB42F3
:104060003FD0B3F5614FD2D1244B15E0B3F5E13F1A
:10407000CDD1234B10E0B3F5612F35D007D8214DBA
:10408000AB4233D0B3F5E12FC1D11F4B04E01F4D3C
:10409000AB42BCD14FF080531D4D2243C5F82435AF
:1040A000C5F86C25836803C983E80300002030BD90
:1040B000184BF1E7184BEFE74FF49E23ECE74FF472
:1040C000A033E9E74FF41C33E6E74FF41D23E3E7A1
:1040D000124BE1E74FF46C13DEE7114BDCE7114BB9
:1040E000DAE74FF46503D7E70F4BD5E74FF080636E
:1040F000D2E700BF00B0130000A04E0000F0EB00BC
:1041000000E0D70190D0030000705F0740420F002D
:104110000020004000509D000050270000F0750076
:1041200000B0AF0300903A0100D0BE0E08B50C4BB2
:10413000D3F8042312F0800F1A4605D1D2F80403F5
:1041400010F0040006D108BDFFF7C2FE0028F5D02C
:104150000120F8E7034B1868003818BF0120F2E788
:104160000020004008210040084B1A6882B022B1AC
:1041700000221A601B680193019B054B1B681BB151
:10418000044A106802B0184702B07047242100406A
:10419000280D00202C0D0020F7B50023094C0A4FF4
:1041A0001E46D8B2151A002D02DD256801330DB95F
:1041B00003B0F0BD266025680195019DD7F818551C
:1041C0000D54EEE7082100400020004007B50B4ADF
:1041D0000023136012680192019A094A1370094B77
:1041E00001221A60C3F81415FFF772FE0028FBD0F5
:1041F000054B01221A6003B05DF804FB1C2100404E
:104200004C2B0020082000400C200040084B1A686E
:1042100082B052B1002018601B680193019B054BCE
:10422000D3F818350B7002B070474FF0FF30FAE743
:1042300008210040002000404FF0A04337B51C4D3E
:104240004022C3F80825032100220824C3F81817C8
:10425000C3F82027C5F814450624C5F80C452024CA
:10426000C3F80845C3F81417C3F81C270523C5F87D
:10427000083507238168C5F81035FFF7A1FE04460D
:1042800090B90423C5F800350A4B18601B680193E8
:10429000019B094B01212960024602201970FEF79B
:1042A0003FFA0220FEF718FA204603B030BD00BFE7
:1042B00000200040082100404C2B00202DE9F34154
:1042C0000D4E0E4FDFF838800024E5B2531B002B53
:1042D00003DDFFF7FDFD013418B9284602B0BDE843
:1042E000F081002333603068019001983B704B5D92
:1042F000C8F81C35E9E700BF1C2100404C2B00200A
:1043000000200040094B70B553F8204001300026D2
:1043100053F82050A54200D870BD236820465B6842
:10432000984700B166600C34F4E700BFA479000040
:10433000104B70B5104C05461E469C4204D10E4CE5
:10434000B44209D1002412E062681AB122681268EE
:10435000AA420CD00C34F0E763680BB90C34EFE7D9
:1043600023682846196800F027FF0028F6D1204668
:1043700070BD00BFAC5D0020105D00200248034A04
:104380000021121A00F05FBF00000020502B002017
:1043900008B50648064A0749121A00F029FFBDE889
:1043A0000840054A0549064800F022BF905C0020FD
:1043B000C05D0020E07F000000000000E07F000002
:1043C0000000002008B50220FFF79CFF074800F01E
:1043D0002AFE0320FFF796FF00F03EFBFCF748F8AB
:1043E000034A137B23F00103137308BD9E7F000073
:1043F0009C0D002080B53D4BA2B083F308883C4B58
:104400003C4E5A693C4D42F400725A610024E0224D
:1044100083F82220DC771C765C769C765A6A42F41C
:10442000E0225A62FEF750F9FEF7BCF907AB2146CD
:104430006C22184600F007FF0127B06020468DF877
:104440002970FFF75FFF3846FFF75CFF00F042FA84
:104450002A4B35624FF42052CDE90473CDE9024472
:10446000CDE90044264B2749284600F0DDFA6B7B56
:1044700023F0040213F01B0F6A73344604D1AB69B6
:1044800013B9284600F000F91F4B204E0593012276
:104490000F23CDE9033200231D4900934FF4A0728E
:1044A0003046CDE901331B4B00F0BEFA737BE6606A
:1044B00023F004037373184BC4E90633FEF75AFA6A
:1044C0000D48A56000F070FE0D4B144A184682F3AB
:1044D000098863B64FF0000181F31188BFF36F8F35
:1044E00000210022002300F084FD00BF905C00202A
:1044F00000ED00E0080E00209C0D0020D67F00009B
:10450000C5430000502B0020DB7F0000300D002051
:104510005053002021750000200E00205053002031
:10452000EFF305800D2809D828B1054B586880F4B1
:104530000060C0F3C02080F0010070470120FAE75E
:1045400000ED00E008B5FDF7CFFE054A0346106810
:10455000044A034413610021BDE8084002F0C6BFCD
:104560003C0E0020080E0020F8B505460C464FF022
:104570002003EFF3118683F31188BFF36F8F0C4B89
:104580000C4800224FF4004700211A61C7FB0501C7
:104590004FF4A0220023FBF7A1FD074B1860074B47
:1045A0001C60FFF7CFFF86F31188BFF36F8FF8BD54
:1045B000080E0020FFFF04003C0E0020380E0020F3
:1045C0004FF02003EFF3118183F31188BFF36F8F56
:1045D000044B9A68D37B013BD37381F31188BFF3FB
:1045E0006F8F7047080E0020094B03F124028242AE
:1045F00005D19B688B4202D14B7BDB0606D1D1E90A
:10460000003213605A600023C1E90033704700BFD5
:10461000080E002038B50D4C024604F1240002F0CB
:10462000A7FE054600B9E568A3684AB95A7BD206D9
:1046300006D1AA6922B9DA897F2A01D9236238BD55
:104640009D4201D0FFF77EFF2562F8E7080E0020AB
:1046500010B54FF02003EFF3118483F31188BFF3FB
:104660006F8F084B9A68D37B0133D3730120FFF718
:10467000D1FF84F31188BFF36F8FBDE8104002F0C3
:104680006DBE00BF080E0020F8B54FF02003EFF319
:10469000118483F31188BFF36F8F154A114651F8C7
:1046A000243F8B421DD0E3B1966A90F90E5093F9E6
:1046B0000E70AF4210DD5A68C0E9003210605860D9
:1046C000437B43F0400343730020FFF7A3FF84F3D1
:1046D0001188BFF36F8FF8BDB34202D01B68002B67
:1046E000E5D1936A4360936A016018609062E7E7DE
:1046F000080E0020F8B501464FF02003EFF31185B6
:1047000083F31188BFF36F8F184C04F12400FFF777
:104710006BFF636A8342224620D0FBB1A66A91F9FF
:104720000E4093F90E70A74213DD5868C1E90030BE
:10473000016059604B7B906843F040034B73431A10
:1047400058425841FFF766FF85F31188BFF36F8F1A
:10475000F8BDB34202D01B68002BE2D1936A4B60D4
:10476000936A086019609162E4E700BF080E0020B8
:1047700038B5164A164B146801469868A0421C4684
:1047800003D1BDE83840FFF7DDBE00251560114AB2
:104790001268BAB1C2897F2A14D80F4A90F90E5014
:1047A000126895420EDB0D4A126890420AD0826967
:1047B00042B91A698A4202DCFFF79CFFE1E7521A0C
:1047C0001A6138BD00232361FBE700BF340E0020CF
:1047D000080E00203C0E0020380E0020BC7900009E
:1047E00010B501464FF02003EFF3118483F31188D5
:1047F000BFF36F8F437B5A0606D50948FFF7F4FED7
:104800004B7B23F040034B73064B9868431A584286
:104810005841FFF7FFFE84F31188BFF36F8F10BD7F
:104820002C0E0020080E002070B504460D461646DA
:10483000FFF7D6FF637B43F0020363737DB12B6800
:10484000A5609D4226D02BB394F90E2093F90E104B
:10485000914219DD5A68C4E9003214605C60731C2F
:104860001FD010484FF4004500214FF4A022C5FB93
:1048700006010023FBF732FC0B49421C04F118002F
:10488000BDE8704000F08AB969688B4202D01B68AD
:10489000002BDBD16B6863606B6825601C606C600B
:1048A000DDE770BDFFFF04007D73000010B50C460E
:1048B0001146064A9068064A10601A46FFF7B4FF90
:1048C0002046BDE81040FDF761BD00BF080E002086
:1048D000340E0020044B002103F12402C3E9092215
:1048E0000846FFF741BE00BF080E0020014B986844
:1048F000704700BF080E002070B505464FF020033A
:10490000EFF3118683F31188BFF36F8F02F066FD1A
:10491000044670B1437BDB0603D183690BB9FFF713
:10492000B3FE0023A36631460548BDE8704002F09F
:10493000F8BCD5E902329A4218BF0133AB60F2E706
:104940004D2B002002460B464FF02000EFF3118163
:1049500080F31188BFF36F8F906838B10138906091
:1049600081F31188BFF36F8F0020704733B981F353
:104970001188BFF36F8F6FF00F0070470148FFF78A
:1049800095BF00BF4D2B0020EFF305800D2807D801
:1049900038B1044B586880F40060C0F3C020704701
:1049A0000120704700ED00E0024B9B68187B00F08F
:1049B00001007047080E0020014638B5074A002361
:1049C000C003490CFBF7DAFB0446FDF7ABFC0546D8
:1049D000FDF7A8FC431BA342FAD338BD40420F00A9
:1049E00010B502464FF02003EFF3118483F31188D2
:1049F000BFF36F8F437B590704D484F31188BFF34F
:104A00006F8F10BD23F00403437302F019FD10B142
:104A10001046FFF739FE21460248BDE8104002F07B
:104A200080BC00BF4D2B002030B587B004460E9DE2
:104A300004950D9D03950C9D02950B9D01950A9D76
:104A40000095FDF785FE034B9B6803B11B6E236643
:104A500007B030BD080E00202DE9F04F284E294D3B
:104A600087B0B046B54205F130040FD3FFF7A8FD7B
:104A7000244C254EDFF894A04FF40049002744450C
:104A800021D307B0BDE8F04FFFF7E2BD54F8043C76
:104A9000059354F8103C049354F8143C039354F8D1
:104AA000183C029354F81C3C019354F8203C0093AA
:104AB00054E90A2354E90C01FFF7B6FF54F8303CDF
:104AC000DD642546CEE7616A4B1C04D0256821B918
:104AD0002846FFF785FF3034D1E7B346BC46C9FB13
:104AE00001BC4FF4A022002358466146FBF7F6FABA
:104AF0005146421C05F1180000F050F8EBE700BFEA
:104B0000AC5D0020AC5D0020FFFF04007D73000061
:104B1000034B1B680BB9FDF7E7BB0020704700BFD4
:104B2000400E0020036840B1074A5268904204D00A
:104B30001BB19A6881680A449A60426813605A609F
:104B40000023C0E900337047085D002038B5104BE2
:104B50001B78002B0F4B1C6814BF4FF0FF306FF019
:104B600000409C420AD04CB1A568FFF7D1FF2D1A36
:104B7000002D0ADBA468FFF7CBFF201A064B1B6948
:104B800013B19842A8BF184638BD0020F6E700BF11
:104B90004D2B0020085D0020080E002070B5044653
:104BA0001646C1604FF02003EFF3118583F311889F
:104BB000BFF36F8FFFF7ACFF184B1A68012EACBF25
:104BC000801901309A42A06001D05E6832B95A68FB
:104BD00062605A68236014605C600AE09068A168B3
:104BE000884215DD411A91605168C4E900210C60CA
:104BF00054601A689A4206D0944204D1FFF7A6FF87
:104C00000021FDF735FB85F31188BFF36F8F70BD71
:104C1000091A9642A160DAD01268D7E7085D002031
:104C20002DE9F0470646FFF7A3FD4FF02003EFF311
:104C3000118483F31188BFF36F8F204DDFF88080DC
:104C4000DFF880A02E60C146DAF800002A685045DF
:104C5000D8E9006705D020B18368934213DD9B1A21
:104C60008360B61847EBE277C9E9006700262E603B
:104C7000FFF76CFF3146FDF7FBFA84F31188BFF3B1
:104C80006F8FBDE8F087F61847EBE377D31A2B60F8
:104C900000238360C8E90067FFF744FF84F31188AD
:104CA000BFF36F8FC36898474FF02003EFF3118471
:104CB00083F31188BFF36F8FC6E700BF400E00205B
:104CC00000000020085D002038B5074C074DAC42BD
:104CD00001D3002038BD04F114032046C4E9053394
:104CE00000F03DF91C34F2E7AC5D0020AC5D002023
:104CF000704708B9086070476FF015007047FF20D3
:104D0000704738B515461C4600F0BEF958B9034641
:104D1000DAB2944201D8012004E0AA5CFF2A03F130
:104D20000103F5D038BD4FF0FF30FBE773B50D46FA
:104D30001646FBF7D5FB6946C0B2FDF761F830B106
:104D40000124009800F09FF9204602B070BD288928
:104D5000E968042301440DEB0302009800F094F984
:104D600004460028ECD1BDF8042046F607139A4209
:104D700001BFEA68BDF806309B182A8906BF9B1858
:104D800033600324DDE737B50D46044601A904204E
:104D900000F081F8A979012902D0204600F08EF8B0
:104DA0009DF80730012B02D1204600F082F8A96857
:104DB000204600F088F82046FCF7FCF8002003B0FD
:104DC00030BD70B504460D461646FBF783FC3246EF
:104DD00029462046BDE8704000F09CB9F7B50D4665
:104DE0001746044600F0BCF906462046FFF787FF49
:104DF00008220146684600F026FA33466A462946EC
:104E000020468DF8007000F05CF9003818BF0120D2
:104E100003B0F0BD042809D0052803D1481E18BFEF
:104E200001207047431A584258417047012070478B
:104E30004FF4C0735843303070470378012B06D0CD
:104E4000033B012B94BF4FF4C07007207047032031
:104E5000704710B5044600F083F9A3684FF4C072A0
:104E6000303B02FB103010BD80682838704713B506
:104E70000C46C0B201A9FCF7C3FF50B92146019806
:104E8000FCF700F80446019800F0FDF8204602B057
:104E900010BD0124FAE7012802D0C31E012B01D85E
:104EA000FFF7E5BF07207047816801222039FFF72F
:104EB00095BF816801221839FFF790BF0A468168C3
:104EC0002839FFF78BBF7FB5019181680446A1F1B6
:104ED000300600F045F905462046FFF710FF08228E
:104EE00001460DEB020000F0AEF904220DEB0201C9
:104EF00002A800F07DF9042D38BF0425EBB202AA08
:104F00003146204600F0DDF8003818BF012004B01B
:104F100070BD70B5C66890F90B000C240D464C436B
:104F2000A84206EB0401B8BF3159002A1046B8BFA9
:104F300002F11F00401101EB8001196002F01F0017
:104F400070BD07B501ABFFF7E4FF019A012303FA37
:104F500000F013680343136003B05DF804FB2DE910
:104F6000F84343680689056890F80AC05E43FF224B
:104F70000446C272354400204FF00C0E844505DC17
:104F800000252389AB4221DCBDE8F883D4F80C80EE
:104F9000B6FBF3F10EFB00F708EB070202F1040980
:104FA0001F29C2E9019906DCE0729B08033323F054
:104FB00003030130E2E711F11F0248BF01F13E0295
:104FC000521148F8075005EB8205EEE76168E36887
:104FD0002268694350181E1D56509A6842609A68AC
:104FE0000021106098602A462046FFF7AAFF01358D
:104FF000C7E708B50446084611461A46A047FFF71A
:1050000075FCFDF74DFC0020704770B504460D4659
:105010004520A04729465220A04729462346522032
:10502000BDE8704018470FB407B504A951F8040B48
:105030000191FCF7D1FB03B05DF804EB04B07047BD
:10504000704700474368DB68184770B502684C68D2
:10505000A24216D38B6823449A4206D2D1E9043582
:10506000AB4204D36FF00B038B6100200AE0CD68E4
:10507000121B05EBC30645F833204268726001330A
:105080000B61012070BD70472DE9F0411E46836819
:105090008B4205460C4617460FD3721893420CD329
:1050A000C068FFF745F9436869681D683A463346AA
:1050B0002144AC46BDE8F04160474FF0FF30BDE809
:1050C000F0812DE9F843984683688B4207460E46E7
:1050D00091461CD308EB0102934218D3C068FFF736
:1050E00027F900210546FFF7ADFF044660B96B685C
:1050F00079685C68314443464A462846A047012106
:1051000004462846FFF79EFF2046BDE8F8834FF08F
:10511000FF34F9E783688B422DE9F04107460E46DC
:1051200090461AD30A44934217D3C068FFF700F998
:1051300000210546FFF786FF044658B979686B6879
:1051400031449B6842462846984701210446284638
:10515000FFF778FF2046BDE8F0814FF0FF34F9E714
:1051600008B5C068FFF7E4F84368187D08BD4368D8
:105170005B68184708B5002210460121FDF7D0FAF8
:105180000020FDF7A9FA002008BD70477047FDF721
:1051900015BB01460068FDF725BB08B5FDF7D0FB40
:1051A000BDE80840FDF7D8B807B5002101A8FDF714
:1051B0008DFC03B05DF804FB431E013913F8012F89
:1051C00011F8010F824201D1002AF7D1101A70475D
:1051D00010B55AB10139841810F8012B11F8013FAC
:1051E000A04201D09A42F7D0D01A10BD1046FCE779
:1051F000F0B581EA0004A50703460BD0013B0A4441
:1052000091421BD1F0BD002AFCD011F8014B03F8EC
:10521000014B013A9C07F6D122F003041D1F9608AA
:105220000F19B94205D16FF0030505FB062223448F
:10523000E4E751F804CB45F804CFF2E711F8014B4D
:1052400003F8014FDCE770B5C9B203469C0711D1E2
:1052500041EA012422F0030644EA04451E4494086E
:10526000B3420DD16FF0030505FB04221A449342AB
:1052700009D170BD002AFCD003F8011B013AE5E713
:1052800043F8045BECE703F8011BF0E74FF0FF3055
:10529000704700207047036870B5CD1A002D0DDDF2
:1052A00093F900601C78002E0BDB5C1C04601B78FB
:1052B00013600368C91A13688B4232D96FF05F001C
:1052C00070BD04F07F04013C032C27D8DFE804F014
:1052D0000209121E012DF1D05C78146002330360C4
:1052E000E7E7022DEADDB3F8014064BAA4B2146026
:1052F0000333F4E7032DE1DD9C785D78240244EA72
:105300000544DD782C4314600433E8E7042DD5DD33
:10531000D3F8014024BA14600533E0E76FF063006E
:10532000CEE70020CCE770B404680E1B002E07DD2A
:1053300026789E4208D10134046070BCFFF7ABBFF1
:105340006FF05F0070BC70476FF06100FAE737B52F
:105350000223154601AA0446FFF7E5FF40B9019A6A
:105360002168284600F04CFB2368019A134423600F
:1053700003B030BD0023F0B5161F1C46844203D194
:1053800002EB8402B3B9F0BD56F804CFACEB0305D1
:10539000356051F82470BD422CBF4FF0000E4FF025
:1053A000010EED1B9C452CBF73460EF101033560C9
:1053B0000134E3E71168C81A994242F8040B2CBF84
:1053C00000230123DEE72DE9F04384460D4602F178
:1053D00040044FF0000EBCF10F0F54F8408C05F163
:1053E000400504F1400400F2AE8004096FF00F059F
:1053F00005FB040007284FEA841901EB841502EB32
:10540000841440F28B8051F80960A3FB06671EEB01
:10541000060E2CBF4FF0010C4FF0000C18EB0E01E4
:1054200042F809106E68BC442CBF01220022A3FB85
:105430000667624492192CBF0121002101EB070C81
:10544000616852186260AE682CBF01210021A3FB85
:105450000667614489192CBF0122002202EB070C68
:10546000A2688918A160EE682CBF01220022A3FB6C
:105470000667624492192CBF0121002101EB070C41
:10548000E1685218E2602E692CBF01210021A3FBC4
:105490000667614489192CBF0122002202EB070C28
:1054A0002269891821616E692CBF01220022A3FBA9
:1054B0000667624492192CBF0121002101EB070C01
:1054C000616952186261AE692CBF01210021A3FB02
:1054D0000667614489192CBF0122002202EB070CE8
:1054E000A2698918A161EE692CBF01220022A3FBE9
:1054F000066762449219E6692CBF4FF0010E4FF027
:10550000000E92190EEB07012CBF4FF0010E4FF069
:10551000000EE2618E440838203420354FEA800CBA
:10552000214605EB8000854251F8042B40F09A811A
:105530006444236813EB0E0344F8043B4FF0010E60
:10554000F7D2BDE8F08355F8406CA3FB06671EEB6D
:10555000060E2CBF4FF001094FF000091EEB0806A4
:1055600044F8806C55F83C6CB9442CBF4FF00108EE
:105570004FF00008A3FB0667C84418EB060854F870
:105580007C6C2CBF4FF0010E4FF0000E16EB08069E
:1055900044F87C6C55F8386C0EEB07092CBF4FF0C3
:1055A000010E4FF0000EA3FB0667CE441EEB060E65
:1055B0002CBF4FF001084FF0000808EB070954F822
:1055C000787C17EB0E0744F8787C55F8346C2CBFC8
:1055D0004FF001084FF00008A3FB0667C84418EB22
:1055E000060854F8746C2CBF4FF0010E4FF0000EFB
:1055F00016EB080644F8746C55F8306C0EEB07098E
:105600002CBF4FF0010E4FF0000EA3FB0667CE44F7
:105610001EEB060E2CBF4FF001084FF0000808EB00
:10562000070954F8707C17EB0E0744F8707C55F8A6
:105630002C6C2CBF4FF001084FF00008A3FB06674D
:10564000C84418EB060854F86C6C2CBF4FF0010EE0
:105650004FF0000E16EB080644F86C6C55F8286CF9
:105660000EEB07092CBF4FF0010E4FF0000EA3FB0D
:105670000667CE441EEB060E2CBF4FF001084FF01C
:10568000000808EB070954F8687C17EB0E0744F88C
:10569000687C55F8246C2CBF4FF001084FF00008CF
:1056A000A3FB0667C84418EB060854F8646C2CBFCB
:1056B0004FF0010E4FF0000E16EB080644F8646C34
:1056C00055F8206C0EEB07092CBF4FF0010E4FF080
:1056D000000EA3FB0667CE441EEB060E2CBF4FF058
:1056E00001084FF0000808EB070954F8607C17EB3D
:1056F0000E0744F8607C55F81C6C2CBF4FF0010875
:105700004FF00008A3FB0667C84418EB060854F8DE
:105710005C6C2CBF4FF0010E4FF0000E16EB08062C
:1057200044F85C6C55F8186C0EEB07092CBF4FF071
:10573000010E4FF0000EA3FB0667CE441EEB060ED3
:105740002CBF4FF001084FF0000808EB070954F890
:10575000587C17EB0E0744F8587C55F8146C2CBF96
:105760004FF001084FF00008A3FB0667C84418EB90
:10577000060854F8546C2CBF4FF0010E4FF0000E89
:1057800016EB080644F8546C55F8106C0EEB07093C
:105790002CBF4FF0010E4FF0000EA3FB0667CE4466
:1057A0001EEB060E2CBF4FF001084FF0000808EB6F
:1057B000070954F8507C17EB0E0744F8507C55F855
:1057C0000C6C2CBF4FF001084FF00008A3FB0667DC
:1057D000C84418EB060854F84C6C2CBF4FF0010E6F
:1057E0004FF0000E16EB080644F84C6C55F8086CA8
:1057F0000EEB07092CBF4FF0010E4FF0000EA3FB7C
:105800000667CE441EEB060E2CBF4FF001084FF08A
:10581000000808EB070954F8487C17EB0E0744F81A
:10582000487C55F8046C2CBF4FF001084FF000087D
:10583000A3FB0667C84418EB060854F8446C2CBF59
:105840004FF0010E4FF0000E16EB080677442CBF08
:105850004FF0010E4FF0000EBE4444F8446CACF122
:10586000100CB8E555F8046BA3FB06781EEB070E89
:105870002CBF0126002612EB0E0246442CBF4FF02F
:10588000010E4FF0000EB64441F8042C4BE6002305
:105890000122C0E900238360704710B5044668B157
:1058A000806830B161688900FDF7C6FAA068FDF72D
:1058B000B3FA00230122C4E90023A36010BD42F221
:1058C0001073994270B504460D4602D96FF00F006F
:1058D00070BD43688B4216D204212846FDF796FA24
:1058E00006460028F2D0A16859B162689200FFF71D
:1058F0007FFC6168A0688900FDF79EFAA068FDF74B
:105900008BFAC4E901560020E2E78842F8B5064662
:105910000F4603D08D681DB9FFF7BFFF002011E0CF
:105920004C68013C1CB155F82430002BF9D072684A
:105930003B6833600134A24205D221463046FFF76E
:10594000BEFF40B1F8BDB068121B9200002100EB11
:105950008400FFF778FCB968B068A200FFF748FC44
:10596000DCE770B50E4601210446FFF7A8FF0546A7
:1059700088B9626801469200A068FFF764FCA368DA
:1059800086EAE672002EA2EBE6721A60B4BF4FF010
:10599000FF3301232360284670BD4368B1EB431FEA
:1059A0003FBF4A09836853F8220001F01F013ABF44
:1059B00020FA01F101F00100002070470246406822
:1059C00088B19268431E7BB952F8231000204FF033
:1059D0000042114204D1013020284FEA5202F8D18E
:1059E0000133C0EB4310704752F823100029EBD16C
:1059F000013BE8E708B5FFF7E1FF0730C00808BD45
:105A0000F8B512F0030318BF012303EB92064368B5
:105A1000B34204460F4615461AD100212046FFF72F
:105A2000A0FF10BB791903469D421ED011F8012D2D
:105A3000D4F808C023F00307DE0006F0180602FAC7
:105A400006F65CF8072032434CF807200133EBE7F9
:105A5000FFF723FF00230122C4E90023A36031469E
:105A60002046FFF72CFF0028D7D0F8BDF8B5044634
:105A700008466368B2EB830F4FEA83051CD9521BBB
:105A80008E180021FFF7DFFB30462A4681180023DD
:105A90009A4213D10020F8BDA76823F0030C03F04D
:105AA0000301CE0057F80C10F14011F0FF0F11D197
:105AB0000133AB42F0D1E9E71346FAE7A76823F0D8
:105AC000030603F00300C500B859E84001F8010DD2
:105AD0000133DDE76FF00700DDE7F8B504460E4659
