:020000040000FA
:10000000E04E0020BD2E0000112F0000F12D000059
:10001000F12D0000F12D0000F12D0000F12D000068
:10002000F12D0000F12D0000F12D0000CD29000080
:10003000F12D0000F12D000089290000F12D0000B4
:10004000992E0000992E0000992E0000992E000094
:10005000992E0000992E0000992E0000992E000084
:10006000992E0000992E0000992E0000992E000074
:10007000992E0000992E0000992E0000992E000064
:10008000992E0000992E0000992E0000992E000054
:10009000992E0000992E0000992E0000992E000044
:1000A000992E0000992E0000992E0000992E000034
:1000B000992E0000992E0000992E0000992E000024
:1000C000992E0000992E0000992E0000992E000014
:1000D000992E0000992E0000992E000000000000CB
:1000E000C126000000000000D12D00006057002054
:1000F0007562000000000000D12D0000000000002B
:10010000D12D000000000000D12D000000000000F3
:10011000B95B000000000000D12D000000000000CD
:10012000D12D000000000000D12D000000000000D3
:10013000D12D000000000000D12D000000000000C3
:10014000D12D000000000000D12D000000000000B3
:10015000D12D000000000000D12D000000000000A3
:10016000D12D0000000000008528000000000000E4
:10017000D12D000000000000D12D00000000000083
:10018000D12D000000000000D12D00000000000073
:10019000D12D000000000000D12D00000000000063
:1001A000D12D000000000000D12D00000000000053
:1001B000D12D000000000000D12D00000000000043
:1001C000D12D000000000000D12D00000000000033
:1001D000D12D000000000000D12D00000000000023
:1001E000D12D000000000000D12D00000000000013
:1001F000D12D000000000000D12D00000000000003
:10020000D12D000000000000D12D000000000000F2
:10021000D12D000053B94AB9002908BF00281CBFDE
:100220004FF0FF314FF0FF3000F072B9ADF1080C24
:100230006DE904CE00F006F8DDF804E0DDE9022304
:1002400004B070472DE9F047089E04468846002B0D
:100250004BD18A42154667D9B2FA82F24AB1C2F14D
:10026000200701FA02F320FA07F7954047EA03084E
:1002700094404FEA154E230CB8FBFEF71FFA85FC9D
:100280000EFB178843EA084307FB0CF1994209D992
:10029000EB1807F1FF3080F01B81994240F2188182
:1002A000023F2B445B1AA4B2B3FBFEF00EFB1033EB
:1002B00044EA034400FB0CFCA44509D92C1900F1C5
:1002C000FF3380F00781A44540F2048102382C44BA
:1002D00040EA0740A4EB0C0400271EB1D4400023E1
:1002E000C6E900433946BDE8F0878B4209D9002EA4
:1002F00000F0EB800027C6E9000138463946BDE82A
:10030000F087B3FA83F7002F47D18B4202D38242A2
:1003100000F2FA80841A61EB030301209846002E54
:10032000E0D0C6E90048DDE702B9FFDEB2FA82F2AA
:10033000002A40F08F80491B4FEA154E1FFA85F8BE
:100340000127B1FBFEFC230C0EFB1C1143EA014309
:1003500008FB0CF1994207D9EB180CF1FF3002D2DF
:10036000994200F2CD808446591AA3B2B1FBFEF047
:100370000EFB101443EA044408FB00F8A04507D91B
:100380002C1900F1FF3302D2A04500F2B6801846C6
:10039000A4EB080440EA0C409FE7C7F1200CBB40E7
:1003A00022FA0CFE4EEA030E01FA07F420FA0CF5CD
:1003B00021FA0CF34FEA1E482543B3FBF8F92C0C45
:1003C00008FB19331FFA8EFA44EA034309FB0AF4C7
:1003D0009C4202FA07F200FA07F10BD91EEB030365
:1003E00009F1FF3080F087809C4240F28480A9F1BF
:1003F000020973441B1BADB2B3FBF8F008FB1033CA
:1004000045EA034400FB0AFAA24508D91EEB04049E
:1004100000F1FF336BD2A24569D90238744440EA37
:100420000940A0FB0289A4EB0A044C45C2464B4696
:1004300054D351D0002E69D0B1EB0A0564EB03040C
:1004400004FA0CFCFD40FC404CEA0505C6E90054EA
:10045000002747E7C2F1200320FA03F7954001FA8D
:1004600002F021FA03F34FEA154E3843010CB3FBB7
:10047000FEF71FFA85F80EFB173341EA034107FB2D
:1004800008F38B4204FA02F407D9691807F1FF3C1C
:100490002FD28B422DD9023F2944CB1A81B2B3FB14
:1004A000FEF00EFB103341EA034100FB08F38B42E0
:1004B00007D9691800F1FF3C17D28B4215D90238D1
:1004C0002944C91A40EA07473BE73746304609E75F
:1004D0000746E7E61846FBE64145ABD2B8EB020A11
:1004E00069EB0E0201381346A4E76046E9E71846B7
:1004F00095E76746D1E781467CE702382C4447E719
:10050000ACF1020C2B442FE7384608E73746E9E602
:10051000704700BF70B582B0054601A9007900F0B0
:1005200039F8AC68019B1C442B681D8966194FF093
:100530002002EFF3118382F3118802F0EBF9635983
:1005400083F308887368984702B070BD00B585B022
:1005500000F028F800F06EFA064800F00DF800B937
:10056000FEE701A800F0F2FC00B1FEE701A8FFF7EA
:10057000D1FFFEE72068000008B5054B1B6813B1EA
:10058000034B186808BD05F0FDFE014B1860F7E746
:100590000000002008B9086070476FF01500704730
:1005A0000130704708B54FF4C051024804F014FA06
:1005B00008BD00BF04000020134A936A526D802BCF
:1005C00005D8802A05D8934207D000207047002024
:1005D000704700207047002011E000229A4210D29C
:1005E00010B40949486AD40020444068096D214488
:1005F00049688142EFD101329A42F2D3012010BC06
:1006000070470120704700BF0818002002EB42032A
:1006100001FB02F200FB03207047000010B4024609
:100620000A4B9B6D9C680020002A0ADB074B5B6A23
:1006300003EBC2035B6803449C4202D3013A1846B1
:10064000F2E701320A6010BC704700BF08180020B2
:1006500038B5064C206A01F05CFF0546A06D01F03C
:1006600058FF854200D238BD2846FCE70818002014
:1006700030B583B002A9802341F8043D104B5A6A7B
:10068000012001F0BDFE18B10124204603B030BDA9
:100690000B4B019A9A6202A9802241F8042D1A6D2F
:1006A000022001F0ADFE044608B10124EDE7044D3F
:1006B000019B6B65FFF7CCFF85F85C00E5E700BFA9
:1006C0000818002000B583B06946012000F082FDC3
:1006D00001A9032000F07EFD002309E0134A02EB8C
:1006E00083029278CAB19DF801108A4215D0013375
:1006F000032B17D80D4A12F823201AB19DF80010C9
:100700008A42F4D1094A02EB83025278002AE5D0EA
:100710009DF804108A42EAD1E0E7044A02EB830321
:10072000D87800E0002003B05DF804FB48680000C2
:100730002DE9F04782B00646894600F00AFD804662
:10074000304600F0F9FC07460024A246254607E0A3
:100750002DB1BAF1000F02D1A24600E0012501340B
:10076000BC4214DA164B93F85C1001230DF107021A
:1007700004FB0181304601F04FFEE0B99DF80730DF
:10078000FF2BE5D0002DE9D0BAF1000FE7D09DB1E5
:10079000BAF1000F00D05446013C0A4B83FB0423FE
:1007A000A3EBE473C9F8003003EB4303E21A89F8C2
:1007B0000420002500E00125284602B0BDE8F087AE
:1007C000081800205655555530B583B005460C2203
:1007D000002102F029FCFFF775FF012805D004462F
:1007E00002280BD038B1072405E0032001A901F04D
:1007F000F1FD28B10124204603B030BD0120F5E70A
:1008000029460198FFF794FF0446019801F0F6FD90
:10081000F1E770B582B00D461646FFF7C1FE01A99B
:10082000C0B201F0D7FD30B10124019801F0E6FD1E
:10083000204602B070BD2889E96804236A46014455
:10084000019801F0E9FD044668B9BDF8002046F6BC
:1008500007139A4209D12B89EA681344BDF8022094
:1008600013443360E1E70124DFE70324DDE710B53B
:1008700082B00C46FFF794FE01A9C0B201F0AAFDB8
:1008800030B10124019801F0B9FD204602B010BD3D
:10089000202322460021019801F0BEFD04460028D5
:1008A000F0D00124EEE7000038B505460024012C05
:1008B0000FDC094B2C2101FB04312046FFF7D7FF49
:1008C000034608B90134F2E7002C03DD15B9002313
:1008D00000E00023184638BD0818002008B500F0D5
:1008E00025FD042807D0FF2804D0012801D00520C9
:1008F00000E0032008BD0220FCE710B582B001A98A
:10090000012001F067FDA8B96946019800F030FCAC
:10091000044668B99DF80230FF2B03D1019800F01E
:10092000D7FC0446019801F069FD204602B010BDD5
:100930000124F7E70124F8E710B582B001A90120EE
:1009400001F048FD18B10124204602B010BD019805
:1009500000F0B8FC0446019801F050FDF4E70000F7
:1009600000B585B000230293019300934FF4807388
:10097000054A00F089FD034618B9184605B05DF830
:1009800004FB0323F9E700BF7024002030B583B0D7
:100990001E4A2C2303FB00F3D518D358B3F1FF3FB5
:1009A0002AD02B6913F0100F29D10446FFF7F8FD68
:1009B00001A9C0B201F00EFD20BB2C2303FB04F300
:1009C000124AD258124B9A4203D06CB94FF0FF35FD
:1009D00019E001992846FFF7C3FF05460028F4D126
:1009E000019801F00BFD0EE001988268002101F0F2
:1009F00062FD4FF0FF3506E04FF0FF3503E04FF0AA
:100A0000FF3500E00125284603B030BD081800205E
:100A10003DB8F39610B500F089FC0446831E022B06
:100A200001D9204610BD0120FFF7B0FF0028F8D003
:100A30000524F6E738B50C4805F0A4FC0B4C206003
:100A400043681D68012304220021A8470021084BA8
:100A50001970206843685C680B460422A047054B68
:100A600041F288321A8038BD406800006C240020B2
:100A70000618002004180020104B1B88E3B1013B2E
:100A80009BB20E4A13800E4AA2FB0312920802EB9D
:100A9000420251005B1A9BB273B910B5094A137830
:100AA000B3FA83F35B091370074A1068426854680D
:100AB00004220021A04710BD704700BF0418002089
:100AC000ABAAAAAA061800206C24002030B583B077
:100AD0000C46154601A9C0B201F07CFC30B10124DE
:100AE000019801F08BFC204603B030BD2A46214618
:100AF000019801F0E0FC044608B10124F0E7FFF79B
:100B0000BBFFEDE7012803D0022814D00120704775
:100B1000002210B5094B2C2101FB0232936A013BE4
:100B2000526A02EBC30452F8331013686268C91AA0
:100B3000FFF7CCFF10BD0122EBE700BF0818002033
:100B40002DE9F04782B00C46904699460A9E002354
:100B50000193009301A9C0B201F03CFC60B10127F0
:100B6000019808B101F04AFC009808B101F046FC78
:100B7000384602B0BDE8F0876946E0B201F02AFCD1
:100B80000746E8B9002510E02346104A05EB0801A6
:100B9000019801F041FCA8B923460C4A05EB090174
:100BA000009801F058FC78B92544B542D8D2FFF737
:100BB00063FF741BB4F5806FE6D94FF48064E3E7FC
:100BC0000127CDE70127CBE70127C9E76C180020F3
:100BD0002DE9F04383B000AF04461E4B1D68EB1DAA
:100BE00023F00703ADEB030D6E4643796BB1032091
:100BF000391D01F0EFFB50B10124786801F0FEFBD4
:100C000020460C37BD46BDE8F0830120F0E7786848
:100C100000F09FFA8046104B93F85C202179206801
:100C2000FFF7F4FC8044786801F073FC81462A46A3
:100C3000FF21304602F0F8F9237933704B463246F3
:100C40004146786801F007FC04460028D5D001240D
:100C5000D3E700BF5868000008180020F0B587B03F
:100C60000F461446794E736A53F830501B68ED1ADC
:100C700096F85C0000F05AFAB36A013B7919726A7F
:100C800052F8333012689B1A994206D93E1A2368EB
:100C90002BB9BE4204D0012302E03E46F7E7002311
:100CA000637123793BB12379012B58D02379022B2F
:100CB00075D007B0F0BD3A4600210320FFF706FFCC
:100CC000009600232A4603210220FFF739FF2368FC
:100CD000BBB963792BB303A9032001F07BFB02A905
:100CE000022000F077FA9DF80A30012B15D0A16898
:100CF000039800F0F3FA039800F0D2FA039801F099
:100D00007DFB012323712046FFF762FF0028CAD034
:100D10004F4A136801331360C5E7039800F0D8FA0F
:100D2000E5E70120FFF7EEFE03A9012001F052FBE9
:100D300002A9022000F04EFA9DF80A30012B0AD0D9
:100D4000A168039800F0CAFA039800F0A9FA039882
:100D500001F054FBD5E7039800F0BAFAF0E73A4601
:100D600029460220FFF7B2FE00962B462A460221B2
:100D70000120FFF7E5FE23680BB963795BB102231D
:100D800023712046FFF724FF00288FD0304A1368D4
:100D9000013313608AE70220FFF7B4FEEFE73A461B
:100DA00029460120FFF792FE00962B4600220121E2
:100DB0000320FFF7C5FE637983B9236801332360FD
:100DC0000023237163712046FFF702FF00283FF4E0
:100DD00070AF1F4A1368013313606AE705A9032047
:100DE00001F0F8FA059800F0B4F90746059801F00B
:100DF00005FB05A9012001F0EDFA144B93F85C30D6
:100E000003EB4303009373193A4601210320FFF7D4
:100E100097FE18B10E4A13680133136004A903202A
:100E200000F0D8F99DF81230012B0AD0A16805987E
:100E300000F054FA059800F033FA059801F0DEFA54
:100E4000BBE7059800F044FAF0E700BF081800205F
:100E50006818002030B585B0044600230193029342
:100E60000368FBB90379EBB9244B1A68244B9A4207
:100E70000CD0224BDA6A224B9A420DD0029B019A87
:100E8000934200D90193019BA36011E001AA1B4981
:100E90000020FFF7BEFCECE702AA1A490120FFF789
:100EA000B8FCEBE704F1080000F0AEF9A368019389
:100EB00000200290114B5B6A03EBC0035B68029A4F
:100EC00013440293019A934212D20130F2E703983D
:100ED0000138013500280DDB03A9FFF79FFB2368CC
:100EE000AB42F4D8224601460398FFF7B7FEEEE77F
:100EF0000025EFE7002005B030BD00BF0818002036
:100F00003DB8F3963418002070B584B0054601A8AA
:100F1000FFF75AFC044658B9019B13B99DF80830F5
:100F20004BB101A8FFF796FFFFF7D8FC06462E60ED
:100F3000204604B070BDFFF76DFD0646831E022BF0
:100F4000F5D801A8FFF786FFF1E7000070B582B081
:100F50000646454B454A5A62454A1A6500240EE04A
:100F60002046FFF71DFB2C2303FB04F320333E49EF
:100F70001944C0B201F02EFAFFF77EFD0134012CB6
:100F8000EED93C49032001F025FAFFF771FB054635
:100F900000283ED1FFF788FC0546002839D1FFF72D
:100FA0000BFB50B901230193019B013B042B3ED85D
:100FB000DFE803F013353535410001A8FFF7A4FF42
:100FC000054630BB019B043B012BEDD8FFF795FC98
:100FD0000028E9D0FF230193E6E700231C46019A8D
:100FE000FF2A2ED02BB10020FFF75EFC054680B90A
:100FF00000240020FFF7CAFC054618BB1A4B1A6AEA
:10100000527832711A6A5268B2602C2202FB0434A0
:101010003460154B986D01F0F1F900241EE0FFF7E4
:101020008BFC58B1FF23019301231C46D7E7FF2314
:1010300001930023D3E701230024D0E701231C46BA
:10104000CDE7FEE70325E4E7C4F10103064A2C21BE
:1010500001FB0323186A01F0D1F90134012CF3D903
:10106000284602B070BD00BF081800206C1C00208C
:101070006C2000206018002000EB400020307047FA
:10108000806810387047806820387047806818384A
:1010900070470378032B02D0806828387047806837
:1010A0002038704770B582B00C46E0B1012821D1DC
:1010B0000846FFF7E8FF0546204601F02AFA0646F3
:1010C0000822FF21684601F0AFFF01238DF80030B0
:1010D00033466A462946204601F0BDF9034638B931
:1010E000184602B070BD0846FFF7D0FF0546E3E79B
:1010F0000123F5E70723F3E710B5044610220A4958
:1011000001F057FF58B10023032B06D854F82320D1
:10111000B2F1FF3F05D10133F6E7032000E00120E3
:1011200010BD0220FCE700BF5C68000000EB40003F
:10113000C30103F128007047037843B1022B03D9A0
:10114000032B04D1032070474FF4C0707047072071
:10115000704710B5044601F0DCF92378032B04D066
:10116000FFF7E4FFA368181A10BDFFF785FFF9E742
:1011700030B591B004460D46FFF782FF10236A4652
:101180000146204601F048F918B10123184611B074
:1011900030BD6846FFF7B0FF28702378032B09D0D5
:1011A0002046FFF770FF0123EA180146204601F0B0
:1011B00033F968B92046FFF769FF0123AA1C0146ED
:1011C000204601F029F903460028DFD00123DDE79E
:1011D0000123DBE710B582B0431E022B10D80C466A
:1011E00001A9C0B201F0F6F808B1012409E02146D6
:1011F0000198FFF7BDFF0446019801F0FFF800E0F9
:101200000724204602B010BD30B593B0044611A9A2
:10121000012001F0DFF818B10124204613B030BDE1
:10122000119D2846FFF72CFF102301AA01462846EE
:1012300001F0F2F850BB1022184901A801F0B9FEE4
:10124000B0B112AD55F8040D01F0D8F829460320CD
:1012500001F0C0F808B10124DFE7119D2846FFF72F
:101260000FFF102301AA0146284601F0D5F890B9D6
:10127000119D2846FFF70DFF04232246014628460C
:1012800001F0CAF8044610B1012400E001241198CD
:1012900001F0B4F8C1E70124F9E700BF5C68000081
:1012A00010B50446FFF7ECFE1023054A0146204620
:1012B00001F0D1F8034608B9184610BD0123FBE739
:1012C0005C68000008B501460120FFF7EBFE08BD91
:1012D00008B501460020FFF7E5FE08BD70B584B0F3
:1012E00005460191FFF7D5FE0646284601F011F9A3
:1012F0000446032800D804240822FF210DEB020035
:1013000001F092FE04220DEB020102A801F068FE3A
:10131000234602AA3146284601F09DF8034610B93B
:10132000184604B070BD0123FAE7000000B583B091
:1013300001A90120FFF74EFF90BB69460220FFF78D
:1013400049FF88BB002306E042789AB19DF800105F
:101350008A420FD00133022B20D803EB43014A000D
:10136000124988188A5C002AEED09DF804108A423F
:10137000F0D1E9E782781AB19DF806108A42E9D1E6
:10138000C2781AB19DF802108A42E3D102791AB1EB
:101390009DF805108A42DDD1407902E0012000E08D
:1013A000FF2003B05DF804FBFF20FAE76C68000043
:1013B0002DE9F0439DB00546894617469846259C81
:1013C00001A803F093FC002101A803F0E7FC14B18D
:1013D000269B002B04DCEE682B891E44002513E0BD
:1013E0001A46214601A804F0F4F8F4E723463A46E9
:1013F0002946484601F010F8034688B92246394686
:1014000001A804F0E6F82544B54204D2741B444513
:10141000ECD94446EAE7249901A804F07DF90023B9
:1014200018461DB0BDE8F08370B5A4B006460D4661
:101430000024134B1B68A3421CDD09A803F056FCD3
:10144000002109A803F0AAFC0E4B03EBC40252686A
:10145000126853F8341009A804F0BBF801A909A8D0
:1014600004F05AF92A46314601A801F0A2FD18B14C
:101470000134DEE74FF0FF34204624B070BD00BFDA
:1014800034680000386800002DE9F047CEB0064609
:101490000D46579C0294569C019404AC0094FFF7AF
:1014A00087FF8046002840F09580589B23B120227A
:1014B00004A9184601F094FDF46833891C44042300
:1014C0004DAA2146284600F0A7FF8046002840F09C
:1014D0008180BDF8342146F607139A4276D1BDF8D3
:1014E000366126440434824681464FF0FF3717E0C8
:1014F000BDF83231202B71D10CAA211D284600F0F5
:101500008BFF00286DD120220CA904A801F051FD09
:10151000002868D14FF00109BDF832311C44043471
:10152000B4424AD204234CAA2146284600F074FF54
:1015300000284ED19DF83031102BD9D0012B20D06E
:10154000202BE9D1002F2DDB2F4B1B68BB422CDD5C
:10155000BDF83231B3F5807F4DD10CAA211D28464C
:1015600000F05AFF002849D1BDF83231FFB2009790
:101570000CAA202104A800F035F9C8B14FF0FF37BC
:10158000CAE7BDF83231202B30D80CAA211D2846DD
:1015900000F042FF68BB9DF832110CA8FFF744FF32
:1015A0000746B9E74FF0FF37B6E74FF0FF37B3E72D
:1015B0004FF0FF374FF0010AAEE7B9F1000F20D02E
:1015C000BAF1000F06D14FF0FF3803E04FF0FF38BB
:1015D00000E0804640464EB0BDE8F0874FF0FF384F
:1015E000F8E78046F6E74FF0FF38F3E74FF0FF38B3
:1015F000F0E78046EEE74FF0FF38EBE74FF0FF38BB
:10160000E8E74FF0FF38E5E734680000F0B583B055
:1016100006460D461446302301AA2146284601F00D
:1016200088FD30BB2B68019A1344A34224D106F1F4
:1016300008073A462146284601F08EFDF8B906F122
:1016400014022146284601F087FDD8B9384602F039
:1016500073F870602B68A34217D1304603F0A0FAEC
:101660000446A8B9384602F067F87060204603B017
:10167000F0BD4FF0FF34F9E76FF00104F6E76FF0CB
:101680000204F3E76FF00204F0E76FF00304EDE704
:101690006FF00404EAE7F0B5A5B006460F46002354
:1016A0000893DF2407E025462A466946304601F0C4
:1016B00097FC2E44641B002C1DDD09A803F016FBCB
:1016C000002109A803F06AFB2022394609A803F08B
:1016D00080FF042208A909A803F07BFF694609A836
:1016E00004F01AF89DF8233001338DF823301F2CB5
:1016F000D9DD2025D8E725B0F0BD000070B5ADF5E7
:101700001C7D4468B4F5807F55D1202A56D10E4601
:1017100041AA194603F072FA0546002851D19DF8F6
:101720000332BC2B50D10DF2E31109A8FFF7B3FF30
:101730002B4606E041AAD25C09A8C45C6240C254B0
:101740000133DE2BF6DD9DF8243003F07F038DF8A6
:101750002430BD2D05DC09AB5B5D002B37D1013595
:10176000F7E79DF8E230012B37D181A803F0BEFAEC
:10177000002181A803F012FB0822194981A803F077
:1017800028FF2022314681A803F023FF20220DF1FB
:10179000E30181A803F01DFF01A981A803F0BCFFAC
:1017A00020220DF2E31101A801F003FC034680B1F1
:1017B0004FF0FF330DE04FF0FF330AE04FF0FF33FF
:1017C00007E04FF0FF3304E04FF0FF3301E04FF04C
:1017D000FF3318460DF51C7D70BD4FF0FF33F8E761
:1017E000806800002DE9F041ACB005460E46174672
:1017F0001C469DF8C8800022114601A803F0C1F9DB
:10180000124B53F838202CA941F8B02D03EBC80334
:101810005B681B681A4401A8FFF7F8FE804610B900
:10182000029BA34206D001A803F02AFA40462CB03E
:10183000BDE8F0813B463246294601A8FFF75EFF2E
:10184000804601A803F01CFAF0E700BF38680000EA
:1018500010B54FF02003EFF3118483F3118800F0EB
:1018600005FC0123074AC2F840354FF08042C2F818
:101870007835054B4FF0FF329A62DA6284F31188B3
:10188000002010BD00E0014000ED00E0006801FB19
:101890000200704710B490F90B408C420FDAC46814
:1018A00001EB4101880021581046002A0DDB401150
:1018B00001EB8001196002F01F0010BC7047C46882
:1018C00001EB410188002118EEE702F11F00EEE76D
:1018D00000B583B001ABFFF7DDFF019A012303FAE6
:1018E00000F013680343136003B05DF804FBF8B520
:1018F0000446B0F808C0436803FB0CFC0768674463
:10190000FF22C27200200BE0E26857511F3118D449
:10191000491107EB81079B08033323F003030130D0
:10192000A27A82420FDDBCFBF3F1E26800EB4006D5
:10193000B5002A44161D566096601F29E4DCE0724B
:10194000E9E71F31E4E7002512E02A4661682046F6
:10195000FFF79CFFE3681A1D02609A6842609A686C
:10196000106098602A4600212046FFF7B1FF01353C
:101970002389AB42E9DCF8BD0020704708B50B684D
:1019800001330B60014B1B68984708BD00570020CE
:101990002DE9F04F83B0804601919246994600258B
:1019A00008272E463B4608E009281FD957230199EE
:1019B0001844C0470135012623462BB35C1EA00006
:1019C0002AFA00F010F00F00EED1002EECD1012B1E
:1019D000EAD007F1FF3B0C9B9F4211DCB9F1010FEC
:1019E00006D101993020C0475F46E5E73023DEE7A6
:1019F000B9F1020F06D101992020C0475F46DBE70D
:101A00005F46D9E75F46D7E7B9F1030F02D003B0CD
:101A1000BDE8F08F0C9BC5EB430503E00199202046
:101A2000C04725466C1E002DF8DCF0E72DE9F84F85
:101A300081468A4615469B460A9B002B2FDD0127CF
:101A40000A264FF00008214C12E0601CB5FBF0F0B4
:101A500051463030C84701374FF00108013E631C42
:101A6000B5FBF3F203FB1255194BA3FB0434E40856
:101A7000082C17D9B8F1000FE7D1AC42E5D30A9B87
:101A80009E42EBDCBBF1020FE8D8BBF1010F04D0A2
:101A900020205146C8470137E0E73020F9E701230D
:101AA0000A93CCE7514605F13000C847BBF1030F5C
:101AB00001D0BDE8F88F0A9BDF1B03E051462020D0
:101AC000C84727467C1E002FF8DCF2E7FFC99A3B87
:101AD000CDCCCCCC014B1860704700BF0057002024
:101AE0002DE9F04F85B007460E46144603934FF09C
:101AF00000084FF0FF3AC1464546D4E0A0F1250367
:101B0000552B00F20D81DFE813F006010B010B01EC
:101B10000B010B010B010B010B011A010B010B0156
:101B200056005900590059005900590059005900F0
:101B3000590059000B010B010B010B010B010B01AB
:101B40000B010B010B010B010B010B010B010B0135
:101B50000B010B010B010B010B010B010B010B0125
:101B60000B010B010B010B010B010B010B010B0115
:101B7000BA000B010B010B010B010B010B010B0157
:101B80000B010B010B01FE0075000B010B010B019A
:101B9000CD0075000B010B0172000B010B010B0155
:101BA000B0000B010B01DE000B0197000B010B01D4
:101BB000BA000B01CD00BAF1000F0FDBBAF1000F34
:101BC00012DB0AEB8A0A4FEA4A031844A0F1300AF2
:101BD000B9F1000F66D14FF0020963E0B9F1000FCF
:101BE000ECD14FF001095DE0A0F1300AF0E708F117
:101BF000010857E0B8F1010F19DD039B073323F00B
:101C0000070303F1080203921D68002D05DA31462F
:101C10002D20B8476D420AF1FF3ACDF800A04B469F
:101C20002A4631463846FFF701FF00253AE0039B7C
:101C30001A1D03921D68E8E7B8F1010F10DD039B40
:101C4000073323F0070303F1080203921A68CDF863
:101C500000A04B4631463846FFF7E8FE002521E05C
:101C6000039B1A1D03921A68F1E731463020B847EA
:101C700031467820B8474FF0080A4FF00109B8F113
:101C8000010F1BDD039B073323F0070303F1080259
:101C900003921A68CDF800A04B4631463846FFF74C
:101CA00077FE00250134207800284BD0002D7FF4EA
:101CB00025AF25283CD03146B847F3E7039B1A1DD2
:101CC00003921A68E6E7039B1A1D0392D3F800B04B
:101CD0005D4602E001353146B84728780028F9D141
:101CE000B9F1030F01D00025DCE7A5EB0B03AAEB4C
:101CF000030303E031462020B8472B465D1E002B2E
:101D0000F8DC0025CEE7039B1A1D039231461868C4
:101D1000B8470025C6E731462520B8470025C1E76A
:101D200031462520B84731462078B8470025B9E725
:101D3000A8464FF0FF3A4FF000090125B2E74FF0F7
:101D40000309AFE705B0BDE8F08F000010B582B021
:101D500002AC002344F8043D0B46024621460348EA
:101D6000FFF7BEFE019802B010BD00BF7D19000054
:101D70000FB400B583B004A951F8040B0191FFF72B
:101D8000E5FF03B05DF804EB04B070477047000056
:101D90000F4B1B78062B01D0002070470D4B1B68A2
:101DA00013F00F0F0BD10C4B1B6803F0F003302B1B
:101DB00007D0402B07D0502B07D0002070470020C1
:101DC000704701207047012070470120704700BF15
:101DD000E00F00F0E40F00F0E80F00F00B4B1B7871
:101DE000062B01D000207047094B1B6813F00F0F22
:101DF00007D1084B1B6803F0F003302B03D0002001
:101E00007047002070470120704700BFE00F00F0CE
:101E1000E40F00F0E80F00F00F4B1B78062B01D009
:101E2000002070470D4B1B6813F00F0F0BD10C4BAC
:101E30001B6803F0F003302B07D0402B07D0502B4A
:101E400007D0002070470020704701207047012014
:101E500070470120704700BFE00F00F0E40F00F072
:101E6000E80F00F00B4B1B78062B01D000207047C9
:101E7000094B1B6813F00F0F07D1084B1B6803F0C9
:101E8000F003302B03D00020704700207047012062
:101E9000704700BFE00F00F0E40F00F0E80F00F023
:101EA0000F4B1B78062B01D0002070470D4B1B6891
:101EB00013F00F0F0BD10C4B1B6803F0F003302B0A
:101EC00007D0402B07D0502B07D0002070470020B0
:101ED000704701207047012070470120704700BF04
:101EE000E00F00F0E40F00F0E80F00F00B4B1B7860
:101EF000062B01D000207047094B1B6813F00F0F11
:101F000007D1084B1B6803F0F003302B03D00020EF
:101F10007047002070470120704700BFE00F00F0BD
:101F2000E40F00F0E80F00F00B4B1B78062B01D0FC
:101F300000207047094B1B6813F00F0F07D1084BA7
:101F40001B6803F0F003302B03D000207047002003
:101F500070470120704700BFE00F00F0E40F00F071
:101F6000E80F00F00B4B1B78062B01D000207047C8
:101F7000094B1B6813F00F0F07D1084B1B6803F0C8
:101F8000F003502B03D00020704700207047012041
:101F9000704700BFE00F00F0E40F00F0E80F00F022
:101FA0000F4B1B78062B01D0002070470D4B1B6890
:101FB00013F00F0F0BD10C4B1B6803F0F003302B09
:101FC00007D0402B07D0502B07D0002070470020AF
:101FD000704701207047012070470120704700BF03
:101FE000E00F00F0E40F00F0E80F00F00F4B1B785B
:101FF000062B01D0002070470D4B1B6813F00F0F0C
:102000000BD10C4B1B6803F0F003302B07D0402B97
:1020100007D0502B07D000207047002070470120C8
:102020007047012070470120704700BFE00F00F0AB
:10203000E40F00F0E80F00F0064B1B68062B01D000
:1020400000207047044B1B68062B01D0002070470E
:10205000012070473001001034010010014B024A8A
:102060001A607047045700200090D00308B5FFF7AE
:102070008FFE28B1754B1B68C3F30423744A1360A9
:10208000FFF7ACFE10B1734B734A1A60FFF7C4FE42
:1020900028B1724B1B68C3F34233714A1360FFF7D8
:1020A000E1FE20B16F4AD36823F08073D360FFF75D
:1020B000F7FE40B14FF080430022C3F80C21C3F873
:1020C0001021C3F83825FFF711FF10B1664B03222A
:1020D0001A60FFF729FF58B1644B05221A60783364
:1020E00001221A60703B00221A60043B3F221A60F2
:1020F000FFF738FF002846D04FF08052D2F8041482
:102100005B4BC3F82015D2F80814C3F82415D2F895
:102110000C14C3F82815D2F81014C3F82C15D2F8F3
:102120001414C3F83015D2F81814C3F83415D2F8C3
:102130001C14C3F84015D2F82014C3F84415D2F883
:102140002414C3F84815D2F82814C3F84C15D2F853
:102150002C14C3F85015D2F83014C3F85415D2F823
:102160003414C3F86015D2F83814C3F86415D2F8E3
:102170003C14C3F86815D2F84014C3F86C15D2F8B3
:102180004424C3F87025FFF70BFF28B1394B1B68B7
:1021900003F04F03384A1360FFF728FF60B14FF098
:1021A0008043D3F8003413F0010F05D04FF0804383
:1021B0006FF00102C3F80024FFF73EFF20B12F4A61
:1021C000136843F4806313604FF01023D3F8003298
:1021D000002B08DB4FF01023D3F80432002B02DB76
:1021E000FFF73CFF08BD264B0122C3F80425244B12
:1021F000D3F80034002BFAD04FF010231522C3F887
:1022000000221F4BD3F80034002BFAD04FF01023DC
:102210001522C3F804221A4BD3F80034002BFAD04D
:10222000174B0022C3F80425154BD3F80034002BBC
:10223000FAD0BFF34F8F1349CA6802F4E062124B21
:102240001343CB60BFF34F8F00BFFDE724030010A3
:102250004035014074C007400DF0ADBA4402001093
:102260003C050040F0ED00E0A005004010560040A5
:1022700000C0004058020010E40E00403C1700402F
:1022800000E0014000ED00E00400FA0510B404464F
:102290000023094A12689A420ADD03EB43018A00CF
:1022A0000649096888188A5CA24202D00133F0E727
:1022B000002010BC704700BFE469000008570020F0
:1022C00000684B6898420FD310B48C68234498423E
:1022D0000DD208694B6998420ED36FF00B038B61E6
:1022E00000231370012005E00120107070470023C7
:1022F0001370012010BC70470020FBE770B582B05E
:1023000006460C46CD680DF10702FFF7D9FF80B9EC
:102310003368616822695B1A45F83230236905EB3E
:10232000C30573686B60236901332361012002B028
:1023300070BD9DF80700FAE700232BB1404080F301
:1023400011884FF0050002DF054A12F8332082425F
:1023500001D00133F1E7034A52F82300704700BF70
:10236000AC69000070250020F8B50D4617461E46E2
:10237000069C2060FFF78AFFB0B142686260826805
:10238000A260E7600022226129686161A261407851
:10239000FFF7D2FF2246314603F0B4FDA3690BB923
:1023A00023692B60A069F8BD6FF01500FBE7000002
:1023B00010B500240CB1002010BD044803F0E2FF6A
:1023C000034B43F824000134F4E700BF2068000009
:1023D00070250020084B1B683BB110B50C46FFF779
:1023E00055FF28B12060002010BD6FF00C00704731
:1023F0006FF00100F8E700BF0857002070470000A9
:1024000000B58BB003AB0093024BFFF7ADFF0BB0F1
:102410005DF804FBFD220000F8B584688C4204D30B
:102420005D18AC4212D2002400E0002484B11E46A4
:1024300017460D4604464078FFF77EFF6168436803
:102440001C6833463A462944A047F8BD0124EDE70D
:102450004FF0FF30F9E72DE9F84384688C4204D34C
:102460005D18AC4222D2002400E0002404B3984658
:1024700091460E4604464078FFF75EFF05464368E6
:10248000DB6800219847074668B961686B685C683B
:1024900043464A4631442846A04707466B68DB68F6
:1024A0000121284698473846BDE8F8830124DDE736
:1024B0004FF0FF37F7E72DE9F04183688B4204D3F3
:1024C0005418A34220D2002300E00023F3B1904629
:1024D0000E4604464078FFF72FFF05464368DB6849
:1024E00000219847074660B961686B689B6842465F
:1024F00031442846984707466B68DB680121284627
:1025000098473846BDE8F0810123DFE74FF0FF37F9
:10251000F7E708B54078FFF70FFF4368187D08BD5F
:1025200010B504460A2805D1064B186843685B6855
:102530000D219847034B186843685B68E1B29847E0
:10254000204610BD7425002008B50248FFF7C2FAE6
:1025500008BD00BF2125000008B5044803F012FFA4
:10256000034B1860FFF7F0FF002008BDE86900008A
:10257000742500204FF02003EFF3118183F31188BD
:10258000124B1A788AB1531EDBB2104803708BB914
:102590000F4B1B789BB90E4B01221A7081F31188E7
:1025A0000C490A6000201870704781F311886FF0A1
:1025B0004400704781F311886FF00F007047034BA0
:1025C0001A7081F311886FF00A0070477A25002095
:1025D000792500200400004008B5002201211046A2
:1025E00000F0E0FB002000F0B9FB002008BD000077
:1025F00010B54FF02003EFF3118483F311882D4AB7
:102600001378581C107063B184F311884FF0804325
:10261000D3F80C3403F00113B3F1011F47D10020AC
:1026200010BD254A1278A2B9234B01221A7084F3F7
:102630001188A1B3002000F0A1FB4FF080430022DD
:10264000C3F80021D3F804130122C3F804231A604D
:1026500009E0184A137084F311886FF00A00DFE76D
:1026600020BF40BF20BF4FF08043D3F80031002B84
:10267000F6D04FF080430022C3F8002111F0010F83
:1026800002D10122C3F808230C4B0122C3F8802198
:10269000002000F063FB084B00221A70B6E74FF0F1
:1026A00080430022C3F8002101221A60F3E76FF093
:1026B0004300B5E77A2500207925002000E100E0FD
:1026C0002DE9F04180464FF08043D3F80851D3F80C
:1026D000042302F00102D3F80C1401F48031D3F882
:1026E0000071D3F80461D3F80C01D3F810411DB187
:1026F0004FF0000CC3F808C127B14FF0804300270A
:10270000C3F8007132B129B14FF080430122C3F800
:1027100008231A6126B14FF080430022C3F8042138
:1027200010B964B9BDE8F0814FF080460021C6F8C9
:102730000C114046FFF71EFF01237361F1E74FF0D4
:1027400080430021C3F810110122C3F8042340463E
:10275000FFF74EFF0028E5D1024B0122C3F800210C
:10276000E0E700BF00E100E038B54FF02002EFF3F2
:10277000118382F31188204A12787AB183F3118889
:102780004FF08042D2F81C3403F0030343F480334B
:10279000D2F8182493432BD1002038BD0124164AC7
:1027A000147083F311884FF080430022C3F8042192
:1027B000C3F81815114D2C601824C3F80843C3F84A
:1027C0000C21C3F8102111F0030FD9D11022C3F846
:1027D0003825C3F804430122C3F804230021FFF77E
:1027E00007FF0028CCD1064B0122C3F80021C7E720
:1027F0006FF04300D1E700BF7825002008000040BB
:1028000000E100E0084BC3F84005D3F80435C01AD6
:1028100020F07F400238054B984204D9044B4FF416
:102820000032C3F80021704700100140FDFF7F0017
:1028300000E100E008B50F4BD3F804350E4A1268EA
:102840009B1A23F07F430D490968994207D90A4B27
:1028500018680A4B1B681844FFF7D4FF08BD0A44E8
:1028600022F07F42044B1A600120054B186003F0F0
:10287000D7FEECE7001001407C2500202057002007
:102880001C57002008B5034B0022C3F84021FFF776
:10289000D1FF08BD0010014038B5184803F072FDA3
:1028A00040B342681268012190470024144B1C6019
:1028B000144DC5F80845144B1B68C5F840354FF456
:1028C0008033C5F84433C5F80433C5F840410F4B95
:1028D0004FF40032C3F8802122460121112000F07C
:1028E00061FA112000F03AFA0123094A13602B60C3
:1028F000204638BD4FF0FF30FBE700BF086A0000FC
:102900007C250020001001402057002000E100E05D
:102910000810014010B54FF02003EFF3118483F34A
:102920001188112000F02AFA074B4FF48032C3F8C7
:102930004823C3F808230123044A136004321360B8
:1029400084F3118810BD00BF001001400410014045
:10295000704700BF00220AE053B2002B0ADB03F1EC
:10296000604303F56143202183F800130132262AD6
:10297000F2DD704702F00F01024B0B442021197663
:10298000F4E700BFFCEC00E0202080F311880D4943
:102990008A684FF02C001044EFF3098C80E8F01F98
:1029A000094F4FF00066CA698A603E60906E00234E
:1029B000936680F3118802F12C0090E8F01F8CF3ED
:1029C00009887047AC26002004ED00E01EF0040FDB
:1029D0000CBFEFF30880EFF30980816931F8021C26
:1029E00011F0FF010229FFD000B500F04BFA00BD45
:1029F0000020704738B504460D462348FFF7B8F964
:102A0000224B9B6A13F0100F18D1204B9B6A13F0D6
:102A1000080F17D11D4B9B6A13F0020F16D11B4BE9
:102A20009B6A13F0010F25D1184B9B6A13F0200FFE
:102A300024D12046FFF7DCFF20BB38BD1448FFF748
:102A400097F9E2E71348FFF793F9E3E71248FFF736
:102A50008FF90E4B596B9B6A13F0800FDFD00F4834
:102A6000FFF786F9002DDAD0084A936A23F0800335
:102A70009362D4E70A48FFF77BF9D5E70948FFF7E7
:102A800077F9D6E70620D8E7446B000000ED00E0B8
:102A90005C6B0000706B0000846B0000A06B00009A
:102AA000B86B0000D86B000038B504460D462D48C1
:102AB000FFF75EF92C4B9B6A13F4805F1CD12A4B05
:102AC0009B6A13F4006F21D1274B9B6A13F4007F9C
:102AD00020D1254B9B6A13F4806F38D1224B9B6A1F
:102AE00013F4807F37D1204B9B6A13F4005F06D02C
:102AF0001E48FFF73DF902E01D48FFF739F920466F
:102B0000FFF776FF034650BB184638BD1948FFF75C
:102B10002FF9F4E71848FFF72BF9134B996B9B6AD1
:102B200013F4004F08D1104B9B6A13F4806FE6D06A
:102B30001248FFF71DF9E2E71148FFF719F9002DD8
:102B4000F1D0094A936A23F400439362EBE70B4800
:102B5000FFF70EF9D3E70B48FFF70AF9CFE7062393
:102B6000D2E700BF2C6A000000ED00E0D86B000047
:102B70005C6B0000706B0000446A0000786A000023
:102B8000606A0000946A000008B52148FFF7F0F879
:102B9000204B9B6A13F0007F21D11E4B9B6A13F0E0
:102BA000807F20D11B4B9B6A13F4002F1FD1194B40
:102BB0009B6A13F4802F1ED1164B9B6A13F4003FBF
:102BC0001DD1144B9B6A13F4803F1CD1114A936AA8
:102BD0006FEA03436FEA13439362002008BD0E4877
:102BE000FFF7C6F8D9E70D48FFF7C2F8DAE70C4857
:102BF000FFF7BEF8DBE70B48FFF7BAF8DCE70A4857
:102C0000FFF7B6F8DDE70948FFF7B2F8DEE700BFE7
:102C1000506C000000ED00E06C6C0000806C000067
:102C20009C6C0000BC6C0000E46C0000006D0000B7
:102C300010B504461848FFF79BF8184BDB6A13F0F1
:102C4000020F06D1154BDB6A13F0804F06D100202E
:102C500010BD1348FFF78CF80020F9E71148FFF783
:102C600087F8114B1B7843B9104B1B7853B9104BA5
:102C70001B889BB25BB90020EAE701212046FFF7E1
:102C8000B9FEE5E701212046FFF70EFFE0E7204609
:102C9000FFF77AFFDCE700BFE86A000000ED00E024
:102CA000006B0000246B000028ED00E029ED00E03F
:102CB0002AED00E008B50248FFF75AF808BD00BF4A
:102CC000B06A000008B50A460F2905DD0349103A2D
:102CD0000348FFF74DF808BD0249F8E7206C0000F3
:102CE0003C6C0000086C000008B5CB1E092B18D8FE
:102CF000DFE803F005080C10171717171713FFF775
:102D000097FF08BD0021FFF775FEFAE70021FFF7E6
:102D1000CBFEF6E7FFF738FFF3E7FFF7CBFF002026
:102D2000EFE7FFF7CFFF0020EBE7000010B5044608
:102D3000054B5968C1F30801FFF7D6FF062802D0FA
:102D4000214600F069F810BD00ED00E0024A536929
:102D500043F010035361704700ED00E043B2002BD5
:102D600008DB00F01F005B09012202FA00F0024AB2
:102D700042F82300704700BF00E100E043B2002B9F
:102D80000DDB00F01F005B09012202FA00F0203386
:102D9000034A42F82300BFF34F8FBFF36F8F704792
:102DA00000E100E0013143B2002B08DB4901C9B268
:102DB00003F1604303F5614383F80013704700F0AB
:102DC0000F004901C9B2014B1954704714ED00E0DE
:102DD00008B500F00DF808BD014910220A607047DF
:102DE00010ED00E0404080F3118830BF704700BF15
:102DF000404080F31188DFF81CC0DCF800C01CF4F0
:102E0000006C0CBFEFF30880EFF3098000B5FFF70B
:102E10008DFF00BD04ED00E038B504460D460528E1
:102E20001FD8DFE800F0031E1E12161A0F48FEF727
:102E30009FFF03F0EFFBAA6901460D48FEF798FFDC
:102E40002946204600F024F838BD0A48FEF790FFD6
:102E5000EFE70948FEF78CFFEBE70848FEF788FF2D
:102E6000E7E701460648FEF783FFE2E72C6D000026
:102E7000D06D00004C6D0000746D0000906D00007E
:102E8000AC6D000008B501460068FFF7C5FF08BD3E
:102E900008B5FFF7A7FFFCE700B5EFF30580A0F149
:102EA00010004FEAC0000449014409C998475DF881
:102EB00004EBFFF74DBD0000DC000000202080F394
:102EC000118806484FF40061401880F309880220F9
:102ED00080F31488BFF36F8F00F006B8E04E002037
:102EE00030BFFFF7FDBF00BF08B5074B23F07F03DE
:102EF000064A9360BFF34F8FBFF36F8F03F06CFAF6
:102F000003F076FA03F098FA0000000000ED00E00C
:102F100008B5FFF7E5FFFFF71BFD08BD064A906007
:102F20000B6823F01F03034343F01003D3608B6847
:102F300043F001031361704790ED00E0034B05225D
:102F40005A60BFF34F8FBFF36F8F704790ED00E073
:102F5000014B00225A60704790ED00E00E4B1B6859
:102F6000082B16D810B5FFF7F3FF002409E00A4B31
:102F7000596804EB4402930019442046FFF7CEFF42
:102F80000134054B1B68A342F1D8FFF7D7FF00209F
:102F900010BD4FF0FF307047E056002001E00130D7
:102FA000013103780A78934201D1002BF7D1981AA6
:102FB00070477AB1531E0FD010B404780A78944247
:102FC00003D101300131013BF7D100780B78C01AF1
:102FD00010BC70470020704700780B78C01A70470B
:102FE00010B480EA010313F0030F01D0034617E089
:102FF000034613F0030F0BD0A2B10C781C70013AFA
:1030000001310133F5E70C681C60043A04310433E4
:10301000032AF8D804E00C781C70013A013101331E
:10302000002AF8D110BC704710B4CCB2034613F09C
:10303000030F04D0A2B11C70013A0133F7E7C9B203
:1030400041EA012141EA014102E01960043A0433F6
:10305000032AFAD802E01C70013A0133002AFAD19F
:1030600010BC70470020704730B40368CD1A002DA3
:103070004DDD1C7814F0800F0BD15C1C04601B78B4
:10308000136013680268891A8B423DD8002030BC57
:10309000704704F07F04013C032C3BD8DFE804F0C8
:1030A000020A1523012D38DD5B78136003680233B3
:1030B0000360E6E7022D33DD5C789B7843EA042366
:1030C0001360036803330360DBE7032D2BDD5D78BA
:1030D0009C78240244EA0544DB78234313600368A8
:1030E00004330360CDE7042D20DD5D789C78240453
:1030F00044EA0564DD7844EA05241B792343136020
:10310000036805330360BCE76FF05F00BFE76FF053
:103110005F00BCE76FF06300B9E76FF05F00B6E7F0
:103120006FF05F00B3E76FF05F00B0E76FF05F0034
:10313000ADE738B504680D1B002D07DD25789D42ED
:1031400007D101340460FFF78FFF38BD6FF05F00D7
:10315000FBE76FF06100F8E730B583B00446154631
:10316000022301AAFFF7E5FF034610B1184603B09A
:1031700030BD019A2168284600F0E4FA034622682F
:1031800001990A442260F1E74FF0004200231F2B0F
:1031900004D8024202D152080133F8E718467047BA
:1031A000F0B400231D4613E01768FC1A146051F8B0
:1031B000046BB4422CBF4FF0000C4FF0010C9F4247
:1031C0002CBF63460CF10103A41B42F8044B0135EC
:1031D0008542E9D307E01168C81A42F8040B994206
:1031E0002CBF00230123002BF5D1F0BC70472DE943
:1031F000F0030024F4E00D68A5FB038914EB080438
:103200002CBF0125002505EB0907166836192CBFD0
:10321000012500253D4416604E68A3FB0667AD19E5
:103220002CBF012400242744566875192CBF0124A3
:1032300000243C4455608E68A3FB0678E4192CBF3B
:1032400001260026464495682D192CBF0124002430
:1032500034449560CE68A3FB0678E4192CBF0126A0
:1032600000264644D5682D192CBF0124002434447F
:10327000D5600E69A3FB0678E4192CBF0126002651
:10328000464415692D192CBF0124002434441561CE
:103290004E69A3FB0678E4192CBF0126002646449C
:1032A00055692D192CBF01240024344455618E69C1
:1032B000A3FB0678E4192CBF012600264644956935
:1032C0002D192CBF0124002434449561CE69A3FB41
:1032D0000678E4192CBF012600264644D5692D192D
:1032E0002CBF012400243444D5610E6AA3FB067868
:1032F000E4192CBF012600264644156A2D192CBF5F
:1033000001240024344415624E6AA3FB0678E419B4
:103310002CBF012600264644556A2D192CBF0124D6
:103320000024344455628E6AA3FB0678E4192CBF4E
:10333000012600264644956A2D192CBF012400243D
:1033400034449562CE6AA3FB0678E4192CBF0126AB
:1033500000264644D56A2D192CBF0124002434448C
:10336000D5620E6BA3FB0678E4192CBF012600265C
:103370004644156B2D192CBF0124002434441563D9
:103380004E6BA3FB0678E4192CBF012600264644A9
:10339000556B2D192CBF01240024344455638E6BCA
:1033A000A3FB0678E4192CBF012600264644956B42
:1033B0002D192CBF0124002434449563CE6BA3FB4C
:1033C0000678E4192CBF012600264644D56B2D193A
:1033D0002CBF012400243444D563103840324031DE
:1033E0000F283FF608AF072840F294800D68A5FB30
:1033F000038914EB08042CBF0125002505EB090700
:10340000166836192CBF012500253D4416604E680C
:10341000A3FB0667AD192CBF01240024274456687E
:1034200075192CBF012400243C4455608E68A3FB11
:103430000678E4192CBF01260026464495682D190C
:103440002CBF0124002434449560CE68A3FB067889
:10345000E4192CBF012600264644D5682D192CBF3F
:10346000012400243444D5600E69A3FB0678E419D6
:103470002CBF01260026464415692D192CBF0124B6
:103480000024344415614E69A3FB0678E4192CBF6F
:1034900001260026464455692D192CBF012400241D
:1034A000344455618E69A3FB0678E4192CBF0126CC
:1034B0000026464495692D192CBF0124002434446C
:1034C0009561CE69A3FB0678E4192CBF012600267E
:1034D0004644D5692D192CBF012400243444D561FC
:1034E0000838203220317EE70E68A6FB036714EB14
:1034F000060C2CBF012400242744164656F8045B12
:1035000015EB0C052CBF012400243C441560013848
:10351000324604310028E7D11368234442F8043BC3
:10352000A34234BF01240024F6D3BDE8F003704762
:1035300022B32DE9F8431446824205D8DBB14FF09F
:10354000FF301860BDE8F8831D464FF00008814643
:1035500048EA0106434630464946FCF75BFE01292E
:1035600008BF002801D34FF0FF30002DEAD004FB44
:1035700010642C60E6E74FF0FF30E3E71BB14FF03B
:10358000FF30186070474FF0FF30704710B48B6801
:103590001C68A31C5B0003F008032344202106E001
:1035A00004FB03F2C2F1020202FB03F349080729FC
:1035B000F6D85B42036010BC704708B5890001F083
:1035C0005DFA08BD20B101220260002242608260E3
:1035D000704778B110B50446806828B16168FFF77C
:1035E000ECFFA06801F038FA012323600023636038
:1035F000A36010BD704742F2107399421ED8436811
:103600008B4201D30020704770B50D46044604215B
:10361000284601F019FA064698B1A16851B16268CE
:103620009200FFF7DDFC6168A068FFF7C6FFA068A5
:1036300001F012FA6560A660002070BD6FF00F0007
:1036400070476FF00F00F8E7F8B588422DD00E46AE
:103650000546886838B14B68013B4BB150F82320D0
:1036600032B9013BF9E72846FFF7B3FF00271AE01C
:103670005C1C33682B606A68A24206D22146284649
:10368000FFF7B9FF074648B10DE0A868121B92008A
:10369000002100EB8400FFF7C7FC0027A200B168FF
:1036A000A868FFF79DFC3846F8BD0027FBE770B51A
:1036B00004460E460121FFF79EFF054608B1284645
:1036C00070BD626892000021A068FFF7ADFCA3689E
:1036D00086EAE672A2EBE6721A60002E02DB012394
:1036E0002360ECE74FF0FF33FAE74368B1EB431F89
:1036F00009D283684A0953F8220001F01F01C8402B
:1037000000F0010070470020704710B544688CB18C
:10371000013C2CB1836853F824300BB9013CF8E725
:10372000836853F82400FFF72FFDC0F1200000EB61
:10373000441010BD0020FCE708B5FFF7E6FF073096
:10374000C00808BDF8B505460E46144612F0030140
:1037500018BF012101EB92074368BB420AD0FFF773
:1037600038FF2846FFF72EFF39462846FFF743FF6C
:103770008446B8B900212846FFF799FF844688B9E6
:1037800000230DE0AF6823F00300013C325DD90057
:1037900001F0180102FA01F13A580A433A50013394
:1037A000002CEFD16046F8BDF8B506460D46174629
:1037B000FFF7C2FFB84218D804463A46002128460F
:1037C000FFF732FC7A1E00230BE0B06823F0030100
:1037D0004158D80000F01800C140A954013A013303
:1037E000013C002CF1D10020F8BD6FF00700FBE791
:1037F000F8B505460F464C0901F01F06FFF785FF97
:1038000038446B68B0EB431F02D834B36B6817E0E1
:1038100010F01F0118BF012101EB50112846FFF7DE
:10382000EAFE03460028F0D032E0A9681A1B6FF0C8
:1038300040401F18024451F8222041F82720013B44
:10384000A342F2D807E0A96803F18042013A0020C0
:1038500041F82200013B002BF5D10EB1002713E007
:10386000002315E0A86850F82410C6F1200301FADF
:1038700006F240F82420A86850F824203A4340F883
:103880002420013421FA03F76968A142EAD8002311
:103890001846F8BDF8B54C094368A3420BD301F0B4
:1038A0001F0106D0BCB900293AD042684FF0000C85
:1038B00032E00029F6D00021FFF7F9FEF8BD82685A
:1038C0001D1952F8255042F8235001334268121B4B
:1038D0009A42F4D806E00023F8E78268002442F810
:1038E0002340013342689A42F7D8DCE7876802F147
:1038F0008043013B57F82360C1F1200426FA01F50B
:1039000047F82350876857F8235045EA0C0547F8D5
:103910002350013A06FA04FC002AE7D10020CDE743
:103920000020CBE730B4436843B1846803F18042A0
:10393000013A54F822200AB9013BF5E74A6842B13E
:103940008D6802F18044013C55F824400CB9013ADD
:10395000F5E703B99AB1934213D815D36BB18468D4
:1039600003F18042013A54F822408D6855F8222034
:1039700094420CD80DD3013BF0E7002002E0002078
:1039800000E0012030BC70474FF0FF30FAE7012023
:10399000F8E74FF0FF30F5E72DE9F04F83B00C9CCE
:1039A000656854680134A5425ED30C9CA468002C61
:1039B0005DD0019391468B468246AA0000212046A5
:1039C000FFF732FB0C9B9D68D9F80480DBF80430CC
:1039D000434528BF43460093002621E0DAF808302B
:1039E00053F826702B68DBF808100C6807FB0434CA
:1039F000019B03FB04F43B462A460098FFF7F7FBC4
:103A000023462A46D9F808104046FFF7F0FB2A1D46
:103A10002F6008F10103002142F8231001361546FA
:103A20004645DBD308F1010292002946DAF8080086
:103A3000FFF7D6FA49465046FFF774FF00280ADB25
:103A4000DAF80820D9F808104046FFF7A9FB002053
:103A500003B0BDE8F08F0C9B9A68DAF80810404676
:103A6000FFF79EFB0020F3E76FF00300F0E76FF035
:103A70000300EDE710B586B0012405940294039489
:103A800005AC0494009313460A4602A9FFF784FF8D
:103A900006B010BD70B4436843B1846803F180423E
:103AA000013A54F822200AB9013BF5E74A6842B1CD
:103AB0008D6802F18044013C55F824400CB9013A6C
:103AC000F5E703B952B393420FD8934211D3056877
:103AD000002D02DD0A68002A22DB0A68002A0CDDBC
:103AE000002D0ADA4FF0FF3500E00568284670BC6B
:103AF00070470D686D42F9E7013B6BB1846803F1D3
:103B00008042013A54F822408E6856F822209442AE
:103B1000ECD8F1D26D42E9E70025E7E70025E5E7BB
:103B20000125E3E700B585B081EAE173A3EBE1731A
:103B3000009300290BDB0123019301230293CDF8AD
:103B40000CD001A9FFF7A6FF05B05DF804FB4FF00C
:103B5000FF33F1E7F8B507461446904214D0B94256
:103B600005D03846FFF770FD0146002844D10123F7
:103B70003B6065685DB1A26805F18043013B52F886
:103B8000233023B9013DF5E70C460146E7E7294616
:103B90003846FFF730FD014670BBD4F808C0BB685B
:103BA000002426460EE05CF8040B1A68A4182CBF0B
:103BB00001220022044443F8044B84422CBF1446E3
:103BC000541C0136AE42EED308E01A68224443F892
:103BD000042BA2422CBF00240124013664B17A6870
:103BE000B242F2D8711C3846FFF705FD014618B9FC
:103BF000BB6803EB8603E8E70846F8BDF0B585B07F
:103C000005460E46144611463046FFF78BFE002847
:103C10002CDB01A8FFF7D6FCAC4214D0AE4205D095
:103C200031462846FFF710FD0746C8B901232B602F
:103C3000606880B1A26800F18043013B52F82330F4
:103C40004BB90138F5E7214601A8FFF7FDFC07460F
:103C500030B901ACE2E7AA68A168FFF7A1FA002732
:103C600001A8FFF7B6FC384605B0F0BD6FF00907B4
:103C7000F9E7F8B507460C4615460E68136806FBCB
:103C800003F3002B18DA11462046FFF74BFE0028FD
:103C900008DB2A4621463846FFF7B0FF034680B9C5
:103CA0003E600EE0224629463846FFF7A7FF03464E
:103CB00038B976423E6004E0FFF74CFF034600B996
:103CC0003E601846F8BDF8B507460C4615460E6826
:103CD000136806FB03F3002B1ADD11462046FFF79D
:103CE00021FE002809DB2A4621463846FFF786FFD9
:103CF000034600B93E601846F8BD224629463846BC
:103D0000FFF77CFF03460028F5D176423E60F2E7DC
:103D1000FFF720FF03460028EDD13E60EBE72DE9D9
:103D2000F04387B080460E46174603A8FFF74AFCCB
:103D30006846FFF747FCB0450CD0B84512D075680F
:103D4000C5B1B26805F18043013B52F823308BB90D
:103D5000013DF5E7314603A8FFF776FC8146D0B96F
:103D600003AEEAE739466846FFF76EFC814690B934
:103D70006F46E4E77C6844B1BA6804F18043013BD4
:103D800052F823300BB9013CF5E729194046FFF7FB
:103D900032FC814648B16846FFF71BFC03A8FFF7D9
:103DA00018FC484607B0BDE8F08300214046FFF705
:103DB0007EFC814678B1EEE7D8F8081004F1804225
:103DC000013ABB6853F8223001EB8202B168284601
:103DD000FFF70DFA013C002CEED132683B6803FB83
:103DE00002F3C8F80030D6E700B585B0012301938F
:103DF0000293CDF80CD0009201AAFFF790FF05B016
:103E00005DF804FB2DE9F04F97B00746884615464C
:103E10001C4600211846FFF785FE002800F0C181EE
:103E200013A8FFF7CFFB10A8FFF7CCFB0DA8FFF7F7
:103E3000C9FB0AA8FFF7C6FB07A8FFF7C3FB21468B
:103E40002846FFF76FFD002811DA2FB10021384610
:103E5000FFF72DFC064680B9B8F1000F00F0A481F1
:103E600029464046FFF7F0FB064630B914E02946E4
:103E700013A8FFF7E9FB064690B113A8FFF7A9FBCB
:103E800010A8FFF7A6FB0DA8FFF7A3FB0AA8FFF7F2
:103E9000A0FB07A8FFF79DFB304617B0BDE8F08FE9
:103EA000214610A8FFF7D0FB06460028E5D10123E4
:103EB00010931393696802310DA8FFF79CFB064627
:103EC0000028DAD100210DA8FFF7F1FB06460028F3
:103ED000D3D102210AA8FFF78EFB06460028CCD1D9
:103EE000032107A8FFF787FB06460028C5D110A8C5
:103EF000FFF70BFC00F01F001E2811D8C0F11F03B4
:103F00000093194613A8FFF773FC06460028B4D1A6
:103F1000009910A8FFF76CFC06460028ADD101E01F
:103F200000230093149B03F1FF3B119B0193013B82
:103F30000293ABEB03094FEA491A514610A8FFF769
:103F400057FC0646002898D110A913A8FFF7A2FD38
:103F500000280EDB0F9A52F82930013342F829303D
:103F600010AA13A90846FFF7AEFE06460028EBD0BC
:103F700083E7514610A8FFF78DFC064600287FF422
:103F80007CAF04950594029CA34540F2D880159916
:103F90004FEA8B03029351F82B00A3000393129B6B
:103FA00053F82420904218D3ABEB040303F1804371
:103FB000013B0F9A4FF0FF3142F823100F9AABEB01
:103FC000040505F1804909F1FF394FEA890A52F8E1
:103FD0002930013342F829302AE06FF040430BEBDF
:103FE000030C0F9DABEB04061E44002351F82C106C
:103FF000FFF79EFA45F82600E0E700232FE00023B4
:10400000099A1360BBF1000F4DD00BF18043013BC7
:10401000159A52F82330099A5360159B029A9A58C0
:10402000099B9A6007A90AA8FFF734FD00283CDD28
:104030000F9A52F80A30013B42F80A3000210AA8D0
:10404000FFF735FB064600287FF417AF002CD4D0CD
:10405000019B03F18043023B129A52F823300C9AE1
:104060001360129B039A9A580C9B5A600F9B53F84B
:104070000A200AA90846FFF7B7FE064600287FF483
:10408000FCAE002107A8FFF712FB064600287FF4CC
:10409000F4AEBBF1010FB2D90BF18043023B159A8C
:1040A00052F82330ACE70023B5E70F9B53F82920E3
:1040B00010A90AA8FFF798FE064600287FF4DDAE97
:1040C00005F1006A0AF1FF3A4FEA4A1A51460AA876
:1040D000FFF78EFB064600287FF4CFAE0AAA13A98D
:1040E0000846FFF7F0FD064600287FF4C6AE002123
:1040F00013A8FFF717FD00281EDA10A90AA8FFF77A
:10410000A3FA064600287FF4B8AE51460AA8FFF786
:104110006FFB064600287FF4B0AE0AAA13A9084632
:10412000FFF7A7FD064600287FF4A7AE0F9A52F8C6
:104130002930013B42F829300BF1FF3B24E7049D75
:10414000059C67B10DA93846FFF77EFA06460028A0
:104150007FF493AE2A68236803FB02F33B60B8F157
:10416000000F3FF48AAE009913A8FFF793FB0646B1
:1041700000287FF482AE2B6816A941F80C3D40461A
:10418000FFF762FA064600287FF477AE002140462A
:10419000FFF7C8FC00287FF470AE0123C8F8003098
:1041A0006BE66FF00B0677E6002675E670B5044601
:1041B0000E46154600211046FFF7B4FC002826DB0A
:1041C0002B46324621460020FFF71CFE064668B902
:1041D00000212046FFF7A6FC002809DA2A462146DE
:1041E0002046FFF746FD06460028F1D0304670BD58
:1041F00029462046FFF74EFC0028F7DB2A462146D9
:104200002046FFF760FD06460028F1D0EEE76FF08C
:104210000906EBE72DE9F04FADF2446D81468B4680
:1042200016461D46DDF8687600211846FFF77AFC31
:10423000002840F33482AB681B6813F0010F00F0D4
:10424000318200213046FFF76DFC0028C0F22D823C
:1042500029460DF23C60FFF799F90DF5C660FFF7AE
:10426000B1F90DF22460FFF7ADF906A8FFF7AAF93E
:104270004FF4C062002109A8FEF7D6FE3046FFF7D2
:1042800044FAB0F5287F07D2EF2813D84F2813D867
:10429000172813D9032400E006246B6803F1010AF0
:1042A00051464846FFF7A7F9804648B1631E0125ED
:1042B0009D40D9E10524F0E70424EEE70124ECE772
:1042C00051460CA8FFF797F980460028EED14FEA37
:1042D0004A010DF22460FFF78EF980460028E5D1EF
:1042E000DBF800A0BAF1FF3F47D0002F51D0BB68E8
:1042F000002B4ED00C2239460DF5C660FEF770FE3D
:1043000029465846FFF7C6FB002867DB2A46594670
:104310000CA8FFF74BFF80460028C7D10DF224639D
:104320000093DDF83C362A460DF5C6610CA8FFF770
:1043300033FB80460028B9D10DF5C6614846FFF72A
:1043400083F980460028B1D10DF22463DDF83C26C4
:1043500029464846FFF78EFB80460028A6D1012C4F
:1043600045D873680493002305939B460393B8468E
:1043700037462E4625461C46AFE0594606A8FFF7AD
:1043800063F98046002891D1012306930DF1180BA3
:10439000ABE701210DF5C660FFF789F980460028DB
:1043A00084D1696889010DF5C660FFF721FA80465E
:1043B00000287FF47BAF2A460DF5C6610846FFF75B
:1043C000F5FE804600287FF471AF002F98D00C22B4
:1043D0000DF5C6613846FEF703FE91E759460CA875
:1043E000FFF732F9804600287FF460AF96E7631E3E
:1043F00004934FF0010B0BFA03F31A4605930C23B9
:1044000009A903FB02130393696859441846FFF78F
:10441000F2F8804600287FF449AF0CA90398FFF713
:1044200013F9804600287FF441AF4FF0000B049B46
:104430005B4510D90DF224630093DDF83C362A4623
:1044400003980146FFF7A8FA804600287FF42EAFB4
:104450000BF1010BEBE7059B03F1010BB846374667
:1044600026460123B3405B4503D834463E464746C3
:1044700077E70C2409AB04FB0B3469680131204653
:10448000FFF7B9F8002840F0CF800BF1FF330C2183
:1044900009AA01FB03212046FFF7D6F8002840F0C7
:1044A000C7800DF224630093DDF83C362A460CA940
:1044B0002046FFF771FA002840F0BE800BF1010B97
:1044C000CFE70BF1010BA5EB0B029340039A1A43C4
:1044D00003925D452AD00223059334B9049B002B37
:1044E00000F09D80013B04932024013CBB68049AAA
:1044F00053F82230E34013F0010302D1059A002A59
:10450000EBD0002BDDD1059A012ADAD10DF224631C
:104510000093DDF83C36324649464846FFF73CFA00
:104520000028DAD02C4647468046BFE64FF0000B05
:104530005D450ED90DF224630093DDF83C3632461A
:1045400049464846FFF728FA002879D10BF1010BBC
:10455000EEE70DF224630093DDF83C3632460C2181
:1045600003980DF1240C01FB00C14846FFF714FA33
:10457000002869D1012305934FF0000BCDF80CB052
:10458000ABE70DF224630093DDF83C362A4649463A
:104590004846FFF701FA00285AD1039B5A000392BC
:1045A0000123B34013422AD101345C45E9D3344698
:1045B0003E4647460DF22463DDF83C262946484630
:1045C000FFF758FA804600287FF470AEBAF1FF3F3B
:1045D0007FF46CAE7368002B3FF468AEB3681B6861
:1045E00013F0010F3FF462AE4FF0FF33C9F8003013
:1045F0004A4629464846FFF73CFB804656E60DF200
:1046000024630093DDF83C362A460CA94846FFF7A0
:10461000C3F90028C8D034464746804646E6049C85
:1046200033462E461D46C0E73446474680463DE6A3
:1046300034464746804639E634464746804635E6A6
:104640002C464746804631E62C46474680462DE6B6
:1046500034464746804629E605EB4503980009ABFA
:104660001844FEF7B6FF01350123A340AB42F3D84F
:104670000CA8FEF7AEFF0DF22460FEF7AAFF06A815
:10468000FEF7A7FF37B1BB6823B140460DF2446D7A
:10469000BDE8F08F0DF5C660FEF79BFFF5E76FF004
:1046A0000308F2E76FF00308EFE76FF00308ECE7A9
:1046B0000268124B9A4201D001207047C269A3F1EF
:1046C0001023A3F1EF139A4201D0012070478368B1
:1046D000012B01D901207047C36813B102699342CD
:1046E00006D0436933B18269934205D000207047F8
:1046F00001207047002070470120704755AA00FF35
:1047000070B5104B9D68A5B12846FFF7D1FF06464E
:1047100088B9EB680BB101260EE02C6964B1204624
:10472000FFF7C6FF50B9E368AB4209D125462469BB
:10473000F4E7012600E00126304670BD0126FBE7C4
:104740000126F9E780250020002800F0948038B584
:104750000446494B1B68002B68D0474A9268002AE0
:1047600064D0834263D9454B1B6801209847A4F16C
:1047700020052846FFF79CFF18B1404B1B6801201D
:10478000984754F8183C012B03D03C4B1B68012080
:104790009847002344F8183C54F8143CCBB19A686D
:1047A000002A4AD154F81C2C59680A4420325A6015
:1047B00054F8143C54F8102C1A6154F8144C236922
:1047C00003B1DC60202200212846FEF72DFC2B4699
:1047D00025462C6924B3A26812BB63686A68134437
:1047E00020336B6023692B616B6943B3002B2AD0A4
:1047F000AA699A61AB690BB16A695A6163696B61B5
:10480000A269AA611BB39D61AB6903B15D612B69AC
:1048100003B1DD60202200212046FEF705FC23467F
:10482000C3B1154B1B6913F0020F1BD138BD124ADF
:104830005268134483429AD895E70023C9E7AA69CE
:10484000002AD3D1DAE7AA690B4BDA60D2E70A4B28
:10485000DD60D9E7084BDB68AB6103B15D61064BF6
:10486000DD60DEE7FFF74CFF0028DFD0034B1B685D
:1048700001209847DAE77047802500201057002074
:1048800070B5514BDC681B68002B00F08F804E4BDD
:104890009B68002B00F08C8001FB00F6002800F0E4
:1048A0008980002900F08880B6FBF0F0884240F053
:1048B000858016F1040F00F2838016F0030F08D0F4
:1048C00026F00305043534B16368AB4203D2A46912
:1048D000F9E73546F7E7002C74D0A3681BB13B4BD2
:1048E0001B68012098476268521B232A26D801239F
:1048F000A3606369ABB1A2699A61A3690BB16269F4
:104900005A6100236361A3612F4B1B6913F0010FF0
:104910000BD12034324600212046FEF785FB20468D
:1049200070BDA269284BDA60E7E7FFF7E9FE0028CF
:10493000EFD0264B1B6801209847EAE705F12001DC
:104940006318203A5A6000229A60DC6022691A617A
:104950001F4860501F49D96102B1D36062695A6132
:10496000A1699961B2B193619A6902B1536101225F
:10497000A2606560236100236361A361124B1B6920
:1049800013F0010F09D12034324600212046FEF7F2
:104990004BFBC4E70C4AD360E6E7FFF7B1FE002803
:1049A000F1D00A4B1B6801209847ECE70024B6E7DA
:1049B0000024B4E70024B2E70024B0E70024AEE707
:1049C0000024ACE70024AAE780250020105700202F
:1049D00055AA00FF669911EE38B505460C4614221B
:1049E00000211348FEF720FB1249134800F03CF861
:1049F000232C1CD915F0030304D01C44043CC3F140
:104A000004031D44224600212846FEF70DFB084BF7
:104A10001D605C609D60203C6C609A680749116075
:104A20009A68A1F11021A1F1EF11D161DA6038BDCE
:104A300080250020494700008148000055AA00FF5A
:104A4000002070477047704708B5024B1B689847B5
:104A500008BD00BF0C57002008B5024B1B689847E3
:104A600008BD00BF14570020024B1860024B1960AC
:104A7000002070470C5700201457002008B5034B46
:104A80001B680A460021984708BD00BF1857002040
:104A9000F8B504460D46476800F108063046FEF7B3
:104AA0004BFE874251D16368B3F5807F4FD8002118
:104AB0003046FFF737F800284BDD00213046FEF77F
:104AC00014FE002847D0D5B104F12C060021304651
:104AD000FFF728F8002840DD00213046FEF705FEEC
:104AE00000283CD004F1380600213046FFF71AF8C0
:104AF000002836DD00213046FEF7F7FD98B300218F
:104B000004F11400FFF70EF800282EDD15B98DB959
:104B10002846F8BD002104F14400FFF703F80028FF
:104B200025DD002104F15000FEF7FCFF0028EEDC3B
:104B3000104DEDE7002104F15C00FEF7F3FF0028C3
:104B400001DD0025E4E70B4DE2E70A4DE0E7094D02
:104B5000DEE7084DDCE7074DDAE7064DD8E7054DFF
:104B6000D6E7044DD4E7034DD2E7024DD0E7014D1F
:104B7000CEE700BF80BFFFFFC0F8A410C0F8A82098
:104B8000704770B504460D461646AC220021FEF76C
:104B90004BFA324629462046FFF7EEFF70BD000073
:104BA00070B5044600221146FFF772FFD0B90646E1
:104BB00004F108052846FEF7A8FD7F2814D914340F
:104BC00000212046FEF791FD80B12046FEF79DFDB5
:104BD00001280DD929462046FEF75CFF002809DA96
:104BE000304670BD044EFBE7034EF9E7024EF7E78F
:104BF000014EF5E7004EF3E700BEFFFFF0B587B0CA
:104C000005460C46164600221146FFF741FF90BBB1
:104C100003A8FEF7D7FC6A68214603A8FEF792FDB9
:104C2000044640B103A8FEF7D4FC0CB1A4F58544BA
:104C3000204607B0F0BD05F10804214603A8FEF7A1
:104C400029FF002802DB6FF00304EBE76F6805F132
:104C500068030093234605F1140203A90846FFF7F1
:104C6000D9FA04460028DDD13A46314603A8FEF7BA
:104C70009BFD0446D6E7014CDAE700BF80BFFFFF8B
:104C800010B504468C30FEF7A4FC04F19800FEF742
:104C9000A0FC04F16800FEF79CFC04F12000FEF784
:104CA00098FC04F13800FEF794FC04F12C00FEF7A8
:104CB00090FC04F11400FEF78CFC04F10800FEF7F0
:104CC00088FC04F18000FEF784FC04F17400FEF718
:104CD00080FC04F15C00FEF77CFC04F15000FEF760
:104CE00078FC04F14400FEF774FC10BD08B56C229A
:104CF0000021FEF799F908BD0023036043600B46CD
:104D0000E1B1194A8260194AC26002F1794202F5A2
:104D1000740202F501620261154A4261154A82611C
:104D200002F1D14202F5C01202F51E62C261124ABE
:104D30000262124A4262836600207047104A826013
:104D4000104AC260104A0261104A4261104A8261F0
:104D5000104AC261104A026202F17452A2F52302A3
:104D6000A2F692424262E6E7D89E05C107D57C369C
:104D700039590EF7310BC0FFA78FF964A44FFABE63
:104D800067E6096A85AE67BB72F36E3C3AF54FA5DC
:104D90007F520E518C68059BABD9831F08B5FFF776
:104DA000ABFF08BD2DE9F04FD1B00790002306E01E
:104DB0009A1C50F8222008AC44F823200133072B1A
:104DC000F6D9002010E011F8204001EB8002537862
:104DD0001B0443EA0463947843EA0423D278134320
:104DE00010AA42F8203001300F28ECD94FF0000E05
:104DF00042E10F9B0C9E4FEAF62181EAB61181EA4F
:104E0000766119440E9C0D9884EA00033340634098
:104E10001944DFF8348758F82E3019440DF1400C4E
:104E20005CF82E301944089D4FEA753A8AEAB50AB3
:104E30008AEAB55A099F05EA07030A9A45EA07096B
:104E400002EA090943EA09039A440B9B01EB0309AF
:104E500051444FEAF92383EAB91383EA79631C4486
:104E600086EA000309EA030343401C440EF1010AE9
:104E700058F82A301C445CF82A301C444FEA71333D
:104E800083EAB10383EAB15305EA010A45EA010B5B
:104E900007EA0B0B4AEA0B0A534422441C444FEA2C
:104EA000F22383EAB21383EA7263184486EA0903A1
:104EB0001340734018440EF1020A58F82A3018447F
:104EC0005CF82A3018444FEA743383EAB40383EA67
:104ED000B45301EA040A41EA040B05EA0B0B4AEA5F
:104EE0000B0A5344074418444FEAF72383EAB713E5
:104EF00083EA77631E4489EA02033B4089EA03039D
:104F00001E440EF1030A58F82A301E445CF82A3079
:104F10001E444FEA703383EAB00383EAB05304EAD5
:104F2000000A44EA000B01EA0B0B4AEA0B0A53445D
:104F300035441E444FEAF52383EAB51383EA7563CB
:104F4000994482EA07032B40534099440EF1040A26
:104F500058F82A304B445CF82A904B444FEA763993
:104F600089EAB60989EAB65900EA060A40EA060B58
:104F700004EA0B0B4AEA0B0AD14419440F914B4443
:104F80000B934FEAF12989EAB11989EA71694A4418
:104F900087EA050901EA090987EA090991440EF13E
:104FA000050A58F82A204A445CF82A904A444FEAF5
:104FB000733A8AEAB30A8AEAB35A06EA030946EA66
:104FC000030B00EA0B0B49EA0B09CA4404EB020984
:104FD000CDF8389052440A924FEAF92484EAB91481
:104FE00084EA7964274485EA010409EA04046C40F0
:104FF0003C440EF1060A58F82A703C445CF82A70CA
:105000003C444FEA723787EAB20787EAB25703EAAD
:10501000020A43EA020B06EA0B0B4AEA0B0A574460
:1050200020440D903C4409944FEAF02787EAB017DA
:1050300087EA70673D4481EA090900EA090981EAC3
:10504000090129440EF1070058F8205029445CF862
:10505000200001444FEA743080EAB40080EAB45082
:1050600002EA0405224313402B4303440E440C96EA
:105070000B4408930EF1080EBEF10F0F7FF6B9AE88
:1050800010264BE20F9A0C9B4FEAF32787EAB317DF
:1050900087EA73673A440E980D9D80EA05071F4022
:1050A00047403A44DFF8A0B45BF826701744B31EBB
:1050B0001A4610AB049253F822204FEAF24484EAD5
:1050C000724484EA9224F21F53F822201444A6F179
:1050D0000F0A53F82AC04FEABC4282EAFC1282EA65
:1050E000DC021444A6F1100253F82220224443F8B3
:1050F00026203A4408994FEA713C8CEAB10C8CEABC
:10510000B15E099F3C460C400A990091089941EA1A
:10511000070C009901EA0C0C44EA0C0CF4440B9CBB
:10512000144462444FEAF42888EAB41888EA7468A0
:1051300080440C9981EA050904EA090985EA09090C
:10514000C844711C5BF821008044701E059053F820
:1051500020004FEAF04C8CEA704C8CEA902CB01F87
:1051600053F820008444A6F10E0E53F82E904FEA17
:10517000B94080EAF91080EAD900604453F82A90D7
:105180004844029143F8210008EB00094FEA7238C5
:1051900088EAB20888EAB258089901EA020041EAAE
:1051A000020C019707EA0C0C40EA0C0CC44400986E
:1051B00000EB0908E1444FEAF82080EAB81080EAE1
:1051C000786005440C9981EA040008EA0000484030
:1051D0000544B01C01465BF82000054453F8260046
:1051E0004FEAF04C8CEA704C8CEA902C701F53F80C
:1051F00020008444A6F10D0A53F82A004FEAB0407B
:1052000053F82A7080EAF71080EAD700604453F818
:105210002EC06044039143F8210005444FEA793CD5
:105220008CEAB90C8CEAB95C02EA090042EA090E80
:10523000089901EA0E0E40EA0E008444019F07EB34
:10524000050E05EB0C0700974FEAFE2080EABE1022
:1052500080EA7E600C990D1884EA08010EEA0101CB
:1052600061406818F71C5BF827100144029D53F851
:1052700025004FEAF04585EA704585EA9025301F04
:1052800053F8200005440195A6F10C0C53F82C00AE
:105290004FEAB04053F82C5080EAF51080EAD50070
:1052A000019D284453F82A502844069743F82700C4
:1052B000014400984FEA7035074685EAB00585EA53
:1052C000B05509EA000049EA070A02EA0A0A40EA78
:1052D0000A000544089800EB010A294401914FEAAD
:1052E000FA2585EABA1585EA7A652C4488EA0E051E
:1052F0000AEA050588EA05052544341D02945BF891
:1053000024000544039953F821404FEAF44080EA11
:10531000744080EA9420F41E53F824402044A6F1FF
:105320000B0753F827104FEAB14484EAF11484EADA
:10533000D104044453F82C002044029943F821007E
:10534000054401994FEA713C8CEAB10C8CEAB15CDE
:10535000009804460C4001460198084309EA000001
:10536000204360442A440F9228440B904FEAF22CC9
:105370008CEAB21C8CEA726CC4448EEA0A0803926E
:1053800002EA08088EEA0808C444741D21465BF846
:105390002440A444069D53F825504FEAF54484EA7E
:1053A000754484EA9524049A53F822502C44A6F1BB
:1053B0000A0853F828204FEAB24585EAF21585EA33
:1053C000D205254453F827402C44049143F821404A
:1053D00064444FEA703787EAB00787EAB05701990B
:1053E00001EA000541EA000C009901EA0C0C45EACB
:1053F0000C052F4409EB040CCDF838C03C440A944A
:105400004FEAFC2787EABC1787EA7C677744039D4D
:105410008AEA050E0CEA0E0E8AEA0E0E774406F1B1
:1054200006095BF829502F44029D53F825504FEA96
:10543000F54E8EEA754E8EEA952E059A53F8225057
:10544000AE44A6F10902029253F8225029464FEACF
:10545000B54585EAF11585EAD105754453F828E08C
:10546000754443F829502F444FEA743585EAB40552
:1054700085EAB45500EA040940EA040E019A02EAFA
:105480000E0E49EA0E09A9440099CD190D954F4415
:1054900009974FEAF52E8EEAB51E8EEA756ED64450
:1054A000039A82EA0C0C05EA0C0C82EA0C027244A4
:1054B00006F107085BF8285002EB050E049953F833
:1054C00021504FEAF54282EA754282EA952253F86A
:1054D00026100A44A6F1080553F825C04FEABC453A
:1054E00085EAFC1585EADC052A44029D53F825501F
:1054F0002A4443F8282072444FEA773383EAB703FB
:1055000083EAB75304EA0705274338402843184481
:10551000019911440C911044089008363F2E7FF6F3
:10552000B1AD0021079809E008AB53F821408A1C6F
:1055300050F82230234440F8223001310729F3D9B2
:10554000002051B0BDE8F08F0C6E00002DE9F8434B
:10555000DAB306460D461446036803F03F07C7F169
:10556000400813440360934202D24368013343600E
:105570000FB144450AD23F2C1BD929463046FFF7CC
:1055800011FC034610BB4035403CF4E706F1280906
:105590004246294609EB0700FDF722FD4946304601
:1055A000FFF700FC034688B94544A4EB0804002734
:1055B000E1E70CB9002309E006F12800224629465C
:1055C0003844FDF70DFD002300E000231846BDE838
:1055D000F88308B5FFF7BAFF08BD70B504460D465D
:1055E000036803F03F03581C2344802283F82820DB
:1055F00038287BD804F12803C0F138020021184470
:10560000FDF712FD22686368DB0043EA5273D200A3
:10561000190E84F86010C3F3074184F86110C3F3D6
:10562000072184F8621084F86330130E84F8643024
:10563000C2F3074384F86530C2F3072384F8663069
:1056400084F8672004F128012046FFF7ABFB0346EE
:10565000002859D1E27A2A70A27A6A70627AAA7016
:10566000227AEA70E27B2A71A27B6A71627BAA715C
:10567000227BEA71E27C2A72A27C6A72627CAA7244
:10568000227CEA72E27D2A73A27D6A73627DAA732C
:10569000227DEA73E27E2A74A27E6A74627EAA7414
:1056A000227EEA74E27F2A75A27F6A75627FAA75FC
:1056B000227FEA7594F823202A7694F822206A76CD
:1056C00094F82120AA7694F82020EA76A26EDAB91E
:1056D00094F827302B7794F826306B7794F82530A0
:1056E000AB7794F82430EB7713460DE004F12806ED
:1056F000C0F1400200213044FDF796FC31462046BF
:10570000FFF750FB034608B1184670BD3822002150
:105710003046FDF789FC75E708B5FFF75EFF08BD69
:105720000023072B40D870B483B01D4603F5A27246
:105730001F4C54F8222012F0030F08D00133DBB2C3
:10574000072BF2D96FF0120003B070BC70479C00B9
:10575000174A03F5A27352F8236026F4473626F45D
:10576000407642F8236052F82360000200F4F850BB
:10577000090401F440310843304342F8230004F1A6
:10578000804101F5C241002008600968019101993A
:1057900052F8231041F0010142F82310012303FACB
:1057A00005F5C2F80453CFE76FF01200704700BF51
:1057B0000060004010B4134BD3F80443E4B200235C
:1057C00000E00133072B1BD803F5A2720D4951F8F5
:1057D0002220C2F304229042F3D124FA03F212F001
:1057E000010FEED00A4603F5A27051F8201021F007
:1057F000010142F82010012101FA03F3C2F8083335
:1058000010BC70470060004070B50D4686680368A4
:105810009B681B7901F01F0444EA43142046FFF7FC
:10582000C9FF4FF0A04304F5E07253F8221021F4B1
:10583000403143F8221053F8221043F82210B36885
:10584000EB4013F0010F46D0F368EB4013F0010F6B
:1058500043D07369EB4013F0010F1AD0B369EB40EA
:1058600013F0010F0ED13369EB4003F00103DAB2FC
:10587000F36923FA05F505F00105EDB2AA4206D059
:10588000012100E003212046FFF74AFF24E0022126
:10589000F9E73369EB4003F00103DAB2F36923FA65
:1058A00005F505F00105EDB2AA4212D002204FF035
:1058B000A04304F5E07453F8241021F4403143F878
:1058C000241053F8242042EA004243F82420002008
:1058D00002E00320EBE7002070BD0020FCE72DE98B
:1058E000F04F83B0846803F47045B5F5804F3FD026
:1058F0000CDDB5F5E04F38D012DDB5F5404F2BD0BB
:10590000B5F5504F09D14FF0070A11E0B5F5805FAA
:1059100025D0B5F5405F25D045B16FF015039DE06A
:10592000B5F5A04FF9D14FF0030A01E04FF0000A9E
:1059300003F44075B5F5807F20D0B5F5007F1AD00F
:10594000002501951E46074603F0010BD9460129A3
:1059500017D0D5B2A84640E04FF0060AE8E74FF06E
:10596000010AE5E74FF0040AE2E74FF0050ADFE736
:105970004FF0020ADCE701250195E3E703250195D5
:10598000E0E74FF01F08002527E0A3680122AA40A6
:1059900023EA02033FE0636901228A4023EA02030B
:1059A00041E0A36901228A4023EA020343E023691C
:1059B00001228A4023EA020345E0E369012202FA58
:1059C00001F123EA0101E16129463846FFF71CFF96
:1059D0000346002842D10135EDB2A8453DD33B68CE
:1059E0009B681A79294605F01F0343EA42134BEAE4
:1059F0004902019842EA800242EA0A2203F5E07372
:105A00004FF0A04040F8232016F0020FBDD0A3684D
:105A10000122AA401343A36016F0200FBBD0636994
:105A200001228A401343636116F0400FB9D0A36985
:105A300001228A401343A36116F0040FB7D02369F3
:105A400001228A401343236116F0800FB5D0E36929
:105A5000012202FA01F11943B5E70023184603B009
:105A6000BDE8F08F10B40468A46824688068012938
:105A700011D0003318BF0123C169D14001F00101E9
:105A8000C9B28B420CD0012303FA02F2C4F80825F4
:105A9000002010BC7047C2695340C4F80435F7E7D2
:105AA000012303FA02F2C4F80C25F1E730B40468CC
:105AB000A46824688568D4F81045E8696040012925
:105AC00006D0D04000F001001860002030BC7047C4
:105AD0001860FAE710B484684AB123680B6021604B
